{
  "abi": [
    {
      "inputs": [
        {
          "internalType": "uint256",
          "name": "addendA0",
          "type": "uint256"
        },
        {
          "internalType": "uint256",
          "name": "addendA1",
          "type": "uint256"
        },
        {
          "internalType": "uint256",
          "name": "addendB0",
          "type": "uint256"
        },
        {
          "internalType": "uint256",
          "name": "addendB1",
          "type": "uint256"
        }
      ],
      "name": "AddOverflow",
      "type": "error"
    },
    {
      "inputs": [
        {
          "internalType": "uint256",
          "name": "dividend0",
          "type": "uint256"
        },
        {
          "internalType": "uint256",
          "name": "dividend1",
          "type": "uint256"
        },
        {
          "internalType": "uint256",
          "name": "divisor",
          "type": "uint256"
        }
      ],
      "name": "DivOverflow",
      "type": "error"
    },
    {
      "inputs": [],
      "name": "DivideByZero",
      "type": "error"
    },
    {
      "inputs": [],
      "name": "ModuloByZero",
      "type": "error"
    },
    {
      "inputs": [
        {
          "internalType": "uint256",
          "name": "multiplicand",
          "type": "uint256"
        },
        {
          "internalType": "uint256",
          "name": "multiplier",
          "type": "uint256"
        },
        {
          "internalType": "uint256",
          "name": "divisor",
          "type": "uint256"
        }
      ],
      "name": "MulDivOverflow",
      "type": "error"
    },
    {
      "inputs": [
        {
          "internalType": "uint256",
          "name": "minuend0",
          "type": "uint256"
        },
        {
          "internalType": "uint256",
          "name": "minuend1",
          "type": "uint256"
        },
        {
          "internalType": "uint256",
          "name": "subtrahend0",
          "type": "uint256"
        },
        {
          "internalType": "uint256",
          "name": "subtrahend1",
          "type": "uint256"
        }
      ],
      "name": "SubUnderflow",
      "type": "error"
    },
    {
      "inputs": [
        {
          "internalType": "uint256",
          "name": "addendA0",
          "type": "uint256"
        },
        {
          "internalType": "uint256",
          "name": "addendA1",
          "type": "uint256"
        },
        {
          "internalType": "uint256",
          "name": "addendB0",
          "type": "uint256"
        },
        {
          "internalType": "uint256",
          "name": "addendB1",
          "type": "uint256"
        }
      ],
      "name": "add512",
      "outputs": [
        {
          "internalType": "uint256",
          "name": "sum0",
          "type": "uint256"
        },
        {
          "internalType": "uint256",
          "name": "sum1",
          "type": "uint256"
        }
      ],
      "stateMutability": "pure",
      "type": "function"
    },
    {
      "inputs": [
        {
          "internalType": "uint256",
          "name": "dividend0",
          "type": "uint256"
        },
        {
          "internalType": "uint256",
          "name": "dividend1",
          "type": "uint256"
        },
        {
          "internalType": "uint256",
          "name": "divisor",
          "type": "uint256"
        },
        {
          "internalType": "bool",
          "name": "roundUp",
          "type": "bool"
        }
      ],
      "name": "div512",
      "outputs": [
        {
          "internalType": "uint256",
          "name": "quotient0",
          "type": "uint256"
        },
        {
          "internalType": "uint256",
          "name": "quotient1",
          "type": "uint256"
        }
      ],
      "stateMutability": "pure",
      "type": "function"
    },
    {
      "inputs": [
        {
          "internalType": "uint256",
          "name": "dividend0",
          "type": "uint256"
        },
        {
          "internalType": "uint256",
          "name": "dividend1",
          "type": "uint256"
        },
        {
          "internalType": "uint256",
          "name": "divisor",
          "type": "uint256"
        },
        {
          "internalType": "bool",
          "name": "roundUp",
          "type": "bool"
        }
      ],
      "name": "div512To256",
      "outputs": [
        {
          "internalType": "uint256",
          "name": "quotient",
          "type": "uint256"
        }
      ],
      "stateMutability": "pure",
      "type": "function"
    },
    {
      "inputs": [
        {
          "internalType": "uint256",
          "name": "multiplicand",
          "type": "uint256"
        },
        {
          "internalType": "uint256",
          "name": "multiplier",
          "type": "uint256"
        }
      ],
      "name": "mul512",
      "outputs": [
        {
          "internalType": "uint256",
          "name": "product0",
          "type": "uint256"
        },
        {
          "internalType": "uint256",
          "name": "product1",
          "type": "uint256"
        }
      ],
      "stateMutability": "pure",
      "type": "function"
    },
    {
      "inputs": [
        {
          "internalType": "uint256",
          "name": "multiplicand",
          "type": "uint256"
        },
        {
          "internalType": "uint256",
          "name": "multiplier",
          "type": "uint256"
        },
        {
          "internalType": "uint256",
          "name": "divisor",
          "type": "uint256"
        },
        {
          "internalType": "bool",
          "name": "roundUp",
          "type": "bool"
        }
      ],
      "name": "mulDiv",
      "outputs": [
        {
          "internalType": "uint256",
          "name": "result",
          "type": "uint256"
        }
      ],
      "stateMutability": "pure",
      "type": "function"
    },
    {
      "inputs": [
        {
          "internalType": "uint256",
          "name": "value0",
          "type": "uint256"
        },
        {
          "internalType": "uint256",
          "name": "value1",
          "type": "uint256"
        },
        {
          "internalType": "bool",
          "name": "roundUp",
          "type": "bool"
        }
      ],
      "name": "sqrt512",
      "outputs": [
        {
          "internalType": "uint256",
          "name": "result",
          "type": "uint256"
        }
      ],
      "stateMutability": "pure",
      "type": "function"
    },
    {
      "inputs": [
        {
          "internalType": "uint256",
          "name": "minuend0",
          "type": "uint256"
        },
        {
          "internalType": "uint256",
          "name": "minuend1",
          "type": "uint256"
        },
        {
          "internalType": "uint256",
          "name": "subtrahend0",
          "type": "uint256"
        },
        {
          "internalType": "uint256",
          "name": "subtrahend1",
          "type": "uint256"
        }
      ],
      "name": "sub512",
      "outputs": [
        {
          "internalType": "uint256",
          "name": "difference0",
          "type": "uint256"
        },
        {
          "internalType": "uint256",
          "name": "difference1",
          "type": "uint256"
        }
      ],
      "stateMutability": "pure",
      "type": "function"
    }
  ],
  "bytecode": {
    "object": "0x6108ee61003a600b82828239805160001a60731461002d57634e487b7160e01b600052600060045260246000fd5b30600052607381538281f3fe73000000000000000000000000000000000000000030146080604052600436106100875760003560e01c8063c0ecbc3911610065578063c0ecbc39146100ed578063ef2d748914610100578063f74fbab214610113578063fb9f49171461012657600080fd5b806330d6363f1461008c57806373d0b512146100b9578063bab54e56146100cc575b600080fd5b61009f61009a366004610735565b610139565b604080519283526020830191909152015b60405180910390f35b61009f6100c7366004610767565b610156565b6100df6100da36600461079e565b61016e565b6040519081526020016100b0565b61009f6100fb366004610735565b610187565b6100df61010e3660046107dd565b610196565b61009f61012136600461079e565b6101ad565b6100df61013436600461079e565b6101bc565b600080610148868686866101ca565b915091505b94509492505050565b6000806101638484610226565b915091509250929050565b600061017c85858585610245565b90505b949350505050565b600080610148868686866102cb565b60006101a384848461030e565b90505b9392505050565b6000806101488686868661039c565b600061017c85858585610428565b81840382851082850303848311806101eb575084831480156101eb57508584115b1561014d576040516315b563dd60e31b8152600481018790526024810186905260448101859052606481018490526084015b60405180910390fd5b6000806000198385098385029250828110838203039150509250929050565b600080610253868686610524565b9092509050801561028857604051636aa917ab60e01b815260048101879052602481018690526044810185905260640161021d565b82156102c25760008061029b8487610226565b91509150808711806102ac57508188115b156102bf57836102bb81610828565b9450505b50505b50949350505050565b838201838201858210018085111561014d576040516347b1893f60e01b81526004810187905260248101869052604481018590526064810184905260840161021d565b6000826103265761031f84836105d3565b90506101a6565b60006103358585600019610664565b905060001991505b8181101561035a57809150610353858583610664565b905061033d565b82156103945760008061036d8485610226565b915091508086118061037e57508187115b15610391578361038d81610828565b9450505b50505b509392505050565b6000806103aa868686610524565b9092509050821561014d576000806103c28487610226565b90925090506103d18684610843565b6103db9082610862565b9050808711806103ea57508188115b1561041d5760001984141561040f57600093508261040781610828565b93505061041d565b8361041981610828565b9450505b505094509492505050565b60008060006104378787610226565b9150915080600014156104585761044f8286866106a3565b9250505061017f565b8085116104895760405163362ced0960e11b815260048101889052602481018790526044810186905260640161021d565b600085878909600087810388169788900497600260038a028118808b02820302808b02820302808b02820302808b02820302808b02820302808b02909103029181900381900460010186841190950394850292909503949094041792830293508490508015610507575084806105015761050161087a565b86880915155b1561051a578261051681610828565b9350505b5050949350505050565b6000808361053f57610538858460006106a3565b91506105cb565b600061054a846106de565b905060006105578561070b565b90505b85156105ab5760008061056d8885610226565b9150915061057d868684846102cb565b909650945061058c8884610226565b909250905061059e82828b60006102cb565b909950975061055a915050565b6105c384846105bc8a8960006106a3565b60006102cb565b909450925050505b935093915050565b60006000198314156105f657506fffffffffffffffffffffffffffffffff61065e565b826106035750600061065e565b50816001818101901c5b818110156106355780915060018182868161062a5761062a61087a565b0401901c905061060d565b5081801561064b57506106488184610890565b15155b1561065e578061065a81610828565b9150505b92915050565b6000806106748585856000610245565b905060006106868260008660006102cb565b9092509050610699828260026000610245565b9695505050505050565b60006106af83856108a4565b90508180156106c657506106c38385610890565b15155b156101a657806106d581610828565b95945050505050565b6000816106fe576040516301de42a960e41b815260040160405180910390fd5b5060008190030460010190565b60008161072b576040516319dbad9f60e01b815260040160405180910390fd5b5060008190030690565b6000806000806080858703121561074b57600080fd5b5050823594602084013594506040840135936060013592509050565b6000806040838503121561077a57600080fd5b50508035926020909101359150565b8035801515811461079957600080fd5b919050565b600080600080608085870312156107b457600080fd5b8435935060208501359250604085013591506107d260608601610789565b905092959194509250565b6000806000606084860312156107f257600080fd5b833592506020840135915061080960408501610789565b90509250925092565b634e487b7160e01b600052601160045260246000fd5b600060001982141561083c5761083c610812565b5060010190565b600081600019048311821515161561085d5761085d610812565b500290565b6000821982111561087557610875610812565b500190565b634e487b7160e01b600052601260045260246000fd5b60008261089f5761089f61087a565b500690565b6000826108b3576108b361087a565b50049056fea2646970667358221220b98ddf9a152d39c8bad5469fb73c7c93f66213b3d8ecad0d7f70f5d677a2b22c64736f6c63430008080033",
    "linkReferences": {}
  },
  "methodIdentifiers": {
    "add512(uint256,uint256,uint256,uint256)": "c0ecbc39",
    "div512(uint256,uint256,uint256,bool)": "f74fbab2",
    "div512To256(uint256,uint256,uint256,bool)": "bab54e56",
    "mul512(uint256,uint256)": "73d0b512",
    "mulDiv(uint256,uint256,uint256,bool)": "fb9f4917",
    "sqrt512(uint256,uint256,bool)": "ef2d7489",
    "sub512(uint256,uint256,uint256,uint256)": "30d6363f"
  },
  "id": 31
}