{
  "abi": [
    {
      "inputs": [],
      "name": "ZeroAddress",
      "type": "error"
    },
    {
      "inputs": [],
      "name": "ZeroFactoryAddress",
      "type": "error"
    },
    {
      "inputs": [
        {
          "internalType": "address",
          "name": "optionFactory",
          "type": "address"
        }
      ],
      "name": "checkNotZeroFactory",
      "outputs": [],
      "stateMutability": "pure",
      "type": "function"
    },
    {
      "inputs": [
        {
          "internalType": "address",
          "name": "optionFactory",
          "type": "address"
        },
        {
          "internalType": "address",
          "name": "token0",
          "type": "address"
        },
        {
          "internalType": "address",
          "name": "token1",
          "type": "address"
        }
      ],
      "name": "get",
      "outputs": [
        {
          "internalType": "address",
          "name": "",
          "type": "address"
        }
      ],
      "stateMutability": "view",
      "type": "function"
    },
    {
      "inputs": [
        {
          "internalType": "address",
          "name": "optionFactory",
          "type": "address"
        },
        {
          "internalType": "address",
          "name": "token0",
          "type": "address"
        },
        {
          "internalType": "address",
          "name": "token1",
          "type": "address"
        }
      ],
      "name": "getWithCheck",
      "outputs": [
        {
          "internalType": "address",
          "name": "",
          "type": "address"
        }
      ],
      "stateMutability": "view",
      "type": "function"
    }
  ],
  "bytecode": {
    "object": "0x61028c61003a600b82828239805160001a60731461002d57634e487b7160e01b600052600060045260246000fd5b30600052607381538281f3fe730000000000000000000000000000000000000000301460806040526004361061004b5760003560e01c80632d618a1a146100505780634475de2c1461007f578063e76f097614610094575b600080fd5b61006361005e3660046101d1565b6100a7565b6040516001600160a01b03909116815260200160405180910390f35b61009261008d36600461021c565b6100be565b005b6100636100a23660046101d1565b6100ca565b60006100b48484846100d7565b90505b9392505050565b6100c78161015c565b50565b60006100b4848484610183565b60405163d81e842360e01b81526001600160a01b03838116600483015282811660248301526000919085169063d81e84239060440160206040518083038186803b15801561012457600080fd5b505afa158015610138573d6000803e3d6000fd5b505050506040513d601f19601f820116820180604052508101906100b49190610239565b6001600160a01b0381166100c757604051635acefb8f60e01b815260040160405180910390fd5b60006101908484846100d7565b90506001600160a01b0381166100b7576100b760405163d92e233d60e01b815260040160405180910390fd5b6001600160a01b03811681146100c757600080fd5b6000806000606084860312156101e657600080fd5b83356101f1816101bc565b92506020840135610201816101bc565b91506040840135610211816101bc565b809150509250925092565b60006020828403121561022e57600080fd5b81356100b7816101bc565b60006020828403121561024b57600080fd5b81516100b7816101bc56fea2646970667358221220000ba3b51052173ed181566e15737584e26626294dbdf5a5ca6b7843a089356064736f6c63430008080033",
    "linkReferences": {}
  },
  "methodIdentifiers": {
    "checkNotZeroFactory(address)": "4475de2c",
    "get(address,address,address)": "2d618a1a",
    "getWithCheck(address,address,address)": "e76f0976"
  },
  "id": 59
}