{
  "_format": "hh-sol-artifact-1",
  "contractName": "TimeswapV2OptionFactory",
  "sourceName": "src/TimeswapV2OptionFactory.sol",
  "abi": [
    {
      "inputs": [
        {
          "internalType": "address",
          "name": "token0",
          "type": "address"
        },
        {
          "internalType": "address",
          "name": "token1",
          "type": "address"
        }
      ],
      "name": "InvalidOptionPair",
      "type": "error"
    },
    {
      "inputs": [
        {
          "internalType": "address",
          "name": "token0",
          "type": "address"
        },
        {
          "internalType": "address",
          "name": "token1",
          "type": "address"
        },
        {
          "internalType": "address",
          "name": "optionPair",
          "type": "address"
        }
      ],
      "name": "OptionPairAlreadyExisted",
      "type": "error"
    },
    {
      "inputs": [],
      "name": "ZeroAddress",
      "type": "error"
    },
    {
      "anonymous": false,
      "inputs": [
        {
          "indexed": false,
          "internalType": "address",
          "name": "caller",
          "type": "address"
        },
        {
          "indexed": false,
          "internalType": "address",
          "name": "token0",
          "type": "address"
        },
        {
          "indexed": false,
          "internalType": "address",
          "name": "token1",
          "type": "address"
        },
        {
          "indexed": false,
          "internalType": "address",
          "name": "optionPair",
          "type": "address"
        }
      ],
      "name": "Create",
      "type": "event"
    },
    {
      "inputs": [
        {
          "internalType": "address",
          "name": "token0",
          "type": "address"
        },
        {
          "internalType": "address",
          "name": "token1",
          "type": "address"
        }
      ],
      "name": "create",
      "outputs": [
        {
          "internalType": "address",
          "name": "optionPair",
          "type": "address"
        }
      ],
      "stateMutability": "nonpayable",
      "type": "function"
    },
    {
      "inputs": [
        {
          "internalType": "address",
          "name": "token0",
          "type": "address"
        },
        {
          "internalType": "address",
          "name": "token1",
          "type": "address"
        }
      ],
      "name": "get",
      "outputs": [
        {
          "internalType": "address",
          "name": "optionPair",
          "type": "address"
        }
      ],
      "stateMutability": "view",
      "type": "function"
    },
    {
      "inputs": [
        {
          "internalType": "uint256",
          "name": "",
          "type": "uint256"
        }
      ],
      "name": "getByIndex",
      "outputs": [
        {
          "internalType": "address",
          "name": "",
          "type": "address"
        }
      ],
      "stateMutability": "view",
      "type": "function"
    },
    {
      "inputs": [],
      "name": "numberOfPairs",
      "outputs": [
        {
          "internalType": "uint256",
          "name": "",
          "type": "uint256"
        }
      ],
      "stateMutability": "view",
      "type": "function"
    },
    {
      "inputs": [],
      "name": "parameter",
      "outputs": [
        {
          "internalType": "address",
          "name": "optionFactory",
          "type": "address"
        },
        {
          "internalType": "address",
          "name": "token0",
          "type": "address"
        },
        {
          "internalType": "address",
          "name": "token1",
          "type": "address"
        }
      ],
      "stateMutability": "view",
      "type": "function"
    }
  ],
  "bytecode": "0x608060405234801561001057600080fd5b50613a30806100206000396000f3fe608060405234801561001057600080fd5b50600436106100575760003560e01c80632d883a731461005c5780633e68680a1461008c578063ad4d4e291461009f578063d81e8423146100e9578063fc0d92bd146100fc575b600080fd5b61006f61006a366004610401565b61010d565b6040516001600160a01b0390911681526020015b60405180910390f35b61006f61009a366004610436565b610137565b6000546001546002546100bf926001600160a01b03908116928116911683565b604080516001600160a01b0394851681529284166020840152921691810191909152606001610083565b61006f6100f7366004610436565b610239565b600454604051908152602001610083565b6004818154811061011d57600080fd5b6000918252602090912001546001600160a01b0316905081565b60006001600160a01b03831661014f5761014f610270565b6001600160a01b03821661016557610165610270565b61016f8383610289565b506001600160a01b0380831660009081526003602090815260408083208585168452909152902054166101a38383836102d7565b6101ae30848461031f565b6001600160a01b0384811660008181526003602090815260408083208886168085529083529281902080546001600160a01b03191695871695861790558051338152918201939093529182015260608101919091529091507f68ff1cfcdcf76864161555fc0de1878d8f83ec6949bf351df74d8a4a1a2679ab9060800160405180910390a192915050565b60006102458383610289565b506001600160a01b039182166000908152600360209081526040808320938516835292905220541690565b60405163d92e233d60e01b815260040160405180910390fd5b806001600160a01b0316826001600160a01b0316106102d357604051632ca8eb8360e21b81526001600160a01b038084166004830152821660248201526044015b60405180910390fd5b5050565b6001600160a01b0381161561031a57604051638e487c5360e01b81526001600160a01b0380851660048301528084166024830152821660448201526064016102ca565b505050565b60408051606080820183526001600160a01b038681168084528682166020808601829052928716948601859052600080546001600160a01b03199081169093178155600180548416831790556002805490931686179092558551928301529381019290925201604051602081830303815290604052805190602001206040516103a7906103f4565b8190604051809103906000f59050801580156103c7573d6000803e3d6000fd5b50600080546001600160a01b03199081169091556001805482169055600280549091169055949350505050565b6135918061046a83390190565b60006020828403121561041357600080fd5b5035919050565b80356001600160a01b038116811461043157600080fd5b919050565b6000806040838503121561044957600080fd5b6104528361041a565b91506104606020840161041a565b9050925092905056fe6101006040523480156200001257600080fd5b5030606090811b6080526040805163ad4d4e2960e01b81529051339263ad4d4e299260048082019391829003018186803b1580156200005057600080fd5b505afa15801562000065573d6000803e3d6000fd5b505050506040513d601f19601f820116820180604052508101906200008b9190620000d1565b6001600160601b0319606091821b811660e05291811b821660c0529190911b1660a0526200011b565b80516001600160a01b0381168114620000cc57600080fd5b919050565b600080600060608486031215620000e757600080fd5b620000f284620000b4565b92506200010260208501620000b4565b91506200011260408501620000b4565b90509250925092565b60805160601c60a05160601c60c05160601c60e05160601c6133cf620001c26000396000818161020f015281816103a8015281816109e701528181610cea01528181611137015281816111df01528181611372015261150b01526000818160be0152818161035e0152818161093c01528181610c3f01528181610fd30152818161107b0152818161139801526114e5015260006101d50152600061181301526133cf6000f3fe608060405234801561001057600080fd5b50600436106100b45760003560e01c8063af2f91ea11610071578063af2f91ea14610186578063b084c25214610199578063b2ceca77146101bb578063b3461c87146101d0578063b7fb542d146101f7578063d21220a71461020a57600080fd5b80630dfe1681146100b95780632d883a73146100fd578063622fb68f1461012b5780637087c1f61461014e57806380e066791461016157806387ed3ecf14610174575b600080fd5b6100e07f000000000000000000000000000000000000000000000000000000000000000081565b6040516001600160a01b0390911681526020015b60405180910390f35b61011061010b3660046129c3565b610231565b604080518251815260209283015192810192909252016100f4565b61013e6101393660046129f5565b61028c565b6040516100f49493929190612a81565b61013e61015c366004612ab0565b6105f3565b61013e61016f366004612aea565b610843565b6003545b6040519081526020016100f4565b610178610194366004612b59565b610e6d565b6101ac6101a73660046129f5565b610e9a565b6040516100f493929190612ba1565b6101ce6101c9366004612bc0565b61171a565b005b6100e07f000000000000000000000000000000000000000000000000000000000000000081565b610178610205366004612c10565b6117dc565b6100e07f000000000000000000000000000000000000000000000000000000000000000081565b60408051808201909152600080825260208201526003828154811061025857610258612c49565b9060005260206000209060020201604051806040016040529081600082015481526020016001820154815250509050919050565b6000806000606061029b611808565b8435600090815260026020908152604080832082890135845290915290205460ff166102d0576102d085356020870135611853565b6102e26102dc86612da8565b4261187b565b8435600081815260208181526040808320828a013584529091529020906103259061031360a0890160808a01612e49565b83919060a08a013560c08b0135611931565b9196509450925061033b600186866000806119ef565b8415610385576103856103546060880160408901612e66565b6001600160a01b037f0000000000000000000000000000000000000000000000000000000000000000169087611a9e565b83156103cf576103cf61039e6080880160608901612e66565b6001600160a01b037f0000000000000000000000000000000000000000000000000000000000000000169086611a9e565b6103dc60e0870187612e81565b1590506104e357336001600160a01b0316638c5f08516040518060c001604052808960000135815260200189602001358152602001888152602001878152602001868152602001898060e001906104339190612e81565b8080601f01602080910402602001604051908101604052809392919081815260200183838082843760009201919091525050509152506040516001600160e01b031960e084901b16815261048a9190600401612f15565b600060405180830381600087803b1580156104a457600080fd5b505af11580156104b8573d6000803e3d6000fd5b505050506040513d6000823e601f3d908101601f191682016040526104e09190810190612f28565b91505b33600090815260028201602052604081208054879290610504908490612fab565b90915550503360009081526003820160205260408120805486929061052a908490612fab565b909155505033600090815260048201602052604081208054859290610550908490612fab565b909155507f5e34e67b3e203229e29d54244b2c750f9038bc8d484cbcb7693ab665c35c962c9050863560208801353361058f60608b0160408c01612e66565b61059f60808c0160608d01612e66565b6040805195865260208601949094526001600160a01b0392831685850152908216606085015216608083015260a0820188905260c0820187905260e0820186905251908190036101000190a1509193509193565b60008060006060610602611808565b8435600090815260026020908152604080832082890135845290915290205460ff166106375761063785356020870135611853565b61064961064386612fc2565b42611af5565b8435600081815260208181526040808320828a013584529091529020906106879061067a60a0890160808a01613058565b83919060a08a0135611b98565b9196509450925061069d600186866000806119ef565b84156106b6576106b66103546060880160408901612e66565b83156106cf576106cf61039e6080880160608901612e66565b6106dc60c0870187612e81565b1590506107e357336001600160a01b031663dc6fddcf6040518060c001604052808960000135815260200189602001358152602001888152602001878152602001868152602001898060c001906107339190612e81565b8080601f01602080910402602001604051908101604052809392919081815260200183838082843760009201919091525050509152506040516001600160e01b031960e084901b16815261078a9190600401612f15565b600060405180830381600087803b1580156107a457600080fd5b505af11580156107b8573d6000803e3d6000fd5b505050506040513d6000823e601f3d908101601f191682016040526107e09190810190612f28565b91505b33600090815260048201602052604081208054859290610804908490612fab565b909155507fa9321c5c860b13f184d4b6bc6793bede025ef1a51e4c3527d0733f225df69db69050863560208801353361058f60608b0160408c01612e66565b60008060006060610852611808565b61086461085e86613075565b42611cca565b61087385356020870135611d93565b8435600081815260208181526040808320828a0135845290915290819020916108eb916108a69060608a01908a01612e66565b6108b660808a0160608b01612e66565b6108c660a08b0160808c01612e66565b6108d660c08c0160a08d01612e49565b86949392919060c08d013560e08e0135611e4b565b919650945092506109006001868682806119ef565b60408051608081018252873581526020808901359082015281516370a0823160e01b815230600482015260009282019088906001600160a01b037f000000000000000000000000000000000000000000000000000000000000000016906370a082319060240160206040518083038186803b15801561097e57600080fd5b505afa158015610992573d6000803e3d6000fd5b505050506040513d601f19601f820116820180604052508101906109b6919061312b565b6109c09190613144565b81526040516370a0823160e01b815230600482015260209091019087906001600160a01b037f000000000000000000000000000000000000000000000000000000000000000016906370a082319060240160206040518083038186803b158015610a2957600080fd5b505afa158015610a3d573d6000803e3d6000fd5b505050506040513d601f19601f82011682018060405250810190610a61919061312b565b610a6b9190613144565b9052600180548082018255600091909152815160049091027fb10e2d527612073b26eecdfd717e6a320cf44b4afac2b0732d9fcbe2b7fa0cf681019182556020838101517fb10e2d527612073b26eecdfd717e6a320cf44b4afac2b0732d9fcbe2b7fa0cf78301556040808501517fb10e2d527612073b26eecdfd717e6a320cf44b4afac2b0732d9fcbe2b7fa0cf88401556060948501517fb10e2d527612073b26eecdfd717e6a320cf44b4afac2b0732d9fcbe2b7fa0cf990930192909255815160c0810183528b3581528b820135918101919091529081018990529182018790526080820186905291503390634a358d659060a08101610b716101008c018c612e81565b8080601f01602080910402602001604051908101604052809392919081815260200183838082843760009201919091525050509152506040516001600160e01b031960e084901b168152610bc89190600401612f15565b600060405180830381600087803b158015610be257600080fd5b505af1158015610bf6573d6000803e3d6000fd5b505050506040513d6000823e601f3d908101601f19168201604052610c1e9190810190612f28565b92508515610ccb576040516370a0823160e01b8152306004820152610ccb907f00000000000000000000000000000000000000000000000000000000000000006001600160a01b0316906370a082319060240160206040518083038186803b158015610c8957600080fd5b505afa158015610c9d573d6000803e3d6000fd5b505050506040513d601f19601f82011682018060405250810190610cc1919061312b565b8260020154611fb8565b8415610d76576040516370a0823160e01b8152306004820152610d76907f00000000000000000000000000000000000000000000000000000000000000006001600160a01b0316906370a082319060240160206040518083038186803b158015610d3457600080fd5b505afa158015610d48573d6000803e3d6000fd5b505050506040513d601f19601f82011682018060405250810190610d6c919061312b565b8260030154611fb8565b6001805480610d8757610d8761315c565b6000828152602080822060046000199094019384020182815560018101839055600281018390556003019190915591557f0991839fbc46f2e3816b51c806bee50f76ee23053c1b131a9fbf07fc2d6df8aa9088359089013533610df060608c0160408d01612e66565b610e0060808d0160608e01612e66565b610e1060a08e0160808f01612e66565b6040805196875260208701959095526001600160a01b03938416868601529183166060860152821660808501521660a083015260c0820189905260e08201889052610100820187905251908190036101200190a150509193509193565b6000848152602081815260408083208684529091528120610e8f908484611fe3565b90505b949350505050565b6000806060610ea7611808565b8335600090815260026020908152604080832082880135845290915290205460ff16610edc57610edc84356020860135611853565b610eee610ee88561318b565b42612095565b8335600081815260208181526040808320828901358452909152902090610f4e90610f1f6080880160608901612e66565b610f2f60a0890160808a0161321b565b610f3f60c08a0160a08b01612e49565b859392919060c08b0135612137565b9094509250610f848484610f6860a0890160808a0161321b565b15610f7960a08a0160808b0161321b565b6001939291906119ef565b600060405180608001604052808760000135815260200187602001358152602001876080016020810190610fb8919061321b565b611064576040516370a0823160e01b815230600482015287907f00000000000000000000000000000000000000000000000000000000000000006001600160a01b0316906370a082319060240160206040518083038186803b15801561101d57600080fd5b505afa158015611031573d6000803e3d6000fd5b505050506040513d601f19601f82011682018060405250810190611055919061312b565b61105f9190613144565b611107565b6040516370a0823160e01b815230600482015287907f00000000000000000000000000000000000000000000000000000000000000006001600160a01b0316906370a082319060240160206040518083038186803b1580156110c557600080fd5b505afa1580156110d9573d6000803e3d6000fd5b505050506040513d601f19601f820116820180604052508101906110fd919061312b565b6111079190612fab565b815260200161111c60a0890160808a0161321b565b6111c8576040516370a0823160e01b815230600482015286907f00000000000000000000000000000000000000000000000000000000000000006001600160a01b0316906370a082319060240160206040518083038186803b15801561118157600080fd5b505afa158015611195573d6000803e3d6000fd5b505050506040513d601f19601f820116820180604052508101906111b9919061312b565b6111c39190612fab565b61126b565b6040516370a0823160e01b815230600482015286907f00000000000000000000000000000000000000000000000000000000000000006001600160a01b0316906370a082319060240160206040518083038186803b15801561122957600080fd5b505afa15801561123d573d6000803e3d6000fd5b505050506040513d601f19601f82011682018060405250810190611261919061312b565b61126b9190613144565b9052600180548082018255600091909152815160049091027fb10e2d527612073b26eecdfd717e6a320cf44b4afac2b0732d9fcbe2b7fa0cf6810191825560208301517fb10e2d527612073b26eecdfd717e6a320cf44b4afac2b0732d9fcbe2b7fa0cf78201556040808401517fb10e2d527612073b26eecdfd717e6a320cf44b4afac2b0732d9fcbe2b7fa0cf88301556060938401517fb10e2d527612073b26eecdfd717e6a320cf44b4afac2b0732d9fcbe2b7fa0cf9909201919091559092506113c89161134091908901908901612e66565b61135060a0890160808a0161321b565b61135a578561135c565b865b61136c60a08a0160808b0161321b565b611396577f00000000000000000000000000000000000000000000000000000000000000006113b8565b7f00000000000000000000000000000000000000000000000000000000000000005b6001600160a01b03169190611a9e565b6040805160c0810182528735815260208089013590820152339163dc4a4847919081016113fb60a08b0160808c0161321b565b15158152602081018990526040810188905260600161141d60e08b018b612e81565b8080601f01602080910402602001604051908101604052809392919081815260200183838082843760009201919091525050509152506040516001600160e01b031960e084901b1681526114749190600401613238565b600060405180830381600087803b15801561148e57600080fd5b505af11580156114a2573d6000803e3d6000fd5b505050506040513d6000823e601f3d908101601f191682016040526114ca9190810190612f28565b92506115c26114df60a088016080890161321b565b611509577f000000000000000000000000000000000000000000000000000000000000000061152b565b7f00000000000000000000000000000000000000000000000000000000000000005b6040516370a0823160e01b81523060048201526001600160a01b0391909116906370a082319060240160206040518083038186803b15801561156c57600080fd5b505afa158015611580573d6000803e3d6000fd5b505050506040513d601f19601f820116820180604052508101906115a4919061312b565b6115b460a0890160808a0161321b565b610d6c578260020154611fb8565b6115d260a087016080880161321b565b1561160357336000908152600283016020526040812080548792906115f8908490612fab565b9091555061162a9050565b33600090815260038301602052604081208054869290611624908490612fab565b90915550505b600180548061163b5761163b61315c565b6000828152602080822060046000199094019384020182815560018101839055600281018390556003019190915591557e92a054e9363f3efd42f73f1da82239b3dc6edafea865e59f1cffa4dd7dc22690873590880135336116a360608b0160408c01612e66565b6116b360808c0160608d01612e66565b6116c360a08d0160808e0161321b565b6040805196875260208701959095526001600160a01b039384168686015291831660608601529091166080840152151560a083015260c0820188905260e0820187905251908190036101000190a150509193909250565b600085815260026020908152604080832087845290915290205460ff16611745576117458585611853565b6001600160a01b03831661175b5761175b612273565b806117685761176861228c565b611771826122a5565b6000858152602081815260408083208784529091529020611794908484846122da565b7f70faa8e36be9e16810b2a40b964c4b9ae20a221c53bc3fd03fc843110d336dbb8585338686866040516117cd9695949392919061329d565b60405180910390a15050505050565b60008381526020818152604080832085845290915281206117fe90858461242f565b90505b9392505050565b306001600160a01b037f0000000000000000000000000000000000000000000000000000000000000000161461185157604051634118e0bb60e11b815260040160405180910390fd5b565b60405163e407078d60e01b815260048101839052602481018290526044015b60405180910390fd5b81516118895761188961228c565b60208201516001600160601b0310156118a9576118a982602001516124a6565b806001600160601b03168260200151116118cb576118cb8260200151826124c2565b60408201516001600160a01b03166118e5576118e5612273565b60608201516001600160a01b03166118ff576118ff612273565b61190c82608001516124ed565b60a0820151158015611920575060c0820151155b1561192d5761192d61228c565b5050565b600080808086600181111561194857611948613287565b141561196857611961859350838593508389600161251f565b90506119ae565b600186600181111561197c5761197c613287565b14156119ae5761198c8486613144565b905061199b8588600080612562565b92506119ab848860016000612562565b91505b828860000160008282546119c29190612fab565b92505081905550818860010160008282546119dd9190612fab565b92505081905550955095509592505050565b60005b8554811015611a96576000868281548110611a0f57611a0f612c49565b9060005260206000209060040201905085600014611a575783611a4157858160020154611a3c9190612fab565b611a51565b858160020154611a519190613144565b60028201555b8415611a8d5782611a7757848160030154611a729190612fab565b611a87565b848160030154611a879190613144565b60038201555b506001016119f2565b505050505050565b604080516001600160a01b038416602482015260448082018490528251808303909101815260649091019091526020810180516001600160e01b031663a9059cbb60e01b179052611af09084906125a2565b505050565b8151611b0357611b0361228c565b60208201516001600160601b031015611b2357611b2382602001516124a6565b806001600160601b031682602001511115611b4657611b46826020015182612674565b60408201516001600160a01b0316611b6057611b60612273565b60608201516001600160a01b0316611b7a57611b7a612273565b611b87826080015161269f565b60a082015161192d5761192d61228c565b600080600080611bb38860000154896001015489600161251f565b90506000866002811115611bc957611bc9613287565b1415611bff578754859250611be29083908360006126b3565b6001890154909450611bf89083908360006126b3565b9250611c89565b6001866002811115611c1357611c13613287565b1415611c43578754859450611c2d908590839060016126b3565b6001890154909250611bf89083908360006126b3565b6002866002811115611c5757611c57613287565b1415611c8957600180890154869450611c7391859184916126b3565b8854909250611c869083908360006126b3565b93505b83886000016000828254611c9d9190612fab565b9250508190555082886001016000828254611cb89190612fab565b92505081905550509450945094915050565b8151611cd857611cd861228c565b60208201516001600160601b031015611cf857611cf882602001516124a6565b806001600160601b0316826020015111611d1a57611d1a8260200151826124c2565b60808201516001600160a01b0316611d3457611d34612273565b60408201516001600160a01b0316611d4e57611d4e612273565b60608201516001600160a01b0316611d6857611d68612273565b611d758260a001516124ed565b60c0820151158015611920575060e082015161192d5761192d61228c565b600082815260026020908152604080832084845290915290205460ff1661192d5760008281526002602081815260408084208585528252808420805460ff191660019081179091558151808301909252958152908101938452600380549586018155909252905192027fc2575a0e9e593c00f959f8c92f12db2869c3395a3b0502d05e2516446f71f85b810192909255517fc2575a0e9e593c00f959f8c92f12db2869c3395a3b0502d05e2516446f71f85c90910155565b6000808080866001811115611e6257611e62613287565b1415611e8257611e7b85935083859350838c600061251f565b9050611ec8565b6001866001811115611e9657611e96613287565b1415611ec857611ea68486613144565b9050611eb6858b60006001612562565b9250611ec5848b600180612562565b91505b8215611f1757828b6000016000828254611ee29190613144565b90915550506001600160a01b038916600090815260028c01602052604081208054859290611f11908490613144565b90915550505b8115611f6657818b6001016000828254611f319190613144565b90915550506001600160a01b038816600090815260038c01602052604081208054849290611f60908490613144565b90915550505b6001600160a01b038716600090815260048c01602052604081208054839290611f90908490613144565b90915550508a546001808d0154611fa992918d9061251f565b50985098509895505050505050565b8082101561192d57604051631c22ff0160e21b81526004810183905260248101829052604401611872565b600080826002811115611ff857611ff8613287565b141561201f57506001600160a01b0382166000908152600284016020526040902054611801565b600182600281111561203357612033613287565b141561205a57506001600160a01b0382166000908152600384016020526040902054611801565b600282600281111561206e5761206e613287565b14156118015750506001600160a01b03166000908152600491909101602052604090205490565b81516120a3576120a361228c565b60208201516001600160601b0310156120c3576120c382602001516124a6565b806001600160601b03168260200151116120e5576120e58260200151826124c2565b60408201516001600160a01b03166120ff576120ff612273565b60608201516001600160a01b031661211957612119612273565b6121268260a001516124ed565b60c082015161192d5761192d61228c565b6000808084600181111561214d5761214d613287565b141561216a5782915061216382886001886126c1565b9050612197565b600184600181111561217e5761217e613287565b14156121975750816121948188600088156126c1565b91505b841561220657818860000160008282546121b19190612fab565b92505081905550808860010160008282546121cc9190613144565b90915550506001600160a01b0386166000908152600389016020526040812080548392906121fb908490613144565b909155506122689050565b8088600101600082825461221a9190612fab565b9091555050875482908990600090612233908490613144565b90915550506001600160a01b038616600090815260028901602052604081208054849290612262908490613144565b90915550505b965096945050505050565b60405163d92e233d60e01b815260040160405180910390fd5b60405163af458c0760e01b815260040160405180910390fd5b60038160028111156122b9576122b9613287565b106122d75760405163673f032f60e11b815260040160405180910390fd5b50565b60008260028111156122ee576122ee613287565b141561234f5733600090815260028501602052604081208054839290612315908490612fab565b90915550506001600160a01b038316600090815260028501602052604081208054839290612344908490613144565b909155506124299050565b600182600281111561236357612363613287565b14156123b9576001600160a01b038316600090815260038501602052604081208054839290612393908490613144565b909155505033600090815260038501602052604081208054839290612344908490612fab565b60028260028111156123cd576123cd613287565b141561242957336000908152600485016020526040812080548392906123f4908490612fab565b90915550506001600160a01b038316600090815260048501602052604081208054839290612423908490613144565b90915550505b50505050565b60008082600281111561244457612444613287565b141561245257508254611801565b600182600281111561246657612466613287565b141561247757506001830154611801565b600282600281111561248b5761248b613287565b1415611801576117fe8460000154856001015485600161251f565b6040516335f135d360e01b815260048101829052602401611872565b60405163647284e960e11b8152600481018390526001600160601b0382166024820152604401611872565b600281600181111561250157612501613287565b106122d75760405163280503e760e11b815260040160405180910390fd5b60006001600160801b03831161254b5761253c85846001856126c1565b6125469085613144565b610e8f565b61255884846000856126c1565b610e8f9086613144565b60006001600160801b03841161258a57826125845761254685856000856126c1565b84610e8f565b826125955784610e8f565b610e8f85856001856126c1565b60006125f7826040518060400160405280602081526020017f5361666545524332303a206c6f772d6c6576656c2063616c6c206661696c6564815250856001600160a01b03166126e89092919063ffffffff16565b805190915015611af0578080602001905181019061261591906132f4565b611af05760405162461bcd60e51b815260206004820152602a60248201527f5361666545524332303a204552433230206f7065726174696f6e20646964206e6044820152691bdd081cdd58d8d9595960b21b6064820152608401611872565b60405163b9e0f8d560e01b8152600481018390526001600160601b0382166024820152604401611872565b600381600281111561250157612501613287565b6000610e8f858585856126f7565b6000826126d85761254685600160801b86856126f7565b610e8f8585600160801b856126f7565b60606117fe84846000856127f3565b600080600061270687876128ce565b9150915080600014156127275761271e8286866128ed565b92505050610e92565b8085116127585760405163362ced0960e11b8152600481018890526024810187905260448101869052606401611872565b600085878909600087810388169788900497600260038a028118808b02820302808b02820302808b02820302808b02820302808b02820302808b029091030291819003819004600101868411909503948502929095039490940417928302935084905080156127d6575084806127d0576127d0613311565b86880915155b156127e957826127e581613327565b9350505b5050949350505050565b6060824710156128545760405162461bcd60e51b815260206004820152602660248201527f416464726573733a20696e73756666696369656e742062616c616e636520666f6044820152651c8818d85b1b60d21b6064820152608401611872565b600080866001600160a01b031685876040516128709190613342565b60006040518083038185875af1925050503d80600081146128ad576040519150601f19603f3d011682016040523d82523d6000602084013e6128b2565b606091505b50915091506128c387838387612928565b979650505050505050565b6000806000198385098385029250828110838203039150509250929050565b60006128f9838561335e565b9050818015612910575061290d8385613372565b15155b15611801578061291f81613327565b95945050505050565b6060831561299457825161298d576001600160a01b0385163b61298d5760405162461bcd60e51b815260206004820152601d60248201527f416464726573733a2063616c6c20746f206e6f6e2d636f6e74726163740000006044820152606401611872565b5081610e92565b610e9283838151156129a95781518083602001fd5b8060405162461bcd60e51b81526004016118729190613386565b6000602082840312156129d557600080fd5b5035919050565b600061010082840312156129ef57600080fd5b50919050565b600060208284031215612a0757600080fd5b81356001600160401b03811115612a1d57600080fd5b610e92848285016129dc565b60005b83811015612a44578181015183820152602001612a2c565b838111156124295750506000910152565b60008151808452612a6d816020860160208601612a29565b601f01601f19169290920160200192915050565b848152836020820152826040820152608060608201526000612aa66080830184612a55565b9695505050505050565b600060208284031215612ac257600080fd5b81356001600160401b03811115612ad857600080fd5b820160e0818503121561180157600080fd5b600060208284031215612afc57600080fd5b81356001600160401b03811115612b1257600080fd5b8201610120818503121561180157600080fd5b80356001600160a01b0381168114612b3c57600080fd5b919050565b600381106122d757600080fd5b8035612b3c81612b41565b60008060008060808587031215612b6f57600080fd5b8435935060208501359250612b8660408601612b25565b91506060850135612b9681612b41565b939692955090935050565b838152826020820152606060408201526000610e8f6060830184612a55565b600080600080600060a08688031215612bd857600080fd5b8535945060208601359350612bef60408701612b25565b92506060860135612bff81612b41565b949793965091946080013592915050565b600080600060608486031215612c2557600080fd5b83359250602084013591506040840135612c3e81612b41565b809150509250925092565b634e487b7160e01b600052603260045260246000fd5b634e487b7160e01b600052604160045260246000fd5b60405161010081016001600160401b0381118282101715612c9857612c98612c5f565b60405290565b60405160e081016001600160401b0381118282101715612c9857612c98612c5f565b60405161012081016001600160401b0381118282101715612c9857612c98612c5f565b604051601f8201601f191681016001600160401b0381118282101715612d0b57612d0b612c5f565b604052919050565b600281106122d757600080fd5b8035612b3c81612d13565b60006001600160401b03821115612d4457612d44612c5f565b50601f01601f191660200190565b600082601f830112612d6357600080fd5b8135612d76612d7182612d2b565b612ce3565b818152846020838601011115612d8b57600080fd5b816020850160208301376000918101602001919091529392505050565b60006101008236031215612dbb57600080fd5b612dc3612c75565b8235815260208301356020820152612ddd60408401612b25565b6040820152612dee60608401612b25565b6060820152612dff60808401612d20565b608082015260a083013560a082015260c083013560c082015260e08301356001600160401b03811115612e3157600080fd5b612e3d36828601612d52565b60e08301525092915050565b600060208284031215612e5b57600080fd5b813561180181612d13565b600060208284031215612e7857600080fd5b61180182612b25565b6000808335601e19843603018112612e9857600080fd5b8301803591506001600160401b03821115612eb257600080fd5b602001915036819003821315612ec757600080fd5b9250929050565b8051825260208101516020830152604081015160408301526060810151606083015260808101516080830152600060a082015160c060a0850152610e9260c0850182612a55565b6020815260006118016020830184612ece565b600060208284031215612f3a57600080fd5b81516001600160401b03811115612f5057600080fd5b8201601f81018413612f6157600080fd5b8051612f6f612d7182612d2b565b818152856020838501011115612f8457600080fd5b61291f826020830160208601612a29565b634e487b7160e01b600052601160045260246000fd5b600082821015612fbd57612fbd612f95565b500390565b600060e08236031215612fd457600080fd5b612fdc612c9e565b8235815260208301356020820152612ff660408401612b25565b604082015261300760608401612b25565b606082015261301860808401612b4e565b608082015260a083013560a082015260c08301356001600160401b0381111561304057600080fd5b61304c36828601612d52565b60c08301525092915050565b60006020828403121561306a57600080fd5b813561180181612b41565b6000610120823603121561308857600080fd5b613090612cc0565b82358152602083013560208201526130aa60408401612b25565b60408201526130bb60608401612b25565b60608201526130cc60808401612b25565b60808201526130dd60a08401612d20565b60a082015260c083013560c082015260e083013560e0820152610100808401356001600160401b0381111561311157600080fd5b61311d36828701612d52565b918301919091525092915050565b60006020828403121561313d57600080fd5b5051919050565b6000821982111561315757613157612f95565b500190565b634e487b7160e01b600052603160045260246000fd5b80151581146122d757600080fd5b8035612b3c81613172565b6000610100823603121561319e57600080fd5b6131a6612c75565b82358152602083013560208201526131c060408401612b25565b60408201526131d160608401612b25565b60608201526131e260808401613180565b60808201526131f360a08401612d20565b60a082015260c083013560c082015260e08301356001600160401b03811115612e3157600080fd5b60006020828403121561322d57600080fd5b813561180181613172565b60208152815160208201526020820151604082015260408201511515606082015260608201516080820152608082015160a0820152600060a083015160c080840152610e9260e0840182612a55565b634e487b7160e01b600052602160045260246000fd5b868152602081018690526001600160a01b0385811660408301528416606082015260c08101600384106132e057634e487b7160e01b600052602160045260246000fd5b608082019390935260a00152949350505050565b60006020828403121561330657600080fd5b815161180181613172565b634e487b7160e01b600052601260045260246000fd5b600060001982141561333b5761333b612f95565b5060010190565b60008251613354818460208701612a29565b9190910192915050565b60008261336d5761336d613311565b500490565b60008261338157613381613311565b500690565b6020815260006118016020830184612a5556fea2646970667358221220cd7e9a3d57a2dafb028096e704fd85f0c49cf54a5150882d51ef879bb00db8fd64736f6c63430008080033a2646970667358221220fa66a0bed9dbe3881ca9bd5b13d39ce4fd1b85ea7162b2fdf6b4c6545796559764736f6c63430008080033",
  "linkReferences": {},
  "deployedLinkReferences": {}
}