{
  "abi": [
    {
      "inputs": [],
      "name": "parameter",
      "outputs": [
        {
          "internalType": "address",
          "name": "poolFactory",
          "type": "address"
        },
        {
          "internalType": "address",
          "name": "optionPair",
          "type": "address"
        },
        {
          "internalType": "uint256",
          "name": "transactionFee",
          "type": "uint256"
        },
        {
          "internalType": "uint256",
          "name": "protocolFee",
          "type": "uint256"
        }
      ],
      "stateMutability": "view",
      "type": "function"
    }
  ],
  "bytecode": {
    "object": "0x6080604052348015600f57600080fd5b5060b38061001e6000396000f3fe6080604052348015600f57600080fd5b506004361060285760003560e01c8063ad4d4e2914602d575b600080fd5b600054600154600254600354604e936001600160a01b039081169316919084565b604080516001600160a01b03958616815294909316602085015291830152606082015260800160405180910390f3fea2646970667358221220bcdef61c7dad475aa971f90e325bd73ef63a75592f9de3682c26e2d27e21948a64736f6c63430008080033",
    "linkReferences": {}
  },
  "methodIdentifiers": {
    "parameter()": "ad4d4e29"
  },
  "id": 76
}