{
  "abi": [
    {
      "inputs": [
        {
          "internalType": "address",
          "name": "chosenOwner",
          "type": "address"
        }
      ],
      "stateMutability": "nonpayable",
      "type": "constructor"
    },
    {
      "inputs": [
        {
          "internalType": "address",
          "name": "owner",
          "type": "address"
        }
      ],
      "name": "AlreadyTheOwner",
      "type": "error"
    },
    {
      "inputs": [
        {
          "internalType": "address",
          "name": "caller",
          "type": "address"
        },
        {
          "internalType": "address",
          "name": "owner",
          "type": "address"
        }
      ],
      "name": "NotTheOwner",
      "type": "error"
    },
    {
      "inputs": [
        {
          "internalType": "address",
          "name": "caller",
          "type": "address"
        },
        {
          "internalType": "address",
          "name": "pendingOwner",
          "type": "address"
        }
      ],
      "name": "NotThePendingOwner",
      "type": "error"
    },
    {
      "inputs": [],
      "name": "ZeroAddress",
      "type": "error"
    },
    {
      "anonymous": false,
      "inputs": [
        {
          "indexed": false,
          "internalType": "address",
          "name": "owner",
          "type": "address"
        }
      ],
      "name": "AcceptOwner",
      "type": "event"
    },
    {
      "anonymous": false,
      "inputs": [
        {
          "indexed": false,
          "internalType": "address",
          "name": "pendingOwner",
          "type": "address"
        }
      ],
      "name": "SetOwner",
      "type": "event"
    },
    {
      "inputs": [],
      "name": "acceptOwner",
      "outputs": [],
      "stateMutability": "nonpayable",
      "type": "function"
    },
    {
      "inputs": [],
      "name": "owner",
      "outputs": [
        {
          "internalType": "address",
          "name": "",
          "type": "address"
        }
      ],
      "stateMutability": "view",
      "type": "function"
    },
    {
      "inputs": [],
      "name": "pendingOwner",
      "outputs": [
        {
          "internalType": "address",
          "name": "",
          "type": "address"
        }
      ],
      "stateMutability": "view",
      "type": "function"
    },
    {
      "inputs": [
        {
          "internalType": "address",
          "name": "chosenPendingOwner",
          "type": "address"
        }
      ],
      "name": "setPendingOwner",
      "outputs": [],
      "stateMutability": "nonpayable",
      "type": "function"
    }
  ],
  "bytecode": {
    "object": "0x608060405234801561001057600080fd5b5060405161038e38038061038e83398101604081905261002f91610054565b600080546001600160a01b0319166001600160a01b0392909216919091179055610084565b60006020828403121561006657600080fd5b81516001600160a01b038116811461007d57600080fd5b9392505050565b6102fb806100936000396000f3fe608060405234801561001057600080fd5b506004361061004c5760003560e01c80638da5cb5b14610051578063c42069ec14610080578063e30c397814610095578063ebbc4965146100a8575b600080fd5b600054610064906001600160a01b031681565b6040516001600160a01b03909116815260200160405180910390f35b61009361008e366004610295565b6100b0565b005b600154610064906001600160a01b031681565b610093610148565b6000546100c5906001600160a01b03166101b3565b6001600160a01b0381166100db576100db6101f5565b6000546100f4906001600160a01b03838116911661020e565b600180546001600160a01b0319166001600160a01b0383169081179091556040519081527f167d3e9c1016ab80e58802ca9da10ce5c6a0f4debc46a2e7a2cd9e56899a4fb59060200160405180910390a150565b60015461015f9033906001600160a01b0316610250565b60008054336001600160a01b031991821681179092556001805490911690556040519081527f31775a018194f26a792a0203e972faf15303e08a913cdc54497278e48de669099060200160405180910390a1565b336001600160a01b038216146101f257604051631bf9565d60e21b81523360048201526001600160a01b03821660248201526044015b60405180910390fd5b50565b60405163d92e233d60e01b815260040160405180910390fd5b806001600160a01b0316826001600160a01b0316141561024c57604051632de305cb60e11b81526001600160a01b03821660048201526024016101e9565b5050565b806001600160a01b0316826001600160a01b03161461024c5760405163f93f289d60e01b81526001600160a01b038084166004830152821660248201526044016101e9565b6000602082840312156102a757600080fd5b81356001600160a01b03811681146102be57600080fd5b939250505056fea2646970667358221220ac888a40ac6d71f9d23759311f43507ea9271347d8d6bc912de22f029ea5331164736f6c63430008080033",
    "linkReferences": {}
  },
  "methodIdentifiers": {
    "acceptOwner()": "ebbc4965",
    "owner()": "8da5cb5b",
    "pendingOwner()": "e30c3978",
    "setPendingOwner(address)": "c42069ec"
  },
  "id": 78
}