{
  "abi": [
    {
      "inputs": [],
      "stateMutability": "nonpayable",
      "type": "constructor"
    },
    {
      "inputs": [
        {
          "internalType": "uint256",
          "name": "maturity",
          "type": "uint256"
        },
        {
          "internalType": "uint96",
          "name": "blockTimestamp",
          "type": "uint96"
        }
      ],
      "name": "AlreadyMatured",
      "type": "error"
    },
    {
      "inputs": [],
      "name": "CannotBeDelegateCalled",
      "type": "error"
    },
    {
      "inputs": [
        {
          "internalType": "uint256",
          "name": "strike",
          "type": "uint256"
        },
        {
          "internalType": "uint256",
          "name": "maturity",
          "type": "uint256"
        }
      ],
      "name": "InactiveOption",
      "type": "error"
    },
    {
      "inputs": [
        {
          "internalType": "uint256",
          "name": "maturity",
          "type": "uint256"
        }
      ],
      "name": "IncorrectMaturity",
      "type": "error"
    },
    {
      "inputs": [],
      "name": "InvalidPosition",
      "type": "error"
    },
    {
      "inputs": [],
      "name": "InvalidTransaction",
      "type": "error"
    },
    {
      "inputs": [
        {
          "internalType": "uint256",
          "name": "multiplicand",
          "type": "uint256"
        },
        {
          "internalType": "uint256",
          "name": "multiplier",
          "type": "uint256"
        },
        {
          "internalType": "uint256",
          "name": "divisor",
          "type": "uint256"
        }
      ],
      "name": "MulDivOverflow",
      "type": "error"
    },
    {
      "inputs": [
        {
          "internalType": "uint256",
          "name": "minuend",
          "type": "uint256"
        },
        {
          "internalType": "uint256",
          "name": "subtrahend",
          "type": "uint256"
        }
      ],
      "name": "NotEnoughReceived",
      "type": "error"
    },
    {
      "inputs": [
        {
          "internalType": "uint256",
          "name": "maturity",
          "type": "uint256"
        },
        {
          "internalType": "uint96",
          "name": "blockTimestamp",
          "type": "uint96"
        }
      ],
      "name": "StillActive",
      "type": "error"
    },
    {
      "inputs": [],
      "name": "ZeroAddress",
      "type": "error"
    },
    {
      "inputs": [],
      "name": "ZeroInput",
      "type": "error"
    },
    {
      "anonymous": false,
      "inputs": [
        {
          "indexed": true,
          "internalType": "uint256",
          "name": "strike",
          "type": "uint256"
        },
        {
          "indexed": true,
          "internalType": "uint256",
          "name": "maturity",
          "type": "uint256"
        },
        {
          "indexed": true,
          "internalType": "address",
          "name": "caller",
          "type": "address"
        },
        {
          "indexed": false,
          "internalType": "address",
          "name": "token0To",
          "type": "address"
        },
        {
          "indexed": false,
          "internalType": "address",
          "name": "token1To",
          "type": "address"
        },
        {
          "indexed": false,
          "internalType": "uint256",
          "name": "token0AndLong0Amount",
          "type": "uint256"
        },
        {
          "indexed": false,
          "internalType": "uint256",
          "name": "token1AndLong1Amount",
          "type": "uint256"
        },
        {
          "indexed": false,
          "internalType": "uint256",
          "name": "shortAmount",
          "type": "uint256"
        }
      ],
      "name": "Burn",
      "type": "event"
    },
    {
      "anonymous": false,
      "inputs": [
        {
          "indexed": true,
          "internalType": "uint256",
          "name": "strike",
          "type": "uint256"
        },
        {
          "indexed": true,
          "internalType": "uint256",
          "name": "maturity",
          "type": "uint256"
        },
        {
          "indexed": true,
          "internalType": "address",
          "name": "caller",
          "type": "address"
        },
        {
          "indexed": false,
          "internalType": "address",
          "name": "token0To",
          "type": "address"
        },
        {
          "indexed": false,
          "internalType": "address",
          "name": "token1To",
          "type": "address"
        },
        {
          "indexed": false,
          "internalType": "uint256",
          "name": "long0AndToken0Amount",
          "type": "uint256"
        },
        {
          "indexed": false,
          "internalType": "uint256",
          "name": "long1Amount",
          "type": "uint256"
        },
        {
          "indexed": false,
          "internalType": "uint256",
          "name": "token1Amount",
          "type": "uint256"
        }
      ],
      "name": "Collect",
      "type": "event"
    },
    {
      "anonymous": false,
      "inputs": [
        {
          "indexed": true,
          "internalType": "uint256",
          "name": "strike",
          "type": "uint256"
        },
        {
          "indexed": true,
          "internalType": "uint256",
          "name": "maturity",
          "type": "uint256"
        },
        {
          "indexed": true,
          "internalType": "address",
          "name": "caller",
          "type": "address"
        },
        {
          "indexed": false,
          "internalType": "address",
          "name": "long0To",
          "type": "address"
        },
        {
          "indexed": false,
          "internalType": "address",
          "name": "long1To",
          "type": "address"
        },
        {
          "indexed": false,
          "internalType": "address",
          "name": "shortTo",
          "type": "address"
        },
        {
          "indexed": false,
          "internalType": "uint256",
          "name": "token0AndLong0Amount",
          "type": "uint256"
        },
        {
          "indexed": false,
          "internalType": "uint256",
          "name": "token1AndLong1Amount",
          "type": "uint256"
        },
        {
          "indexed": false,
          "internalType": "uint256",
          "name": "shortAmount",
          "type": "uint256"
        }
      ],
      "name": "Mint",
      "type": "event"
    },
    {
      "anonymous": false,
      "inputs": [
        {
          "indexed": true,
          "internalType": "uint256",
          "name": "strike",
          "type": "uint256"
        },
        {
          "indexed": true,
          "internalType": "uint256",
          "name": "maturity",
          "type": "uint256"
        },
        {
          "indexed": true,
          "internalType": "address",
          "name": "caller",
          "type": "address"
        },
        {
          "indexed": false,
          "internalType": "address",
          "name": "tokenTo",
          "type": "address"
        },
        {
          "indexed": false,
          "internalType": "address",
          "name": "longTo",
          "type": "address"
        },
        {
          "indexed": false,
          "internalType": "bool",
          "name": "isLong0toLong1",
          "type": "bool"
        },
        {
          "indexed": false,
          "internalType": "uint256",
          "name": "token0AndLong0Amount",
          "type": "uint256"
        },
        {
          "indexed": false,
          "internalType": "uint256",
          "name": "token1AndLong1Amount",
          "type": "uint256"
        }
      ],
      "name": "Swap",
      "type": "event"
    },
    {
      "anonymous": false,
      "inputs": [
        {
          "indexed": true,
          "internalType": "uint256",
          "name": "strike",
          "type": "uint256"
        },
        {
          "indexed": true,
          "internalType": "uint256",
          "name": "maturity",
          "type": "uint256"
        },
        {
          "indexed": true,
          "internalType": "address",
          "name": "from",
          "type": "address"
        },
        {
          "indexed": false,
          "internalType": "address",
          "name": "to",
          "type": "address"
        },
        {
          "indexed": false,
          "internalType": "enum TimeswapV2OptionPosition",
          "name": "position",
          "type": "uint8"
        },
        {
          "indexed": false,
          "internalType": "uint256",
          "name": "amount",
          "type": "uint256"
        }
      ],
      "name": "TransferPosition",
      "type": "event"
    },
    {
      "inputs": [
        {
          "components": [
            {
              "internalType": "uint256",
              "name": "strike",
              "type": "uint256"
            },
            {
              "internalType": "uint256",
              "name": "maturity",
              "type": "uint256"
            },
            {
              "internalType": "address",
              "name": "token0To",
              "type": "address"
            },
            {
              "internalType": "address",
              "name": "token1To",
              "type": "address"
            },
            {
              "internalType": "enum TimeswapV2OptionBurn",
              "name": "transaction",
              "type": "uint8"
            },
            {
              "internalType": "uint256",
              "name": "amount0",
              "type": "uint256"
            },
            {
              "internalType": "uint256",
              "name": "amount1",
              "type": "uint256"
            },
            {
              "internalType": "bytes",
              "name": "data",
              "type": "bytes"
            }
          ],
          "internalType": "struct TimeswapV2OptionBurnParam",
          "name": "param",
          "type": "tuple"
        }
      ],
      "name": "burn",
      "outputs": [
        {
          "internalType": "uint256",
          "name": "token0AndLong0Amount",
          "type": "uint256"
        },
        {
          "internalType": "uint256",
          "name": "token1AndLong1Amount",
          "type": "uint256"
        },
        {
          "internalType": "uint256",
          "name": "shortAmount",
          "type": "uint256"
        },
        {
          "internalType": "bytes",
          "name": "data",
          "type": "bytes"
        }
      ],
      "stateMutability": "nonpayable",
      "type": "function"
    },
    {
      "inputs": [
        {
          "components": [
            {
              "internalType": "uint256",
              "name": "strike",
              "type": "uint256"
            },
            {
              "internalType": "uint256",
              "name": "maturity",
              "type": "uint256"
            },
            {
              "internalType": "address",
              "name": "token0To",
              "type": "address"
            },
            {
              "internalType": "address",
              "name": "token1To",
              "type": "address"
            },
            {
              "internalType": "enum TimeswapV2OptionCollect",
              "name": "transaction",
              "type": "uint8"
            },
            {
              "internalType": "uint256",
              "name": "amount",
              "type": "uint256"
            },
            {
              "internalType": "bytes",
              "name": "data",
              "type": "bytes"
            }
          ],
          "internalType": "struct TimeswapV2OptionCollectParam",
          "name": "param",
          "type": "tuple"
        }
      ],
      "name": "collect",
      "outputs": [
        {
          "internalType": "uint256",
          "name": "token0Amount",
          "type": "uint256"
        },
        {
          "internalType": "uint256",
          "name": "token1Amount",
          "type": "uint256"
        },
        {
          "internalType": "uint256",
          "name": "shortAmount",
          "type": "uint256"
        },
        {
          "internalType": "bytes",
          "name": "data",
          "type": "bytes"
        }
      ],
      "stateMutability": "nonpayable",
      "type": "function"
    },
    {
      "inputs": [
        {
          "internalType": "uint256",
          "name": "id",
          "type": "uint256"
        }
      ],
      "name": "getByIndex",
      "outputs": [
        {
          "components": [
            {
              "internalType": "uint256",
              "name": "strike",
              "type": "uint256"
            },
            {
              "internalType": "uint256",
              "name": "maturity",
              "type": "uint256"
            }
          ],
          "internalType": "struct StrikeAndMaturity",
          "name": "",
          "type": "tuple"
        }
      ],
      "stateMutability": "view",
      "type": "function"
    },
    {
      "inputs": [
        {
          "components": [
            {
              "internalType": "uint256",
              "name": "strike",
              "type": "uint256"
            },
            {
              "internalType": "uint256",
              "name": "maturity",
              "type": "uint256"
            },
            {
              "internalType": "address",
              "name": "long0To",
              "type": "address"
            },
            {
              "internalType": "address",
              "name": "long1To",
              "type": "address"
            },
            {
              "internalType": "address",
              "name": "shortTo",
              "type": "address"
            },
            {
              "internalType": "enum TimeswapV2OptionMint",
              "name": "transaction",
              "type": "uint8"
            },
            {
              "internalType": "uint256",
              "name": "amount0",
              "type": "uint256"
            },
            {
              "internalType": "uint256",
              "name": "amount1",
              "type": "uint256"
            },
            {
              "internalType": "bytes",
              "name": "data",
              "type": "bytes"
            }
          ],
          "internalType": "struct TimeswapV2OptionMintParam",
          "name": "param",
          "type": "tuple"
        }
      ],
      "name": "mint",
      "outputs": [
        {
          "internalType": "uint256",
          "name": "token0AndLong0Amount",
          "type": "uint256"
        },
        {
          "internalType": "uint256",
          "name": "token1AndLong1Amount",
          "type": "uint256"
        },
        {
          "internalType": "uint256",
          "name": "shortAmount",
          "type": "uint256"
        },
        {
          "internalType": "bytes",
          "name": "data",
          "type": "bytes"
        }
      ],
      "stateMutability": "nonpayable",
      "type": "function"
    },
    {
      "inputs": [],
      "name": "numberOfOptions",
      "outputs": [
        {
          "internalType": "uint256",
          "name": "",
          "type": "uint256"
        }
      ],
      "stateMutability": "view",
      "type": "function"
    },
    {
      "inputs": [],
      "name": "optionFactory",
      "outputs": [
        {
          "internalType": "address",
          "name": "",
          "type": "address"
        }
      ],
      "stateMutability": "view",
      "type": "function"
    },
    {
      "inputs": [
        {
          "internalType": "uint256",
          "name": "strike",
          "type": "uint256"
        },
        {
          "internalType": "uint256",
          "name": "maturity",
          "type": "uint256"
        },
        {
          "internalType": "address",
          "name": "owner",
          "type": "address"
        },
        {
          "internalType": "enum TimeswapV2OptionPosition",
          "name": "position",
          "type": "uint8"
        }
      ],
      "name": "positionOf",
      "outputs": [
        {
          "internalType": "uint256",
          "name": "",
          "type": "uint256"
        }
      ],
      "stateMutability": "view",
      "type": "function"
    },
    {
      "inputs": [
        {
          "components": [
            {
              "internalType": "uint256",
              "name": "strike",
              "type": "uint256"
            },
            {
              "internalType": "uint256",
              "name": "maturity",
              "type": "uint256"
            },
            {
              "internalType": "address",
              "name": "tokenTo",
              "type": "address"
            },
            {
              "internalType": "address",
              "name": "longTo",
              "type": "address"
            },
            {
              "internalType": "bool",
              "name": "isLong0ToLong1",
              "type": "bool"
            },
            {
              "internalType": "enum TimeswapV2OptionSwap",
              "name": "transaction",
              "type": "uint8"
            },
            {
              "internalType": "uint256",
              "name": "amount",
              "type": "uint256"
            },
            {
              "internalType": "bytes",
              "name": "data",
              "type": "bytes"
            }
          ],
          "internalType": "struct TimeswapV2OptionSwapParam",
          "name": "param",
          "type": "tuple"
        }
      ],
      "name": "swap",
      "outputs": [
        {
          "internalType": "uint256",
          "name": "token0AndLong0Amount",
          "type": "uint256"
        },
        {
          "internalType": "uint256",
          "name": "token1AndLong1Amount",
          "type": "uint256"
        },
        {
          "internalType": "bytes",
          "name": "data",
          "type": "bytes"
        }
      ],
      "stateMutability": "nonpayable",
      "type": "function"
    },
    {
      "inputs": [],
      "name": "token0",
      "outputs": [
        {
          "internalType": "address",
          "name": "",
          "type": "address"
        }
      ],
      "stateMutability": "view",
      "type": "function"
    },
    {
      "inputs": [],
      "name": "token1",
      "outputs": [
        {
          "internalType": "address",
          "name": "",
          "type": "address"
        }
      ],
      "stateMutability": "view",
      "type": "function"
    },
    {
      "inputs": [
        {
          "internalType": "uint256",
          "name": "strike",
          "type": "uint256"
        },
        {
          "internalType": "uint256",
          "name": "maturity",
          "type": "uint256"
        },
        {
          "internalType": "enum TimeswapV2OptionPosition",
          "name": "position",
          "type": "uint8"
        }
      ],
      "name": "totalPosition",
      "outputs": [
        {
          "internalType": "uint256",
          "name": "",
          "type": "uint256"
        }
      ],
      "stateMutability": "view",
      "type": "function"
    },
    {
      "inputs": [
        {
          "internalType": "uint256",
          "name": "strike",
          "type": "uint256"
        },
        {
          "internalType": "uint256",
          "name": "maturity",
          "type": "uint256"
        },
        {
          "internalType": "address",
          "name": "to",
          "type": "address"
        },
        {
          "internalType": "enum TimeswapV2OptionPosition",
          "name": "position",
          "type": "uint8"
        },
        {
          "internalType": "uint256",
          "name": "amount",
          "type": "uint256"
        }
      ],
      "name": "transferPosition",
      "outputs": [],
      "stateMutability": "nonpayable",
      "type": "function"
    }
  ],
  "bytecode": {
    "object": "0x6101006040523480156200001257600080fd5b5030606090811b6080526040805163ad4d4e2960e01b81529051339263ad4d4e299260048082019391829003018186803b1580156200005057600080fd5b505afa15801562000065573d6000803e3d6000fd5b505050506040513d601f19601f820116820180604052508101906200008b9190620000d1565b6001600160601b0319606091821b811660e05291811b821660c0529190911b1660a0526200011b565b80516001600160a01b0381168114620000cc57600080fd5b919050565b600080600060608486031215620000e757600080fd5b620000f284620000b4565b92506200010260208501620000b4565b91506200011260408501620000b4565b90509250925092565b60805160601c60a05160601c60c05160601c60e05160601c61337d620001c26000396000818161020f015281816103a8015281816109d301528181610cd60152818161110d015281816111b50152818161134801526114e101526000818160be0152818161035e0152818161092801528181610c2b01528181610fa9015281816110510152818161136e01526114bb015260006101d5015260006117d9015261337d6000f3fe608060405234801561001057600080fd5b50600436106100b45760003560e01c8063af2f91ea11610071578063af2f91ea14610186578063b084c25214610199578063b2ceca77146101bb578063b3461c87146101d0578063b7fb542d146101f7578063d21220a71461020a57600080fd5b80630dfe1681146100b95780632d883a73146100fd578063622fb68f1461012b5780637087c1f61461014e57806380e066791461016157806387ed3ecf14610174575b600080fd5b6100e07f000000000000000000000000000000000000000000000000000000000000000081565b6040516001600160a01b0390911681526020015b60405180910390f35b61011061010b366004612989565b610231565b604080518251815260209283015192810192909252016100f4565b61013e6101393660046129bb565b61028c565b6040516100f49493929190612a47565b61013e61015c366004612a76565b6105df565b61013e61016f366004612ab0565b61082f565b6003545b6040519081526020016100f4565b610178610194366004612b1f565b610e43565b6101ac6101a73660046129bb565b610e70565b6040516100f493929190612b67565b6101ce6101c9366004612b86565b6116da565b005b6100e07f000000000000000000000000000000000000000000000000000000000000000081565b610178610205366004612bd6565b6117a2565b6100e07f000000000000000000000000000000000000000000000000000000000000000081565b60408051808201909152600080825260208201526003828154811061025857610258612c0f565b9060005260206000209060020201604051806040016040529081600082015481526020016001820154815250509050919050565b6000806000606061029b6117ce565b8435600090815260026020908152604080832082890135845290915290205460ff166102d0576102d085356020870135611819565b6102e26102dc86612d6e565b42611841565b8435600081815260208181526040808320828a013584529091529020906103259061031360a0890160808a01612e0f565b83919060a08a013560c08b01356118f7565b9196509450925061033b600186866000806119b5565b8415610385576103856103546060880160408901612e2c565b6001600160a01b037f0000000000000000000000000000000000000000000000000000000000000000169087611a64565b83156103cf576103cf61039e6080880160608901612e2c565b6001600160a01b037f0000000000000000000000000000000000000000000000000000000000000000169086611a64565b6103dc60e0870187612e47565b1590506104e357336001600160a01b0316638c5f08516040518060c001604052808960000135815260200189602001358152602001888152602001878152602001868152602001898060e001906104339190612e47565b8080601f01602080910402602001604051908101604052809392919081815260200183838082843760009201919091525050509152506040516001600160e01b031960e084901b16815261048a9190600401612edb565b600060405180830381600087803b1580156104a457600080fd5b505af11580156104b8573d6000803e3d6000fd5b505050506040513d6000823e601f3d908101601f191682016040526104e09190810190612eee565b91505b33600090815260028201602052604081208054879290610504908490612f71565b90915550503360009081526003820160205260408120805486929061052a908490612f71565b909155505033600090815260048201602052604081208054859290610550908490612f71565b90915550339050602087013587357f5e34e67b3e203229e29d54244b2c750f9038bc8d484cbcb7693ab665c35c962c61058f60608b0160408c01612e2c565b61059f60808c0160608d01612e2c565b604080516001600160a01b03938416815292909116602083015281018a9052606081018990526080810188905260a00160405180910390a4509193509193565b600080600060606105ee6117ce565b8435600090815260026020908152604080832082890135845290915290205460ff166106235761062385356020870135611819565b61063561062f86612f88565b42611abb565b8435600081815260208181526040808320828a013584529091529020906106739061066660a0890160808a0161301e565b83919060a08a0135611b5e565b91965094509250610689600186866000806119b5565b84156106a2576106a26103546060880160408901612e2c565b83156106bb576106bb61039e6080880160608901612e2c565b6106c860c0870187612e47565b1590506107cf57336001600160a01b031663dc6fddcf6040518060c001604052808960000135815260200189602001358152602001888152602001878152602001868152602001898060c0019061071f9190612e47565b8080601f01602080910402602001604051908101604052809392919081815260200183838082843760009201919091525050509152506040516001600160e01b031960e084901b1681526107769190600401612edb565b600060405180830381600087803b15801561079057600080fd5b505af11580156107a4573d6000803e3d6000fd5b505050506040513d6000823e601f3d908101601f191682016040526107cc9190810190612eee565b91505b336000908152600482016020526040812080548592906107f0908490612f71565b90915550339050602087013587357fa9321c5c860b13f184d4b6bc6793bede025ef1a51e4c3527d0733f225df69db661058f60608b0160408c01612e2c565b6000806000606061083e6117ce565b61085061084a8661303b565b42611c90565b61085f85356020870135611d59565b8435600081815260208181526040808320828a0135845290915290819020916108d7916108929060608a01908a01612e2c565b6108a260808a0160608b01612e2c565b6108b260a08b0160808c01612e2c565b6108c260c08c0160a08d01612e0f565b86949392919060c08d013560e08e0135611e11565b919650945092506108ec6001868682806119b5565b60408051608081018252873581526020808901359082015281516370a0823160e01b815230600482015260009282019088906001600160a01b037f000000000000000000000000000000000000000000000000000000000000000016906370a082319060240160206040518083038186803b15801561096a57600080fd5b505afa15801561097e573d6000803e3d6000fd5b505050506040513d601f19601f820116820180604052508101906109a291906130f1565b6109ac919061310a565b81526040516370a0823160e01b815230600482015260209091019087906001600160a01b037f000000000000000000000000000000000000000000000000000000000000000016906370a082319060240160206040518083038186803b158015610a1557600080fd5b505afa158015610a29573d6000803e3d6000fd5b505050506040513d601f19601f82011682018060405250810190610a4d91906130f1565b610a57919061310a565b9052600180548082018255600091909152815160049091027fb10e2d527612073b26eecdfd717e6a320cf44b4afac2b0732d9fcbe2b7fa0cf681019182556020838101517fb10e2d527612073b26eecdfd717e6a320cf44b4afac2b0732d9fcbe2b7fa0cf78301556040808501517fb10e2d527612073b26eecdfd717e6a320cf44b4afac2b0732d9fcbe2b7fa0cf88401556060948501517fb10e2d527612073b26eecdfd717e6a320cf44b4afac2b0732d9fcbe2b7fa0cf990930192909255815160c0810183528b3581528b820135918101919091529081018990529182018790526080820186905291503390634a358d659060a08101610b5d6101008c018c612e47565b8080601f01602080910402602001604051908101604052809392919081815260200183838082843760009201919091525050509152506040516001600160e01b031960e084901b168152610bb49190600401612edb565b600060405180830381600087803b158015610bce57600080fd5b505af1158015610be2573d6000803e3d6000fd5b505050506040513d6000823e601f3d908101601f19168201604052610c0a9190810190612eee565b92508515610cb7576040516370a0823160e01b8152306004820152610cb7907f00000000000000000000000000000000000000000000000000000000000000006001600160a01b0316906370a082319060240160206040518083038186803b158015610c7557600080fd5b505afa158015610c89573d6000803e3d6000fd5b505050506040513d601f19601f82011682018060405250810190610cad91906130f1565b8260020154611f7e565b8415610d62576040516370a0823160e01b8152306004820152610d62907f00000000000000000000000000000000000000000000000000000000000000006001600160a01b0316906370a082319060240160206040518083038186803b158015610d2057600080fd5b505afa158015610d34573d6000803e3d6000fd5b505050506040513d601f19601f82011682018060405250810190610d5891906130f1565b8260030154611f7e565b6001805480610d7357610d73613122565b600082815260208082206004600019909401938402018281556001810183905560028101839055600301919091559155339088013588357f0991839fbc46f2e3816b51c806bee50f76ee23053c1b131a9fbf07fc2d6df8aa610ddb60608c0160408d01612e2c565b610deb60808d0160608e01612e2c565b610dfb60a08e0160808f01612e2c565b604080516001600160a01b0394851681529284166020840152921681830152606081018c9052608081018b905260a081018a905290519081900360c00190a450509193509193565b6000848152602081815260408083208684529091528120610e65908484611fa9565b90505b949350505050565b6000806060610e7d6117ce565b8335600090815260026020908152604080832082880135845290915290205460ff16610eb257610eb284356020860135611819565b610ec4610ebe85613151565b4261205b565b8335600081815260208181526040808320828901358452909152902090610f2490610ef56080880160608901612e2c565b610f0560a0890160808a016131e1565b610f1560c08a0160a08b01612e0f565b859392919060c08b01356120fd565b9094509250610f5a8484610f3e60a0890160808a016131e1565b15610f4f60a08a0160808b016131e1565b6001939291906119b5565b600060405180608001604052808760000135815260200187602001358152602001876080016020810190610f8e91906131e1565b61103a576040516370a0823160e01b815230600482015287907f00000000000000000000000000000000000000000000000000000000000000006001600160a01b0316906370a082319060240160206040518083038186803b158015610ff357600080fd5b505afa158015611007573d6000803e3d6000fd5b505050506040513d601f19601f8201168201806040525081019061102b91906130f1565b611035919061310a565b6110dd565b6040516370a0823160e01b815230600482015287907f00000000000000000000000000000000000000000000000000000000000000006001600160a01b0316906370a082319060240160206040518083038186803b15801561109b57600080fd5b505afa1580156110af573d6000803e3d6000fd5b505050506040513d601f19601f820116820180604052508101906110d391906130f1565b6110dd9190612f71565b81526020016110f260a0890160808a016131e1565b61119e576040516370a0823160e01b815230600482015286907f00000000000000000000000000000000000000000000000000000000000000006001600160a01b0316906370a082319060240160206040518083038186803b15801561115757600080fd5b505afa15801561116b573d6000803e3d6000fd5b505050506040513d601f19601f8201168201806040525081019061118f91906130f1565b6111999190612f71565b611241565b6040516370a0823160e01b815230600482015286907f00000000000000000000000000000000000000000000000000000000000000006001600160a01b0316906370a082319060240160206040518083038186803b1580156111ff57600080fd5b505afa158015611213573d6000803e3d6000fd5b505050506040513d601f19601f8201168201806040525081019061123791906130f1565b611241919061310a565b9052600180548082018255600091909152815160049091027fb10e2d527612073b26eecdfd717e6a320cf44b4afac2b0732d9fcbe2b7fa0cf6810191825560208301517fb10e2d527612073b26eecdfd717e6a320cf44b4afac2b0732d9fcbe2b7fa0cf78201556040808401517fb10e2d527612073b26eecdfd717e6a320cf44b4afac2b0732d9fcbe2b7fa0cf88301556060938401517fb10e2d527612073b26eecdfd717e6a320cf44b4afac2b0732d9fcbe2b7fa0cf99092019190915590925061139e9161131691908901908901612e2c565b61132660a0890160808a016131e1565b6113305785611332565b865b61134260a08a0160808b016131e1565b61136c577f000000000000000000000000000000000000000000000000000000000000000061138e565b7f00000000000000000000000000000000000000000000000000000000000000005b6001600160a01b03169190611a64565b6040805160c0810182528735815260208089013590820152339163dc4a4847919081016113d160a08b0160808c016131e1565b1515815260208101899052604081018890526060016113f360e08b018b612e47565b8080601f01602080910402602001604051908101604052809392919081815260200183838082843760009201919091525050509152506040516001600160e01b031960e084901b16815261144a91906004016131fe565b600060405180830381600087803b15801561146457600080fd5b505af1158015611478573d6000803e3d6000fd5b505050506040513d6000823e601f3d908101601f191682016040526114a09190810190612eee565b92506115986114b560a08801608089016131e1565b6114df577f0000000000000000000000000000000000000000000000000000000000000000611501565b7f00000000000000000000000000000000000000000000000000000000000000005b6040516370a0823160e01b81523060048201526001600160a01b0391909116906370a082319060240160206040518083038186803b15801561154257600080fd5b505afa158015611556573d6000803e3d6000fd5b505050506040513d601f19601f8201168201806040525081019061157a91906130f1565b61158a60a0890160808a016131e1565b610d58578260020154611f7e565b6115a860a08701608088016131e1565b156115d957336000908152600283016020526040812080548792906115ce908490612f71565b909155506116009050565b336000908152600383016020526040812080548692906115fa908490612f71565b90915550505b600180548061161157611611613122565b600082815260208082206004600019909401938402018281556001810183905560028101839055600301919091559155339087013587357e92a054e9363f3efd42f73f1da82239b3dc6edafea865e59f1cffa4dd7dc22661167860608b0160408c01612e2c565b61168860808c0160608d01612e2c565b61169860a08d0160808e016131e1565b604080516001600160a01b039485168152939092166020840152151590820152606081018a90526080810189905260a00160405180910390a450509193909250565b600085815260026020908152604080832087845290915290205460ff16611705576117058585611819565b6001600160a01b03831661171b5761171b612239565b8061172857611728612252565b6117318261226b565b6000858152602081815260408083208784529091529020611754908484846122a0565b336001600160a01b031684867f70faa8e36be9e16810b2a40b964c4b9ae20a221c53bc3fd03fc843110d336dbb86868660405161179393929190613263565b60405180910390a45050505050565b60008381526020818152604080832085845290915281206117c49085846123f5565b90505b9392505050565b306001600160a01b037f0000000000000000000000000000000000000000000000000000000000000000161461181757604051634118e0bb60e11b815260040160405180910390fd5b565b60405163e407078d60e01b815260048101839052602481018290526044015b60405180910390fd5b815161184f5761184f612252565b60208201516001600160601b03101561186f5761186f826020015161246c565b806001600160601b031682602001511161189157611891826020015182612488565b60408201516001600160a01b03166118ab576118ab612239565b60608201516001600160a01b03166118c5576118c5612239565b6118d282608001516124b3565b60a08201511580156118e6575060c0820151155b156118f3576118f3612252565b5050565b600080808086600181111561190e5761190e61324d565b141561192e5761192785935083859350838960016124e5565b9050611974565b60018660018111156119425761194261324d565b141561197457611952848661310a565b90506119618588600080612528565b9250611971848860016000612528565b91505b828860000160008282546119889190612f71565b92505081905550818860010160008282546119a39190612f71565b92505081905550955095509592505050565b60005b8554811015611a5c5760008682815481106119d5576119d5612c0f565b9060005260206000209060040201905085600014611a1d5783611a0757858160020154611a029190612f71565b611a17565b858160020154611a17919061310a565b60028201555b8415611a535782611a3d57848160030154611a389190612f71565b611a4d565b848160030154611a4d919061310a565b60038201555b506001016119b8565b505050505050565b604080516001600160a01b038416602482015260448082018490528251808303909101815260649091019091526020810180516001600160e01b031663a9059cbb60e01b179052611ab6908490612568565b505050565b8151611ac957611ac9612252565b60208201516001600160601b031015611ae957611ae9826020015161246c565b806001600160601b031682602001511115611b0c57611b0c82602001518261263a565b60408201516001600160a01b0316611b2657611b26612239565b60608201516001600160a01b0316611b4057611b40612239565b611b4d8260800151612665565b60a08201516118f3576118f3612252565b600080600080611b79886000015489600101548960016124e5565b90506000866002811115611b8f57611b8f61324d565b1415611bc5578754859250611ba8908390836000612679565b6001890154909450611bbe908390836000612679565b9250611c4f565b6001866002811115611bd957611bd961324d565b1415611c09578754859450611bf390859083906001612679565b6001890154909250611bbe908390836000612679565b6002866002811115611c1d57611c1d61324d565b1415611c4f57600180890154869450611c399185918491612679565b8854909250611c4c908390836000612679565b93505b83886000016000828254611c639190612f71565b9250508190555082886001016000828254611c7e9190612f71565b92505081905550509450945094915050565b8151611c9e57611c9e612252565b60208201516001600160601b031015611cbe57611cbe826020015161246c565b806001600160601b0316826020015111611ce057611ce0826020015182612488565b60808201516001600160a01b0316611cfa57611cfa612239565b60408201516001600160a01b0316611d1457611d14612239565b60608201516001600160a01b0316611d2e57611d2e612239565b611d3b8260a001516124b3565b60c08201511580156118e6575060e08201516118f3576118f3612252565b600082815260026020908152604080832084845290915290205460ff166118f35760008281526002602081815260408084208585528252808420805460ff191660019081179091558151808301909252958152908101938452600380549586018155909252905192027fc2575a0e9e593c00f959f8c92f12db2869c3395a3b0502d05e2516446f71f85b810192909255517fc2575a0e9e593c00f959f8c92f12db2869c3395a3b0502d05e2516446f71f85c90910155565b6000808080866001811115611e2857611e2861324d565b1415611e4857611e4185935083859350838c60006124e5565b9050611e8e565b6001866001811115611e5c57611e5c61324d565b1415611e8e57611e6c848661310a565b9050611e7c858b60006001612528565b9250611e8b848b600180612528565b91505b8215611edd57828b6000016000828254611ea8919061310a565b90915550506001600160a01b038916600090815260028c01602052604081208054859290611ed790849061310a565b90915550505b8115611f2c57818b6001016000828254611ef7919061310a565b90915550506001600160a01b038816600090815260038c01602052604081208054849290611f2690849061310a565b90915550505b6001600160a01b038716600090815260048c01602052604081208054839290611f5690849061310a565b90915550508a546001808d0154611f6f92918d906124e5565b50985098509895505050505050565b808210156118f357604051631c22ff0160e21b81526004810183905260248101829052604401611838565b600080826002811115611fbe57611fbe61324d565b1415611fe557506001600160a01b03821660009081526002840160205260409020546117c7565b6001826002811115611ff957611ff961324d565b141561202057506001600160a01b03821660009081526003840160205260409020546117c7565b60028260028111156120345761203461324d565b14156117c75750506001600160a01b03166000908152600491909101602052604090205490565b815161206957612069612252565b60208201516001600160601b03101561208957612089826020015161246c565b806001600160601b03168260200151116120ab576120ab826020015182612488565b60408201516001600160a01b03166120c5576120c5612239565b60608201516001600160a01b03166120df576120df612239565b6120ec8260a001516124b3565b60c08201516118f3576118f3612252565b600080808460018111156121135761211361324d565b1415612130578291506121298288600188612687565b905061215d565b60018460018111156121445761214461324d565b141561215d57508161215a818860008815612687565b91505b84156121cc57818860000160008282546121779190612f71565b9250508190555080886001016000828254612192919061310a565b90915550506001600160a01b0386166000908152600389016020526040812080548392906121c190849061310a565b9091555061222e9050565b808860010160008282546121e09190612f71565b90915550508754829089906000906121f990849061310a565b90915550506001600160a01b03861660009081526002890160205260408120805484929061222890849061310a565b90915550505b965096945050505050565b60405163d92e233d60e01b815260040160405180910390fd5b60405163af458c0760e01b815260040160405180910390fd5b600381600281111561227f5761227f61324d565b1061229d5760405163673f032f60e11b815260040160405180910390fd5b50565b60008260028111156122b4576122b461324d565b141561231557336000908152600285016020526040812080548392906122db908490612f71565b90915550506001600160a01b03831660009081526002850160205260408120805483929061230a90849061310a565b909155506123ef9050565b60018260028111156123295761232961324d565b141561237f576001600160a01b03831660009081526003850160205260408120805483929061235990849061310a565b90915550503360009081526003850160205260408120805483929061230a908490612f71565b60028260028111156123935761239361324d565b14156123ef57336000908152600485016020526040812080548392906123ba908490612f71565b90915550506001600160a01b0383166000908152600485016020526040812080548392906123e990849061310a565b90915550505b50505050565b60008082600281111561240a5761240a61324d565b1415612418575082546117c7565b600182600281111561242c5761242c61324d565b141561243d575060018301546117c7565b60028260028111156124515761245161324d565b14156117c7576117c4846000015485600101548560016124e5565b6040516335f135d360e01b815260048101829052602401611838565b60405163647284e960e11b8152600481018390526001600160601b0382166024820152604401611838565b60028160018111156124c7576124c761324d565b1061229d5760405163280503e760e11b815260040160405180910390fd5b60006001600160801b038311612511576125028584600185612687565b61250c908561310a565b610e65565b61251e8484600085612687565b610e65908661310a565b60006001600160801b038411612550578261254a5761250c8585600085612687565b84610e65565b8261255b5784610e65565b610e658585600185612687565b60006125bd826040518060400160405280602081526020017f5361666545524332303a206c6f772d6c6576656c2063616c6c206661696c6564815250856001600160a01b03166126ae9092919063ffffffff16565b805190915015611ab657808060200190518101906125db91906132a2565b611ab65760405162461bcd60e51b815260206004820152602a60248201527f5361666545524332303a204552433230206f7065726174696f6e20646964206e6044820152691bdd081cdd58d8d9595960b21b6064820152608401611838565b60405163b9e0f8d560e01b8152600481018390526001600160601b0382166024820152604401611838565b60038160028111156124c7576124c761324d565b6000610e65858585856126bd565b60008261269e5761250c85600160801b86856126bd565b610e658585600160801b856126bd565b60606117c484846000856127b9565b60008060006126cc8787612894565b9150915080600014156126ed576126e48286866128b3565b92505050610e68565b80851161271e5760405163362ced0960e11b8152600481018890526024810187905260448101869052606401611838565b600085878909600087810388169788900497600260038a028118808b02820302808b02820302808b02820302808b02820302808b02820302808b0290910302918190038190046001018684119095039485029290950394909404179283029350849050801561279c57508480612796576127966132bf565b86880915155b156127af57826127ab816132d5565b9350505b5050949350505050565b60608247101561281a5760405162461bcd60e51b815260206004820152602660248201527f416464726573733a20696e73756666696369656e742062616c616e636520666f6044820152651c8818d85b1b60d21b6064820152608401611838565b600080866001600160a01b0316858760405161283691906132f0565b60006040518083038185875af1925050503d8060008114612873576040519150601f19603f3d011682016040523d82523d6000602084013e612878565b606091505b5091509150612889878383876128ee565b979650505050505050565b6000806000198385098385029250828110838203039150509250929050565b60006128bf838561330c565b90508180156128d657506128d38385613320565b15155b156117c757806128e5816132d5565b95945050505050565b6060831561295a578251612953576001600160a01b0385163b6129535760405162461bcd60e51b815260206004820152601d60248201527f416464726573733a2063616c6c20746f206e6f6e2d636f6e74726163740000006044820152606401611838565b5081610e68565b610e68838381511561296f5781518083602001fd5b8060405162461bcd60e51b81526004016118389190613334565b60006020828403121561299b57600080fd5b5035919050565b600061010082840312156129b557600080fd5b50919050565b6000602082840312156129cd57600080fd5b81356001600160401b038111156129e357600080fd5b610e68848285016129a2565b60005b83811015612a0a5781810151838201526020016129f2565b838111156123ef5750506000910152565b60008151808452612a338160208601602086016129ef565b601f01601f19169290920160200192915050565b848152836020820152826040820152608060608201526000612a6c6080830184612a1b565b9695505050505050565b600060208284031215612a8857600080fd5b81356001600160401b03811115612a9e57600080fd5b820160e081850312156117c757600080fd5b600060208284031215612ac257600080fd5b81356001600160401b03811115612ad857600080fd5b820161012081850312156117c757600080fd5b80356001600160a01b0381168114612b0257600080fd5b919050565b6003811061229d57600080fd5b8035612b0281612b07565b60008060008060808587031215612b3557600080fd5b8435935060208501359250612b4c60408601612aeb565b91506060850135612b5c81612b07565b939692955090935050565b838152826020820152606060408201526000610e656060830184612a1b565b600080600080600060a08688031215612b9e57600080fd5b8535945060208601359350612bb560408701612aeb565b92506060860135612bc581612b07565b949793965091946080013592915050565b600080600060608486031215612beb57600080fd5b83359250602084013591506040840135612c0481612b07565b809150509250925092565b634e487b7160e01b600052603260045260246000fd5b634e487b7160e01b600052604160045260246000fd5b60405161010081016001600160401b0381118282101715612c5e57612c5e612c25565b60405290565b60405160e081016001600160401b0381118282101715612c5e57612c5e612c25565b60405161012081016001600160401b0381118282101715612c5e57612c5e612c25565b604051601f8201601f191681016001600160401b0381118282101715612cd157612cd1612c25565b604052919050565b6002811061229d57600080fd5b8035612b0281612cd9565b60006001600160401b03821115612d0a57612d0a612c25565b50601f01601f191660200190565b600082601f830112612d2957600080fd5b8135612d3c612d3782612cf1565b612ca9565b818152846020838601011115612d5157600080fd5b816020850160208301376000918101602001919091529392505050565b60006101008236031215612d8157600080fd5b612d89612c3b565b8235815260208301356020820152612da360408401612aeb565b6040820152612db460608401612aeb565b6060820152612dc560808401612ce6565b608082015260a083013560a082015260c083013560c082015260e08301356001600160401b03811115612df757600080fd5b612e0336828601612d18565b60e08301525092915050565b600060208284031215612e2157600080fd5b81356117c781612cd9565b600060208284031215612e3e57600080fd5b6117c782612aeb565b6000808335601e19843603018112612e5e57600080fd5b8301803591506001600160401b03821115612e7857600080fd5b602001915036819003821315612e8d57600080fd5b9250929050565b8051825260208101516020830152604081015160408301526060810151606083015260808101516080830152600060a082015160c060a0850152610e6860c0850182612a1b565b6020815260006117c76020830184612e94565b600060208284031215612f0057600080fd5b81516001600160401b03811115612f1657600080fd5b8201601f81018413612f2757600080fd5b8051612f35612d3782612cf1565b818152856020838501011115612f4a57600080fd5b6128e58260208301602086016129ef565b634e487b7160e01b600052601160045260246000fd5b600082821015612f8357612f83612f5b565b500390565b600060e08236031215612f9a57600080fd5b612fa2612c64565b8235815260208301356020820152612fbc60408401612aeb565b6040820152612fcd60608401612aeb565b6060820152612fde60808401612b14565b608082015260a083013560a082015260c08301356001600160401b0381111561300657600080fd5b61301236828601612d18565b60c08301525092915050565b60006020828403121561303057600080fd5b81356117c781612b07565b6000610120823603121561304e57600080fd5b613056612c86565b823581526020830135602082015261307060408401612aeb565b604082015261308160608401612aeb565b606082015261309260808401612aeb565b60808201526130a360a08401612ce6565b60a082015260c083013560c082015260e083013560e0820152610100808401356001600160401b038111156130d757600080fd5b6130e336828701612d18565b918301919091525092915050565b60006020828403121561310357600080fd5b5051919050565b6000821982111561311d5761311d612f5b565b500190565b634e487b7160e01b600052603160045260246000fd5b801515811461229d57600080fd5b8035612b0281613138565b6000610100823603121561316457600080fd5b61316c612c3b565b823581526020830135602082015261318660408401612aeb565b604082015261319760608401612aeb565b60608201526131a860808401613146565b60808201526131b960a08401612ce6565b60a082015260c083013560c082015260e08301356001600160401b03811115612df757600080fd5b6000602082840312156131f357600080fd5b81356117c781613138565b60208152815160208201526020820151604082015260408201511515606082015260608201516080820152608082015160a0820152600060a083015160c080840152610e6860e0840182612a1b565b634e487b7160e01b600052602160045260246000fd5b6001600160a01b0384168152606081016003841061329157634e487b7160e01b600052602160045260246000fd5b602082019390935260400152919050565b6000602082840312156132b457600080fd5b81516117c781613138565b634e487b7160e01b600052601260045260246000fd5b60006000198214156132e9576132e9612f5b565b5060010190565b600082516133028184602087016129ef565b9190910192915050565b60008261331b5761331b6132bf565b500490565b60008261332f5761332f6132bf565b500690565b6020815260006117c76020830184612a1b56fea26469706673582212208f33967f0e5177f34b81a55c0b930e7fd0bae164c9eff996b14aaf81664747c464736f6c63430008080033",
    "linkReferences": {}
  },
  "methodIdentifiers": {
    "burn((uint256,uint256,address,address,uint8,uint256,uint256,bytes))": "622fb68f",
    "collect((uint256,uint256,address,address,uint8,uint256,bytes))": "7087c1f6",
    "getByIndex(uint256)": "2d883a73",
    "mint((uint256,uint256,address,address,address,uint8,uint256,uint256,bytes))": "80e06679",
    "numberOfOptions()": "87ed3ecf",
    "optionFactory()": "b3461c87",
    "positionOf(uint256,uint256,address,uint8)": "af2f91ea",
    "swap((uint256,uint256,address,address,bool,uint8,uint256,bytes))": "b084c252",
    "token0()": "0dfe1681",
    "token1()": "d21220a7",
    "totalPosition(uint256,uint256,uint8)": "b7fb542d",
    "transferPosition(uint256,uint256,address,uint8,uint256)": "b2ceca77"
  },
  "id": 42
}