{
  "abi": [
    {
      "inputs": [
        {
          "internalType": "uint256",
          "name": "multiplicand",
          "type": "uint256"
        },
        {
          "internalType": "uint256",
          "name": "multiplier",
          "type": "uint256"
        },
        {
          "internalType": "uint256",
          "name": "divisor",
          "type": "uint256"
        }
      ],
      "name": "MulDivOverflow",
      "type": "error"
    },
    {
      "inputs": [
        {
          "internalType": "uint160",
          "name": "liquidity",
          "type": "uint160"
        },
        {
          "internalType": "uint256",
          "name": "shortFeeGrowth",
          "type": "uint256"
        },
        {
          "internalType": "uint256",
          "name": "shortAmount",
          "type": "uint256"
        }
      ],
      "name": "update",
      "outputs": [
        {
          "internalType": "uint256",
          "name": "",
          "type": "uint256"
        }
      ],
      "stateMutability": "pure",
      "type": "function"
    }
  ],
  "bytecode": {
    "object": "0x6102d961003a600b82828239805160001a60731461002d57634e487b7160e01b600052600060045260246000fd5b30600052607381538281f3fe73000000000000000000000000000000000000000030146080604052600436106100355760003560e01c8063fcb701841461003a575b600080fd5b61004d6100483660046101fb565b61005f565b60405190815260200160405180910390f35b600061006c848484610076565b90505b9392505050565b600061006c610085838661008a565b840190565b600061006f83600160801b6001600160a01b0385168460008060006100af87876101a1565b9150915080600014156100d0576100c78286866101c0565b92505050610199565b8085116101055760405163362ced0960e11b815260048101889052602481018790526044810186905260640160405180910390fd5b600085878909600087810388169788900497600260038a028118808b02820302808b02820302808b02820302808b02820302808b02820302808b029091030291819003819004600101868411909503948502929095039490940417928302935084905080156101835750848061017d5761017d61023c565b86880915155b15610196578261019281610252565b9350505b50505b949350505050565b6000806000198385098385029250828110838203039150509250929050565b60006101cc838561027b565b90508180156101e357506101e0838561028f565b15155b1561006f57806101f281610252565b95945050505050565b60008060006060848603121561021057600080fd5b83356001600160a01b038116811461022757600080fd5b95602085013595506040909401359392505050565b634e487b7160e01b600052601260045260246000fd5b600060001982141561027457634e487b7160e01b600052601160045260246000fd5b5060010190565b60008261028a5761028a61023c565b500490565b60008261029e5761029e61023c565b50069056fea2646970667358221220dce31e7d7e74d0a4ae6bad22257fdc7b4954ff74c7e65ecf881caa15096f4de464736f6c63430008080033",
    "linkReferences": {}
  },
  "methodIdentifiers": {
    "update(uint160,uint256,uint256)": "fcb70184"
  },
  "id": 115
}