{
  "abi": [
    {
      "inputs": [
        {
          "internalType": "address",
          "name": "optionPair",
          "type": "address"
        },
        {
          "internalType": "address",
          "name": "poolPair",
          "type": "address"
        }
      ],
      "name": "PoolPairAlreadyExisted",
      "type": "error"
    },
    {
      "inputs": [],
      "name": "ZeroSwapAddress",
      "type": "error"
    },
    {
      "inputs": [
        {
          "internalType": "address",
          "name": "optionPair",
          "type": "address"
        },
        {
          "internalType": "address",
          "name": "poolPair",
          "type": "address"
        }
      ],
      "name": "checkDoesNotExist",
      "outputs": [],
      "stateMutability": "pure",
      "type": "function"
    },
    {
      "inputs": [
        {
          "internalType": "address",
          "name": "poolPair",
          "type": "address"
        }
      ],
      "name": "checkNotZeroAddress",
      "outputs": [],
      "stateMutability": "pure",
      "type": "function"
    }
  ],
  "bytecode": {
    "object": "0x61019461003a600b82828239805160001a60731461002d57634e487b7160e01b600052600060045260246000fd5b30600052607381538281f3fe73000000000000000000000000000000000000000030146080604052600436106100405760003560e01c806360c330e314610045578063bc34214c1461005a575b600080fd5b610058610053366004610109565b61006d565b005b61005861006836600461013c565b61007b565b6100778282610087565b5050565b610084816100c6565b50565b6001600160a01b03811615610077576040516389f0f94160e01b81526001600160a01b0380841660048301528216602482015260440160405180910390fd5b6001600160a01b038116610084576040516303244f7b60e31b815260040160405180910390fd5b80356001600160a01b038116811461010457600080fd5b919050565b6000806040838503121561011c57600080fd5b610125836100ed565b9150610133602084016100ed565b90509250929050565b60006020828403121561014e57600080fd5b610157826100ed565b939250505056fea264697066735822122035ce3068d93ca766e876f05d2bc9f9034737ea1344ea28562d80f90e7cfa9fbb64736f6c63430008080033",
    "linkReferences": {}
  },
  "methodIdentifiers": {
    "checkDoesNotExist(address,address)": "60c330e3",
    "checkNotZeroAddress(address)": "bc34214c"
  },
  "id": 118
}