{
  "abi": [
    {
      "inputs": [],
      "name": "parameter",
      "outputs": [
        {
          "internalType": "address",
          "name": "optionFactory",
          "type": "address"
        },
        {
          "internalType": "address",
          "name": "token0",
          "type": "address"
        },
        {
          "internalType": "address",
          "name": "token1",
          "type": "address"
        }
      ],
      "stateMutability": "view",
      "type": "function"
    }
  ],
  "bytecode": {
    "object": "0x6080604052348015600f57600080fd5b5060ad8061001e6000396000f3fe6080604052348015600f57600080fd5b506004361060285760003560e01c8063ad4d4e2914602d575b600080fd5b600054600154600254604c926001600160a01b03908116928116911683565b604080516001600160a01b039485168152928416602084015292168183015290519081900360600190f3fea26469706673582212208c3b4b87702646791c8ef9de55be9799e6c9221305c74a856c5d4d9981e1659d64736f6c63430008080033",
    "linkReferences": {}
  },
  "methodIdentifiers": {
    "parameter()": "ad4d4e29"
  },
  "id": 84
}