{
  "abi": [
    {
      "inputs": [
        {
          "internalType": "uint256",
          "name": "addendA0",
          "type": "uint256"
        },
        {
          "internalType": "uint256",
          "name": "addendA1",
          "type": "uint256"
        },
        {
          "internalType": "uint256",
          "name": "addendB0",
          "type": "uint256"
        },
        {
          "internalType": "uint256",
          "name": "addendB1",
          "type": "uint256"
        }
      ],
      "name": "AddOverflow",
      "type": "error"
    },
    {
      "inputs": [],
      "name": "CalculationOverload",
      "type": "error"
    },
    {
      "inputs": [
        {
          "internalType": "uint256",
          "name": "dividend0",
          "type": "uint256"
        },
        {
          "internalType": "uint256",
          "name": "dividend1",
          "type": "uint256"
        },
        {
          "internalType": "uint256",
          "name": "divisor",
          "type": "uint256"
        }
      ],
      "name": "DivOverflow",
      "type": "error"
    },
    {
      "inputs": [],
      "name": "DivideByZero",
      "type": "error"
    },
    {
      "inputs": [],
      "name": "ModuloByZero",
      "type": "error"
    },
    {
      "inputs": [
        {
          "internalType": "uint256",
          "name": "multiplicand",
          "type": "uint256"
        },
        {
          "internalType": "uint256",
          "name": "multiplier",
          "type": "uint256"
        },
        {
          "internalType": "uint256",
          "name": "divisor",
          "type": "uint256"
        }
      ],
      "name": "MulDivOverflow",
      "type": "error"
    },
    {
      "inputs": [],
      "name": "NotEnoughLiquidityToBorrow",
      "type": "error"
    },
    {
      "inputs": [],
      "name": "NotEnoughLiquidityToLend",
      "type": "error"
    },
    {
      "inputs": [
        {
          "internalType": "uint256",
          "name": "minuend0",
          "type": "uint256"
        },
        {
          "internalType": "uint256",
          "name": "minuend1",
          "type": "uint256"
        },
        {
          "internalType": "uint256",
          "name": "subtrahend0",
          "type": "uint256"
        },
        {
          "internalType": "uint256",
          "name": "subtrahend1",
          "type": "uint256"
        }
      ],
      "name": "SubUnderflow",
      "type": "error"
    },
    {
      "inputs": [],
      "name": "Uint160Overflow",
      "type": "error"
    },
    {
      "inputs": [
        {
          "internalType": "uint160",
          "name": "rate",
          "type": "uint160"
        },
        {
          "internalType": "uint160",
          "name": "deltaLiquidity",
          "type": "uint160"
        },
        {
          "internalType": "uint96",
          "name": "duration",
          "type": "uint96"
        },
        {
          "internalType": "bool",
          "name": "isAdd",
          "type": "bool"
        }
      ],
      "name": "calculateGivenLiquidityDelta",
      "outputs": [
        {
          "internalType": "uint256",
          "name": "longAmount",
          "type": "uint256"
        },
        {
          "internalType": "uint256",
          "name": "shortAmount",
          "type": "uint256"
        }
      ],
      "stateMutability": "pure",
      "type": "function"
    },
    {
      "inputs": [
        {
          "internalType": "uint160",
          "name": "rate",
          "type": "uint160"
        },
        {
          "internalType": "uint256",
          "name": "amount",
          "type": "uint256"
        },
        {
          "internalType": "uint96",
          "name": "duration",
          "type": "uint96"
        },
        {
          "internalType": "bool",
          "name": "isAdd",
          "type": "bool"
        }
      ],
      "name": "calculateGivenLiquidityLargerOrSmaller",
      "outputs": [
        {
          "internalType": "uint160",
          "name": "liquidityAmount",
          "type": "uint160"
        },
        {
          "internalType": "uint256",
          "name": "longAmount",
          "type": "uint256"
        },
        {
          "internalType": "uint256",
          "name": "shortAmount",
          "type": "uint256"
        }
      ],
      "stateMutability": "pure",
      "type": "function"
    },
    {
      "inputs": [
        {
          "internalType": "uint160",
          "name": "rate",
          "type": "uint160"
        },
        {
          "internalType": "uint256",
          "name": "longAmount",
          "type": "uint256"
        },
        {
          "internalType": "uint96",
          "name": "duration",
          "type": "uint96"
        },
        {
          "internalType": "bool",
          "name": "isAdd",
          "type": "bool"
        }
      ],
      "name": "calculateGivenLiquidityLong",
      "outputs": [
        {
          "internalType": "uint160",
          "name": "liquidityAmount",
          "type": "uint160"
        },
        {
          "internalType": "uint256",
          "name": "shortAmount",
          "type": "uint256"
        }
      ],
      "stateMutability": "pure",
      "type": "function"
    },
    {
      "inputs": [
        {
          "internalType": "uint160",
          "name": "rate",
          "type": "uint160"
        },
        {
          "internalType": "uint256",
          "name": "shortAmount",
          "type": "uint256"
        },
        {
          "internalType": "uint96",
          "name": "duration",
          "type": "uint96"
        },
        {
          "internalType": "bool",
          "name": "isAdd",
          "type": "bool"
        }
      ],
      "name": "calculateGivenLiquidityShort",
      "outputs": [
        {
          "internalType": "uint160",
          "name": "liquidityAmount",
          "type": "uint160"
        },
        {
          "internalType": "uint256",
          "name": "longAmount",
          "type": "uint256"
        }
      ],
      "stateMutability": "pure",
      "type": "function"
    },
    {
      "inputs": [
        {
          "internalType": "uint160",
          "name": "liquidity",
          "type": "uint160"
        },
        {
          "internalType": "uint160",
          "name": "rate",
          "type": "uint160"
        },
        {
          "internalType": "bool",
          "name": "roundUp",
          "type": "bool"
        }
      ],
      "name": "getLong",
      "outputs": [
        {
          "internalType": "uint256",
          "name": "",
          "type": "uint256"
        }
      ],
      "stateMutability": "pure",
      "type": "function"
    },
    {
      "inputs": [
        {
          "internalType": "uint160",
          "name": "liquidity",
          "type": "uint160"
        },
        {
          "internalType": "uint160",
          "name": "rate",
          "type": "uint160"
        },
        {
          "internalType": "uint96",
          "name": "duration",
          "type": "uint96"
        },
        {
          "internalType": "bool",
          "name": "roundUp",
          "type": "bool"
        }
      ],
      "name": "getShort",
      "outputs": [
        {
          "internalType": "uint256",
          "name": "",
          "type": "uint256"
        }
      ],
      "stateMutability": "pure",
      "type": "function"
    },
    {
      "inputs": [
        {
          "internalType": "uint160",
          "name": "liquidity",
          "type": "uint160"
        },
        {
          "internalType": "uint160",
          "name": "rate",
          "type": "uint160"
        },
        {
          "internalType": "uint256",
          "name": "longAmount",
          "type": "uint256"
        },
        {
          "internalType": "uint96",
          "name": "duration",
          "type": "uint96"
        },
        {
          "internalType": "uint256",
          "name": "transactionFee",
          "type": "uint256"
        },
        {
          "internalType": "bool",
          "name": "isAdd",
          "type": "bool"
        }
      ],
      "name": "updateGivenLong",
      "outputs": [
        {
          "internalType": "uint160",
          "name": "newRate",
          "type": "uint160"
        },
        {
          "internalType": "uint256",
          "name": "shortAmount",
          "type": "uint256"
        },
        {
          "internalType": "uint256",
          "name": "fees",
          "type": "uint256"
        }
      ],
      "stateMutability": "pure",
      "type": "function"
    },
    {
      "inputs": [
        {
          "internalType": "uint160",
          "name": "liquidity",
          "type": "uint160"
        },
        {
          "internalType": "uint160",
          "name": "rate",
          "type": "uint160"
        },
        {
          "internalType": "uint256",
          "name": "shortAmount",
          "type": "uint256"
        },
        {
          "internalType": "uint96",
          "name": "duration",
          "type": "uint96"
        },
        {
          "internalType": "uint256",
          "name": "transactionFee",
          "type": "uint256"
        },
        {
          "internalType": "bool",
          "name": "isAdd",
          "type": "bool"
        }
      ],
      "name": "updateGivenShort",
      "outputs": [
        {
          "internalType": "uint160",
          "name": "newRate",
          "type": "uint160"
        },
        {
          "internalType": "uint256",
          "name": "longAmount",
          "type": "uint256"
        },
        {
          "internalType": "uint256",
          "name": "fees",
          "type": "uint256"
        }
      ],
      "stateMutability": "pure",
      "type": "function"
    },
    {
      "inputs": [
        {
          "internalType": "uint160",
          "name": "liquidity",
          "type": "uint160"
        },
        {
          "internalType": "uint160",
          "name": "rate",
          "type": "uint160"
        },
        {
          "internalType": "uint160",
          "name": "deltaRate",
          "type": "uint160"
        },
        {
          "internalType": "uint96",
          "name": "duration",
          "type": "uint96"
        },
        {
          "internalType": "uint256",
          "name": "transactionFee",
          "type": "uint256"
        },
        {
          "internalType": "bool",
          "name": "isAdd",
          "type": "bool"
        }
      ],
      "name": "updateGivenSqrtInterestRateDelta",
      "outputs": [
        {
          "internalType": "uint160",
          "name": "newRate",
          "type": "uint160"
        },
        {
          "internalType": "uint256",
          "name": "longAmount",
          "type": "uint256"
        },
        {
          "internalType": "uint256",
          "name": "shortAmount",
          "type": "uint256"
        },
        {
          "internalType": "uint256",
          "name": "fees",
          "type": "uint256"
        }
      ],
      "stateMutability": "pure",
      "type": "function"
    },
    {
      "inputs": [
        {
          "internalType": "uint160",
          "name": "liquidity",
          "type": "uint160"
        },
        {
          "internalType": "uint160",
          "name": "rate",
          "type": "uint160"
        },
        {
          "internalType": "uint256",
          "name": "sumAmount",
          "type": "uint256"
        },
        {
          "internalType": "uint96",
          "name": "duration",
          "type": "uint96"
        },
        {
          "internalType": "uint256",
          "name": "transactionFee",
          "type": "uint256"
        },
        {
          "internalType": "bool",
          "name": "isAdd",
          "type": "bool"
        }
      ],
      "name": "updateGivenSumLong",
      "outputs": [
        {
          "internalType": "uint160",
          "name": "newRate",
          "type": "uint160"
        },
        {
          "internalType": "uint256",
          "name": "longAmount",
          "type": "uint256"
        },
        {
          "internalType": "uint256",
          "name": "shortAmount",
          "type": "uint256"
        },
        {
          "internalType": "uint256",
          "name": "fees",
          "type": "uint256"
        }
      ],
      "stateMutability": "pure",
      "type": "function"
    }
  ],
  "bytecode": {
    "object": "0x61148061003a600b82828239805160001a60731461002d57634e487b7160e01b600052600060045260246000fd5b30600052607381538281f3fe73000000000000000000000000000000000000000030146080604052600436106100a85760003560e01c80639a026cee116100705780639a026cee1461018d578063a69974c9146101a0578063ac6ee9dc146101c8578063ad174a88146101db578063f90e0505146101ee57600080fd5b806307200774146100ad57806336c5968f146100d3578063379d203a14610110578063381cfb5714610142578063656290eb1461017a575b600080fd5b6100c06100bb3660046111bd565b610201565b6040519081526020015b60405180910390f35b6100e66100e1366004611211565b61021a565b604080516001600160a01b03909516855260208501939093529183015260608201526080016100ca565b61012361011e366004611277565b610244565b604080516001600160a01b0390931683526020830191909152016100ca565b610155610150366004611211565b610261565b604080516001600160a01b0390941684526020840192909252908201526060016100ca565b610123610188366004611277565b610287565b61015561019b366004611211565b610296565b6101b36101ae3660046111bd565b6102a9565b604080519283526020830191909152016100ca565b6101556101d6366004611277565b6102b8565b6100e66101e93660046112ab565b6102da565b6100c06101fc3660046112f7565b6102ee565b600061020f85858585610305565b90505b949350505050565b60008060008061022e8a8a8a8a8a8a610334565b93509350935093505b9650965096509692505050565b600080610253868686866103c8565b915091505b94509492505050565b60008060006102748989898989896103f0565b9250925092505b96509650969350505050565b6000806102538686868661046e565b600080600061027489898989898961048b565b6000806102538686868661051d565b60008060006102c987878787610539565b9250925092505b9450945094915050565b60008060008061022e8a8a8a8a8a8a6105bc565b60006102fb848484610648565b90505b9392505050565b600061020f6001600160601b0384166001600160a01b038716026001600160a01b038616600160c01b8561066c565b600080600080600061034a8b8b8b8b8b8b61076d565b90508515610368576103608b8b838b60006107b8565b509450610378565b6103758b8b83600061084a565b94505b6103828188610953565b915061038e8282611350565b905085156103aa579150816103a3818a611350565b93506103ba565b9250826103b7818a611350565b92505b509650965096509692505050565b6000806103d78686851561096e565b91506103e582878686610305565b905094509492505050565b60008060008361040757610404878661098c565b90505b600061042d8a8a87610419578461041c565b60005b610426908c611367565b8a896107b8565b90945090506104408a8a838789156109a1565b92508415610461576104528387610953565b915061045e8284611350565b92505b5096509650969350505050565b60008061047e8686868615610a2a565b91506103e5828785610648565b6000806000836104a25761049f878661098c565b90505b6104c58989866104b257836104b5565b60005b6104bf908b611367565b8761084a565b92506104f189856104df576104da8a8661137f565b6104e9565b6104e9858b61137f565b888715610a53565b9150831561027b576105038286610953565b905061050f8183611350565b915096509650969350505050565b60008061052b858785610648565b91506103e585878686610305565b600080600061054a8787861561096e565b925061055883888787610305565b905083610568578086111561056d565b808610155b1561057a578591506102d0565b6105878787878715610a2a565b9250610594838886610648565b9150859050836105a6578186116105aa565b8186105b156102d0578591509450945094915050565b600080600080846105d6576105d1888a61137f565b6105e0565b6105e0888a6113a7565b93506105f08a8a8a8789156109a1565b92506105fe8a898988610a53565b91506106168561060e5782610610565b835b87610953565b9050841561062f576106288184611350565b9250610237565b6106398183611350565b91509650965096509692505050565b60006102fb6001600160601b0319606086901b166001600160a01b03851684610a90565b600080600061067b8787610acb565b91509150806000141561069c57610693828686610a90565b92505050610212565b8085116106d25760405163362ced0960e11b81526004810188905260248101879052604481018690526064015b60405180910390fd5b600085878909600087810388169788900497600260038a028118808b02820302808b02820302808b02820302808b02820302808b02820302808b029091030291819003819004600101868411909503948502929095039490940417928302935084905080156107505750848061074a5761074a6113d2565b86880915155b15610763578261075f816113e8565b9350505b5050949350505050565b60008061077e888888888888610aea565b905060006107918989898989878a610bad565b90506107ab600160006107a48486611350565b9190610d31565b9998505050505050505050565b6000806001600160a01b0387166001600160601b038516026107e96107e487600160c01b84881561066c565b610d50565b91508315610802576107fb82886113a7565b925061083f565b816001600160a01b0316876001600160a01b03161115610826576107fb828861137f565b60405163277c306f60e11b815260040160405180910390fd5b509550959350505050565b60006001600160601b0319606086901b166001600160a01b038516840283156108f6576001600160a01b03861661088382876000610a90565b14156108c35760006108958284611367565b90508281106108c1576108b76107e484896001600160a01b031684600161066c565b9350505050610212565b505b60006108d9836001600160a01b03891683610a90565b90506108e58682611367565b90506108b76107e484836001610a90565b6001600160a01b03861661090c82876000610a90565b1415806109195750818110155b15610937576040516317b8c70f60e01b815260040160405180910390fd5b8082036108b76107e4846001600160a01b038a1684600161066c565b6000610965838362010000600161066c565b90505b92915050565b60006102fb6107e46001600160a01b03861685600160601b8661066c565b6000610965838362010000819003600161066c565b60006001600160601b0319606087901b16826109f1576109ec866001600160a01b031660006109e584896001600160a01b0316896001600160a01b0316600061066c565b9190610a90565b610a1f565b610a1f846001600160a01b031660016109e584896001600160a01b03168b6001600160a01b0316600161066c565b979650505050505050565b600061020f6107e485600160c01b6001600160601b0387166001600160a01b038a16028661066c565b6000806001600160601b0384166001600160a01b038716029050610a86816001600160a01b038716600160c01b8661066c565b9695505050505050565b6000610a9c8385611403565b9050818015610ab35750610ab08385611417565b15155b156102fe5780610ac2816113e8565b95945050505050565b6000806000198385098385029250828110838203039150509250929050565b6000620100008390038183610b0a57610b0589896000610648565b610b17565b610b178989886000610305565b9050600084610b5657610b516001600160601b0388166001600160a01b038c16026001600160a01b038b16600160b01b86025b600061066c565b610b74565b610b746001600160a01b038b811690600160701b908c168602610b4a565b90506000610b878962010000868461066c565b905080610b948385611367565b610b9e9190611367565b9b9a5050505050505050505050565b60008082610bcc576001600160a01b0388166201000086900302610bda565b600160ae1b62010000869003025b905060008084610c0057610bfb6001600160a01b038c16600160721b610acb565b610c27565b610c276001600160601b0389166001600160a01b038d16028b6001600160a01b0316610acb565b91509150600080610c38848c610acb565b91509150600080610c49858e610acb565b91509150806000148015610c5f57508282810110155b15610c855792945084928183019450610c7b8686896000610d7e565b9096509450610ced565b610c928686896000610d7e565b9096509450610ca1868e610acb565b9094509250610cb0858e610acb565b909250905080151580610cc4575082828101105b15610ce257604051630810150560e31b815260040160405180910390fd5b929450849281830194505b600080610cfa8c8d610acb565b91509150610d0a82828a8a610e0a565b9092509050610d1b82826001610e61565b9950505050505050505050979650505050505050565b60ff821683901c818015610ab35750610ab0600160ff85161b85611417565b60006001600160a01b03821115610d7a57604051630ba006e160e41b815260040160405180910390fd5b5090565b600080610d8c868686610eef565b9092509050821561025857600080610da48487610acb565b9092509050610db3868461142b565b610dbd9082611367565b905080871180610dcc57508188115b15610dff57600019841415610df1576000935082610de9816113e8565b935050610dff565b83610dfb816113e8565b9450505b505094509492505050565b8184038285108285030384831180610e2b57508483148015610e2b57508584115b15610258576040516315b563dd60e31b8152600481018790526024810186905260448101859052606481018490526084016106c9565b600082610e7957610e728483610f9e565b90506102fe565b6000610e888585600019611025565b905060001991505b81811015610ead57809150610ea6858583611025565b9050610e90565b8215610ee757600080610ec08485610acb565b9150915080861180610ed157508187115b15610ee45783610ee0816113e8565b9450505b50505b509392505050565b60008083610f0a57610f0385846000610a90565b9150610f96565b6000610f158461105a565b90506000610f2285611087565b90505b8515610f7657600080610f388885610acb565b91509150610f48868684846110b1565b9096509450610f578884610acb565b9092509050610f6982828b60006110b1565b9099509750610f25915050565b610f8e8484610f878a896000610a90565b60006110b1565b909450925050505b935093915050565b6000600019831415610fc157506fffffffffffffffffffffffffffffffff610968565b82610fce57506000610968565b50816001818101901c5b8181101561100057809150600181828681610ff557610ff56113d2565b0401901c9050610fd8565b5081801561101657506110138184611417565b15155b156109685780610212816113e8565b60008061103585858560006110f4565b905060006110478260008660006110b1565b9092509050610a868282600260006110f4565b60008161107a576040516301de42a960e41b815260040160405180910390fd5b5060008190030460010190565b6000816110a7576040516319dbad9f60e01b815260040160405180910390fd5b5060008190030690565b8382018382018582100180851115610258576040516347b1893f60e01b8152600481018790526024810186905260448101859052606481018490526084016106c9565b600080611102868686610eef565b9092509050801561113757604051636aa917ab60e01b81526004810187905260248101869052604481018590526064016106c9565b82156111715760008061114a8487610acb565b915091508087118061115b57508188115b1561116e578361116a816113e8565b9450505b50505b50949350505050565b80356001600160a01b038116811461119157600080fd5b919050565b80356001600160601b038116811461119157600080fd5b8035801515811461119157600080fd5b600080600080608085870312156111d357600080fd5b6111dc8561117a565b93506111ea6020860161117a565b92506111f860408601611196565b9150611206606086016111ad565b905092959194509250565b60008060008060008060c0878903121561122a57600080fd5b6112338761117a565b95506112416020880161117a565b94506040870135935061125660608801611196565b92506080870135915061126b60a088016111ad565b90509295509295509295565b6000806000806080858703121561128d57600080fd5b6112968561117a565b9350602085013592506111f860408601611196565b60008060008060008060c087890312156112c457600080fd5b6112cd8761117a565b95506112db6020880161117a565b94506112e96040880161117a565b935061125660608801611196565b60008060006060848603121561130c57600080fd5b6113158461117a565b92506113236020850161117a565b9150611331604085016111ad565b90509250925092565b634e487b7160e01b600052601160045260246000fd5b6000828210156113625761136261133a565b500390565b6000821982111561137a5761137a61133a565b500190565b60006001600160a01b038381169083168181101561139f5761139f61133a565b039392505050565b60006001600160a01b038281168482168083038211156113c9576113c961133a565b01949350505050565b634e487b7160e01b600052601260045260246000fd5b60006000198214156113fc576113fc61133a565b5060010190565b600082611412576114126113d2565b500490565b600082611426576114266113d2565b500690565b60008160001904831182151516156114455761144561133a565b50029056fea264697066735822122042532ed177878160689c515afd4780ad0ab149308fad0f06b315dc5775d01de064736f6c63430008080033",
    "linkReferences": {}
  },
  "methodIdentifiers": {
    "calculateGivenLiquidityDelta(uint160,uint160,uint96,bool)": "a69974c9",
    "calculateGivenLiquidityLargerOrSmaller(uint160,uint256,uint96,bool)": "ac6ee9dc",
    "calculateGivenLiquidityLong(uint160,uint256,uint96,bool)": "379d203a",
    "calculateGivenLiquidityShort(uint160,uint256,uint96,bool)": "656290eb",
    "getLong(uint160,uint160,bool)": "f90e0505",
    "getShort(uint160,uint160,uint96,bool)": "07200774",
    "updateGivenLong(uint160,uint160,uint256,uint96,uint256,bool)": "9a026cee",
    "updateGivenShort(uint160,uint160,uint256,uint96,uint256,bool)": "381cfb57",
    "updateGivenSqrtInterestRateDelta(uint160,uint160,uint160,uint96,uint256,bool)": "ad174a88",
    "updateGivenSumLong(uint160,uint160,uint256,uint96,uint256,bool)": "36c5968f"
  },
  "id": 112
}