{
  "abi": [
    {
      "inputs": [
        {
          "internalType": "uint256",
          "name": "multiplicand",
          "type": "uint256"
        },
        {
          "internalType": "uint256",
          "name": "multiplier",
          "type": "uint256"
        },
        {
          "internalType": "uint256",
          "name": "divisor",
          "type": "uint256"
        }
      ],
      "name": "MulDivOverflow",
      "type": "error"
    },
    {
      "inputs": [
        {
          "internalType": "uint256",
          "name": "multiplicand",
          "type": "uint256"
        },
        {
          "internalType": "uint256",
          "name": "multiplier",
          "type": "uint256"
        },
        {
          "internalType": "uint256",
          "name": "divisor",
          "type": "uint256"
        },
        {
          "internalType": "bool",
          "name": "roundUp",
          "type": "bool"
        }
      ],
      "name": "proportion",
      "outputs": [
        {
          "internalType": "uint256",
          "name": "",
          "type": "uint256"
        }
      ],
      "stateMutability": "pure",
      "type": "function"
    }
  ],
  "bytecode": {
    "object": "0x6102c061003a600b82828239805160001a60731461002d57634e487b7160e01b600052600060045260246000fd5b30600052607381538281f3fe73000000000000000000000000000000000000000030146080604052600436106100355760003560e01c8063220454011461003a575b600080fd5b61004d6100483660046101dd565b61005f565b60405190815260200160405180910390f35b600061006d85858585610078565b90505b949350505050565b600061006d8585858560008060006100908787610181565b9150915080600014156100b1576100a88286866101a0565b92505050610070565b8085116100e65760405163362ced0960e11b815260048101889052602481018790526044810186905260640160405180910390fd5b600085878909600087810388169788900497600260038a028118808b02820302808b02820302808b02820302808b02820302808b02820302808b029091030291819003819004600101868411909503948502929095039490940417928302935084905080156101645750848061015e5761015e610223565b86880915155b15610177578261017381610239565b9350505b5050949350505050565b6000806000198385098385029250828110838203039150509250929050565b60006101ac8385610262565b90508180156101c357506101c08385610276565b15155b156101d657806101d281610239565b9150505b9392505050565b600080600080608085870312156101f357600080fd5b8435935060208501359250604085013591506060850135801515811461021857600080fd5b939692955090935050565b634e487b7160e01b600052601260045260246000fd5b600060001982141561025b57634e487b7160e01b600052601160045260246000fd5b5060010190565b60008261027157610271610223565b500490565b60008261028557610285610223565b50069056fea2646970667358221220874d2893ebe5cc363ee1df40c1cea5f929f7d9e2169e61ac5430bf650ae7caec64736f6c63430008080033",
    "linkReferences": {}
  },
  "methodIdentifiers": {
    "proportion(uint256,uint256,uint256,bool)": "22045401"
  },
  "id": 63
}