{
  "abi": [
    {
      "inputs": [
        {
          "internalType": "address",
          "name": "token0",
          "type": "address"
        },
        {
          "internalType": "address",
          "name": "token1",
          "type": "address"
        }
      ],
      "name": "InvalidOptionPair",
      "type": "error"
    },
    {
      "inputs": [
        {
          "internalType": "address",
          "name": "token0",
          "type": "address"
        },
        {
          "internalType": "address",
          "name": "token1",
          "type": "address"
        },
        {
          "internalType": "address",
          "name": "optionPair",
          "type": "address"
        }
      ],
      "name": "OptionPairAlreadyExisted",
      "type": "error"
    },
    {
      "inputs": [],
      "name": "ZeroOptionAddress",
      "type": "error"
    },
    {
      "inputs": [
        {
          "internalType": "address",
          "name": "token0",
          "type": "address"
        },
        {
          "internalType": "address",
          "name": "token1",
          "type": "address"
        }
      ],
      "name": "checkCorrectFormat",
      "outputs": [],
      "stateMutability": "pure",
      "type": "function"
    },
    {
      "inputs": [
        {
          "internalType": "address",
          "name": "token0",
          "type": "address"
        },
        {
          "internalType": "address",
          "name": "token1",
          "type": "address"
        },
        {
          "internalType": "address",
          "name": "optionPair",
          "type": "address"
        }
      ],
      "name": "checkDoesNotExist",
      "outputs": [],
      "stateMutability": "pure",
      "type": "function"
    },
    {
      "inputs": [
        {
          "internalType": "address",
          "name": "optionPair",
          "type": "address"
        }
      ],
      "name": "checkNotZeroAddress",
      "outputs": [],
      "stateMutability": "pure",
      "type": "function"
    }
  ],
  "bytecode": {
    "object": "0x61025361003a600b82828239805160001a60731461002d57634e487b7160e01b600052600060045260246000fd5b30600052607381538281f3fe730000000000000000000000000000000000000000301460806040526004361061004b5760003560e01c80631d7ee55b14610050578063af88102914610065578063bc34214c14610078575b600080fd5b61006361005e366004610185565b61008b565b005b6100636100733660046101c8565b61009b565b6100636100863660046101fb565b6100a9565b6100968383836100b5565b505050565b6100a582826100fd565b5050565b6100b281610142565b50565b6001600160a01b0381161561009657604051638e487c5360e01b81526001600160a01b0380851660048301528084166024830152821660448201526064015b60405180910390fd5b806001600160a01b0316826001600160a01b0316106100a557604051632ca8eb8360e21b81526001600160a01b038084166004830152821660248201526044016100f4565b6001600160a01b0381166100b2576040516313ef668560e01b815260040160405180910390fd5b80356001600160a01b038116811461018057600080fd5b919050565b60008060006060848603121561019a57600080fd5b6101a384610169565b92506101b160208501610169565b91506101bf60408501610169565b90509250925092565b600080604083850312156101db57600080fd5b6101e483610169565b91506101f260208401610169565b90509250929050565b60006020828403121561020d57600080fd5b61021682610169565b939250505056fea2646970667358221220e8812aa307b7ea1efa10d2a444227dab5837849046a0797601661455f74a452564736f6c63430008080033",
    "linkReferences": {}
  },
  "methodIdentifiers": {
    "checkCorrectFormat(address,address)": "af881029",
    "checkDoesNotExist(address,address,address)": "1d7ee55b",
    "checkNotZeroAddress(address)": "bc34214c"
  },
  "id": 60
}