{
  "abi": [
    {
      "inputs": [
        {
          "internalType": "address",
          "name": "chosenOptionFactory",
          "type": "address"
        },
        {
          "internalType": "address",
          "name": "chosenPoolFactory",
          "type": "address"
        }
      ],
      "stateMutability": "nonpayable",
      "type": "constructor"
    },
    {
      "inputs": [
        {
          "internalType": "uint256",
          "name": "maturity",
          "type": "uint256"
        }
      ],
      "name": "IncorrectMaturity",
      "type": "error"
    },
    {
      "inputs": [
        {
          "internalType": "uint256",
          "name": "multiplicand",
          "type": "uint256"
        },
        {
          "internalType": "uint256",
          "name": "multiplier",
          "type": "uint256"
        },
        {
          "internalType": "uint256",
          "name": "divisor",
          "type": "uint256"
        }
      ],
      "name": "MulDivOverflow",
      "type": "error"
    },
    {
      "inputs": [],
      "name": "NoReentrantCall",
      "type": "error"
    },
    {
      "inputs": [],
      "name": "NotApprovedToTransferFees",
      "type": "error"
    },
    {
      "inputs": [
        {
          "internalType": "uint256",
          "name": "minuend",
          "type": "uint256"
        },
        {
          "internalType": "uint256",
          "name": "subtrahend",
          "type": "uint256"
        }
      ],
      "name": "NotEnoughReceived",
      "type": "error"
    },
    {
      "inputs": [],
      "name": "NotInteracted",
      "type": "error"
    },
    {
      "inputs": [],
      "name": "ZeroAddress",
      "type": "error"
    },
    {
      "inputs": [],
      "name": "ZeroInput",
      "type": "error"
    },
    {
      "anonymous": false,
      "inputs": [
        {
          "indexed": true,
          "internalType": "address",
          "name": "account",
          "type": "address"
        },
        {
          "indexed": true,
          "internalType": "address",
          "name": "operator",
          "type": "address"
        },
        {
          "indexed": false,
          "internalType": "bool",
          "name": "approved",
          "type": "bool"
        }
      ],
      "name": "ApprovalForAll",
      "type": "event"
    },
    {
      "anonymous": false,
      "inputs": [
        {
          "indexed": true,
          "internalType": "address",
          "name": "operator",
          "type": "address"
        },
        {
          "indexed": true,
          "internalType": "address",
          "name": "from",
          "type": "address"
        },
        {
          "indexed": true,
          "internalType": "address",
          "name": "to",
          "type": "address"
        },
        {
          "indexed": false,
          "internalType": "uint256[]",
          "name": "ids",
          "type": "uint256[]"
        },
        {
          "indexed": false,
          "internalType": "uint256[]",
          "name": "values",
          "type": "uint256[]"
        }
      ],
      "name": "TransferBatch",
      "type": "event"
    },
    {
      "anonymous": false,
      "inputs": [
        {
          "indexed": false,
          "internalType": "address",
          "name": "from",
          "type": "address"
        },
        {
          "indexed": false,
          "internalType": "address",
          "name": "to",
          "type": "address"
        },
        {
          "components": [
            {
              "internalType": "address",
              "name": "token0",
              "type": "address"
            },
            {
              "internalType": "address",
              "name": "token1",
              "type": "address"
            },
            {
              "internalType": "uint256",
              "name": "strike",
              "type": "uint256"
            },
            {
              "internalType": "uint256",
              "name": "maturity",
              "type": "uint256"
            }
          ],
          "indexed": false,
          "internalType": "struct TimeswapV2LiquidityTokenPosition",
          "name": "position",
          "type": "tuple"
        },
        {
          "indexed": false,
          "internalType": "uint256",
          "name": "long0Fees",
          "type": "uint256"
        },
        {
          "indexed": false,
          "internalType": "uint256",
          "name": "long1Fees",
          "type": "uint256"
        },
        {
          "indexed": false,
          "internalType": "uint256",
          "name": "shortFees",
          "type": "uint256"
        }
      ],
      "name": "TransferFees",
      "type": "event"
    },
    {
      "anonymous": false,
      "inputs": [
        {
          "indexed": true,
          "internalType": "address",
          "name": "operator",
          "type": "address"
        },
        {
          "indexed": true,
          "internalType": "address",
          "name": "from",
          "type": "address"
        },
        {
          "indexed": true,
          "internalType": "address",
          "name": "to",
          "type": "address"
        },
        {
          "indexed": false,
          "internalType": "uint256",
          "name": "id",
          "type": "uint256"
        },
        {
          "indexed": false,
          "internalType": "uint256",
          "name": "value",
          "type": "uint256"
        }
      ],
      "name": "TransferSingle",
      "type": "event"
    },
    {
      "anonymous": false,
      "inputs": [
        {
          "indexed": false,
          "internalType": "string",
          "name": "value",
          "type": "string"
        },
        {
          "indexed": true,
          "internalType": "uint256",
          "name": "id",
          "type": "uint256"
        }
      ],
      "name": "URI",
      "type": "event"
    },
    {
      "inputs": [
        {
          "internalType": "address",
          "name": "account",
          "type": "address"
        },
        {
          "internalType": "uint256",
          "name": "id",
          "type": "uint256"
        }
      ],
      "name": "balanceOf",
      "outputs": [
        {
          "internalType": "uint256",
          "name": "",
          "type": "uint256"
        }
      ],
      "stateMutability": "view",
      "type": "function"
    },
    {
      "inputs": [
        {
          "internalType": "address[]",
          "name": "accounts",
          "type": "address[]"
        },
        {
          "internalType": "uint256[]",
          "name": "ids",
          "type": "uint256[]"
        }
      ],
      "name": "balanceOfBatch",
      "outputs": [
        {
          "internalType": "uint256[]",
          "name": "",
          "type": "uint256[]"
        }
      ],
      "stateMutability": "view",
      "type": "function"
    },
    {
      "inputs": [
        {
          "components": [
            {
              "internalType": "address",
              "name": "token0",
              "type": "address"
            },
            {
              "internalType": "address",
              "name": "token1",
              "type": "address"
            },
            {
              "internalType": "uint256",
              "name": "strike",
              "type": "uint256"
            },
            {
              "internalType": "uint256",
              "name": "maturity",
              "type": "uint256"
            },
            {
              "internalType": "address",
              "name": "to",
              "type": "address"
            },
            {
              "internalType": "uint160",
              "name": "liquidityAmount",
              "type": "uint160"
            },
            {
              "internalType": "bytes",
              "name": "data",
              "type": "bytes"
            }
          ],
          "internalType": "struct TimeswapV2LiquidityTokenBurnParam",
          "name": "param",
          "type": "tuple"
        }
      ],
      "name": "burn",
      "outputs": [
        {
          "internalType": "bytes",
          "name": "data",
          "type": "bytes"
        }
      ],
      "stateMutability": "nonpayable",
      "type": "function"
    },
    {
      "inputs": [
        {
          "components": [
            {
              "internalType": "address",
              "name": "token0",
              "type": "address"
            },
            {
              "internalType": "address",
              "name": "token1",
              "type": "address"
            },
            {
              "internalType": "uint256",
              "name": "strike",
              "type": "uint256"
            },
            {
              "internalType": "uint256",
              "name": "maturity",
              "type": "uint256"
            },
            {
              "internalType": "address",
              "name": "to",
              "type": "address"
            },
            {
              "internalType": "uint256",
              "name": "long0FeesDesired",
              "type": "uint256"
            },
            {
              "internalType": "uint256",
              "name": "long1FeesDesired",
              "type": "uint256"
            },
            {
              "internalType": "uint256",
              "name": "shortFeesDesired",
              "type": "uint256"
            },
            {
              "internalType": "bytes",
              "name": "data",
              "type": "bytes"
            }
          ],
          "internalType": "struct TimeswapV2LiquidityTokenCollectParam",
          "name": "param",
          "type": "tuple"
        }
      ],
      "name": "collect",
      "outputs": [
        {
          "internalType": "uint256",
          "name": "long0Fees",
          "type": "uint256"
        },
        {
          "internalType": "uint256",
          "name": "long1Fees",
          "type": "uint256"
        },
        {
          "internalType": "uint256",
          "name": "shortFees",
          "type": "uint256"
        },
        {
          "internalType": "bytes",
          "name": "data",
          "type": "bytes"
        }
      ],
      "stateMutability": "nonpayable",
      "type": "function"
    },
    {
      "inputs": [
        {
          "internalType": "address",
          "name": "account",
          "type": "address"
        },
        {
          "internalType": "address",
          "name": "operator",
          "type": "address"
        }
      ],
      "name": "isApprovedForAll",
      "outputs": [
        {
          "internalType": "bool",
          "name": "",
          "type": "bool"
        }
      ],
      "stateMutability": "view",
      "type": "function"
    },
    {
      "inputs": [
        {
          "components": [
            {
              "internalType": "address",
              "name": "token0",
              "type": "address"
            },
            {
              "internalType": "address",
              "name": "token1",
              "type": "address"
            },
            {
              "internalType": "uint256",
              "name": "strike",
              "type": "uint256"
            },
            {
              "internalType": "uint256",
              "name": "maturity",
              "type": "uint256"
            },
            {
              "internalType": "address",
              "name": "to",
              "type": "address"
            },
            {
              "internalType": "uint160",
              "name": "liquidityAmount",
              "type": "uint160"
            },
            {
              "internalType": "bytes",
              "name": "data",
              "type": "bytes"
            }
          ],
          "internalType": "struct TimeswapV2LiquidityTokenMintParam",
          "name": "param",
          "type": "tuple"
        }
      ],
      "name": "mint",
      "outputs": [
        {
          "internalType": "bytes",
          "name": "data",
          "type": "bytes"
        }
      ],
      "stateMutability": "nonpayable",
      "type": "function"
    },
    {
      "inputs": [],
      "name": "optionFactory",
      "outputs": [
        {
          "internalType": "address",
          "name": "",
          "type": "address"
        }
      ],
      "stateMutability": "view",
      "type": "function"
    },
    {
      "inputs": [],
      "name": "poolFactory",
      "outputs": [
        {
          "internalType": "address",
          "name": "",
          "type": "address"
        }
      ],
      "stateMutability": "view",
      "type": "function"
    },
    {
      "inputs": [
        {
          "internalType": "address",
          "name": "owner",
          "type": "address"
        },
        {
          "components": [
            {
              "internalType": "address",
              "name": "token0",
              "type": "address"
            },
            {
              "internalType": "address",
              "name": "token1",
              "type": "address"
            },
            {
              "internalType": "uint256",
              "name": "strike",
              "type": "uint256"
            },
            {
              "internalType": "uint256",
              "name": "maturity",
              "type": "uint256"
            }
          ],
          "internalType": "struct TimeswapV2LiquidityTokenPosition",
          "name": "timeswapV2LiquidityTokenPosition",
          "type": "tuple"
        }
      ],
      "name": "positionOf",
      "outputs": [
        {
          "internalType": "uint256",
          "name": "amount",
          "type": "uint256"
        }
      ],
      "stateMutability": "view",
      "type": "function"
    },
    {
      "inputs": [
        {
          "internalType": "address",
          "name": "from",
          "type": "address"
        },
        {
          "internalType": "address",
          "name": "to",
          "type": "address"
        },
        {
          "internalType": "uint256[]",
          "name": "ids",
          "type": "uint256[]"
        },
        {
          "internalType": "uint256[]",
          "name": "amounts",
          "type": "uint256[]"
        },
        {
          "internalType": "bytes",
          "name": "data",
          "type": "bytes"
        }
      ],
      "name": "safeBatchTransferFrom",
      "outputs": [],
      "stateMutability": "nonpayable",
      "type": "function"
    },
    {
      "inputs": [
        {
          "internalType": "address",
          "name": "from",
          "type": "address"
        },
        {
          "internalType": "address",
          "name": "to",
          "type": "address"
        },
        {
          "internalType": "uint256",
          "name": "id",
          "type": "uint256"
        },
        {
          "internalType": "uint256",
          "name": "amount",
          "type": "uint256"
        },
        {
          "internalType": "bytes",
          "name": "data",
          "type": "bytes"
        }
      ],
      "name": "safeTransferFrom",
      "outputs": [],
      "stateMutability": "nonpayable",
      "type": "function"
    },
    {
      "inputs": [
        {
          "internalType": "address",
          "name": "operator",
          "type": "address"
        },
        {
          "internalType": "bool",
          "name": "approved",
          "type": "bool"
        }
      ],
      "name": "setApprovalForAll",
      "outputs": [],
      "stateMutability": "nonpayable",
      "type": "function"
    },
    {
      "inputs": [
        {
          "internalType": "bytes4",
          "name": "interfaceId",
          "type": "bytes4"
        }
      ],
      "name": "supportsInterface",
      "outputs": [
        {
          "internalType": "bool",
          "name": "",
          "type": "bool"
        }
      ],
      "stateMutability": "view",
      "type": "function"
    },
    {
      "inputs": [
        {
          "internalType": "uint256",
          "name": "index",
          "type": "uint256"
        }
      ],
      "name": "tokenByIndex",
      "outputs": [
        {
          "internalType": "uint256",
          "name": "",
          "type": "uint256"
        }
      ],
      "stateMutability": "view",
      "type": "function"
    },
    {
      "inputs": [
        {
          "internalType": "address",
          "name": "owner",
          "type": "address"
        },
        {
          "internalType": "uint256",
          "name": "index",
          "type": "uint256"
        }
      ],
      "name": "tokenOfOwnerByIndex",
      "outputs": [
        {
          "internalType": "uint256",
          "name": "",
          "type": "uint256"
        }
      ],
      "stateMutability": "view",
      "type": "function"
    },
    {
      "inputs": [],
      "name": "totalSupply",
      "outputs": [
        {
          "internalType": "uint256",
          "name": "",
          "type": "uint256"
        }
      ],
      "stateMutability": "view",
      "type": "function"
    },
    {
      "inputs": [
        {
          "internalType": "address",
          "name": "from",
          "type": "address"
        },
        {
          "internalType": "address",
          "name": "to",
          "type": "address"
        },
        {
          "components": [
            {
              "internalType": "address",
              "name": "token0",
              "type": "address"
            },
            {
              "internalType": "address",
              "name": "token1",
              "type": "address"
            },
            {
              "internalType": "uint256",
              "name": "strike",
              "type": "uint256"
            },
            {
              "internalType": "uint256",
              "name": "maturity",
              "type": "uint256"
            }
          ],
          "internalType": "struct TimeswapV2LiquidityTokenPosition",
          "name": "position",
          "type": "tuple"
        },
        {
          "internalType": "uint256",
          "name": "long0Fees",
          "type": "uint256"
        },
        {
          "internalType": "uint256",
          "name": "long1Fees",
          "type": "uint256"
        },
        {
          "internalType": "uint256",
          "name": "shortFees",
          "type": "uint256"
        }
      ],
      "name": "transferFeesFrom",
      "outputs": [],
      "stateMutability": "nonpayable",
      "type": "function"
    },
    {
      "inputs": [
        {
          "internalType": "address",
          "name": "from",
          "type": "address"
        },
        {
          "internalType": "address",
          "name": "to",
          "type": "address"
        },
        {
          "components": [
            {
              "internalType": "address",
              "name": "token0",
              "type": "address"
            },
            {
              "internalType": "address",
              "name": "token1",
              "type": "address"
            },
            {
              "internalType": "uint256",
              "name": "strike",
              "type": "uint256"
            },
            {
              "internalType": "uint256",
              "name": "maturity",
              "type": "uint256"
            }
          ],
          "internalType": "struct TimeswapV2LiquidityTokenPosition",
          "name": "timeswapV2LiquidityTokenPosition",
          "type": "tuple"
        },
        {
          "internalType": "uint160",
          "name": "liquidityAmount",
          "type": "uint160"
        }
      ],
      "name": "transferTokenPositionFrom",
      "outputs": [],
      "stateMutability": "nonpayable",
      "type": "function"
    },
    {
      "inputs": [
        {
          "internalType": "uint256",
          "name": "",
          "type": "uint256"
        }
      ],
      "name": "uri",
      "outputs": [
        {
          "internalType": "string",
          "name": "",
          "type": "string"
        }
      ],
      "stateMutability": "view",
      "type": "function"
    }
  ],
  "bytecode": {
    "object": "0x60c06040523480156200001157600080fd5b5060405162003f4238038062003f4283398101604081905262000034916200016f565b60408051808201909152601b81527f54696d65737761702056322075696e74313630206164647265737300000000006020820152620000738162000093565b506001600160601b0319606092831b8116608052911b1660a052620001e4565b8051620000a8906002906020840190620000ac565b5050565b828054620000ba90620001a7565b90600052602060002090601f016020900481019282620000de576000855562000129565b82601f10620000f957805160ff191683800117855562000129565b8280016001018555821562000129579182015b82811115620001295782518255916020019190600101906200010c565b50620001379291506200013b565b5090565b5b808211156200013757600081556001016200013c565b80516001600160a01b03811681146200016a57600080fd5b919050565b600080604083850312156200018357600080fd5b6200018e8362000152565b91506200019e6020840162000152565b90509250929050565b600181811c90821680620001bc57607f821691505b60208210811415620001de57634e487b7160e01b600052602260045260246000fd5b50919050565b60805160601c60a05160601c613cec62000256600039600081816101f90152818161066601528181610b9001528181610f1c01528181611a750152612a5b0152600081816102da0152818161064501528181610b6f01528181610efb01528181611a530152612a390152613cec6000f3fe608060405234801561001057600080fd5b50600436106101205760003560e01c80634f6ccce7116100ad578063aeb2e57911610071578063aeb2e579146102c2578063b3461c87146102d5578063d5369339146102fc578063e985e9c51461030f578063f242432a1461034b57600080fd5b80634f6ccce7146102535780636ad0cef8146102665780637c229f161461028957806380f126e31461029c578063a22cb465146102af57600080fd5b80632eb2c2d6116100f45780632eb2c2d6146101965780632f745c59146101ab5780633594d9bc146101e15780634219dc40146101f45780634e1273f41461023357600080fd5b8062fdd58e1461012557806301ffc9a71461014b5780630e89341c1461016e57806318160ddd1461018e575b600080fd5b610138610133366004612db2565b61035e565b6040519081526020015b60405180910390f35b61015e610159366004612df4565b6103f4565b6040519015158152602001610142565b61018161017c366004612e11565b610446565b6040516101429190612e82565b600754610138565b6101a96101a4366004613039565b6104da565b005b6101386101b9366004612db2565b6001600160a01b03919091166000908152600360209081526040808320938352929052205490565b6101816101ef3660046130fe565b610526565b61021b7f000000000000000000000000000000000000000000000000000000000000000081565b6040516001600160a01b039091168152602001610142565b610246610241366004613132565b610992565b6040516101429190613239565b610138610261366004612e11565b610abb565b61027961027436600461324c565b610ae2565b6040516101429493929190613287565b6101816102973660046130fe565b610e77565b6101a96102aa3660046132c8565b61119d565b6101a96102bd36600461332e565b61133f565b6101a96102d036600461336c565b61134e565b61021b7f000000000000000000000000000000000000000000000000000000000000000081565b61013861030a3660046133c7565b61139d565b61015e61031d3660046133fd565b6001600160a01b03918216600090815260016020908152604080832093909416825291909152205460ff1690565b6101a961035936600461342b565b6113d3565b60006001600160a01b0383166103ce5760405162461bcd60e51b815260206004820152602a60248201527f455243313135353a2061646472657373207a65726f206973206e6f742061207660448201526930b634b21037bbb732b960b11b60648201526084015b60405180910390fd5b506000908152602081815260408083206001600160a01b03949094168352929052205490565b60006001600160e01b03198216636cdb3d1360e11b148061042557506001600160e01b031982166303a24d0760e21b145b8061044057506301ffc9a760e01b6001600160e01b03198316145b92915050565b60606002805461045590613493565b80601f016020809104026020016040519081016040528092919081815260200182805461048190613493565b80156104ce5780601f106104a3576101008083540402835291602001916104ce565b820191906000526020600020905b8154815290600101906020018083116104b157829003601f168201915b50505050509050919050565b6001600160a01b0385163314806104f657506104f6853361031d565b6105125760405162461bcd60e51b81526004016103c5906134c8565b61051f8585858585611418565b5050505050565b6060610539610534836135b5565b611611565b60408051608081019091526000908061055560208601866135c1565b6001600160a01b0316815260200184602001602081019061057691906135c1565b6001600160a01b0316815260408086013560208301526060860135910152905060006105a182611668565b6000818152600b60205260409020549091508061062c576007546105c69060016135f4565b6000818152600a60209081526040808320875181546001600160a01b039182166001600160a01b0319918216178355848a01516001840180549190931691161790558188015160028201556060880151600390910155858352600b909152902081905590505b610635826116c2565b61063e82611700565b60006106a77f00000000000000000000000000000000000000000000000000000000000000007f000000000000000000000000000000000000000000000000000000000000000061069260208a018a6135c1565b6106a260408b0160208c016135c1565b611742565b9150600090506106bd60c0880160a089016135c1565b6040805163f78333a360e01b8152908901356004820152606089013560248201523060448201526001600160a01b0384169063f78333a39060640160206040518083038186803b15801561071057600080fd5b505afa158015610724573d6000803e3d6000fd5b505050506040513d601f19601f82011682018060405250810190610748919061360c565b6107529190613629565b905061079661076760a0890160808a016135c1565b8461077860c08b0160a08c016135c1565b6001600160a01b0316604051806020016040528060008152506117f7565b6040805160c08101909152339063bef8f8f590806107b760208c018c6135c1565b6001600160a01b031681526020018a60200160208101906107d891906135c1565b6001600160a01b031681526020018a6040013581526020018a6060013581526020018a60a001602081019061080d91906135c1565b6001600160a01b0316815260200161082860c08c018c613654565b8080601f01602080910402602001604051908101604052809392919081815260200183838082843760009201919091525050509152506040516001600160e01b031960e084901b16815261087f91906004016136f6565b600060405180830381600087803b15801561089957600080fd5b505af11580156108ad573d6000803e3d6000fd5b505050506040513d6000823e601f3d908101601f191682016040526108d59190810190613709565b6040805163f78333a360e01b81529089013560048201526060890135602482015230604482015290965061097f906001600160a01b0384169063f78333a39060640160206040518083038186803b15801561092f57600080fd5b505afa158015610943573d6000803e3d6000fd5b505050506040513d601f19601f82011682018060405250810190610967919061360c565b6001600160a01b0316826001600160a01b0316611929565b61098884611954565b5050505050919050565b606081518351146109f75760405162461bcd60e51b815260206004820152602960248201527f455243313135353a206163636f756e747320616e6420696473206c656e677468604482015268040dad2e6dac2e8c6d60bb1b60648201526084016103c5565b600083516001600160401b03811115610a1257610a12612e95565b604051908082528060200260200182016040528015610a3b578160200160208202803683370190505b50905060005b8451811015610ab357610a86858281518110610a5f57610a5f613780565b6020026020010151858381518110610a7957610a79613780565b602002602001015161035e565b828281518110610a9857610a98613780565b6020908102919091010152610aac81613796565b9050610a41565b509392505050565b600060078281548110610ad057610ad0613780565b90600052602060002001549050919050565b600080806060610af9610af4866137b1565b611975565b6040805160808101909152600090610b5d9080610b1960208a018a6135c1565b6001600160a01b03168152602001886020016020810190610b3a91906135c1565b6001600160a01b031681526040808a0135602083015260608a0135910152611668565b9050610b6881611700565b6000610bcc7f00000000000000000000000000000000000000000000000000000000000000007f0000000000000000000000000000000000000000000000000000000000000000610bbc60208b018b6135c1565b6106a260408c0160208d016135c1565b9150506001600160a01b03811663d7e2c24a604089013560608a0135610bf860a08c0160808d016135c1565b6040516001600160e01b031960e086901b168152600481019390935260248301919091526001600160a01b03166044820152606481018990526084810188905260a4810187905260c401600060405180830381600087803b158015610c5c57600080fd5b505af1158015610c70573d6000803e3d6000fd5b5050506000838152600b60205260408120549150610c90903390836119de565b6000818152600c602090815260408083203384529091529020610cc19060a08a013560c08b013560e08c0135611bc7565b91985096509450610cd6610100890189613654565b159050610e15576040805161010081019091523390637fac40649080610cff60208d018d6135c1565b6001600160a01b031681526020018b6020016020810190610d2091906135c1565b6001600160a01b031681526020018b6040013581526020018b6060013581526020018a81526020018981526020018881526020018b806101000190610d659190613654565b8080601f01602080910402602001604051908101604052809392919081815260200183838082843760009201919091525050509152506040516001600160e01b031960e084901b168152610dbc9190600401613860565b600060405180830381600087803b158015610dd657600080fd5b505af1158015610dea573d6000803e3d6000fd5b505050506040513d6000823e601f3d908101601f19168201604052610e129190810190613709565b93505b6000818152600c602090815260408083203384529091529020610e3a90888888611c06565b86151580610e4757508515155b80610e5157508415155b15610e6457610e64336000836000611c5b565b610e6d83611954565b5050509193509193565b6060610e85610534836135b5565b6040805160808101909152600090610ee99080610ea560208701876135c1565b6001600160a01b03168152602001856020016020810190610ec691906135c1565b6001600160a01b0316815260408087013560208301526060870135910152611668565b9050610ef481611700565b6000610f587f00000000000000000000000000000000000000000000000000000000000000007f0000000000000000000000000000000000000000000000000000000000000000610f4860208801886135c1565b6106a26040890160208a016135c1565b9150506001600160a01b03811663c0e0c4c660408601356060870135610f8460a0890160808a016135c1565b610f9460c08a0160a08b016135c1565b6040516001600160e01b031960e087901b168152600481019490945260248401929092526001600160a01b039081166044840152166064820152608401600060405180830381600087803b158015610feb57600080fd5b505af1158015610fff573d6000803e3d6000fd5b506110119250505060c0850185613654565b15905061115a576040805160c08101909152339063aef2b334908061103960208901896135c1565b6001600160a01b0316815260200187602001602081019061105a91906135c1565b6001600160a01b0316815260200187604001358152602001876060013581526020018760a001602081019061108f91906135c1565b6001600160a01b031681526020016110aa60c0890189613654565b8080601f01602080910402602001604051908101604052809392919081815260200183838082843760009201919091525050509152506040516001600160e01b031960e084901b16815261110191906004016136f6565b600060405180830381600087803b15801561111b57600080fd5b505af115801561112f573d6000803e3d6000fd5b505050506040513d6000823e601f3d908101601f191682016040526111579190810190613709565b92505b6000828152600b602052604090205461118d90339061117f60c0880160a089016135c1565b6001600160a01b0316611d0f565b61119682611954565b5050919050565b6001600160a01b0386166111b3576111b3611ea9565b6001600160a01b0385166111c9576111c9611ea9565b6001600160a01b038616600090815260016020908152604080832033845290915290205460ff1661120d5760405163a411173560e01b815260040160405180910390fd5b6000600b81611229611224368990038901896138d1565b611668565b815260200190815260200160002054905083600014158061124957508215155b8061125357508115155b15611265576112658787836000611ec2565b6000818152600c602090815260408083206001600160a01b038a168452909152902061129390858585611fb5565b61129e8787836119de565b6000818152600c602090815260408083206001600160a01b038b16845290915290206112cc90858585611c06565b831515806112d957508215155b806112e357508115155b156112f5576112f58787836000611c5b565b7fd4036aa3d96518f25340870af7842f0aa50b57bd39134f395b423806316b1e8987878787878760405161132e96959493929190613945565b60405180910390a150505050505050565b61134a338383611fff565b5050565b6113978484600b6000611369611224368990038901896138d1565b815260200190815260200160002054846001600160a01b0316604051806020016040528060008152506113d3565b50505050565b60006113cc83600b836113b8611224368890038801886138d1565b81526020019081526020016000205461035e565b9392505050565b6001600160a01b0385163314806113ef57506113ef853361031d565b61140b5760405162461bcd60e51b81526004016103c5906134c8565b61051f85858585856120e0565b815183511461147a5760405162461bcd60e51b815260206004820152602860248201527f455243313135353a2069647320616e6420616d6f756e7473206c656e677468206044820152670dad2e6dac2e8c6d60c31b60648201526084016103c5565b6001600160a01b0384166114a05760405162461bcd60e51b81526004016103c5906139bc565b336114af818787878787612226565b60005b84518110156115955760008582815181106114cf576114cf613780565b6020026020010151905060008583815181106114ed576114ed613780565b602090810291909101810151600084815280835260408082206001600160a01b038e16835290935291909120549091508181101561153d5760405162461bcd60e51b81526004016103c590613a01565b6000838152602081815260408083206001600160a01b038e8116855292528083208585039055908b1682528120805484929061157a9084906135f4565b925050819055505050508061158e90613796565b90506114b2565b50846001600160a01b0316866001600160a01b0316826001600160a01b03167f4a39dc06d4c0dbc64b70af90fd698a233a518aa5d07e595d983b8c0526c8f7fb87876040516115e5929190613a4b565b60405180910390a46115fb81878787878761228d565b611609818787878787612300565b505050505050565b60808101516001600160a01b031661162b5761162b611ea9565b60608101516001600160601b03101561164b5761164b816060015161246b565b60a08101516001600160a01b031661166557611665612487565b50565b6040805182516001600160a01b03908116602080840191909152840151168183015290820151606080830191909152820151608082015260009060a001604051602081830303815290604052805190602001209050919050565b6000818152600960205260409020546001600160601b031661166557600081815260096020526040902080546001600160601b031916600117905550565b600081815260096020526040902054611721906001600160601b03166124a0565b600090815260096020526040902080546001600160601b0319166002179055565b6000806117596001600160a01b03871685856124f2565b6040516330af0bbf60e21b81526001600160a01b0380831660048301529193509086169063c2bc2efc9060240160206040518083038186803b15801561179e57600080fd5b505afa1580156117b2573d6000803e3d6000fd5b505050506040513d601f19601f820116820180604052508101906117d6919061360c565b90506001600160a01b0381166117ee576117ee611ea9565b94509492505050565b6001600160a01b0384166118575760405162461bcd60e51b815260206004820152602160248201527f455243313135353a206d696e7420746f20746865207a65726f206164647265736044820152607360f81b60648201526084016103c5565b33600061186385612517565b9050600061187085612517565b905061188183600089858589612226565b6000868152602081815260408083206001600160a01b038b168452909152812080548792906118b19084906135f4565b909155505060408051878152602081018790526001600160a01b03808a1692600092918716917fc3d58168c5ae7397731d063d5bbf3d657854427343f4c083240f7aacaa2d0f62910160405180910390a46119118360008985858961228d565b61192083600089898989612562565b50505050505050565b8082101561134a57604051631c22ff0160e21b815260048101839052602481018290526044016103c5565b600090815260096020526040902080546001600160601b0319166001179055565b60808101516001600160a01b031661198f5761198f611ea9565b60608101516001600160601b0310156119af576119af816060015161246b565b60a08101511580156119c3575060c0810151155b80156119d1575060e0810151155b1561166557611665612487565b816001600160a01b0316836001600160a01b031614611bc2576000818152600a60209081526040808320815160808101835281546001600160a01b03908116808352600184015490911694820185905260028301549382019390935260039091015460608201529291829182918291611a9a917f0000000000000000000000000000000000000000000000000000000000000000917f000000000000000000000000000000000000000000000000000000000000000091611742565b6040808801516060890151915163647284f560e01b81529294506001600160a01b038516935063647284f592611adc9290600401918252602082015260400190565b60606040518083038186803b158015611af457600080fd5b505afa158015611b08573d6000803e3d6000fd5b505050506040513d601f19601f82011682018060405250810190611b2c9190613a70565b91955093509150506001600160a01b03871615611b7b57611b7b611b50888761035e565b6000878152600c602090815260408083206001600160a01b038d16845290915290209085858561262c565b6001600160a01b0386161561192057611920611b97878761035e565b6000878152600c602090815260408083206001600160a01b038c16845290915290209085858561262c565b505050565b6000806000611bda8760030154876126c9565b9250611bea8760040154866126c9565b9150611bfa8760050154856126c9565b90509450945094915050565b82846003016000828254611c1a9190613a9e565b9250508190555081846004016000828254611c359190613a9e565b9250508190555080846005016000828254611c509190613a9e565b909155505050505050565b6001600160a01b038316611cb557600082815260066020526040902054158015611c83575060015b15611c9157611c91826126df565b60008281526006602052604081208054839290611caf908490613a9e565b90915550505b6001600160a01b03841615801590611cdf5750826001600160a01b0316846001600160a01b031614155b1561139757611cee848361035e565b158015611d005750611d00848361278e565b1561139757611397848361279a565b6001600160a01b038316611d715760405162461bcd60e51b815260206004820152602360248201527f455243313135353a206275726e2066726f6d20746865207a65726f206164647260448201526265737360e81b60648201526084016103c5565b336000611d7d84612517565b90506000611d8a84612517565b9050611daa83876000858560405180602001604052806000815250612226565b6000858152602081815260408083206001600160a01b038a16845290915290205484811015611e275760405162461bcd60e51b8152602060048201526024808201527f455243313135353a206275726e20616d6f756e7420657863656564732062616c604482015263616e636560e01b60648201526084016103c5565b6000868152602081815260408083206001600160a01b038b81168086529184528285208a8703905582518b81529384018a90529092908816917fc3d58168c5ae7397731d063d5bbf3d657854427343f4c083240f7aacaa2d0f62910160405180910390a46119208488600086866040518060200160405280600081525061228d565b60405163d92e233d60e01b815260040160405180910390fd5b6001600160a01b038416611f5b57600082815260066020526040902054158015611eea575060015b15611f3757611f3782600780546000838152600860205260408120829055600182018355919091527fa66cc928b5edb82af9bd49922954155ab7b0942694bea4ce44661d9a8736c6880155565b60008281526006602052604081208054839290611f559084906135f4565b90915550505b6001600160a01b03831615801590611f855750836001600160a01b0316836001600160a01b031614155b1561139757611f94838361035e565b158015611fa65750611fa6838361278e565b15611397576113978383612845565b82846003016000828254611fc991906135f4565b9250508190555081846004016000828254611fe491906135f4565b9250508190555080846005016000828254611c5091906135f4565b816001600160a01b0316836001600160a01b031614156120735760405162461bcd60e51b815260206004820152602960248201527f455243313135353a2073657474696e6720617070726f76616c20737461747573604482015268103337b91039b2b63360b91b60648201526084016103c5565b6001600160a01b03838116600081815260016020908152604080832094871680845294825291829020805460ff191686151590811790915591519182527f17307eab39ab6107e8899845ad3d59bd9653f200f220920489ca2b5937696c31910160405180910390a3505050565b6001600160a01b0384166121065760405162461bcd60e51b81526004016103c5906139bc565b33600061211285612517565b9050600061211f85612517565b905061212f838989858589612226565b6000868152602081815260408083206001600160a01b038c168452909152902054858110156121705760405162461bcd60e51b81526004016103c590613a01565b6000878152602081815260408083206001600160a01b038d8116855292528083208985039055908a168252812080548892906121ad9084906135f4565b909155505060408051888152602081018890526001600160a01b03808b16928c821692918816917fc3d58168c5ae7397731d063d5bbf3d657854427343f4c083240f7aacaa2d0f62910160405180910390a461220d848a8a86868a61228d565b61221b848a8a8a8a8a612562565b505050505050505050565b6122348686868686866128af565b60005b83518110156119205782818151811061225257612252613780565b602002602001015160001461228557612285868686848151811061227857612278613780565b60200260200101516119de565b600101612237565b60005b8351811015611920578281815181106122ab576122ab613780565b60200260200101516000146122f8576122f886868684815181106122d1576122d1613780565b60200260200101518685815181106122eb576122eb613780565b6020026020010151611c5b565b600101612290565b6001600160a01b0384163b156116095760405163bc197c8160e01b81526001600160a01b0385169063bc197c81906123449089908990889088908890600401613ab5565b602060405180830381600087803b15801561235e57600080fd5b505af192505050801561238e575060408051601f3d908101601f1916820190925261238b91810190613b13565b60015b61243b5761239a613b30565b806308c379a014156123d457506123af613b4c565b806123ba57506123d6565b8060405162461bcd60e51b81526004016103c59190612e82565b505b60405162461bcd60e51b815260206004820152603460248201527f455243313135353a207472616e7366657220746f206e6f6e2d455243313135356044820152732932b1b2b4bb32b91034b6b83632b6b2b73a32b960611b60648201526084016103c5565b6001600160e01b0319811663bc197c8160e01b146119205760405162461bcd60e51b81526004016103c590613bd5565b6040516335f135d360e01b8152600481018290526024016103c5565b60405163af458c0760e01b815260040160405180910390fd5b6001600160601b0381166124c75760405163e2228b1560e01b815260040160405180910390fd5b6001600160601b038116600214156116655760405163865a6de560e01b815260040160405180910390fd5b60006124ff848484612922565b90506001600160a01b0381166113cc576113cc611ea9565b6040805160018082528183019092526060916000919060208083019080368337019050509050828160008151811061255157612551613780565b602090810291909101015292915050565b6001600160a01b0384163b156116095760405163f23a6e6160e01b81526001600160a01b0385169063f23a6e61906125a69089908990889088908890600401613c1d565b602060405180830381600087803b1580156125c057600080fd5b505af19250505080156125f0575060408051601f3d908101601f191682019092526125ed91810190613b13565b60015b6125fc5761239a613b30565b6001600160e01b0319811663f23a6e6160e01b146119205760405162461bcd60e51b81526004016103c590613bd5565b6001600160a01b038416156126b55761264a848660000154856129af565b85600301600082825461265d91906135f4565b92505081905550612673848660010154846129af565b85600401600082825461268691906135f4565b9250508190555061269c848660020154836129af565b8560050160008282546126af91906135f4565b90915550505b918455600184015560029092019190915550565b60008183106126d857816113cc565b5090919050565b6007546000906126f190600190613a9e565b6000838152600860205260408120546007805493945090928490811061271957612719613780565b90600052602060002001549050806007838154811061273a5761273a613780565b600091825260208083209091019290925582815260089091526040808220849055858252812055600780548061277257612772613c62565b6001900381819060005260206000200160009055905550505050565b60006113cc83836129dc565b6001600160a01b0382166000908152600460205260408120546127bf90600190613a9e565b600083815260056020526040902054909150808214612812576001600160a01b03841660009081526003602090815260408083208584528252808320548484528184208190558352600590915290208190555b5060009182526005602090815260408084208490556001600160a01b039094168352600381528383209183525290812055565b6001600160a01b038216600090815260046020526040812080546001929061286e9084906135f4565b90915550506001600160a01b039091166000908152600460209081526040808320546003835281842081855283528184208590559383526005909152902055565b60005b8351811015611920578281815181106128cd576128cd613780565b602002602001015160001461291a5761291a86868684815181106128f3576128f3613780565b602002602001015186858151811061290d5761290d613780565b6020026020010151611ec2565b6001016128b2565b60405163d81e842360e01b81526001600160a01b03838116600483015282811660248301526000919085169063d81e84239060440160206040518083038186803b15801561296f57600080fd5b505afa158015612983573d6000803e3d6000fd5b505050506040513d601f19601f820116820180604052508101906129a7919061360c565b949350505050565b6000828214156129c05760006129a7565b6129a76001600160a01b038516600160801b8585036000612bc7565b6000818152600a60209081526040808320815160808101835281546001600160a01b0390811680835260018401549091169482018590526002830154938201939093526003909101546060820152918391829182918291612a81917f0000000000000000000000000000000000000000000000000000000000000000917f00000000000000000000000000000000000000000000000000000000000000009190611742565b6040808801516060890151915163647284f560e01b81529294506001600160a01b038516935063647284f592612ac39290600401918252602082015260400190565b60606040518083038186803b158015612adb57600080fd5b505afa158015612aef573d6000803e3d6000fd5b505050506040513d601f19601f82011682018060405250810190612b139190613a70565b60008a8152600c602090815260408083206001600160a01b038f1684528252808320815160c0810183528154815260018201549381019390935260028101549183019190915260038101546060830152600481015460808301526005015460a082015293975091955093509091508080612b9a612b908c8c61035e565b8590898989612cc3565b925092509250826000148015612bae575081155b8015612bb8575080155b9b9a5050505050505050505050565b6000806000612bd68787612d33565b915091508060001415612bf757612bee828686612d52565b925050506129a7565b808511612c285760405163362ced0960e11b81526004810188905260248101879052604481018690526064016103c5565b600085878909600087810388169788900497600260038a028118808b02820302808b02820302808b02820302808b02820302808b02820302808b02909103029181900381900460010186841190950394850292909503949094041792830293508490508015612ca657508480612ca057612ca0613c78565b86880915155b15612cb95782612cb581613796565b9350505b5050949350505050565b6000806000612cd7878960000151886129af565b8860600151612ce691906135f4565b9250612cf7878960200151876129af565b8860800151612d0691906135f4565b9150612d17878960400151866129af565b8860a00151612d2691906135f4565b9050955095509592505050565b6000806000198385098385029250828110838203039150509250929050565b6000612d5e8385613c8e565b9050818015612d755750612d728385613ca2565b15155b156113cc5780612d8481613796565b95945050505050565b6001600160a01b038116811461166557600080fd5b8035612dad81612d8d565b919050565b60008060408385031215612dc557600080fd5b8235612dd081612d8d565b946020939093013593505050565b6001600160e01b03198116811461166557600080fd5b600060208284031215612e0657600080fd5b81356113cc81612dde565b600060208284031215612e2357600080fd5b5035919050565b60005b83811015612e45578181015183820152602001612e2d565b838111156113975750506000910152565b60008151808452612e6e816020860160208601612e2a565b601f01601f19169290920160200192915050565b6020815260006113cc6020830184612e56565b634e487b7160e01b600052604160045260246000fd5b601f8201601f191681016001600160401b0381118282101715612ed057612ed0612e95565b6040525050565b60405160e081016001600160401b0381118282101715612ef957612ef9612e95565b60405290565b60405161012081016001600160401b0381118282101715612ef957612ef9612e95565b60006001600160401b03821115612f3b57612f3b612e95565b5060051b60200190565b600082601f830112612f5657600080fd5b81356020612f6382612f22565b604051612f708282612eab565b83815260059390931b8501820192828101915086841115612f9057600080fd5b8286015b84811015612fab5780358352918301918301612f94565b509695505050505050565b60006001600160401b03821115612fcf57612fcf612e95565b50601f01601f191660200190565b600082601f830112612fee57600080fd5b8135612ff981612fb6565b6040516130068282612eab565b82815285602084870101111561301b57600080fd5b82602086016020830137600092810160200192909252509392505050565b600080600080600060a0868803121561305157600080fd5b853561305c81612d8d565b9450602086013561306c81612d8d565b935060408601356001600160401b038082111561308857600080fd5b61309489838a01612f45565b945060608801359150808211156130aa57600080fd5b6130b689838a01612f45565b935060808801359150808211156130cc57600080fd5b506130d988828901612fdd565b9150509295509295909350565b600060e082840312156130f857600080fd5b50919050565b60006020828403121561311057600080fd5b81356001600160401b0381111561312657600080fd5b6129a7848285016130e6565b6000806040838503121561314557600080fd5b82356001600160401b038082111561315c57600080fd5b818501915085601f83011261317057600080fd5b8135602061317d82612f22565b60405161318a8282612eab565b83815260059390931b85018201928281019150898411156131aa57600080fd5b948201945b838610156131d15785356131c281612d8d565b825294820194908201906131af565b965050860135925050808211156131e757600080fd5b506131f485828601612f45565b9150509250929050565b600081518084526020808501945080840160005b8381101561322e57815187529582019590820190600101613212565b509495945050505050565b6020815260006113cc60208301846131fe565b60006020828403121561325e57600080fd5b81356001600160401b0381111561327457600080fd5b820161012081850312156113cc57600080fd5b8481528360208201528260408201526080606082015260006132ac6080830184612e56565b9695505050505050565b6000608082840312156130f857600080fd5b60008060008060008061012087890312156132e257600080fd5b86356132ed81612d8d565b955060208701356132fd81612d8d565b945061330c88604089016132b6565b935060c0870135925060e0870135915061010087013590509295509295509295565b6000806040838503121561334157600080fd5b823561334c81612d8d565b91506020830135801515811461336157600080fd5b809150509250929050565b60008060008060e0858703121561338257600080fd5b843561338d81612d8d565b9350602085013561339d81612d8d565b92506133ac86604087016132b6565b915060c08501356133bc81612d8d565b939692955090935050565b60008060a083850312156133da57600080fd5b82356133e581612d8d565b91506133f484602085016132b6565b90509250929050565b6000806040838503121561341057600080fd5b823561341b81612d8d565b9150602083013561336181612d8d565b600080600080600060a0868803121561344357600080fd5b853561344e81612d8d565b9450602086013561345e81612d8d565b9350604086013592506060860135915060808601356001600160401b0381111561348757600080fd5b6130d988828901612fdd565b600181811c908216806134a757607f821691505b602082108114156130f857634e487b7160e01b600052602260045260246000fd5b6020808252602e908201527f455243313135353a2063616c6c6572206973206e6f7420746f6b656e206f776e60408201526d195c881bdc88185c1c1c9bdd995960921b606082015260800190565b600060e0828403121561352857600080fd5b613530612ed7565b905061353b82612da2565b815261354960208301612da2565b6020820152604082013560408201526060820135606082015261356e60808301612da2565b608082015261357f60a08301612da2565b60a082015260c08201356001600160401b0381111561359d57600080fd5b6135a984828501612fdd565b60c08301525092915050565b60006104403683613516565b6000602082840312156135d357600080fd5b81356113cc81612d8d565b634e487b7160e01b600052601160045260246000fd5b60008219821115613607576136076135de565b500190565b60006020828403121561361e57600080fd5b81516113cc81612d8d565b60006001600160a01b0382811684821680830382111561364b5761364b6135de565b01949350505050565b6000808335601e1984360301811261366b57600080fd5b8301803591506001600160401b0382111561368557600080fd5b60200191503681900382131561369a57600080fd5b9250929050565b600060018060a01b0380835116845280602084015116602085015260408301516040850152606083015160608501528060808401511660808501525060a082015160c060a08501526129a760c0850182612e56565b6020815260006113cc60208301846136a1565b60006020828403121561371b57600080fd5b81516001600160401b0381111561373157600080fd5b8201601f8101841361374257600080fd5b805161374d81612fb6565b60405161375a8282612eab565b82815286602084860101111561376f57600080fd5b6132ac836020830160208701612e2a565b634e487b7160e01b600052603260045260246000fd5b60006000198214156137aa576137aa6135de565b5060010190565b600061012082360312156137c457600080fd5b6137cc612eff565b6137d583612da2565b81526137e360208401612da2565b6020820152604083013560408201526060830135606082015261380860808401612da2565b608082015260a083013560a082015260c083013560c082015260e083013560e0820152610100808401356001600160401b0381111561384657600080fd5b61385236828701612fdd565b918301919091525092915050565b60208152600060018060a01b03808451166020840152806020850151166040840152506040830151606083015260608301516080830152608083015160a083015260a083015160c083015260c083015160e083015260e08301516101008081850152506129a7610120840182612e56565b6000608082840312156138e357600080fd5b604051608081018181106001600160401b038211171561390557613905612e95565b604052823561391381612d8d565b8152602083013561392381612d8d565b6020820152604083810135908201526060928301359281019290925250919050565b6001600160a01b0387811682528681166020830152610120820190863561396b81612d8d565b81166040840152602087013561398081612d8d565b8181166060850152505060408601356080830152606086013560a08301528460c08301528360e083015282610100830152979650505050505050565b60208082526025908201527f455243313135353a207472616e7366657220746f20746865207a65726f206164604082015264647265737360d81b606082015260800190565b6020808252602a908201527f455243313135353a20696e73756666696369656e742062616c616e636520666f60408201526939103a3930b739b332b960b11b606082015260800190565b604081526000613a5e60408301856131fe565b8281036020840152612d8481856131fe565b600080600060608486031215613a8557600080fd5b8351925060208401519150604084015190509250925092565b600082821015613ab057613ab06135de565b500390565b6001600160a01b0386811682528516602082015260a060408201819052600090613ae1908301866131fe565b8281036060840152613af381866131fe565b90508281036080840152613b078185612e56565b98975050505050505050565b600060208284031215613b2557600080fd5b81516113cc81612dde565b600060033d1115613b495760046000803e5060005160e01c5b90565b600060443d1015613b5a5790565b6040516003193d81016004833e81513d6001600160401b038160248401118184111715613b8957505050505090565b8285019150815181811115613ba15750505050505090565b843d8701016020828501011115613bbb5750505050505090565b613bca60208286010187612eab565b509095945050505050565b60208082526028908201527f455243313135353a204552433131353552656365697665722072656a656374656040820152676420746f6b656e7360c01b606082015260800190565b6001600160a01b03868116825285166020820152604081018490526060810183905260a060808201819052600090613c5790830184612e56565b979650505050505050565b634e487b7160e01b600052603160045260246000fd5b634e487b7160e01b600052601260045260246000fd5b600082613c9d57613c9d613c78565b500490565b600082613cb157613cb1613c78565b50069056fea26469706673582212203c04d32b994602cea5c71abd8ea5dccc14d7071a10f12ca5c1321d544fab7e1d64736f6c63430008080033",
    "linkReferences": {}
  },
  "methodIdentifiers": {
    "balanceOf(address,uint256)": "00fdd58e",
    "balanceOfBatch(address[],uint256[])": "4e1273f4",
    "burn((address,address,uint256,uint256,address,uint160,bytes))": "7c229f16",
    "collect((address,address,uint256,uint256,address,uint256,uint256,uint256,bytes))": "6ad0cef8",
    "isApprovedForAll(address,address)": "e985e9c5",
    "mint((address,address,uint256,uint256,address,uint160,bytes))": "3594d9bc",
    "optionFactory()": "b3461c87",
    "poolFactory()": "4219dc40",
    "positionOf(address,(address,address,uint256,uint256))": "d5369339",
    "safeBatchTransferFrom(address,address,uint256[],uint256[],bytes)": "2eb2c2d6",
    "safeTransferFrom(address,address,uint256,uint256,bytes)": "f242432a",
    "setApprovalForAll(address,bool)": "a22cb465",
    "supportsInterface(bytes4)": "01ffc9a7",
    "tokenByIndex(uint256)": "4f6ccce7",
    "tokenOfOwnerByIndex(address,uint256)": "2f745c59",
    "totalSupply()": "18160ddd",
    "transferFeesFrom(address,address,(address,address,uint256,uint256),uint256,uint256,uint256)": "80f126e3",
    "transferTokenPositionFrom(address,address,(address,address,uint256,uint256),uint160)": "aeb2e579",
    "uri(uint256)": "0e89341c"
  },
  "id": 141
}