{
  "abi": [
    {
      "inputs": [],
      "name": "Uint160Overflow",
      "type": "error"
    },
    {
      "inputs": [],
      "name": "Uint16Overflow",
      "type": "error"
    },
    {
      "inputs": [],
      "name": "Uint96Overflow",
      "type": "error"
    },
    {
      "inputs": [
        {
          "internalType": "uint256",
          "name": "value",
          "type": "uint256"
        }
      ],
      "name": "toUint16",
      "outputs": [
        {
          "internalType": "uint16",
          "name": "result",
          "type": "uint16"
        }
      ],
      "stateMutability": "pure",
      "type": "function"
    },
    {
      "inputs": [
        {
          "internalType": "uint256",
          "name": "value",
          "type": "uint256"
        }
      ],
      "name": "toUint160",
      "outputs": [
        {
          "internalType": "uint160",
          "name": "result",
          "type": "uint160"
        }
      ],
      "stateMutability": "pure",
      "type": "function"
    },
    {
      "inputs": [
        {
          "internalType": "uint256",
          "name": "value",
          "type": "uint256"
        }
      ],
      "name": "toUint96",
      "outputs": [
        {
          "internalType": "uint96",
          "name": "result",
          "type": "uint96"
        }
      ],
      "stateMutability": "pure",
      "type": "function"
    }
  ],
  "bytecode": {
    "object": "0x6101ce61003a600b82828239805160001a60731461002d57634e487b7160e01b600052600060045260246000fd5b30600052607381538281f3fe730000000000000000000000000000000000000000301460806040526004361061004b5760003560e01c80631cf887fc146100505780639374068f14610085578063dfef6beb146100ab575b600080fd5b61006361005e36600461017f565b6100d6565b6040516bffffffffffffffffffffffff90911681526020015b60405180910390f35b61009861009336600461017f565b6100e7565b60405161ffff909116815260200161007c565b6100be6100b936600461017f565b6100f2565b6040516001600160a01b03909116815260200161007c565b60006100e1826100fd565b92915050565b60006100e182610130565b60006100e182610155565b60006bffffffffffffffffffffffff82111561012c57604051637119f00960e11b815260040160405180910390fd5b5090565b600061ffff82111561012c576040516306d3fb5760e31b815260040160405180910390fd5b60006001600160a01b0382111561012c57604051630ba006e160e41b815260040160405180910390fd5b60006020828403121561019157600080fd5b503591905056fea264697066735822122075b71d1b87b07c50e79bc1ca2851fecba8e3ee1ab02eef9312f7d9aae5eae10564736f6c63430008080033",
    "linkReferences": {}
  },
  "methodIdentifiers": {
    "toUint16(uint256)": "9374068f",
    "toUint160(uint256)": "dfef6beb",
    "toUint96(uint256)": "1cf887fc"
  },
  "id": 33
}