{
  "abi": [
    {
      "inputs": [
        {
          "internalType": "uint256",
          "name": "dividend",
          "type": "uint256"
        },
        {
          "internalType": "uint256",
          "name": "divisor",
          "type": "uint256"
        },
        {
          "internalType": "bool",
          "name": "roundUp",
          "type": "bool"
        }
      ],
      "name": "div",
      "outputs": [
        {
          "internalType": "uint256",
          "name": "quotient",
          "type": "uint256"
        }
      ],
      "stateMutability": "pure",
      "type": "function"
    },
    {
      "inputs": [
        {
          "internalType": "uint256",
          "name": "value1",
          "type": "uint256"
        },
        {
          "internalType": "uint256",
          "name": "value2",
          "type": "uint256"
        }
      ],
      "name": "min",
      "outputs": [
        {
          "internalType": "uint256",
          "name": "result",
          "type": "uint256"
        }
      ],
      "stateMutability": "pure",
      "type": "function"
    },
    {
      "inputs": [
        {
          "internalType": "uint256",
          "name": "dividend",
          "type": "uint256"
        },
        {
          "internalType": "uint8",
          "name": "divisorBit",
          "type": "uint8"
        },
        {
          "internalType": "bool",
          "name": "roundUp",
          "type": "bool"
        }
      ],
      "name": "shr",
      "outputs": [
        {
          "internalType": "uint256",
          "name": "quotient",
          "type": "uint256"
        }
      ],
      "stateMutability": "pure",
      "type": "function"
    },
    {
      "inputs": [
        {
          "internalType": "uint256",
          "name": "value",
          "type": "uint256"
        },
        {
          "internalType": "bool",
          "name": "roundUp",
          "type": "bool"
        }
      ],
      "name": "sqrt",
      "outputs": [
        {
          "internalType": "uint256",
          "name": "result",
          "type": "uint256"
        }
      ],
      "stateMutability": "pure",
      "type": "function"
    },
    {
      "inputs": [
        {
          "internalType": "uint256",
          "name": "addend1",
          "type": "uint256"
        },
        {
          "internalType": "uint256",
          "name": "addend2",
          "type": "uint256"
        }
      ],
      "name": "unsafeAdd",
      "outputs": [
        {
          "internalType": "uint256",
          "name": "sum",
          "type": "uint256"
        }
      ],
      "stateMutability": "pure",
      "type": "function"
    },
    {
      "inputs": [
        {
          "internalType": "uint256",
          "name": "multiplicand",
          "type": "uint256"
        },
        {
          "internalType": "uint256",
          "name": "multiplier",
          "type": "uint256"
        }
      ],
      "name": "unsafeMul",
      "outputs": [
        {
          "internalType": "uint256",
          "name": "product",
          "type": "uint256"
        }
      ],
      "stateMutability": "pure",
      "type": "function"
    },
    {
      "inputs": [
        {
          "internalType": "uint256",
          "name": "minuend",
          "type": "uint256"
        },
        {
          "internalType": "uint256",
          "name": "subtrahend",
          "type": "uint256"
        }
      ],
      "name": "unsafeSub",
      "outputs": [
        {
          "internalType": "uint256",
          "name": "difference",
          "type": "uint256"
        }
      ],
      "stateMutability": "pure",
      "type": "function"
    }
  ],
  "bytecode": {
    "object": "0x6103f161003a600b82828239805160001a60731461002d57634e487b7160e01b600052600060045260246000fd5b30600052607381538281f3fe73000000000000000000000000000000000000000030146080604052600436106100875760003560e01c80637ae2b5c7116100655780637ae2b5c7146100d75780639eb4547b146100ea578063babc6318146100fd578063f65b48331461011057600080fd5b80633f3f78991461008c578063502df5e0146100b1578063509e19d1146100c4575b600080fd5b61009f61009a366004610281565b610123565b60405190815260200160405180910390f35b61009f6100bf366004610281565b610132565b61009f6100d23660046102b8565b61013c565b61009f6100e5366004610281565b610153565b61009f6100f8366004610281565b61015f565b61009f61010b3660046102fc565b610169565b61009f61011e366004610328565b610176565b60008183015b90505b92915050565b6000818302610129565b6000610149848484610182565b90505b9392505050565b600061012983836101bc565b6000818303610129565b60006101498484846101d2565b600061012983836101f2565b60ff821683901c8180156101a457506101a1600160ff85161b8561036a565b15155b1561014c57806101b38161037e565b95945050505050565b60008183106101cb5781610129565b5090919050565b60006101de83856103a7565b90508180156101a457506101a1838561036a565b600060001983141561021557506fffffffffffffffffffffffffffffffff61012c565b826102225750600061012c565b50816001818101901c5b818110156102545780915060018182868161024957610249610354565b0401901c905061022c565b5081801561026a5750610267818461036a565b15155b1561012c57806102798161037e565b949350505050565b6000806040838503121561029457600080fd5b50508035926020909101359150565b803580151581146102b357600080fd5b919050565b6000806000606084860312156102cd57600080fd5b83359250602084013560ff811681146102e557600080fd5b91506102f3604085016102a3565b90509250925092565b60008060006060848603121561031157600080fd5b83359250602084013591506102f3604085016102a3565b6000806040838503121561033b57600080fd5b8235915061034b602084016102a3565b90509250929050565b634e487b7160e01b600052601260045260246000fd5b60008261037957610379610354565b500690565b60006000198214156103a057634e487b7160e01b600052601160045260246000fd5b5060010190565b6000826103b6576103b6610354565b50049056fea2646970667358221220bae56ac1b7e14a8c0c1d1975cb4ea277f9add9cd184677e8af14b6f91cfef74c64736f6c63430008080033",
    "linkReferences": {}
  },
  "methodIdentifiers": {
    "div(uint256,uint256,bool)": "babc6318",
    "min(uint256,uint256)": "7ae2b5c7",
    "shr(uint256,uint8,bool)": "509e19d1",
    "sqrt(uint256,bool)": "f65b4833",
    "unsafeAdd(uint256,uint256)": "3f3f7899",
    "unsafeMul(uint256,uint256)": "502df5e0",
    "unsafeSub(uint256,uint256)": "9eb4547b"
  },
  "id": 32
}