{
  "abi": [
    {
      "inputs": [],
      "name": "Uint96Overflow",
      "type": "error"
    },
    {
      "inputs": [
        {
          "internalType": "uint96",
          "name": "lastTimestamp",
          "type": "uint96"
        },
        {
          "internalType": "uint256",
          "name": "maturity",
          "type": "uint256"
        }
      ],
      "name": "unsafeDurationFromLastTimestampToMaturity",
      "outputs": [
        {
          "internalType": "uint96",
          "name": "",
          "type": "uint96"
        }
      ],
      "stateMutability": "pure",
      "type": "function"
    },
    {
      "inputs": [
        {
          "internalType": "uint96",
          "name": "lastTimestamp",
          "type": "uint96"
        },
        {
          "internalType": "uint96",
          "name": "blockTimestamp",
          "type": "uint96"
        }
      ],
      "name": "unsafeDurationFromLastTimestampToNow",
      "outputs": [
        {
          "internalType": "uint96",
          "name": "",
          "type": "uint96"
        }
      ],
      "stateMutability": "pure",
      "type": "function"
    },
    {
      "inputs": [
        {
          "internalType": "uint96",
          "name": "lastTimestamp",
          "type": "uint96"
        },
        {
          "internalType": "uint256",
          "name": "maturity",
          "type": "uint256"
        },
        {
          "internalType": "uint96",
          "name": "blockTimestamp",
          "type": "uint96"
        }
      ],
      "name": "unsafeDurationFromLastTimestampToNowOrMaturity",
      "outputs": [
        {
          "internalType": "uint96",
          "name": "",
          "type": "uint96"
        }
      ],
      "stateMutability": "pure",
      "type": "function"
    },
    {
      "inputs": [
        {
          "internalType": "uint256",
          "name": "maturity",
          "type": "uint256"
        },
        {
          "internalType": "uint96",
          "name": "blockTimestamp",
          "type": "uint96"
        }
      ],
      "name": "unsafeDurationFromNowToMaturity",
      "outputs": [
        {
          "internalType": "uint96",
          "name": "",
          "type": "uint96"
        }
      ],
      "stateMutability": "pure",
      "type": "function"
    }
  ],
  "bytecode": {
    "object": "0x6102d161003a600b82828239805160001a60731461002d57634e487b7160e01b600052600060045260246000fd5b30600052607381538281f3fe73000000000000000000000000000000000000000030146080604052600436106100565760003560e01c806325fccfd21461005b57806330c948fe1461008a578063600fb9f41461009d578063e1146420146100b0575b600080fd5b61006e6100693660046101df565b6100c3565b6040516001600160601b03909116815260200160405180910390f35b61006e61009836600461021b565b6100d8565b61006e6100ab36600461024e565b6100eb565b61006e6100be366004610271565b6100f7565b60006100d0848484610103565b949350505050565b60006100e4838361013a565b9392505050565b60006100e48383610153565b60006100e48383610169565b60006100d0610135856001600160601b0316610131856001600160601b03168761017f90919063ffffffff16565b0390565b610195565b60006100e46001600160601b0384811690841603610195565b60006100e46001600160601b0383168403610195565b60006100e46001600160601b0384168303610195565b600081831061018e57816100e4565b5090919050565b60006001600160601b038211156101bf57604051637119f00960e11b815260040160405180910390fd5b5090565b80356001600160601b03811681146101da57600080fd5b919050565b6000806000606084860312156101f457600080fd5b6101fd846101c3565b925060208401359150610212604085016101c3565b90509250925092565b6000806040838503121561022e57600080fd5b610237836101c3565b9150610245602084016101c3565b90509250929050565b6000806040838503121561026157600080fd5b82359150610245602084016101c3565b6000806040838503121561028457600080fd5b61028d836101c3565b94602093909301359350505056fea26469706673582212204e3ac14fcaeeac70f6427444e33481eea1e311c79262c9d76455d73b60e7caaa64736f6c63430008080033",
    "linkReferences": {}
  },
  "methodIdentifiers": {
    "unsafeDurationFromLastTimestampToMaturity(uint96,uint256)": "e1146420",
    "unsafeDurationFromLastTimestampToNow(uint96,uint96)": "30c948fe",
    "unsafeDurationFromLastTimestampToNowOrMaturity(uint96,uint256,uint96)": "25fccfd2",
    "unsafeDurationFromNowToMaturity(uint256,uint96)": "600fb9f4"
  },
  "id": 113
}