{
  "abi": [
    {
      "inputs": [
        {
          "internalType": "uint256",
          "name": "duration",
          "type": "uint256"
        }
      ],
      "name": "DurationOverflow",
      "type": "error"
    },
    {
      "inputs": [
        {
          "internalType": "uint256",
          "name": "duration",
          "type": "uint256"
        }
      ],
      "name": "init",
      "outputs": [
        {
          "internalType": "uint96",
          "name": "",
          "type": "uint96"
        }
      ],
      "stateMutability": "pure",
      "type": "function"
    }
  ],
  "bytecode": {
    "object": "0x60fe610039600b82828239805160001a60731461002c57634e487b7160e01b600052600060045260246000fd5b30600052607381538281f3fe730000000000000000000000000000000000000000301460806040526004361060335760003560e01c8063b7b0422d146038575b600080fd5b6047604336600460b0565b6068565b6040516bffffffffffffffffffffffff909116815260200160405180910390f35b60006071826077565b92915050565b60006bffffffffffffffffffffffff82111560ac57604051638df23e3760e01b81526004810183905260240160405180910390fd5b5090565b60006020828403121560c157600080fd5b503591905056fea26469706673582212205ccf0ad768713f3946fea56c95e07be967e790979039b7dc6fa933b1afa95b6564736f6c63430008080033",
    "linkReferences": {}
  },
  "methodIdentifiers": {
    "init(uint256)": "b7b0422d"
  },
  "id": 114
}