{"src/TimeswapV2Option.sol":{"TimeswapV2Option":{"abi":[{"inputs":[],"stateMutability":"nonpayable","type":"constructor"},{"inputs":[{"internalType":"uint256","name":"maturity","type":"uint256"},{"internalType":"uint96","name":"blockTimestamp","type":"uint96"}],"name":"AlreadyMatured","type":"error"},{"inputs":[],"name":"CannotBeDelegateCalled","type":"error"},{"inputs":[{"internalType":"uint256","name":"strike","type":"uint256"},{"internalType":"uint256","name":"maturity","type":"uint256"}],"name":"InactiveOption","type":"error"},{"inputs":[{"internalType":"uint256","name":"maturity","type":"uint256"}],"name":"IncorrectMaturity","type":"error"},{"inputs":[],"name":"InvalidPosition","type":"error"},{"inputs":[],"name":"InvalidTransaction","type":"error"},{"inputs":[{"internalType":"uint256","name":"multiplicand","type":"uint256"},{"internalType":"uint256","name":"multiplier","type":"uint256"},{"internalType":"uint256","name":"divisor","type":"uint256"}],"name":"MulDivOverflow","type":"error"},{"inputs":[{"internalType":"uint256","name":"minuend","type":"uint256"},{"internalType":"uint256","name":"subtrahend","type":"uint256"}],"name":"NotEnoughReceived","type":"error"},{"inputs":[{"internalType":"uint256","name":"maturity","type":"uint256"},{"internalType":"uint96","name":"blockTimestamp","type":"uint96"}],"name":"StillActive","type":"error"},{"inputs":[],"name":"ZeroAddress","type":"error"},{"inputs":[],"name":"ZeroInput","type":"error"},{"anonymous":false,"inputs":[{"indexed":false,"internalType":"uint256","name":"strike","type":"uint256"},{"indexed":false,"internalType":"uint256","name":"maturity","type":"uint256"},{"indexed":false,"internalType":"address","name":"caller","type":"address"},{"indexed":false,"internalType":"address","name":"token0To","type":"address"},{"indexed":false,"internalType":"address","name":"token1To","type":"address"},{"indexed":false,"internalType":"uint256","name":"token0AndLong0Amount","type":"uint256"},{"indexed":false,"internalType":"uint256","name":"token1AndLong1Amount","type":"uint256"},{"indexed":false,"internalType":"uint256","name":"shortAmount","type":"uint256"}],"name":"Burn","type":"event"},{"anonymous":false,"inputs":[{"indexed":false,"internalType":"uint256","name":"strike","type":"uint256"},{"indexed":false,"internalType":"uint256","name":"maturity","type":"uint256"},{"indexed":false,"internalType":"address","name":"caller","type":"address"},{"indexed":false,"internalType":"address","name":"token0To","type":"address"},{"indexed":false,"internalType":"address","name":"token1To","type":"address"},{"indexed":false,"internalType":"uint256","name":"long0AndToken0Amount","type":"uint256"},{"indexed":false,"internalType":"uint256","name":"long1Amount","type":"uint256"},{"indexed":false,"internalType":"uint256","name":"token1Amount","type":"uint256"}],"name":"Collect","type":"event"},{"anonymous":false,"inputs":[{"indexed":false,"internalType":"uint256","name":"strike","type":"uint256"},{"indexed":false,"internalType":"uint256","name":"maturity","type":"uint256"},{"indexed":false,"internalType":"address","name":"caller","type":"address"},{"indexed":false,"internalType":"address","name":"long0To","type":"address"},{"indexed":false,"internalType":"address","name":"long1To","type":"address"},{"indexed":false,"internalType":"address","name":"shortTo","type":"address"},{"indexed":false,"internalType":"uint256","name":"token0AndLong0Amount","type":"uint256"},{"indexed":false,"internalType":"uint256","name":"token1AndLong1Amount","type":"uint256"},{"indexed":false,"internalType":"uint256","name":"shortAmount","type":"uint256"}],"name":"Mint","type":"event"},{"anonymous":false,"inputs":[{"indexed":false,"internalType":"uint256","name":"strike","type":"uint256"},{"indexed":false,"internalType":"uint256","name":"maturity","type":"uint256"},{"indexed":false,"internalType":"address","name":"caller","type":"address"},{"indexed":false,"internalType":"address","name":"tokenTo","type":"address"},{"indexed":false,"internalType":"address","name":"longTo","type":"address"},{"indexed":false,"internalType":"bool","name":"isLong0toLong1","type":"bool"},{"indexed":false,"internalType":"uint256","name":"token0AndLong0Amount","type":"uint256"},{"indexed":false,"internalType":"uint256","name":"token1AndLong1Amount","type":"uint256"}],"name":"Swap","type":"event"},{"anonymous":false,"inputs":[{"indexed":false,"internalType":"uint256","name":"strike","type":"uint256"},{"indexed":false,"internalType":"uint256","name":"maturity","type":"uint256"},{"indexed":false,"internalType":"address","name":"from","type":"address"},{"indexed":false,"internalType":"address","name":"to","type":"address"},{"indexed":false,"internalType":"enum TimeswapV2OptionPosition","name":"position","type":"uint8"},{"indexed":false,"internalType":"uint256","name":"amount","type":"uint256"}],"name":"TransferPosition","type":"event"},{"inputs":[{"components":[{"internalType":"uint256","name":"strike","type":"uint256"},{"internalType":"uint256","name":"maturity","type":"uint256"},{"internalType":"address","name":"token0To","type":"address"},{"internalType":"address","name":"token1To","type":"address"},{"internalType":"enum TimeswapV2OptionBurn","name":"transaction","type":"uint8"},{"internalType":"uint256","name":"amount0","type":"uint256"},{"internalType":"uint256","name":"amount1","type":"uint256"},{"internalType":"bytes","name":"data","type":"bytes"}],"internalType":"struct TimeswapV2OptionBurnParam","name":"param","type":"tuple"}],"name":"burn","outputs":[{"internalType":"uint256","name":"token0AndLong0Amount","type":"uint256"},{"internalType":"uint256","name":"token1AndLong1Amount","type":"uint256"},{"internalType":"uint256","name":"shortAmount","type":"uint256"},{"internalType":"bytes","name":"data","type":"bytes"}],"stateMutability":"nonpayable","type":"function"},{"inputs":[{"components":[{"internalType":"uint256","name":"strike","type":"uint256"},{"internalType":"uint256","name":"maturity","type":"uint256"},{"internalType":"address","name":"token0To","type":"address"},{"internalType":"address","name":"token1To","type":"address"},{"internalType":"enum TimeswapV2OptionCollect","name":"transaction","type":"uint8"},{"internalType":"uint256","name":"amount","type":"uint256"},{"internalType":"bytes","name":"data","type":"bytes"}],"internalType":"struct TimeswapV2OptionCollectParam","name":"param","type":"tuple"}],"name":"collect","outputs":[{"internalType":"uint256","name":"token0Amount","type":"uint256"},{"internalType":"uint256","name":"token1Amount","type":"uint256"},{"internalType":"uint256","name":"shortAmount","type":"uint256"},{"internalType":"bytes","name":"data","type":"bytes"}],"stateMutability":"nonpayable","type":"function"},{"inputs":[{"internalType":"uint256","name":"id","type":"uint256"}],"name":"getByIndex","outputs":[{"components":[{"internalType":"uint256","name":"strike","type":"uint256"},{"internalType":"uint256","name":"maturity","type":"uint256"}],"internalType":"struct StrikeAndMaturity","name":"","type":"tuple"}],"stateMutability":"view","type":"function"},{"inputs":[{"components":[{"internalType":"uint256","name":"strike","type":"uint256"},{"internalType":"uint256","name":"maturity","type":"uint256"},{"internalType":"address","name":"long0To","type":"address"},{"internalType":"address","name":"long1To","type":"address"},{"internalType":"address","name":"shortTo","type":"address"},{"internalType":"enum TimeswapV2OptionMint","name":"transaction","type":"uint8"},{"internalType":"uint256","name":"amount0","type":"uint256"},{"internalType":"uint256","name":"amount1","type":"uint256"},{"internalType":"bytes","name":"data","type":"bytes"}],"internalType":"struct TimeswapV2OptionMintParam","name":"param","type":"tuple"}],"name":"mint","outputs":[{"internalType":"uint256","name":"token0AndLong0Amount","type":"uint256"},{"internalType":"uint256","name":"token1AndLong1Amount","type":"uint256"},{"internalType":"uint256","name":"shortAmount","type":"uint256"},{"internalType":"bytes","name":"data","type":"bytes"}],"stateMutability":"nonpayable","type":"function"},{"inputs":[],"name":"numberOfOptions","outputs":[{"internalType":"uint256","name":"","type":"uint256"}],"stateMutability":"view","type":"function"},{"inputs":[],"name":"optionFactory","outputs":[{"internalType":"address","name":"","type":"address"}],"stateMutability":"view","type":"function"},{"inputs":[{"internalType":"uint256","name":"strike","type":"uint256"},{"internalType":"uint256","name":"maturity","type":"uint256"},{"internalType":"address","name":"owner","type":"address"},{"internalType":"enum TimeswapV2OptionPosition","name":"position","type":"uint8"}],"name":"positionOf","outputs":[{"internalType":"uint256","name":"","type":"uint256"}],"stateMutability":"view","type":"function"},{"inputs":[{"components":[{"internalType":"uint256","name":"strike","type":"uint256"},{"internalType":"uint256","name":"maturity","type":"uint256"},{"internalType":"address","name":"tokenTo","type":"address"},{"internalType":"address","name":"longTo","type":"address"},{"internalType":"bool","name":"isLong0ToLong1","type":"bool"},{"internalType":"enum TimeswapV2OptionSwap","name":"transaction","type":"uint8"},{"internalType":"uint256","name":"amount","type":"uint256"},{"internalType":"bytes","name":"data","type":"bytes"}],"internalType":"struct TimeswapV2OptionSwapParam","name":"param","type":"tuple"}],"name":"swap","outputs":[{"internalType":"uint256","name":"token0AndLong0Amount","type":"uint256"},{"internalType":"uint256","name":"token1AndLong1Amount","type":"uint256"},{"internalType":"bytes","name":"data","type":"bytes"}],"stateMutability":"nonpayable","type":"function"},{"inputs":[],"name":"token0","outputs":[{"internalType":"address","name":"","type":"address"}],"stateMutability":"view","type":"function"},{"inputs":[],"name":"token1","outputs":[{"internalType":"address","name":"","type":"address"}],"stateMutability":"view","type":"function"},{"inputs":[{"internalType":"uint256","name":"strike","type":"uint256"},{"internalType":"uint256","name":"maturity","type":"uint256"},{"internalType":"enum TimeswapV2OptionPosition","name":"position","type":"uint8"}],"name":"totalPosition","outputs":[{"internalType":"uint256","name":"","type":"uint256"}],"stateMutability":"view","type":"function"},{"inputs":[{"internalType":"uint256","name":"strike","type":"uint256"},{"internalType":"uint256","name":"maturity","type":"uint256"},{"internalType":"address","name":"to","type":"address"},{"internalType":"enum TimeswapV2OptionPosition","name":"position","type":"uint8"},{"internalType":"uint256","name":"amount","type":"uint256"}],"name":"transferPosition","outputs":[],"stateMutability":"nonpayable","type":"function"}],"evm":{"bytecode":{"linkReferences":{},"object":"6101006040523480156200001257600080fd5b5030606090811b6080526040805163ad4d4e2960e01b81529051339263ad4d4e299260048082019391829003018186803b1580156200005057600080fd5b505afa15801562000065573d6000803e3d6000fd5b505050506040513d601f19601f820116820180604052508101906200008b9190620000d1565b6001600160601b0319606091821b811660e05291811b821660c0529190911b1660a0526200011b565b80516001600160a01b0381168114620000cc57600080fd5b919050565b600080600060608486031215620000e757600080fd5b620000f284620000b4565b92506200010260208501620000b4565b91506200011260408501620000b4565b90509250925092565b60805160601c60a05160601c60c05160601c60e05160601c6133cf620001c26000396000818161020f015281816103a8015281816109e701528181610cea01528181611137015281816111df01528181611372015261150b01526000818160be0152818161035e0152818161093c01528181610c3f01528181610fd30152818161107b0152818161139801526114e5015260006101d50152600061181301526133cf6000f3fe608060405234801561001057600080fd5b50600436106100b45760003560e01c8063af2f91ea11610071578063af2f91ea14610186578063b084c25214610199578063b2ceca77146101bb578063b3461c87146101d0578063b7fb542d146101f7578063d21220a71461020a57600080fd5b80630dfe1681146100b95780632d883a73146100fd578063622fb68f1461012b5780637087c1f61461014e57806380e066791461016157806387ed3ecf14610174575b600080fd5b6100e07f000000000000000000000000000000000000000000000000000000000000000081565b6040516001600160a01b0390911681526020015b60405180910390f35b61011061010b3660046129c3565b610231565b604080518251815260209283015192810192909252016100f4565b61013e6101393660046129f5565b61028c565b6040516100f49493929190612a81565b61013e61015c366004612ab0565b6105f3565b61013e61016f366004612aea565b610843565b6003545b6040519081526020016100f4565b610178610194366004612b59565b610e6d565b6101ac6101a73660046129f5565b610e9a565b6040516100f493929190612ba1565b6101ce6101c9366004612bc0565b61171a565b005b6100e07f000000000000000000000000000000000000000000000000000000000000000081565b610178610205366004612c10565b6117dc565b6100e07f000000000000000000000000000000000000000000000000000000000000000081565b60408051808201909152600080825260208201526003828154811061025857610258612c49565b9060005260206000209060020201604051806040016040529081600082015481526020016001820154815250509050919050565b6000806000606061029b611808565b8435600090815260026020908152604080832082890135845290915290205460ff166102d0576102d085356020870135611853565b6102e26102dc86612da8565b4261187b565b8435600081815260208181526040808320828a013584529091529020906103259061031360a0890160808a01612e49565b83919060a08a013560c08b0135611931565b9196509450925061033b600186866000806119ef565b8415610385576103856103546060880160408901612e66565b6001600160a01b037f0000000000000000000000000000000000000000000000000000000000000000169087611a9e565b83156103cf576103cf61039e6080880160608901612e66565b6001600160a01b037f0000000000000000000000000000000000000000000000000000000000000000169086611a9e565b6103dc60e0870187612e81565b1590506104e357336001600160a01b0316638c5f08516040518060c001604052808960000135815260200189602001358152602001888152602001878152602001868152602001898060e001906104339190612e81565b8080601f01602080910402602001604051908101604052809392919081815260200183838082843760009201919091525050509152506040516001600160e01b031960e084901b16815261048a9190600401612f15565b600060405180830381600087803b1580156104a457600080fd5b505af11580156104b8573d6000803e3d6000fd5b505050506040513d6000823e601f3d908101601f191682016040526104e09190810190612f28565b91505b33600090815260028201602052604081208054879290610504908490612fab565b90915550503360009081526003820160205260408120805486929061052a908490612fab565b909155505033600090815260048201602052604081208054859290610550908490612fab565b909155507f5e34e67b3e203229e29d54244b2c750f9038bc8d484cbcb7693ab665c35c962c9050863560208801353361058f60608b0160408c01612e66565b61059f60808c0160608d01612e66565b6040805195865260208601949094526001600160a01b0392831685850152908216606085015216608083015260a0820188905260c0820187905260e0820186905251908190036101000190a1509193509193565b60008060006060610602611808565b8435600090815260026020908152604080832082890135845290915290205460ff166106375761063785356020870135611853565b61064961064386612fc2565b42611af5565b8435600081815260208181526040808320828a013584529091529020906106879061067a60a0890160808a01613058565b83919060a08a0135611b98565b9196509450925061069d600186866000806119ef565b84156106b6576106b66103546060880160408901612e66565b83156106cf576106cf61039e6080880160608901612e66565b6106dc60c0870187612e81565b1590506107e357336001600160a01b031663dc6fddcf6040518060c001604052808960000135815260200189602001358152602001888152602001878152602001868152602001898060c001906107339190612e81565b8080601f01602080910402602001604051908101604052809392919081815260200183838082843760009201919091525050509152506040516001600160e01b031960e084901b16815261078a9190600401612f15565b600060405180830381600087803b1580156107a457600080fd5b505af11580156107b8573d6000803e3d6000fd5b505050506040513d6000823e601f3d908101601f191682016040526107e09190810190612f28565b91505b33600090815260048201602052604081208054859290610804908490612fab565b909155507fa9321c5c860b13f184d4b6bc6793bede025ef1a51e4c3527d0733f225df69db69050863560208801353361058f60608b0160408c01612e66565b60008060006060610852611808565b61086461085e86613075565b42611cca565b61087385356020870135611d93565b8435600081815260208181526040808320828a0135845290915290819020916108eb916108a69060608a01908a01612e66565b6108b660808a0160608b01612e66565b6108c660a08b0160808c01612e66565b6108d660c08c0160a08d01612e49565b86949392919060c08d013560e08e0135611e4b565b919650945092506109006001868682806119ef565b60408051608081018252873581526020808901359082015281516370a0823160e01b815230600482015260009282019088906001600160a01b037f000000000000000000000000000000000000000000000000000000000000000016906370a082319060240160206040518083038186803b15801561097e57600080fd5b505afa158015610992573d6000803e3d6000fd5b505050506040513d601f19601f820116820180604052508101906109b6919061312b565b6109c09190613144565b81526040516370a0823160e01b815230600482015260209091019087906001600160a01b037f000000000000000000000000000000000000000000000000000000000000000016906370a082319060240160206040518083038186803b158015610a2957600080fd5b505afa158015610a3d573d6000803e3d6000fd5b505050506040513d601f19601f82011682018060405250810190610a61919061312b565b610a6b9190613144565b9052600180548082018255600091909152815160049091027fb10e2d527612073b26eecdfd717e6a320cf44b4afac2b0732d9fcbe2b7fa0cf681019182556020838101517fb10e2d527612073b26eecdfd717e6a320cf44b4afac2b0732d9fcbe2b7fa0cf78301556040808501517fb10e2d527612073b26eecdfd717e6a320cf44b4afac2b0732d9fcbe2b7fa0cf88401556060948501517fb10e2d527612073b26eecdfd717e6a320cf44b4afac2b0732d9fcbe2b7fa0cf990930192909255815160c0810183528b3581528b820135918101919091529081018990529182018790526080820186905291503390634a358d659060a08101610b716101008c018c612e81565b8080601f01602080910402602001604051908101604052809392919081815260200183838082843760009201919091525050509152506040516001600160e01b031960e084901b168152610bc89190600401612f15565b600060405180830381600087803b158015610be257600080fd5b505af1158015610bf6573d6000803e3d6000fd5b505050506040513d6000823e601f3d908101601f19168201604052610c1e9190810190612f28565b92508515610ccb576040516370a0823160e01b8152306004820152610ccb907f00000000000000000000000000000000000000000000000000000000000000006001600160a01b0316906370a082319060240160206040518083038186803b158015610c8957600080fd5b505afa158015610c9d573d6000803e3d6000fd5b505050506040513d601f19601f82011682018060405250810190610cc1919061312b565b8260020154611fb8565b8415610d76576040516370a0823160e01b8152306004820152610d76907f00000000000000000000000000000000000000000000000000000000000000006001600160a01b0316906370a082319060240160206040518083038186803b158015610d3457600080fd5b505afa158015610d48573d6000803e3d6000fd5b505050506040513d601f19601f82011682018060405250810190610d6c919061312b565b8260030154611fb8565b6001805480610d8757610d8761315c565b6000828152602080822060046000199094019384020182815560018101839055600281018390556003019190915591557f0991839fbc46f2e3816b51c806bee50f76ee23053c1b131a9fbf07fc2d6df8aa9088359089013533610df060608c0160408d01612e66565b610e0060808d0160608e01612e66565b610e1060a08e0160808f01612e66565b6040805196875260208701959095526001600160a01b03938416868601529183166060860152821660808501521660a083015260c0820189905260e08201889052610100820187905251908190036101200190a150509193509193565b6000848152602081815260408083208684529091528120610e8f908484611fe3565b90505b949350505050565b6000806060610ea7611808565b8335600090815260026020908152604080832082880135845290915290205460ff16610edc57610edc84356020860135611853565b610eee610ee88561318b565b42612095565b8335600081815260208181526040808320828901358452909152902090610f4e90610f1f6080880160608901612e66565b610f2f60a0890160808a0161321b565b610f3f60c08a0160a08b01612e49565b859392919060c08b0135612137565b9094509250610f848484610f6860a0890160808a0161321b565b15610f7960a08a0160808b0161321b565b6001939291906119ef565b600060405180608001604052808760000135815260200187602001358152602001876080016020810190610fb8919061321b565b611064576040516370a0823160e01b815230600482015287907f00000000000000000000000000000000000000000000000000000000000000006001600160a01b0316906370a082319060240160206040518083038186803b15801561101d57600080fd5b505afa158015611031573d6000803e3d6000fd5b505050506040513d601f19601f82011682018060405250810190611055919061312b565b61105f9190613144565b611107565b6040516370a0823160e01b815230600482015287907f00000000000000000000000000000000000000000000000000000000000000006001600160a01b0316906370a082319060240160206040518083038186803b1580156110c557600080fd5b505afa1580156110d9573d6000803e3d6000fd5b505050506040513d601f19601f820116820180604052508101906110fd919061312b565b6111079190612fab565b815260200161111c60a0890160808a0161321b565b6111c8576040516370a0823160e01b815230600482015286907f00000000000000000000000000000000000000000000000000000000000000006001600160a01b0316906370a082319060240160206040518083038186803b15801561118157600080fd5b505afa158015611195573d6000803e3d6000fd5b505050506040513d601f19601f820116820180604052508101906111b9919061312b565b6111c39190612fab565b61126b565b6040516370a0823160e01b815230600482015286907f00000000000000000000000000000000000000000000000000000000000000006001600160a01b0316906370a082319060240160206040518083038186803b15801561122957600080fd5b505afa15801561123d573d6000803e3d6000fd5b505050506040513d601f19601f82011682018060405250810190611261919061312b565b61126b9190613144565b9052600180548082018255600091909152815160049091027fb10e2d527612073b26eecdfd717e6a320cf44b4afac2b0732d9fcbe2b7fa0cf6810191825560208301517fb10e2d527612073b26eecdfd717e6a320cf44b4afac2b0732d9fcbe2b7fa0cf78201556040808401517fb10e2d527612073b26eecdfd717e6a320cf44b4afac2b0732d9fcbe2b7fa0cf88301556060938401517fb10e2d527612073b26eecdfd717e6a320cf44b4afac2b0732d9fcbe2b7fa0cf9909201919091559092506113c89161134091908901908901612e66565b61135060a0890160808a0161321b565b61135a578561135c565b865b61136c60a08a0160808b0161321b565b611396577f00000000000000000000000000000000000000000000000000000000000000006113b8565b7f00000000000000000000000000000000000000000000000000000000000000005b6001600160a01b03169190611a9e565b6040805160c0810182528735815260208089013590820152339163dc4a4847919081016113fb60a08b0160808c0161321b565b15158152602081018990526040810188905260600161141d60e08b018b612e81565b8080601f01602080910402602001604051908101604052809392919081815260200183838082843760009201919091525050509152506040516001600160e01b031960e084901b1681526114749190600401613238565b600060405180830381600087803b15801561148e57600080fd5b505af11580156114a2573d6000803e3d6000fd5b505050506040513d6000823e601f3d908101601f191682016040526114ca9190810190612f28565b92506115c26114df60a088016080890161321b565b611509577f000000000000000000000000000000000000000000000000000000000000000061152b565b7f00000000000000000000000000000000000000000000000000000000000000005b6040516370a0823160e01b81523060048201526001600160a01b0391909116906370a082319060240160206040518083038186803b15801561156c57600080fd5b505afa158015611580573d6000803e3d6000fd5b505050506040513d601f19601f820116820180604052508101906115a4919061312b565b6115b460a0890160808a0161321b565b610d6c578260020154611fb8565b6115d260a087016080880161321b565b1561160357336000908152600283016020526040812080548792906115f8908490612fab565b9091555061162a9050565b33600090815260038301602052604081208054869290611624908490612fab565b90915550505b600180548061163b5761163b61315c565b6000828152602080822060046000199094019384020182815560018101839055600281018390556003019190915591557e92a054e9363f3efd42f73f1da82239b3dc6edafea865e59f1cffa4dd7dc22690873590880135336116a360608b0160408c01612e66565b6116b360808c0160608d01612e66565b6116c360a08d0160808e0161321b565b6040805196875260208701959095526001600160a01b039384168686015291831660608601529091166080840152151560a083015260c0820188905260e0820187905251908190036101000190a150509193909250565b600085815260026020908152604080832087845290915290205460ff16611745576117458585611853565b6001600160a01b03831661175b5761175b612273565b806117685761176861228c565b611771826122a5565b6000858152602081815260408083208784529091529020611794908484846122da565b7f70faa8e36be9e16810b2a40b964c4b9ae20a221c53bc3fd03fc843110d336dbb8585338686866040516117cd9695949392919061329d565b60405180910390a15050505050565b60008381526020818152604080832085845290915281206117fe90858461242f565b90505b9392505050565b306001600160a01b037f0000000000000000000000000000000000000000000000000000000000000000161461185157604051634118e0bb60e11b815260040160405180910390fd5b565b60405163e407078d60e01b815260048101839052602481018290526044015b60405180910390fd5b81516118895761188961228c565b60208201516001600160601b0310156118a9576118a982602001516124a6565b806001600160601b03168260200151116118cb576118cb8260200151826124c2565b60408201516001600160a01b03166118e5576118e5612273565b60608201516001600160a01b03166118ff576118ff612273565b61190c82608001516124ed565b60a0820151158015611920575060c0820151155b1561192d5761192d61228c565b5050565b600080808086600181111561194857611948613287565b141561196857611961859350838593508389600161251f565b90506119ae565b600186600181111561197c5761197c613287565b14156119ae5761198c8486613144565b905061199b8588600080612562565b92506119ab848860016000612562565b91505b828860000160008282546119c29190612fab565b92505081905550818860010160008282546119dd9190612fab565b92505081905550955095509592505050565b60005b8554811015611a96576000868281548110611a0f57611a0f612c49565b9060005260206000209060040201905085600014611a575783611a4157858160020154611a3c9190612fab565b611a51565b858160020154611a519190613144565b60028201555b8415611a8d5782611a7757848160030154611a729190612fab565b611a87565b848160030154611a879190613144565b60038201555b506001016119f2565b505050505050565b604080516001600160a01b038416602482015260448082018490528251808303909101815260649091019091526020810180516001600160e01b031663a9059cbb60e01b179052611af09084906125a2565b505050565b8151611b0357611b0361228c565b60208201516001600160601b031015611b2357611b2382602001516124a6565b806001600160601b031682602001511115611b4657611b46826020015182612674565b60408201516001600160a01b0316611b6057611b60612273565b60608201516001600160a01b0316611b7a57611b7a612273565b611b87826080015161269f565b60a082015161192d5761192d61228c565b600080600080611bb38860000154896001015489600161251f565b90506000866002811115611bc957611bc9613287565b1415611bff578754859250611be29083908360006126b3565b6001890154909450611bf89083908360006126b3565b9250611c89565b6001866002811115611c1357611c13613287565b1415611c43578754859450611c2d908590839060016126b3565b6001890154909250611bf89083908360006126b3565b6002866002811115611c5757611c57613287565b1415611c8957600180890154869450611c7391859184916126b3565b8854909250611c869083908360006126b3565b93505b83886000016000828254611c9d9190612fab565b9250508190555082886001016000828254611cb89190612fab565b92505081905550509450945094915050565b8151611cd857611cd861228c565b60208201516001600160601b031015611cf857611cf882602001516124a6565b806001600160601b0316826020015111611d1a57611d1a8260200151826124c2565b60808201516001600160a01b0316611d3457611d34612273565b60408201516001600160a01b0316611d4e57611d4e612273565b60608201516001600160a01b0316611d6857611d68612273565b611d758260a001516124ed565b60c0820151158015611920575060e082015161192d5761192d61228c565b600082815260026020908152604080832084845290915290205460ff1661192d5760008281526002602081815260408084208585528252808420805460ff191660019081179091558151808301909252958152908101938452600380549586018155909252905192027fc2575a0e9e593c00f959f8c92f12db2869c3395a3b0502d05e2516446f71f85b810192909255517fc2575a0e9e593c00f959f8c92f12db2869c3395a3b0502d05e2516446f71f85c90910155565b6000808080866001811115611e6257611e62613287565b1415611e8257611e7b85935083859350838c600061251f565b9050611ec8565b6001866001811115611e9657611e96613287565b1415611ec857611ea68486613144565b9050611eb6858b60006001612562565b9250611ec5848b600180612562565b91505b8215611f1757828b6000016000828254611ee29190613144565b90915550506001600160a01b038916600090815260028c01602052604081208054859290611f11908490613144565b90915550505b8115611f6657818b6001016000828254611f319190613144565b90915550506001600160a01b038816600090815260038c01602052604081208054849290611f60908490613144565b90915550505b6001600160a01b038716600090815260048c01602052604081208054839290611f90908490613144565b90915550508a546001808d0154611fa992918d9061251f565b50985098509895505050505050565b8082101561192d57604051631c22ff0160e21b81526004810183905260248101829052604401611872565b600080826002811115611ff857611ff8613287565b141561201f57506001600160a01b0382166000908152600284016020526040902054611801565b600182600281111561203357612033613287565b141561205a57506001600160a01b0382166000908152600384016020526040902054611801565b600282600281111561206e5761206e613287565b14156118015750506001600160a01b03166000908152600491909101602052604090205490565b81516120a3576120a361228c565b60208201516001600160601b0310156120c3576120c382602001516124a6565b806001600160601b03168260200151116120e5576120e58260200151826124c2565b60408201516001600160a01b03166120ff576120ff612273565b60608201516001600160a01b031661211957612119612273565b6121268260a001516124ed565b60c082015161192d5761192d61228c565b6000808084600181111561214d5761214d613287565b141561216a5782915061216382886001886126c1565b9050612197565b600184600181111561217e5761217e613287565b14156121975750816121948188600088156126c1565b91505b841561220657818860000160008282546121b19190612fab565b92505081905550808860010160008282546121cc9190613144565b90915550506001600160a01b0386166000908152600389016020526040812080548392906121fb908490613144565b909155506122689050565b8088600101600082825461221a9190612fab565b9091555050875482908990600090612233908490613144565b90915550506001600160a01b038616600090815260028901602052604081208054849290612262908490613144565b90915550505b965096945050505050565b60405163d92e233d60e01b815260040160405180910390fd5b60405163af458c0760e01b815260040160405180910390fd5b60038160028111156122b9576122b9613287565b106122d75760405163673f032f60e11b815260040160405180910390fd5b50565b60008260028111156122ee576122ee613287565b141561234f5733600090815260028501602052604081208054839290612315908490612fab565b90915550506001600160a01b038316600090815260028501602052604081208054839290612344908490613144565b909155506124299050565b600182600281111561236357612363613287565b14156123b9576001600160a01b038316600090815260038501602052604081208054839290612393908490613144565b909155505033600090815260038501602052604081208054839290612344908490612fab565b60028260028111156123cd576123cd613287565b141561242957336000908152600485016020526040812080548392906123f4908490612fab565b90915550506001600160a01b038316600090815260048501602052604081208054839290612423908490613144565b90915550505b50505050565b60008082600281111561244457612444613287565b141561245257508254611801565b600182600281111561246657612466613287565b141561247757506001830154611801565b600282600281111561248b5761248b613287565b1415611801576117fe8460000154856001015485600161251f565b6040516335f135d360e01b815260048101829052602401611872565b60405163647284e960e11b8152600481018390526001600160601b0382166024820152604401611872565b600281600181111561250157612501613287565b106122d75760405163280503e760e11b815260040160405180910390fd5b60006001600160801b03831161254b5761253c85846001856126c1565b6125469085613144565b610e8f565b61255884846000856126c1565b610e8f9086613144565b60006001600160801b03841161258a57826125845761254685856000856126c1565b84610e8f565b826125955784610e8f565b610e8f85856001856126c1565b60006125f7826040518060400160405280602081526020017f5361666545524332303a206c6f772d6c6576656c2063616c6c206661696c6564815250856001600160a01b03166126e89092919063ffffffff16565b805190915015611af0578080602001905181019061261591906132f4565b611af05760405162461bcd60e51b815260206004820152602a60248201527f5361666545524332303a204552433230206f7065726174696f6e20646964206e6044820152691bdd081cdd58d8d9595960b21b6064820152608401611872565b60405163b9e0f8d560e01b8152600481018390526001600160601b0382166024820152604401611872565b600381600281111561250157612501613287565b6000610e8f858585856126f7565b6000826126d85761254685600160801b86856126f7565b610e8f8585600160801b856126f7565b60606117fe84846000856127f3565b600080600061270687876128ce565b9150915080600014156127275761271e8286866128ed565b92505050610e92565b8085116127585760405163362ced0960e11b8152600481018890526024810187905260448101869052606401611872565b600085878909600087810388169788900497600260038a028118808b02820302808b02820302808b02820302808b02820302808b02820302808b029091030291819003819004600101868411909503948502929095039490940417928302935084905080156127d6575084806127d0576127d0613311565b86880915155b156127e957826127e581613327565b9350505b5050949350505050565b6060824710156128545760405162461bcd60e51b815260206004820152602660248201527f416464726573733a20696e73756666696369656e742062616c616e636520666f6044820152651c8818d85b1b60d21b6064820152608401611872565b600080866001600160a01b031685876040516128709190613342565b60006040518083038185875af1925050503d80600081146128ad576040519150601f19603f3d011682016040523d82523d6000602084013e6128b2565b606091505b50915091506128c387838387612928565b979650505050505050565b6000806000198385098385029250828110838203039150509250929050565b60006128f9838561335e565b9050818015612910575061290d8385613372565b15155b15611801578061291f81613327565b95945050505050565b6060831561299457825161298d576001600160a01b0385163b61298d5760405162461bcd60e51b815260206004820152601d60248201527f416464726573733a2063616c6c20746f206e6f6e2d636f6e74726163740000006044820152606401611872565b5081610e92565b610e9283838151156129a95781518083602001fd5b8060405162461bcd60e51b81526004016118729190613386565b6000602082840312156129d557600080fd5b5035919050565b600061010082840312156129ef57600080fd5b50919050565b600060208284031215612a0757600080fd5b81356001600160401b03811115612a1d57600080fd5b610e92848285016129dc565b60005b83811015612a44578181015183820152602001612a2c565b838111156124295750506000910152565b60008151808452612a6d816020860160208601612a29565b601f01601f19169290920160200192915050565b848152836020820152826040820152608060608201526000612aa66080830184612a55565b9695505050505050565b600060208284031215612ac257600080fd5b81356001600160401b03811115612ad857600080fd5b820160e0818503121561180157600080fd5b600060208284031215612afc57600080fd5b81356001600160401b03811115612b1257600080fd5b8201610120818503121561180157600080fd5b80356001600160a01b0381168114612b3c57600080fd5b919050565b600381106122d757600080fd5b8035612b3c81612b41565b60008060008060808587031215612b6f57600080fd5b8435935060208501359250612b8660408601612b25565b91506060850135612b9681612b41565b939692955090935050565b838152826020820152606060408201526000610e8f6060830184612a55565b600080600080600060a08688031215612bd857600080fd5b8535945060208601359350612bef60408701612b25565b92506060860135612bff81612b41565b949793965091946080013592915050565b600080600060608486031215612c2557600080fd5b83359250602084013591506040840135612c3e81612b41565b809150509250925092565b634e487b7160e01b600052603260045260246000fd5b634e487b7160e01b600052604160045260246000fd5b60405161010081016001600160401b0381118282101715612c9857612c98612c5f565b60405290565b60405160e081016001600160401b0381118282101715612c9857612c98612c5f565b60405161012081016001600160401b0381118282101715612c9857612c98612c5f565b604051601f8201601f191681016001600160401b0381118282101715612d0b57612d0b612c5f565b604052919050565b600281106122d757600080fd5b8035612b3c81612d13565b60006001600160401b03821115612d4457612d44612c5f565b50601f01601f191660200190565b600082601f830112612d6357600080fd5b8135612d76612d7182612d2b565b612ce3565b818152846020838601011115612d8b57600080fd5b816020850160208301376000918101602001919091529392505050565b60006101008236031215612dbb57600080fd5b612dc3612c75565b8235815260208301356020820152612ddd60408401612b25565b6040820152612dee60608401612b25565b6060820152612dff60808401612d20565b608082015260a083013560a082015260c083013560c082015260e08301356001600160401b03811115612e3157600080fd5b612e3d36828601612d52565b60e08301525092915050565b600060208284031215612e5b57600080fd5b813561180181612d13565b600060208284031215612e7857600080fd5b61180182612b25565b6000808335601e19843603018112612e9857600080fd5b8301803591506001600160401b03821115612eb257600080fd5b602001915036819003821315612ec757600080fd5b9250929050565b8051825260208101516020830152604081015160408301526060810151606083015260808101516080830152600060a082015160c060a0850152610e9260c0850182612a55565b6020815260006118016020830184612ece565b600060208284031215612f3a57600080fd5b81516001600160401b03811115612f5057600080fd5b8201601f81018413612f6157600080fd5b8051612f6f612d7182612d2b565b818152856020838501011115612f8457600080fd5b61291f826020830160208601612a29565b634e487b7160e01b600052601160045260246000fd5b600082821015612fbd57612fbd612f95565b500390565b600060e08236031215612fd457600080fd5b612fdc612c9e565b8235815260208301356020820152612ff660408401612b25565b604082015261300760608401612b25565b606082015261301860808401612b4e565b608082015260a083013560a082015260c08301356001600160401b0381111561304057600080fd5b61304c36828601612d52565b60c08301525092915050565b60006020828403121561306a57600080fd5b813561180181612b41565b6000610120823603121561308857600080fd5b613090612cc0565b82358152602083013560208201526130aa60408401612b25565b60408201526130bb60608401612b25565b60608201526130cc60808401612b25565b60808201526130dd60a08401612d20565b60a082015260c083013560c082015260e083013560e0820152610100808401356001600160401b0381111561311157600080fd5b61311d36828701612d52565b918301919091525092915050565b60006020828403121561313d57600080fd5b5051919050565b6000821982111561315757613157612f95565b500190565b634e487b7160e01b600052603160045260246000fd5b80151581146122d757600080fd5b8035612b3c81613172565b6000610100823603121561319e57600080fd5b6131a6612c75565b82358152602083013560208201526131c060408401612b25565b60408201526131d160608401612b25565b60608201526131e260808401613180565b60808201526131f360a08401612d20565b60a082015260c083013560c082015260e08301356001600160401b03811115612e3157600080fd5b60006020828403121561322d57600080fd5b813561180181613172565b60208152815160208201526020820151604082015260408201511515606082015260608201516080820152608082015160a0820152600060a083015160c080840152610e9260e0840182612a55565b634e487b7160e01b600052602160045260246000fd5b868152602081018690526001600160a01b0385811660408301528416606082015260c08101600384106132e057634e487b7160e01b600052602160045260246000fd5b608082019390935260a00152949350505050565b60006020828403121561330657600080fd5b815161180181613172565b634e487b7160e01b600052601260045260246000fd5b600060001982141561333b5761333b612f95565b5060010190565b60008251613354818460208701612a29565b9190910192915050565b60008261336d5761336d613311565b500490565b60008261338157613381613311565b500690565b6020815260006118016020830184612a5556fea2646970667358221220cd7e9a3d57a2dafb028096e704fd85f0c49cf54a5150882d51ef879bb00db8fd64736f6c63430008080033","opcodes":"PUSH2 0x100 PUSH1 0x40 MSTORE CALLVALUE DUP1 ISZERO PUSH3 0x12 JUMPI PUSH1 0x0 DUP1 REVERT JUMPDEST POP ADDRESS PUSH1 0x60 SWAP1 DUP2 SHL PUSH1 0x80 MSTORE PUSH1 0x40 DUP1 MLOAD PUSH4 0xAD4D4E29 PUSH1 0xE0 SHL DUP2 MSTORE SWAP1 MLOAD CALLER SWAP3 PUSH4 0xAD4D4E29 SWAP3 PUSH1 0x4 DUP1 DUP3 ADD SWAP4 SWAP2 DUP3 SWAP1 SUB ADD DUP2 DUP7 DUP1 EXTCODESIZE ISZERO DUP1 ISZERO PUSH3 0x50 JUMPI PUSH1 0x0 DUP1 REVERT JUMPDEST POP GAS STATICCALL ISZERO DUP1 ISZERO PUSH3 0x65 JUMPI RETURNDATASIZE PUSH1 0x0 DUP1 RETURNDATACOPY RETURNDATASIZE PUSH1 0x0 REVERT JUMPDEST POP POP POP POP PUSH1 0x40 MLOAD RETURNDATASIZE PUSH1 0x1F NOT PUSH1 0x1F DUP3 ADD AND DUP3 ADD DUP1 PUSH1 0x40 MSTORE POP DUP2 ADD SWAP1 PUSH3 0x8B SWAP2 SWAP1 PUSH3 0xD1 JUMP JUMPDEST PUSH1 0x1 PUSH1 0x1 PUSH1 0x60 SHL SUB NOT PUSH1 0x60 SWAP2 DUP3 SHL DUP2 AND PUSH1 0xE0 MSTORE SWAP2 DUP2 SHL DUP3 AND PUSH1 0xC0 MSTORE SWAP2 SWAP1 SWAP2 SHL AND PUSH1 0xA0 MSTORE PUSH3 0x11B JUMP JUMPDEST DUP1 MLOAD PUSH1 0x1 PUSH1 0x1 PUSH1 0xA0 SHL SUB DUP2 AND DUP2 EQ PUSH3 0xCC JUMPI PUSH1 0x0 DUP1 REVERT JUMPDEST SWAP2 SWAP1 POP JUMP JUMPDEST PUSH1 0x0 DUP1 PUSH1 0x0 PUSH1 0x60 DUP5 DUP7 SUB SLT ISZERO PUSH3 0xE7 JUMPI PUSH1 0x0 DUP1 REVERT JUMPDEST PUSH3 0xF2 DUP5 PUSH3 0xB4 JUMP JUMPDEST SWAP3 POP PUSH3 0x102 PUSH1 0x20 DUP6 ADD PUSH3 0xB4 JUMP JUMPDEST SWAP2 POP PUSH3 0x112 PUSH1 0x40 DUP6 ADD PUSH3 0xB4 JUMP JUMPDEST SWAP1 POP SWAP3 POP SWAP3 POP SWAP3 JUMP JUMPDEST PUSH1 0x80 MLOAD PUSH1 0x60 SHR PUSH1 0xA0 MLOAD PUSH1 0x60 SHR PUSH1 0xC0 MLOAD PUSH1 0x60 SHR PUSH1 0xE0 MLOAD PUSH1 0x60 SHR PUSH2 0x33CF PUSH3 0x1C2 PUSH1 0x0 CODECOPY PUSH1 0x0 DUP2 DUP2 PUSH2 0x20F ADD MSTORE DUP2 DUP2 PUSH2 0x3A8 ADD MSTORE DUP2 DUP2 PUSH2 0x9E7 ADD MSTORE DUP2 DUP2 PUSH2 0xCEA ADD MSTORE DUP2 DUP2 PUSH2 0x1137 ADD MSTORE DUP2 DUP2 PUSH2 0x11DF ADD MSTORE DUP2 DUP2 PUSH2 0x1372 ADD MSTORE PUSH2 0x150B ADD MSTORE PUSH1 0x0 DUP2 DUP2 PUSH1 0xBE ADD MSTORE DUP2 DUP2 PUSH2 0x35E ADD MSTORE DUP2 DUP2 PUSH2 0x93C ADD MSTORE DUP2 DUP2 PUSH2 0xC3F ADD MSTORE DUP2 DUP2 PUSH2 0xFD3 ADD MSTORE DUP2 DUP2 PUSH2 0x107B ADD MSTORE DUP2 DUP2 PUSH2 0x1398 ADD MSTORE PUSH2 0x14E5 ADD MSTORE PUSH1 0x0 PUSH2 0x1D5 ADD MSTORE PUSH1 0x0 PUSH2 0x1813 ADD MSTORE PUSH2 0x33CF PUSH1 0x0 RETURN INVALID PUSH1 0x80 PUSH1 0x40 MSTORE CALLVALUE DUP1 ISZERO PUSH2 0x10 JUMPI PUSH1 0x0 DUP1 REVERT JUMPDEST POP PUSH1 0x4 CALLDATASIZE LT PUSH2 0xB4 JUMPI PUSH1 0x0 CALLDATALOAD PUSH1 0xE0 SHR DUP1 PUSH4 0xAF2F91EA GT PUSH2 0x71 JUMPI DUP1 PUSH4 0xAF2F91EA EQ PUSH2 0x186 JUMPI DUP1 PUSH4 0xB084C252 EQ PUSH2 0x199 JUMPI DUP1 PUSH4 0xB2CECA77 EQ PUSH2 0x1BB JUMPI DUP1 PUSH4 0xB3461C87 EQ PUSH2 0x1D0 JUMPI DUP1 PUSH4 0xB7FB542D EQ PUSH2 0x1F7 JUMPI DUP1 PUSH4 0xD21220A7 EQ PUSH2 0x20A JUMPI PUSH1 0x0 DUP1 REVERT JUMPDEST DUP1 PUSH4 0xDFE1681 EQ PUSH2 0xB9 JUMPI DUP1 PUSH4 0x2D883A73 EQ PUSH2 0xFD JUMPI DUP1 PUSH4 0x622FB68F EQ PUSH2 0x12B JUMPI DUP1 PUSH4 0x7087C1F6 EQ PUSH2 0x14E JUMPI DUP1 PUSH4 0x80E06679 EQ PUSH2 0x161 JUMPI DUP1 PUSH4 0x87ED3ECF EQ PUSH2 0x174 JUMPI JUMPDEST PUSH1 0x0 DUP1 REVERT JUMPDEST PUSH2 0xE0 PUSH32 0x0 DUP2 JUMP JUMPDEST PUSH1 0x40 MLOAD PUSH1 0x1 PUSH1 0x1 PUSH1 0xA0 SHL SUB SWAP1 SWAP2 AND DUP2 MSTORE PUSH1 0x20 ADD JUMPDEST PUSH1 0x40 MLOAD DUP1 SWAP2 SUB SWAP1 RETURN JUMPDEST PUSH2 0x110 PUSH2 0x10B CALLDATASIZE PUSH1 0x4 PUSH2 0x29C3 JUMP JUMPDEST PUSH2 0x231 JUMP JUMPDEST PUSH1 0x40 DUP1 MLOAD DUP3 MLOAD DUP2 MSTORE PUSH1 0x20 SWAP3 DUP4 ADD MLOAD SWAP3 DUP2 ADD SWAP3 SWAP1 SWAP3 MSTORE ADD PUSH2 0xF4 JUMP JUMPDEST PUSH2 0x13E PUSH2 0x139 CALLDATASIZE PUSH1 0x4 PUSH2 0x29F5 JUMP JUMPDEST PUSH2 0x28C JUMP JUMPDEST PUSH1 0x40 MLOAD PUSH2 0xF4 SWAP5 SWAP4 SWAP3 SWAP2 SWAP1 PUSH2 0x2A81 JUMP JUMPDEST PUSH2 0x13E PUSH2 0x15C CALLDATASIZE PUSH1 0x4 PUSH2 0x2AB0 JUMP JUMPDEST PUSH2 0x5F3 JUMP JUMPDEST PUSH2 0x13E PUSH2 0x16F CALLDATASIZE PUSH1 0x4 PUSH2 0x2AEA JUMP JUMPDEST PUSH2 0x843 JUMP JUMPDEST PUSH1 0x3 SLOAD JUMPDEST PUSH1 0x40 MLOAD SWAP1 DUP2 MSTORE PUSH1 0x20 ADD PUSH2 0xF4 JUMP JUMPDEST PUSH2 0x178 PUSH2 0x194 CALLDATASIZE PUSH1 0x4 PUSH2 0x2B59 JUMP JUMPDEST PUSH2 0xE6D JUMP JUMPDEST PUSH2 0x1AC PUSH2 0x1A7 CALLDATASIZE PUSH1 0x4 PUSH2 0x29F5 JUMP JUMPDEST PUSH2 0xE9A JUMP JUMPDEST PUSH1 0x40 MLOAD PUSH2 0xF4 SWAP4 SWAP3 SWAP2 SWAP1 PUSH2 0x2BA1 JUMP JUMPDEST PUSH2 0x1CE PUSH2 0x1C9 CALLDATASIZE PUSH1 0x4 PUSH2 0x2BC0 JUMP JUMPDEST PUSH2 0x171A JUMP JUMPDEST STOP JUMPDEST PUSH2 0xE0 PUSH32 0x0 DUP2 JUMP JUMPDEST PUSH2 0x178 PUSH2 0x205 CALLDATASIZE PUSH1 0x4 PUSH2 0x2C10 JUMP JUMPDEST PUSH2 0x17DC JUMP JUMPDEST PUSH2 0xE0 PUSH32 0x0 DUP2 JUMP JUMPDEST PUSH1 0x40 DUP1 MLOAD DUP1 DUP3 ADD SWAP1 SWAP2 MSTORE PUSH1 0x0 DUP1 DUP3 MSTORE PUSH1 0x20 DUP3 ADD MSTORE PUSH1 0x3 DUP3 DUP2 SLOAD DUP2 LT PUSH2 0x258 JUMPI PUSH2 0x258 PUSH2 0x2C49 JUMP JUMPDEST SWAP1 PUSH1 0x0 MSTORE PUSH1 0x20 PUSH1 0x0 KECCAK256 SWAP1 PUSH1 0x2 MUL ADD PUSH1 0x40 MLOAD DUP1 PUSH1 0x40 ADD PUSH1 0x40 MSTORE SWAP1 DUP2 PUSH1 0x0 DUP3 ADD SLOAD DUP2 MSTORE PUSH1 0x20 ADD PUSH1 0x1 DUP3 ADD SLOAD DUP2 MSTORE POP POP SWAP1 POP SWAP2 SWAP1 POP JUMP JUMPDEST PUSH1 0x0 DUP1 PUSH1 0x0 PUSH1 0x60 PUSH2 0x29B PUSH2 0x1808 JUMP JUMPDEST DUP5 CALLDATALOAD PUSH1 0x0 SWAP1 DUP2 MSTORE PUSH1 0x2 PUSH1 0x20 SWAP1 DUP2 MSTORE PUSH1 0x40 DUP1 DUP4 KECCAK256 DUP3 DUP10 ADD CALLDATALOAD DUP5 MSTORE SWAP1 SWAP2 MSTORE SWAP1 KECCAK256 SLOAD PUSH1 0xFF AND PUSH2 0x2D0 JUMPI PUSH2 0x2D0 DUP6 CALLDATALOAD PUSH1 0x20 DUP8 ADD CALLDATALOAD PUSH2 0x1853 JUMP JUMPDEST PUSH2 0x2E2 PUSH2 0x2DC DUP7 PUSH2 0x2DA8 JUMP JUMPDEST TIMESTAMP PUSH2 0x187B JUMP JUMPDEST DUP5 CALLDATALOAD PUSH1 0x0 DUP2 DUP2 MSTORE PUSH1 0x20 DUP2 DUP2 MSTORE PUSH1 0x40 DUP1 DUP4 KECCAK256 DUP3 DUP11 ADD CALLDATALOAD DUP5 MSTORE SWAP1 SWAP2 MSTORE SWAP1 KECCAK256 SWAP1 PUSH2 0x325 SWAP1 PUSH2 0x313 PUSH1 0xA0 DUP10 ADD PUSH1 0x80 DUP11 ADD PUSH2 0x2E49 JUMP JUMPDEST DUP4 SWAP2 SWAP1 PUSH1 0xA0 DUP11 ADD CALLDATALOAD PUSH1 0xC0 DUP12 ADD CALLDATALOAD PUSH2 0x1931 JUMP JUMPDEST SWAP2 SWAP7 POP SWAP5 POP SWAP3 POP PUSH2 0x33B PUSH1 0x1 DUP7 DUP7 PUSH1 0x0 DUP1 PUSH2 0x19EF JUMP JUMPDEST DUP5 ISZERO PUSH2 0x385 JUMPI PUSH2 0x385 PUSH2 0x354 PUSH1 0x60 DUP9 ADD PUSH1 0x40 DUP10 ADD PUSH2 0x2E66 JUMP JUMPDEST PUSH1 0x1 PUSH1 0x1 PUSH1 0xA0 SHL SUB PUSH32 0x0 AND SWAP1 DUP8 PUSH2 0x1A9E JUMP JUMPDEST DUP4 ISZERO PUSH2 0x3CF JUMPI PUSH2 0x3CF PUSH2 0x39E PUSH1 0x80 DUP9 ADD PUSH1 0x60 DUP10 ADD PUSH2 0x2E66 JUMP JUMPDEST PUSH1 0x1 PUSH1 0x1 PUSH1 0xA0 SHL SUB PUSH32 0x0 AND SWAP1 DUP7 PUSH2 0x1A9E JUMP JUMPDEST PUSH2 0x3DC PUSH1 0xE0 DUP8 ADD DUP8 PUSH2 0x2E81 JUMP JUMPDEST ISZERO SWAP1 POP PUSH2 0x4E3 JUMPI CALLER PUSH1 0x1 PUSH1 0x1 PUSH1 0xA0 SHL SUB AND PUSH4 0x8C5F0851 PUSH1 0x40 MLOAD DUP1 PUSH1 0xC0 ADD PUSH1 0x40 MSTORE DUP1 DUP10 PUSH1 0x0 ADD CALLDATALOAD DUP2 MSTORE PUSH1 0x20 ADD DUP10 PUSH1 0x20 ADD CALLDATALOAD DUP2 MSTORE PUSH1 0x20 ADD DUP9 DUP2 MSTORE PUSH1 0x20 ADD DUP8 DUP2 MSTORE PUSH1 0x20 ADD DUP7 DUP2 MSTORE PUSH1 0x20 ADD DUP10 DUP1 PUSH1 0xE0 ADD SWAP1 PUSH2 0x433 SWAP2 SWAP1 PUSH2 0x2E81 JUMP JUMPDEST DUP1 DUP1 PUSH1 0x1F ADD PUSH1 0x20 DUP1 SWAP2 DIV MUL PUSH1 0x20 ADD PUSH1 0x40 MLOAD SWAP1 DUP2 ADD PUSH1 0x40 MSTORE DUP1 SWAP4 SWAP3 SWAP2 SWAP1 DUP2 DUP2 MSTORE PUSH1 0x20 ADD DUP4 DUP4 DUP1 DUP3 DUP5 CALLDATACOPY PUSH1 0x0 SWAP3 ADD SWAP2 SWAP1 SWAP2 MSTORE POP POP POP SWAP2 MSTORE POP PUSH1 0x40 MLOAD PUSH1 0x1 PUSH1 0x1 PUSH1 0xE0 SHL SUB NOT PUSH1 0xE0 DUP5 SWAP1 SHL AND DUP2 MSTORE PUSH2 0x48A SWAP2 SWAP1 PUSH1 0x4 ADD PUSH2 0x2F15 JUMP JUMPDEST PUSH1 0x0 PUSH1 0x40 MLOAD DUP1 DUP4 SUB DUP2 PUSH1 0x0 DUP8 DUP1 EXTCODESIZE ISZERO DUP1 ISZERO PUSH2 0x4A4 JUMPI PUSH1 0x0 DUP1 REVERT JUMPDEST POP GAS CALL ISZERO DUP1 ISZERO PUSH2 0x4B8 JUMPI RETURNDATASIZE PUSH1 0x0 DUP1 RETURNDATACOPY RETURNDATASIZE PUSH1 0x0 REVERT JUMPDEST POP POP POP POP PUSH1 0x40 MLOAD RETURNDATASIZE PUSH1 0x0 DUP3 RETURNDATACOPY PUSH1 0x1F RETURNDATASIZE SWAP1 DUP2 ADD PUSH1 0x1F NOT AND DUP3 ADD PUSH1 0x40 MSTORE PUSH2 0x4E0 SWAP2 SWAP1 DUP2 ADD SWAP1 PUSH2 0x2F28 JUMP JUMPDEST SWAP2 POP JUMPDEST CALLER PUSH1 0x0 SWAP1 DUP2 MSTORE PUSH1 0x2 DUP3 ADD PUSH1 0x20 MSTORE PUSH1 0x40 DUP2 KECCAK256 DUP1 SLOAD DUP8 SWAP3 SWAP1 PUSH2 0x504 SWAP1 DUP5 SWAP1 PUSH2 0x2FAB JUMP JUMPDEST SWAP1 SWAP2 SSTORE POP POP CALLER PUSH1 0x0 SWAP1 DUP2 MSTORE PUSH1 0x3 DUP3 ADD PUSH1 0x20 MSTORE PUSH1 0x40 DUP2 KECCAK256 DUP1 SLOAD DUP7 SWAP3 SWAP1 PUSH2 0x52A SWAP1 DUP5 SWAP1 PUSH2 0x2FAB JUMP JUMPDEST SWAP1 SWAP2 SSTORE POP POP CALLER PUSH1 0x0 SWAP1 DUP2 MSTORE PUSH1 0x4 DUP3 ADD PUSH1 0x20 MSTORE PUSH1 0x40 DUP2 KECCAK256 DUP1 SLOAD DUP6 SWAP3 SWAP1 PUSH2 0x550 SWAP1 DUP5 SWAP1 PUSH2 0x2FAB JUMP JUMPDEST SWAP1 SWAP2 SSTORE POP PUSH32 0x5E34E67B3E203229E29D54244B2C750F9038BC8D484CBCB7693AB665C35C962C SWAP1 POP DUP7 CALLDATALOAD PUSH1 0x20 DUP9 ADD CALLDATALOAD CALLER PUSH2 0x58F PUSH1 0x60 DUP12 ADD PUSH1 0x40 DUP13 ADD PUSH2 0x2E66 JUMP JUMPDEST PUSH2 0x59F PUSH1 0x80 DUP13 ADD PUSH1 0x60 DUP14 ADD PUSH2 0x2E66 JUMP JUMPDEST PUSH1 0x40 DUP1 MLOAD SWAP6 DUP7 MSTORE PUSH1 0x20 DUP7 ADD SWAP5 SWAP1 SWAP5 MSTORE PUSH1 0x1 PUSH1 0x1 PUSH1 0xA0 SHL SUB SWAP3 DUP4 AND DUP6 DUP6 ADD MSTORE SWAP1 DUP3 AND PUSH1 0x60 DUP6 ADD MSTORE AND PUSH1 0x80 DUP4 ADD MSTORE PUSH1 0xA0 DUP3 ADD DUP9 SWAP1 MSTORE PUSH1 0xC0 DUP3 ADD DUP8 SWAP1 MSTORE PUSH1 0xE0 DUP3 ADD DUP7 SWAP1 MSTORE MLOAD SWAP1 DUP2 SWAP1 SUB PUSH2 0x100 ADD SWAP1 LOG1 POP SWAP2 SWAP4 POP SWAP2 SWAP4 JUMP JUMPDEST PUSH1 0x0 DUP1 PUSH1 0x0 PUSH1 0x60 PUSH2 0x602 PUSH2 0x1808 JUMP JUMPDEST DUP5 CALLDATALOAD PUSH1 0x0 SWAP1 DUP2 MSTORE PUSH1 0x2 PUSH1 0x20 SWAP1 DUP2 MSTORE PUSH1 0x40 DUP1 DUP4 KECCAK256 DUP3 DUP10 ADD CALLDATALOAD DUP5 MSTORE SWAP1 SWAP2 MSTORE SWAP1 KECCAK256 SLOAD PUSH1 0xFF AND PUSH2 0x637 JUMPI PUSH2 0x637 DUP6 CALLDATALOAD PUSH1 0x20 DUP8 ADD CALLDATALOAD PUSH2 0x1853 JUMP JUMPDEST PUSH2 0x649 PUSH2 0x643 DUP7 PUSH2 0x2FC2 JUMP JUMPDEST TIMESTAMP PUSH2 0x1AF5 JUMP JUMPDEST DUP5 CALLDATALOAD PUSH1 0x0 DUP2 DUP2 MSTORE PUSH1 0x20 DUP2 DUP2 MSTORE PUSH1 0x40 DUP1 DUP4 KECCAK256 DUP3 DUP11 ADD CALLDATALOAD DUP5 MSTORE SWAP1 SWAP2 MSTORE SWAP1 KECCAK256 SWAP1 PUSH2 0x687 SWAP1 PUSH2 0x67A PUSH1 0xA0 DUP10 ADD PUSH1 0x80 DUP11 ADD PUSH2 0x3058 JUMP JUMPDEST DUP4 SWAP2 SWAP1 PUSH1 0xA0 DUP11 ADD CALLDATALOAD PUSH2 0x1B98 JUMP JUMPDEST SWAP2 SWAP7 POP SWAP5 POP SWAP3 POP PUSH2 0x69D PUSH1 0x1 DUP7 DUP7 PUSH1 0x0 DUP1 PUSH2 0x19EF JUMP JUMPDEST DUP5 ISZERO PUSH2 0x6B6 JUMPI PUSH2 0x6B6 PUSH2 0x354 PUSH1 0x60 DUP9 ADD PUSH1 0x40 DUP10 ADD PUSH2 0x2E66 JUMP JUMPDEST DUP4 ISZERO PUSH2 0x6CF JUMPI PUSH2 0x6CF PUSH2 0x39E PUSH1 0x80 DUP9 ADD PUSH1 0x60 DUP10 ADD PUSH2 0x2E66 JUMP JUMPDEST PUSH2 0x6DC PUSH1 0xC0 DUP8 ADD DUP8 PUSH2 0x2E81 JUMP JUMPDEST ISZERO SWAP1 POP PUSH2 0x7E3 JUMPI CALLER PUSH1 0x1 PUSH1 0x1 PUSH1 0xA0 SHL SUB AND PUSH4 0xDC6FDDCF PUSH1 0x40 MLOAD DUP1 PUSH1 0xC0 ADD PUSH1 0x40 MSTORE DUP1 DUP10 PUSH1 0x0 ADD CALLDATALOAD DUP2 MSTORE PUSH1 0x20 ADD DUP10 PUSH1 0x20 ADD CALLDATALOAD DUP2 MSTORE PUSH1 0x20 ADD DUP9 DUP2 MSTORE PUSH1 0x20 ADD DUP8 DUP2 MSTORE PUSH1 0x20 ADD DUP7 DUP2 MSTORE PUSH1 0x20 ADD DUP10 DUP1 PUSH1 0xC0 ADD SWAP1 PUSH2 0x733 SWAP2 SWAP1 PUSH2 0x2E81 JUMP JUMPDEST DUP1 DUP1 PUSH1 0x1F ADD PUSH1 0x20 DUP1 SWAP2 DIV MUL PUSH1 0x20 ADD PUSH1 0x40 MLOAD SWAP1 DUP2 ADD PUSH1 0x40 MSTORE DUP1 SWAP4 SWAP3 SWAP2 SWAP1 DUP2 DUP2 MSTORE PUSH1 0x20 ADD DUP4 DUP4 DUP1 DUP3 DUP5 CALLDATACOPY PUSH1 0x0 SWAP3 ADD SWAP2 SWAP1 SWAP2 MSTORE POP POP POP SWAP2 MSTORE POP PUSH1 0x40 MLOAD PUSH1 0x1 PUSH1 0x1 PUSH1 0xE0 SHL SUB NOT PUSH1 0xE0 DUP5 SWAP1 SHL AND DUP2 MSTORE PUSH2 0x78A SWAP2 SWAP1 PUSH1 0x4 ADD PUSH2 0x2F15 JUMP JUMPDEST PUSH1 0x0 PUSH1 0x40 MLOAD DUP1 DUP4 SUB DUP2 PUSH1 0x0 DUP8 DUP1 EXTCODESIZE ISZERO DUP1 ISZERO PUSH2 0x7A4 JUMPI PUSH1 0x0 DUP1 REVERT JUMPDEST POP GAS CALL ISZERO DUP1 ISZERO PUSH2 0x7B8 JUMPI RETURNDATASIZE PUSH1 0x0 DUP1 RETURNDATACOPY RETURNDATASIZE PUSH1 0x0 REVERT JUMPDEST POP POP POP POP PUSH1 0x40 MLOAD RETURNDATASIZE PUSH1 0x0 DUP3 RETURNDATACOPY PUSH1 0x1F RETURNDATASIZE SWAP1 DUP2 ADD PUSH1 0x1F NOT AND DUP3 ADD PUSH1 0x40 MSTORE PUSH2 0x7E0 SWAP2 SWAP1 DUP2 ADD SWAP1 PUSH2 0x2F28 JUMP JUMPDEST SWAP2 POP JUMPDEST CALLER PUSH1 0x0 SWAP1 DUP2 MSTORE PUSH1 0x4 DUP3 ADD PUSH1 0x20 MSTORE PUSH1 0x40 DUP2 KECCAK256 DUP1 SLOAD DUP6 SWAP3 SWAP1 PUSH2 0x804 SWAP1 DUP5 SWAP1 PUSH2 0x2FAB JUMP JUMPDEST SWAP1 SWAP2 SSTORE POP PUSH32 0xA9321C5C860B13F184D4B6BC6793BEDE025EF1A51E4C3527D0733F225DF69DB6 SWAP1 POP DUP7 CALLDATALOAD PUSH1 0x20 DUP9 ADD CALLDATALOAD CALLER PUSH2 0x58F PUSH1 0x60 DUP12 ADD PUSH1 0x40 DUP13 ADD PUSH2 0x2E66 JUMP JUMPDEST PUSH1 0x0 DUP1 PUSH1 0x0 PUSH1 0x60 PUSH2 0x852 PUSH2 0x1808 JUMP JUMPDEST PUSH2 0x864 PUSH2 0x85E DUP7 PUSH2 0x3075 JUMP JUMPDEST TIMESTAMP PUSH2 0x1CCA JUMP JUMPDEST PUSH2 0x873 DUP6 CALLDATALOAD PUSH1 0x20 DUP8 ADD CALLDATALOAD PUSH2 0x1D93 JUMP JUMPDEST DUP5 CALLDATALOAD PUSH1 0x0 DUP2 DUP2 MSTORE PUSH1 0x20 DUP2 DUP2 MSTORE PUSH1 0x40 DUP1 DUP4 KECCAK256 DUP3 DUP11 ADD CALLDATALOAD DUP5 MSTORE SWAP1 SWAP2 MSTORE SWAP1 DUP2 SWAP1 KECCAK256 SWAP2 PUSH2 0x8EB SWAP2 PUSH2 0x8A6 SWAP1 PUSH1 0x60 DUP11 ADD SWAP1 DUP11 ADD PUSH2 0x2E66 JUMP JUMPDEST PUSH2 0x8B6 PUSH1 0x80 DUP11 ADD PUSH1 0x60 DUP12 ADD PUSH2 0x2E66 JUMP JUMPDEST PUSH2 0x8C6 PUSH1 0xA0 DUP12 ADD PUSH1 0x80 DUP13 ADD PUSH2 0x2E66 JUMP JUMPDEST PUSH2 0x8D6 PUSH1 0xC0 DUP13 ADD PUSH1 0xA0 DUP14 ADD PUSH2 0x2E49 JUMP JUMPDEST DUP7 SWAP5 SWAP4 SWAP3 SWAP2 SWAP1 PUSH1 0xC0 DUP14 ADD CALLDATALOAD PUSH1 0xE0 DUP15 ADD CALLDATALOAD PUSH2 0x1E4B JUMP JUMPDEST SWAP2 SWAP7 POP SWAP5 POP SWAP3 POP PUSH2 0x900 PUSH1 0x1 DUP7 DUP7 DUP3 DUP1 PUSH2 0x19EF JUMP JUMPDEST PUSH1 0x40 DUP1 MLOAD PUSH1 0x80 DUP2 ADD DUP3 MSTORE DUP8 CALLDATALOAD DUP2 MSTORE PUSH1 0x20 DUP1 DUP10 ADD CALLDATALOAD SWAP1 DUP3 ADD MSTORE DUP2 MLOAD PUSH4 0x70A08231 PUSH1 0xE0 SHL DUP2 MSTORE ADDRESS PUSH1 0x4 DUP3 ADD MSTORE PUSH1 0x0 SWAP3 DUP3 ADD SWAP1 DUP9 SWAP1 PUSH1 0x1 PUSH1 0x1 PUSH1 0xA0 SHL SUB PUSH32 0x0 AND SWAP1 PUSH4 0x70A08231 SWAP1 PUSH1 0x24 ADD PUSH1 0x20 PUSH1 0x40 MLOAD DUP1 DUP4 SUB DUP2 DUP7 DUP1 EXTCODESIZE ISZERO DUP1 ISZERO PUSH2 0x97E JUMPI PUSH1 0x0 DUP1 REVERT JUMPDEST POP GAS STATICCALL ISZERO DUP1 ISZERO PUSH2 0x992 JUMPI RETURNDATASIZE PUSH1 0x0 DUP1 RETURNDATACOPY RETURNDATASIZE PUSH1 0x0 REVERT JUMPDEST POP POP POP POP PUSH1 0x40 MLOAD RETURNDATASIZE PUSH1 0x1F NOT PUSH1 0x1F DUP3 ADD AND DUP3 ADD DUP1 PUSH1 0x40 MSTORE POP DUP2 ADD SWAP1 PUSH2 0x9B6 SWAP2 SWAP1 PUSH2 0x312B JUMP JUMPDEST PUSH2 0x9C0 SWAP2 SWAP1 PUSH2 0x3144 JUMP JUMPDEST DUP2 MSTORE PUSH1 0x40 MLOAD PUSH4 0x70A08231 PUSH1 0xE0 SHL DUP2 MSTORE ADDRESS PUSH1 0x4 DUP3 ADD MSTORE PUSH1 0x20 SWAP1 SWAP2 ADD SWAP1 DUP8 SWAP1 PUSH1 0x1 PUSH1 0x1 PUSH1 0xA0 SHL SUB PUSH32 0x0 AND SWAP1 PUSH4 0x70A08231 SWAP1 PUSH1 0x24 ADD PUSH1 0x20 PUSH1 0x40 MLOAD DUP1 DUP4 SUB DUP2 DUP7 DUP1 EXTCODESIZE ISZERO DUP1 ISZERO PUSH2 0xA29 JUMPI PUSH1 0x0 DUP1 REVERT JUMPDEST POP GAS STATICCALL ISZERO DUP1 ISZERO PUSH2 0xA3D JUMPI RETURNDATASIZE PUSH1 0x0 DUP1 RETURNDATACOPY RETURNDATASIZE PUSH1 0x0 REVERT JUMPDEST POP POP POP POP PUSH1 0x40 MLOAD RETURNDATASIZE PUSH1 0x1F NOT PUSH1 0x1F DUP3 ADD AND DUP3 ADD DUP1 PUSH1 0x40 MSTORE POP DUP2 ADD SWAP1 PUSH2 0xA61 SWAP2 SWAP1 PUSH2 0x312B JUMP JUMPDEST PUSH2 0xA6B SWAP2 SWAP1 PUSH2 0x3144 JUMP JUMPDEST SWAP1 MSTORE PUSH1 0x1 DUP1 SLOAD DUP1 DUP3 ADD DUP3 SSTORE PUSH1 0x0 SWAP2 SWAP1 SWAP2 MSTORE DUP2 MLOAD PUSH1 0x4 SWAP1 SWAP2 MUL PUSH32 0xB10E2D527612073B26EECDFD717E6A320CF44B4AFAC2B0732D9FCBE2B7FA0CF6 DUP2 ADD SWAP2 DUP3 SSTORE PUSH1 0x20 DUP4 DUP2 ADD MLOAD PUSH32 0xB10E2D527612073B26EECDFD717E6A320CF44B4AFAC2B0732D9FCBE2B7FA0CF7 DUP4 ADD SSTORE PUSH1 0x40 DUP1 DUP6 ADD MLOAD PUSH32 0xB10E2D527612073B26EECDFD717E6A320CF44B4AFAC2B0732D9FCBE2B7FA0CF8 DUP5 ADD SSTORE PUSH1 0x60 SWAP5 DUP6 ADD MLOAD PUSH32 0xB10E2D527612073B26EECDFD717E6A320CF44B4AFAC2B0732D9FCBE2B7FA0CF9 SWAP1 SWAP4 ADD SWAP3 SWAP1 SWAP3 SSTORE DUP2 MLOAD PUSH1 0xC0 DUP2 ADD DUP4 MSTORE DUP12 CALLDATALOAD DUP2 MSTORE DUP12 DUP3 ADD CALLDATALOAD SWAP2 DUP2 ADD SWAP2 SWAP1 SWAP2 MSTORE SWAP1 DUP2 ADD DUP10 SWAP1 MSTORE SWAP2 DUP3 ADD DUP8 SWAP1 MSTORE PUSH1 0x80 DUP3 ADD DUP7 SWAP1 MSTORE SWAP2 POP CALLER SWAP1 PUSH4 0x4A358D65 SWAP1 PUSH1 0xA0 DUP2 ADD PUSH2 0xB71 PUSH2 0x100 DUP13 ADD DUP13 PUSH2 0x2E81 JUMP JUMPDEST DUP1 DUP1 PUSH1 0x1F ADD PUSH1 0x20 DUP1 SWAP2 DIV MUL PUSH1 0x20 ADD PUSH1 0x40 MLOAD SWAP1 DUP2 ADD PUSH1 0x40 MSTORE DUP1 SWAP4 SWAP3 SWAP2 SWAP1 DUP2 DUP2 MSTORE PUSH1 0x20 ADD DUP4 DUP4 DUP1 DUP3 DUP5 CALLDATACOPY PUSH1 0x0 SWAP3 ADD SWAP2 SWAP1 SWAP2 MSTORE POP POP POP SWAP2 MSTORE POP PUSH1 0x40 MLOAD PUSH1 0x1 PUSH1 0x1 PUSH1 0xE0 SHL SUB NOT PUSH1 0xE0 DUP5 SWAP1 SHL AND DUP2 MSTORE PUSH2 0xBC8 SWAP2 SWAP1 PUSH1 0x4 ADD PUSH2 0x2F15 JUMP JUMPDEST PUSH1 0x0 PUSH1 0x40 MLOAD DUP1 DUP4 SUB DUP2 PUSH1 0x0 DUP8 DUP1 EXTCODESIZE ISZERO DUP1 ISZERO PUSH2 0xBE2 JUMPI PUSH1 0x0 DUP1 REVERT JUMPDEST POP GAS CALL ISZERO DUP1 ISZERO PUSH2 0xBF6 JUMPI RETURNDATASIZE PUSH1 0x0 DUP1 RETURNDATACOPY RETURNDATASIZE PUSH1 0x0 REVERT JUMPDEST POP POP POP POP PUSH1 0x40 MLOAD RETURNDATASIZE PUSH1 0x0 DUP3 RETURNDATACOPY PUSH1 0x1F RETURNDATASIZE SWAP1 DUP2 ADD PUSH1 0x1F NOT AND DUP3 ADD PUSH1 0x40 MSTORE PUSH2 0xC1E SWAP2 SWAP1 DUP2 ADD SWAP1 PUSH2 0x2F28 JUMP JUMPDEST SWAP3 POP DUP6 ISZERO PUSH2 0xCCB JUMPI PUSH1 0x40 MLOAD PUSH4 0x70A08231 PUSH1 0xE0 SHL DUP2 MSTORE ADDRESS PUSH1 0x4 DUP3 ADD MSTORE PUSH2 0xCCB SWAP1 PUSH32 0x0 PUSH1 0x1 PUSH1 0x1 PUSH1 0xA0 SHL SUB AND SWAP1 PUSH4 0x70A08231 SWAP1 PUSH1 0x24 ADD PUSH1 0x20 PUSH1 0x40 MLOAD DUP1 DUP4 SUB DUP2 DUP7 DUP1 EXTCODESIZE ISZERO DUP1 ISZERO PUSH2 0xC89 JUMPI PUSH1 0x0 DUP1 REVERT JUMPDEST POP GAS STATICCALL ISZERO DUP1 ISZERO PUSH2 0xC9D JUMPI RETURNDATASIZE PUSH1 0x0 DUP1 RETURNDATACOPY RETURNDATASIZE PUSH1 0x0 REVERT JUMPDEST POP POP POP POP PUSH1 0x40 MLOAD RETURNDATASIZE PUSH1 0x1F NOT PUSH1 0x1F DUP3 ADD AND DUP3 ADD DUP1 PUSH1 0x40 MSTORE POP DUP2 ADD SWAP1 PUSH2 0xCC1 SWAP2 SWAP1 PUSH2 0x312B JUMP JUMPDEST DUP3 PUSH1 0x2 ADD SLOAD PUSH2 0x1FB8 JUMP JUMPDEST DUP5 ISZERO PUSH2 0xD76 JUMPI PUSH1 0x40 MLOAD PUSH4 0x70A08231 PUSH1 0xE0 SHL DUP2 MSTORE ADDRESS PUSH1 0x4 DUP3 ADD MSTORE PUSH2 0xD76 SWAP1 PUSH32 0x0 PUSH1 0x1 PUSH1 0x1 PUSH1 0xA0 SHL SUB AND SWAP1 PUSH4 0x70A08231 SWAP1 PUSH1 0x24 ADD PUSH1 0x20 PUSH1 0x40 MLOAD DUP1 DUP4 SUB DUP2 DUP7 DUP1 EXTCODESIZE ISZERO DUP1 ISZERO PUSH2 0xD34 JUMPI PUSH1 0x0 DUP1 REVERT JUMPDEST POP GAS STATICCALL ISZERO DUP1 ISZERO PUSH2 0xD48 JUMPI RETURNDATASIZE PUSH1 0x0 DUP1 RETURNDATACOPY RETURNDATASIZE PUSH1 0x0 REVERT JUMPDEST POP POP POP POP PUSH1 0x40 MLOAD RETURNDATASIZE PUSH1 0x1F NOT PUSH1 0x1F DUP3 ADD AND DUP3 ADD DUP1 PUSH1 0x40 MSTORE POP DUP2 ADD SWAP1 PUSH2 0xD6C SWAP2 SWAP1 PUSH2 0x312B JUMP JUMPDEST DUP3 PUSH1 0x3 ADD SLOAD PUSH2 0x1FB8 JUMP JUMPDEST PUSH1 0x1 DUP1 SLOAD DUP1 PUSH2 0xD87 JUMPI PUSH2 0xD87 PUSH2 0x315C JUMP JUMPDEST PUSH1 0x0 DUP3 DUP2 MSTORE PUSH1 0x20 DUP1 DUP3 KECCAK256 PUSH1 0x4 PUSH1 0x0 NOT SWAP1 SWAP5 ADD SWAP4 DUP5 MUL ADD DUP3 DUP2 SSTORE PUSH1 0x1 DUP2 ADD DUP4 SWAP1 SSTORE PUSH1 0x2 DUP2 ADD DUP4 SWAP1 SSTORE PUSH1 0x3 ADD SWAP2 SWAP1 SWAP2 SSTORE SWAP2 SSTORE PUSH32 0x991839FBC46F2E3816B51C806BEE50F76EE23053C1B131A9FBF07FC2D6DF8AA SWAP1 DUP9 CALLDATALOAD SWAP1 DUP10 ADD CALLDATALOAD CALLER PUSH2 0xDF0 PUSH1 0x60 DUP13 ADD PUSH1 0x40 DUP14 ADD PUSH2 0x2E66 JUMP JUMPDEST PUSH2 0xE00 PUSH1 0x80 DUP14 ADD PUSH1 0x60 DUP15 ADD PUSH2 0x2E66 JUMP JUMPDEST PUSH2 0xE10 PUSH1 0xA0 DUP15 ADD PUSH1 0x80 DUP16 ADD PUSH2 0x2E66 JUMP JUMPDEST PUSH1 0x40 DUP1 MLOAD SWAP7 DUP8 MSTORE PUSH1 0x20 DUP8 ADD SWAP6 SWAP1 SWAP6 MSTORE PUSH1 0x1 PUSH1 0x1 PUSH1 0xA0 SHL SUB SWAP4 DUP5 AND DUP7 DUP7 ADD MSTORE SWAP2 DUP4 AND PUSH1 0x60 DUP7 ADD MSTORE DUP3 AND PUSH1 0x80 DUP6 ADD MSTORE AND PUSH1 0xA0 DUP4 ADD MSTORE PUSH1 0xC0 DUP3 ADD DUP10 SWAP1 MSTORE PUSH1 0xE0 DUP3 ADD DUP9 SWAP1 MSTORE PUSH2 0x100 DUP3 ADD DUP8 SWAP1 MSTORE MLOAD SWAP1 DUP2 SWAP1 SUB PUSH2 0x120 ADD SWAP1 LOG1 POP POP SWAP2 SWAP4 POP SWAP2 SWAP4 JUMP JUMPDEST PUSH1 0x0 DUP5 DUP2 MSTORE PUSH1 0x20 DUP2 DUP2 MSTORE PUSH1 0x40 DUP1 DUP4 KECCAK256 DUP7 DUP5 MSTORE SWAP1 SWAP2 MSTORE DUP2 KECCAK256 PUSH2 0xE8F SWAP1 DUP5 DUP5 PUSH2 0x1FE3 JUMP JUMPDEST SWAP1 POP JUMPDEST SWAP5 SWAP4 POP POP POP POP JUMP JUMPDEST PUSH1 0x0 DUP1 PUSH1 0x60 PUSH2 0xEA7 PUSH2 0x1808 JUMP JUMPDEST DUP4 CALLDATALOAD PUSH1 0x0 SWAP1 DUP2 MSTORE PUSH1 0x2 PUSH1 0x20 SWAP1 DUP2 MSTORE PUSH1 0x40 DUP1 DUP4 KECCAK256 DUP3 DUP9 ADD CALLDATALOAD DUP5 MSTORE SWAP1 SWAP2 MSTORE SWAP1 KECCAK256 SLOAD PUSH1 0xFF AND PUSH2 0xEDC JUMPI PUSH2 0xEDC DUP5 CALLDATALOAD PUSH1 0x20 DUP7 ADD CALLDATALOAD PUSH2 0x1853 JUMP JUMPDEST PUSH2 0xEEE PUSH2 0xEE8 DUP6 PUSH2 0x318B JUMP JUMPDEST TIMESTAMP PUSH2 0x2095 JUMP JUMPDEST DUP4 CALLDATALOAD PUSH1 0x0 DUP2 DUP2 MSTORE PUSH1 0x20 DUP2 DUP2 MSTORE PUSH1 0x40 DUP1 DUP4 KECCAK256 DUP3 DUP10 ADD CALLDATALOAD DUP5 MSTORE SWAP1 SWAP2 MSTORE SWAP1 KECCAK256 SWAP1 PUSH2 0xF4E SWAP1 PUSH2 0xF1F PUSH1 0x80 DUP9 ADD PUSH1 0x60 DUP10 ADD PUSH2 0x2E66 JUMP JUMPDEST PUSH2 0xF2F PUSH1 0xA0 DUP10 ADD PUSH1 0x80 DUP11 ADD PUSH2 0x321B JUMP JUMPDEST PUSH2 0xF3F PUSH1 0xC0 DUP11 ADD PUSH1 0xA0 DUP12 ADD PUSH2 0x2E49 JUMP JUMPDEST DUP6 SWAP4 SWAP3 SWAP2 SWAP1 PUSH1 0xC0 DUP12 ADD CALLDATALOAD PUSH2 0x2137 JUMP JUMPDEST SWAP1 SWAP5 POP SWAP3 POP PUSH2 0xF84 DUP5 DUP5 PUSH2 0xF68 PUSH1 0xA0 DUP10 ADD PUSH1 0x80 DUP11 ADD PUSH2 0x321B JUMP JUMPDEST ISZERO PUSH2 0xF79 PUSH1 0xA0 DUP11 ADD PUSH1 0x80 DUP12 ADD PUSH2 0x321B JUMP JUMPDEST PUSH1 0x1 SWAP4 SWAP3 SWAP2 SWAP1 PUSH2 0x19EF JUMP JUMPDEST PUSH1 0x0 PUSH1 0x40 MLOAD DUP1 PUSH1 0x80 ADD PUSH1 0x40 MSTORE DUP1 DUP8 PUSH1 0x0 ADD CALLDATALOAD DUP2 MSTORE PUSH1 0x20 ADD DUP8 PUSH1 0x20 ADD CALLDATALOAD DUP2 MSTORE PUSH1 0x20 ADD DUP8 PUSH1 0x80 ADD PUSH1 0x20 DUP2 ADD SWAP1 PUSH2 0xFB8 SWAP2 SWAP1 PUSH2 0x321B JUMP JUMPDEST PUSH2 0x1064 JUMPI PUSH1 0x40 MLOAD PUSH4 0x70A08231 PUSH1 0xE0 SHL DUP2 MSTORE ADDRESS PUSH1 0x4 DUP3 ADD MSTORE DUP8 SWAP1 PUSH32 0x0 PUSH1 0x1 PUSH1 0x1 PUSH1 0xA0 SHL SUB AND SWAP1 PUSH4 0x70A08231 SWAP1 PUSH1 0x24 ADD PUSH1 0x20 PUSH1 0x40 MLOAD DUP1 DUP4 SUB DUP2 DUP7 DUP1 EXTCODESIZE ISZERO DUP1 ISZERO PUSH2 0x101D JUMPI PUSH1 0x0 DUP1 REVERT JUMPDEST POP GAS STATICCALL ISZERO DUP1 ISZERO PUSH2 0x1031 JUMPI RETURNDATASIZE PUSH1 0x0 DUP1 RETURNDATACOPY RETURNDATASIZE PUSH1 0x0 REVERT JUMPDEST POP POP POP POP PUSH1 0x40 MLOAD RETURNDATASIZE PUSH1 0x1F NOT PUSH1 0x1F DUP3 ADD AND DUP3 ADD DUP1 PUSH1 0x40 MSTORE POP DUP2 ADD SWAP1 PUSH2 0x1055 SWAP2 SWAP1 PUSH2 0x312B JUMP JUMPDEST PUSH2 0x105F SWAP2 SWAP1 PUSH2 0x3144 JUMP JUMPDEST PUSH2 0x1107 JUMP JUMPDEST PUSH1 0x40 MLOAD PUSH4 0x70A08231 PUSH1 0xE0 SHL DUP2 MSTORE ADDRESS PUSH1 0x4 DUP3 ADD MSTORE DUP8 SWAP1 PUSH32 0x0 PUSH1 0x1 PUSH1 0x1 PUSH1 0xA0 SHL SUB AND SWAP1 PUSH4 0x70A08231 SWAP1 PUSH1 0x24 ADD PUSH1 0x20 PUSH1 0x40 MLOAD DUP1 DUP4 SUB DUP2 DUP7 DUP1 EXTCODESIZE ISZERO DUP1 ISZERO PUSH2 0x10C5 JUMPI PUSH1 0x0 DUP1 REVERT JUMPDEST POP GAS STATICCALL ISZERO DUP1 ISZERO PUSH2 0x10D9 JUMPI RETURNDATASIZE PUSH1 0x0 DUP1 RETURNDATACOPY RETURNDATASIZE PUSH1 0x0 REVERT JUMPDEST POP POP POP POP PUSH1 0x40 MLOAD RETURNDATASIZE PUSH1 0x1F NOT PUSH1 0x1F DUP3 ADD AND DUP3 ADD DUP1 PUSH1 0x40 MSTORE POP DUP2 ADD SWAP1 PUSH2 0x10FD SWAP2 SWAP1 PUSH2 0x312B JUMP JUMPDEST PUSH2 0x1107 SWAP2 SWAP1 PUSH2 0x2FAB JUMP JUMPDEST DUP2 MSTORE PUSH1 0x20 ADD PUSH2 0x111C PUSH1 0xA0 DUP10 ADD PUSH1 0x80 DUP11 ADD PUSH2 0x321B JUMP JUMPDEST PUSH2 0x11C8 JUMPI PUSH1 0x40 MLOAD PUSH4 0x70A08231 PUSH1 0xE0 SHL DUP2 MSTORE ADDRESS PUSH1 0x4 DUP3 ADD MSTORE DUP7 SWAP1 PUSH32 0x0 PUSH1 0x1 PUSH1 0x1 PUSH1 0xA0 SHL SUB AND SWAP1 PUSH4 0x70A08231 SWAP1 PUSH1 0x24 ADD PUSH1 0x20 PUSH1 0x40 MLOAD DUP1 DUP4 SUB DUP2 DUP7 DUP1 EXTCODESIZE ISZERO DUP1 ISZERO PUSH2 0x1181 JUMPI PUSH1 0x0 DUP1 REVERT JUMPDEST POP GAS STATICCALL ISZERO DUP1 ISZERO PUSH2 0x1195 JUMPI RETURNDATASIZE PUSH1 0x0 DUP1 RETURNDATACOPY RETURNDATASIZE PUSH1 0x0 REVERT JUMPDEST POP POP POP POP PUSH1 0x40 MLOAD RETURNDATASIZE PUSH1 0x1F NOT PUSH1 0x1F DUP3 ADD AND DUP3 ADD DUP1 PUSH1 0x40 MSTORE POP DUP2 ADD SWAP1 PUSH2 0x11B9 SWAP2 SWAP1 PUSH2 0x312B JUMP JUMPDEST PUSH2 0x11C3 SWAP2 SWAP1 PUSH2 0x2FAB JUMP JUMPDEST PUSH2 0x126B JUMP JUMPDEST PUSH1 0x40 MLOAD PUSH4 0x70A08231 PUSH1 0xE0 SHL DUP2 MSTORE ADDRESS PUSH1 0x4 DUP3 ADD MSTORE DUP7 SWAP1 PUSH32 0x0 PUSH1 0x1 PUSH1 0x1 PUSH1 0xA0 SHL SUB AND SWAP1 PUSH4 0x70A08231 SWAP1 PUSH1 0x24 ADD PUSH1 0x20 PUSH1 0x40 MLOAD DUP1 DUP4 SUB DUP2 DUP7 DUP1 EXTCODESIZE ISZERO DUP1 ISZERO PUSH2 0x1229 JUMPI PUSH1 0x0 DUP1 REVERT JUMPDEST POP GAS STATICCALL ISZERO DUP1 ISZERO PUSH2 0x123D JUMPI RETURNDATASIZE PUSH1 0x0 DUP1 RETURNDATACOPY RETURNDATASIZE PUSH1 0x0 REVERT JUMPDEST POP POP POP POP PUSH1 0x40 MLOAD RETURNDATASIZE PUSH1 0x1F NOT PUSH1 0x1F DUP3 ADD AND DUP3 ADD DUP1 PUSH1 0x40 MSTORE POP DUP2 ADD SWAP1 PUSH2 0x1261 SWAP2 SWAP1 PUSH2 0x312B JUMP JUMPDEST PUSH2 0x126B SWAP2 SWAP1 PUSH2 0x3144 JUMP JUMPDEST SWAP1 MSTORE PUSH1 0x1 DUP1 SLOAD DUP1 DUP3 ADD DUP3 SSTORE PUSH1 0x0 SWAP2 SWAP1 SWAP2 MSTORE DUP2 MLOAD PUSH1 0x4 SWAP1 SWAP2 MUL PUSH32 0xB10E2D527612073B26EECDFD717E6A320CF44B4AFAC2B0732D9FCBE2B7FA0CF6 DUP2 ADD SWAP2 DUP3 SSTORE PUSH1 0x20 DUP4 ADD MLOAD PUSH32 0xB10E2D527612073B26EECDFD717E6A320CF44B4AFAC2B0732D9FCBE2B7FA0CF7 DUP3 ADD SSTORE PUSH1 0x40 DUP1 DUP5 ADD MLOAD PUSH32 0xB10E2D527612073B26EECDFD717E6A320CF44B4AFAC2B0732D9FCBE2B7FA0CF8 DUP4 ADD SSTORE PUSH1 0x60 SWAP4 DUP5 ADD MLOAD PUSH32 0xB10E2D527612073B26EECDFD717E6A320CF44B4AFAC2B0732D9FCBE2B7FA0CF9 SWAP1 SWAP3 ADD SWAP2 SWAP1 SWAP2 SSTORE SWAP1 SWAP3 POP PUSH2 0x13C8 SWAP2 PUSH2 0x1340 SWAP2 SWAP1 DUP10 ADD SWAP1 DUP10 ADD PUSH2 0x2E66 JUMP JUMPDEST PUSH2 0x1350 PUSH1 0xA0 DUP10 ADD PUSH1 0x80 DUP11 ADD PUSH2 0x321B JUMP JUMPDEST PUSH2 0x135A JUMPI DUP6 PUSH2 0x135C JUMP JUMPDEST DUP7 JUMPDEST PUSH2 0x136C PUSH1 0xA0 DUP11 ADD PUSH1 0x80 DUP12 ADD PUSH2 0x321B JUMP JUMPDEST PUSH2 0x1396 JUMPI PUSH32 0x0 PUSH2 0x13B8 JUMP JUMPDEST PUSH32 0x0 JUMPDEST PUSH1 0x1 PUSH1 0x1 PUSH1 0xA0 SHL SUB AND SWAP2 SWAP1 PUSH2 0x1A9E JUMP JUMPDEST PUSH1 0x40 DUP1 MLOAD PUSH1 0xC0 DUP2 ADD DUP3 MSTORE DUP8 CALLDATALOAD DUP2 MSTORE PUSH1 0x20 DUP1 DUP10 ADD CALLDATALOAD SWAP1 DUP3 ADD MSTORE CALLER SWAP2 PUSH4 0xDC4A4847 SWAP2 SWAP1 DUP2 ADD PUSH2 0x13FB PUSH1 0xA0 DUP12 ADD PUSH1 0x80 DUP13 ADD PUSH2 0x321B JUMP JUMPDEST ISZERO ISZERO DUP2 MSTORE PUSH1 0x20 DUP2 ADD DUP10 SWAP1 MSTORE PUSH1 0x40 DUP2 ADD DUP9 SWAP1 MSTORE PUSH1 0x60 ADD PUSH2 0x141D PUSH1 0xE0 DUP12 ADD DUP12 PUSH2 0x2E81 JUMP JUMPDEST DUP1 DUP1 PUSH1 0x1F ADD PUSH1 0x20 DUP1 SWAP2 DIV MUL PUSH1 0x20 ADD PUSH1 0x40 MLOAD SWAP1 DUP2 ADD PUSH1 0x40 MSTORE DUP1 SWAP4 SWAP3 SWAP2 SWAP1 DUP2 DUP2 MSTORE PUSH1 0x20 ADD DUP4 DUP4 DUP1 DUP3 DUP5 CALLDATACOPY PUSH1 0x0 SWAP3 ADD SWAP2 SWAP1 SWAP2 MSTORE POP POP POP SWAP2 MSTORE POP PUSH1 0x40 MLOAD PUSH1 0x1 PUSH1 0x1 PUSH1 0xE0 SHL SUB NOT PUSH1 0xE0 DUP5 SWAP1 SHL AND DUP2 MSTORE PUSH2 0x1474 SWAP2 SWAP1 PUSH1 0x4 ADD PUSH2 0x3238 JUMP JUMPDEST PUSH1 0x0 PUSH1 0x40 MLOAD DUP1 DUP4 SUB DUP2 PUSH1 0x0 DUP8 DUP1 EXTCODESIZE ISZERO DUP1 ISZERO PUSH2 0x148E JUMPI PUSH1 0x0 DUP1 REVERT JUMPDEST POP GAS CALL ISZERO DUP1 ISZERO PUSH2 0x14A2 JUMPI RETURNDATASIZE PUSH1 0x0 DUP1 RETURNDATACOPY RETURNDATASIZE PUSH1 0x0 REVERT JUMPDEST POP POP POP POP PUSH1 0x40 MLOAD RETURNDATASIZE PUSH1 0x0 DUP3 RETURNDATACOPY PUSH1 0x1F RETURNDATASIZE SWAP1 DUP2 ADD PUSH1 0x1F NOT AND DUP3 ADD PUSH1 0x40 MSTORE PUSH2 0x14CA SWAP2 SWAP1 DUP2 ADD SWAP1 PUSH2 0x2F28 JUMP JUMPDEST SWAP3 POP PUSH2 0x15C2 PUSH2 0x14DF PUSH1 0xA0 DUP9 ADD PUSH1 0x80 DUP10 ADD PUSH2 0x321B JUMP JUMPDEST PUSH2 0x1509 JUMPI PUSH32 0x0 PUSH2 0x152B JUMP JUMPDEST PUSH32 0x0 JUMPDEST PUSH1 0x40 MLOAD PUSH4 0x70A08231 PUSH1 0xE0 SHL DUP2 MSTORE ADDRESS PUSH1 0x4 DUP3 ADD MSTORE PUSH1 0x1 PUSH1 0x1 PUSH1 0xA0 SHL SUB SWAP2 SWAP1 SWAP2 AND SWAP1 PUSH4 0x70A08231 SWAP1 PUSH1 0x24 ADD PUSH1 0x20 PUSH1 0x40 MLOAD DUP1 DUP4 SUB DUP2 DUP7 DUP1 EXTCODESIZE ISZERO DUP1 ISZERO PUSH2 0x156C JUMPI PUSH1 0x0 DUP1 REVERT JUMPDEST POP GAS STATICCALL ISZERO DUP1 ISZERO PUSH2 0x1580 JUMPI RETURNDATASIZE PUSH1 0x0 DUP1 RETURNDATACOPY RETURNDATASIZE PUSH1 0x0 REVERT JUMPDEST POP POP POP POP PUSH1 0x40 MLOAD RETURNDATASIZE PUSH1 0x1F NOT PUSH1 0x1F DUP3 ADD AND DUP3 ADD DUP1 PUSH1 0x40 MSTORE POP DUP2 ADD SWAP1 PUSH2 0x15A4 SWAP2 SWAP1 PUSH2 0x312B JUMP JUMPDEST PUSH2 0x15B4 PUSH1 0xA0 DUP10 ADD PUSH1 0x80 DUP11 ADD PUSH2 0x321B JUMP JUMPDEST PUSH2 0xD6C JUMPI DUP3 PUSH1 0x2 ADD SLOAD PUSH2 0x1FB8 JUMP JUMPDEST PUSH2 0x15D2 PUSH1 0xA0 DUP8 ADD PUSH1 0x80 DUP9 ADD PUSH2 0x321B JUMP JUMPDEST ISZERO PUSH2 0x1603 JUMPI CALLER PUSH1 0x0 SWAP1 DUP2 MSTORE PUSH1 0x2 DUP4 ADD PUSH1 0x20 MSTORE PUSH1 0x40 DUP2 KECCAK256 DUP1 SLOAD DUP8 SWAP3 SWAP1 PUSH2 0x15F8 SWAP1 DUP5 SWAP1 PUSH2 0x2FAB JUMP JUMPDEST SWAP1 SWAP2 SSTORE POP PUSH2 0x162A SWAP1 POP JUMP JUMPDEST CALLER PUSH1 0x0 SWAP1 DUP2 MSTORE PUSH1 0x3 DUP4 ADD PUSH1 0x20 MSTORE PUSH1 0x40 DUP2 KECCAK256 DUP1 SLOAD DUP7 SWAP3 SWAP1 PUSH2 0x1624 SWAP1 DUP5 SWAP1 PUSH2 0x2FAB JUMP JUMPDEST SWAP1 SWAP2 SSTORE POP POP JUMPDEST PUSH1 0x1 DUP1 SLOAD DUP1 PUSH2 0x163B JUMPI PUSH2 0x163B PUSH2 0x315C JUMP JUMPDEST PUSH1 0x0 DUP3 DUP2 MSTORE PUSH1 0x20 DUP1 DUP3 KECCAK256 PUSH1 0x4 PUSH1 0x0 NOT SWAP1 SWAP5 ADD SWAP4 DUP5 MUL ADD DUP3 DUP2 SSTORE PUSH1 0x1 DUP2 ADD DUP4 SWAP1 SSTORE PUSH1 0x2 DUP2 ADD DUP4 SWAP1 SSTORE PUSH1 0x3 ADD SWAP2 SWAP1 SWAP2 SSTORE SWAP2 SSTORE PUSH31 0x92A054E9363F3EFD42F73F1DA82239B3DC6EDAFEA865E59F1CFFA4DD7DC226 SWAP1 DUP8 CALLDATALOAD SWAP1 DUP9 ADD CALLDATALOAD CALLER PUSH2 0x16A3 PUSH1 0x60 DUP12 ADD PUSH1 0x40 DUP13 ADD PUSH2 0x2E66 JUMP JUMPDEST PUSH2 0x16B3 PUSH1 0x80 DUP13 ADD PUSH1 0x60 DUP14 ADD PUSH2 0x2E66 JUMP JUMPDEST PUSH2 0x16C3 PUSH1 0xA0 DUP14 ADD PUSH1 0x80 DUP15 ADD PUSH2 0x321B JUMP JUMPDEST PUSH1 0x40 DUP1 MLOAD SWAP7 DUP8 MSTORE PUSH1 0x20 DUP8 ADD SWAP6 SWAP1 SWAP6 MSTORE PUSH1 0x1 PUSH1 0x1 PUSH1 0xA0 SHL SUB SWAP4 DUP5 AND DUP7 DUP7 ADD MSTORE SWAP2 DUP4 AND PUSH1 0x60 DUP7 ADD MSTORE SWAP1 SWAP2 AND PUSH1 0x80 DUP5 ADD MSTORE ISZERO ISZERO PUSH1 0xA0 DUP4 ADD MSTORE PUSH1 0xC0 DUP3 ADD DUP9 SWAP1 MSTORE PUSH1 0xE0 DUP3 ADD DUP8 SWAP1 MSTORE MLOAD SWAP1 DUP2 SWAP1 SUB PUSH2 0x100 ADD SWAP1 LOG1 POP POP SWAP2 SWAP4 SWAP1 SWAP3 POP JUMP JUMPDEST PUSH1 0x0 DUP6 DUP2 MSTORE PUSH1 0x2 PUSH1 0x20 SWAP1 DUP2 MSTORE PUSH1 0x40 DUP1 DUP4 KECCAK256 DUP8 DUP5 MSTORE SWAP1 SWAP2 MSTORE SWAP1 KECCAK256 SLOAD PUSH1 0xFF AND PUSH2 0x1745 JUMPI PUSH2 0x1745 DUP6 DUP6 PUSH2 0x1853 JUMP JUMPDEST PUSH1 0x1 PUSH1 0x1 PUSH1 0xA0 SHL SUB DUP4 AND PUSH2 0x175B JUMPI PUSH2 0x175B PUSH2 0x2273 JUMP JUMPDEST DUP1 PUSH2 0x1768 JUMPI PUSH2 0x1768 PUSH2 0x228C JUMP JUMPDEST PUSH2 0x1771 DUP3 PUSH2 0x22A5 JUMP JUMPDEST PUSH1 0x0 DUP6 DUP2 MSTORE PUSH1 0x20 DUP2 DUP2 MSTORE PUSH1 0x40 DUP1 DUP4 KECCAK256 DUP8 DUP5 MSTORE SWAP1 SWAP2 MSTORE SWAP1 KECCAK256 PUSH2 0x1794 SWAP1 DUP5 DUP5 DUP5 PUSH2 0x22DA JUMP JUMPDEST PUSH32 0x70FAA8E36BE9E16810B2A40B964C4B9AE20A221C53BC3FD03FC843110D336DBB DUP6 DUP6 CALLER DUP7 DUP7 DUP7 PUSH1 0x40 MLOAD PUSH2 0x17CD SWAP7 SWAP6 SWAP5 SWAP4 SWAP3 SWAP2 SWAP1 PUSH2 0x329D JUMP JUMPDEST PUSH1 0x40 MLOAD DUP1 SWAP2 SUB SWAP1 LOG1 POP POP POP POP POP JUMP JUMPDEST PUSH1 0x0 DUP4 DUP2 MSTORE PUSH1 0x20 DUP2 DUP2 MSTORE PUSH1 0x40 DUP1 DUP4 KECCAK256 DUP6 DUP5 MSTORE SWAP1 SWAP2 MSTORE DUP2 KECCAK256 PUSH2 0x17FE SWAP1 DUP6 DUP5 PUSH2 0x242F JUMP JUMPDEST SWAP1 POP JUMPDEST SWAP4 SWAP3 POP POP POP JUMP JUMPDEST ADDRESS PUSH1 0x1 PUSH1 0x1 PUSH1 0xA0 SHL SUB PUSH32 0x0 AND EQ PUSH2 0x1851 JUMPI PUSH1 0x40 MLOAD PUSH4 0x4118E0BB PUSH1 0xE1 SHL DUP2 MSTORE PUSH1 0x4 ADD PUSH1 0x40 MLOAD DUP1 SWAP2 SUB SWAP1 REVERT JUMPDEST JUMP JUMPDEST PUSH1 0x40 MLOAD PUSH4 0xE407078D PUSH1 0xE0 SHL DUP2 MSTORE PUSH1 0x4 DUP2 ADD DUP4 SWAP1 MSTORE PUSH1 0x24 DUP2 ADD DUP3 SWAP1 MSTORE PUSH1 0x44 ADD JUMPDEST PUSH1 0x40 MLOAD DUP1 SWAP2 SUB SWAP1 REVERT JUMPDEST DUP2 MLOAD PUSH2 0x1889 JUMPI PUSH2 0x1889 PUSH2 0x228C JUMP JUMPDEST PUSH1 0x20 DUP3 ADD MLOAD PUSH1 0x1 PUSH1 0x1 PUSH1 0x60 SHL SUB LT ISZERO PUSH2 0x18A9 JUMPI PUSH2 0x18A9 DUP3 PUSH1 0x20 ADD MLOAD PUSH2 0x24A6 JUMP JUMPDEST DUP1 PUSH1 0x1 PUSH1 0x1 PUSH1 0x60 SHL SUB AND DUP3 PUSH1 0x20 ADD MLOAD GT PUSH2 0x18CB JUMPI PUSH2 0x18CB DUP3 PUSH1 0x20 ADD MLOAD DUP3 PUSH2 0x24C2 JUMP JUMPDEST PUSH1 0x40 DUP3 ADD MLOAD PUSH1 0x1 PUSH1 0x1 PUSH1 0xA0 SHL SUB AND PUSH2 0x18E5 JUMPI PUSH2 0x18E5 PUSH2 0x2273 JUMP JUMPDEST PUSH1 0x60 DUP3 ADD MLOAD PUSH1 0x1 PUSH1 0x1 PUSH1 0xA0 SHL SUB AND PUSH2 0x18FF JUMPI PUSH2 0x18FF PUSH2 0x2273 JUMP JUMPDEST PUSH2 0x190C DUP3 PUSH1 0x80 ADD MLOAD PUSH2 0x24ED JUMP JUMPDEST PUSH1 0xA0 DUP3 ADD MLOAD ISZERO DUP1 ISZERO PUSH2 0x1920 JUMPI POP PUSH1 0xC0 DUP3 ADD MLOAD ISZERO JUMPDEST ISZERO PUSH2 0x192D JUMPI PUSH2 0x192D PUSH2 0x228C JUMP JUMPDEST POP POP JUMP JUMPDEST PUSH1 0x0 DUP1 DUP1 DUP1 DUP7 PUSH1 0x1 DUP2 GT ISZERO PUSH2 0x1948 JUMPI PUSH2 0x1948 PUSH2 0x3287 JUMP JUMPDEST EQ ISZERO PUSH2 0x1968 JUMPI PUSH2 0x1961 DUP6 SWAP4 POP DUP4 DUP6 SWAP4 POP DUP4 DUP10 PUSH1 0x1 PUSH2 0x251F JUMP JUMPDEST SWAP1 POP PUSH2 0x19AE JUMP JUMPDEST PUSH1 0x1 DUP7 PUSH1 0x1 DUP2 GT ISZERO PUSH2 0x197C JUMPI PUSH2 0x197C PUSH2 0x3287 JUMP JUMPDEST EQ ISZERO PUSH2 0x19AE JUMPI PUSH2 0x198C DUP5 DUP7 PUSH2 0x3144 JUMP JUMPDEST SWAP1 POP PUSH2 0x199B DUP6 DUP9 PUSH1 0x0 DUP1 PUSH2 0x2562 JUMP JUMPDEST SWAP3 POP PUSH2 0x19AB DUP5 DUP9 PUSH1 0x1 PUSH1 0x0 PUSH2 0x2562 JUMP JUMPDEST SWAP2 POP JUMPDEST DUP3 DUP9 PUSH1 0x0 ADD PUSH1 0x0 DUP3 DUP3 SLOAD PUSH2 0x19C2 SWAP2 SWAP1 PUSH2 0x2FAB JUMP JUMPDEST SWAP3 POP POP DUP2 SWAP1 SSTORE POP DUP2 DUP9 PUSH1 0x1 ADD PUSH1 0x0 DUP3 DUP3 SLOAD PUSH2 0x19DD SWAP2 SWAP1 PUSH2 0x2FAB JUMP JUMPDEST SWAP3 POP POP DUP2 SWAP1 SSTORE POP SWAP6 POP SWAP6 POP SWAP6 SWAP3 POP POP POP JUMP JUMPDEST PUSH1 0x0 JUMPDEST DUP6 SLOAD DUP2 LT ISZERO PUSH2 0x1A96 JUMPI PUSH1 0x0 DUP7 DUP3 DUP2 SLOAD DUP2 LT PUSH2 0x1A0F JUMPI PUSH2 0x1A0F PUSH2 0x2C49 JUMP JUMPDEST SWAP1 PUSH1 0x0 MSTORE PUSH1 0x20 PUSH1 0x0 KECCAK256 SWAP1 PUSH1 0x4 MUL ADD SWAP1 POP DUP6 PUSH1 0x0 EQ PUSH2 0x1A57 JUMPI DUP4 PUSH2 0x1A41 JUMPI DUP6 DUP2 PUSH1 0x2 ADD SLOAD PUSH2 0x1A3C SWAP2 SWAP1 PUSH2 0x2FAB JUMP JUMPDEST PUSH2 0x1A51 JUMP JUMPDEST DUP6 DUP2 PUSH1 0x2 ADD SLOAD PUSH2 0x1A51 SWAP2 SWAP1 PUSH2 0x3144 JUMP JUMPDEST PUSH1 0x2 DUP3 ADD SSTORE JUMPDEST DUP5 ISZERO PUSH2 0x1A8D JUMPI DUP3 PUSH2 0x1A77 JUMPI DUP5 DUP2 PUSH1 0x3 ADD SLOAD PUSH2 0x1A72 SWAP2 SWAP1 PUSH2 0x2FAB JUMP JUMPDEST PUSH2 0x1A87 JUMP JUMPDEST DUP5 DUP2 PUSH1 0x3 ADD SLOAD PUSH2 0x1A87 SWAP2 SWAP1 PUSH2 0x3144 JUMP JUMPDEST PUSH1 0x3 DUP3 ADD SSTORE JUMPDEST POP PUSH1 0x1 ADD PUSH2 0x19F2 JUMP JUMPDEST POP POP POP POP POP POP JUMP JUMPDEST PUSH1 0x40 DUP1 MLOAD PUSH1 0x1 PUSH1 0x1 PUSH1 0xA0 SHL SUB DUP5 AND PUSH1 0x24 DUP3 ADD MSTORE PUSH1 0x44 DUP1 DUP3 ADD DUP5 SWAP1 MSTORE DUP3 MLOAD DUP1 DUP4 SUB SWAP1 SWAP2 ADD DUP2 MSTORE PUSH1 0x64 SWAP1 SWAP2 ADD SWAP1 SWAP2 MSTORE PUSH1 0x20 DUP2 ADD DUP1 MLOAD PUSH1 0x1 PUSH1 0x1 PUSH1 0xE0 SHL SUB AND PUSH4 0xA9059CBB PUSH1 0xE0 SHL OR SWAP1 MSTORE PUSH2 0x1AF0 SWAP1 DUP5 SWAP1 PUSH2 0x25A2 JUMP JUMPDEST POP POP POP JUMP JUMPDEST DUP2 MLOAD PUSH2 0x1B03 JUMPI PUSH2 0x1B03 PUSH2 0x228C JUMP JUMPDEST PUSH1 0x20 DUP3 ADD MLOAD PUSH1 0x1 PUSH1 0x1 PUSH1 0x60 SHL SUB LT ISZERO PUSH2 0x1B23 JUMPI PUSH2 0x1B23 DUP3 PUSH1 0x20 ADD MLOAD PUSH2 0x24A6 JUMP JUMPDEST DUP1 PUSH1 0x1 PUSH1 0x1 PUSH1 0x60 SHL SUB AND DUP3 PUSH1 0x20 ADD MLOAD GT ISZERO PUSH2 0x1B46 JUMPI PUSH2 0x1B46 DUP3 PUSH1 0x20 ADD MLOAD DUP3 PUSH2 0x2674 JUMP JUMPDEST PUSH1 0x40 DUP3 ADD MLOAD PUSH1 0x1 PUSH1 0x1 PUSH1 0xA0 SHL SUB AND PUSH2 0x1B60 JUMPI PUSH2 0x1B60 PUSH2 0x2273 JUMP JUMPDEST PUSH1 0x60 DUP3 ADD MLOAD PUSH1 0x1 PUSH1 0x1 PUSH1 0xA0 SHL SUB AND PUSH2 0x1B7A JUMPI PUSH2 0x1B7A PUSH2 0x2273 JUMP JUMPDEST PUSH2 0x1B87 DUP3 PUSH1 0x80 ADD MLOAD PUSH2 0x269F JUMP JUMPDEST PUSH1 0xA0 DUP3 ADD MLOAD PUSH2 0x192D JUMPI PUSH2 0x192D PUSH2 0x228C JUMP JUMPDEST PUSH1 0x0 DUP1 PUSH1 0x0 DUP1 PUSH2 0x1BB3 DUP9 PUSH1 0x0 ADD SLOAD DUP10 PUSH1 0x1 ADD SLOAD DUP10 PUSH1 0x1 PUSH2 0x251F JUMP JUMPDEST SWAP1 POP PUSH1 0x0 DUP7 PUSH1 0x2 DUP2 GT ISZERO PUSH2 0x1BC9 JUMPI PUSH2 0x1BC9 PUSH2 0x3287 JUMP JUMPDEST EQ ISZERO PUSH2 0x1BFF JUMPI DUP8 SLOAD DUP6 SWAP3 POP PUSH2 0x1BE2 SWAP1 DUP4 SWAP1 DUP4 PUSH1 0x0 PUSH2 0x26B3 JUMP JUMPDEST PUSH1 0x1 DUP10 ADD SLOAD SWAP1 SWAP5 POP PUSH2 0x1BF8 SWAP1 DUP4 SWAP1 DUP4 PUSH1 0x0 PUSH2 0x26B3 JUMP JUMPDEST SWAP3 POP PUSH2 0x1C89 JUMP JUMPDEST PUSH1 0x1 DUP7 PUSH1 0x2 DUP2 GT ISZERO PUSH2 0x1C13 JUMPI PUSH2 0x1C13 PUSH2 0x3287 JUMP JUMPDEST EQ ISZERO PUSH2 0x1C43 JUMPI DUP8 SLOAD DUP6 SWAP5 POP PUSH2 0x1C2D SWAP1 DUP6 SWAP1 DUP4 SWAP1 PUSH1 0x1 PUSH2 0x26B3 JUMP JUMPDEST PUSH1 0x1 DUP10 ADD SLOAD SWAP1 SWAP3 POP PUSH2 0x1BF8 SWAP1 DUP4 SWAP1 DUP4 PUSH1 0x0 PUSH2 0x26B3 JUMP JUMPDEST PUSH1 0x2 DUP7 PUSH1 0x2 DUP2 GT ISZERO PUSH2 0x1C57 JUMPI PUSH2 0x1C57 PUSH2 0x3287 JUMP JUMPDEST EQ ISZERO PUSH2 0x1C89 JUMPI PUSH1 0x1 DUP1 DUP10 ADD SLOAD DUP7 SWAP5 POP PUSH2 0x1C73 SWAP2 DUP6 SWAP2 DUP5 SWAP2 PUSH2 0x26B3 JUMP JUMPDEST DUP9 SLOAD SWAP1 SWAP3 POP PUSH2 0x1C86 SWAP1 DUP4 SWAP1 DUP4 PUSH1 0x0 PUSH2 0x26B3 JUMP JUMPDEST SWAP4 POP JUMPDEST DUP4 DUP9 PUSH1 0x0 ADD PUSH1 0x0 DUP3 DUP3 SLOAD PUSH2 0x1C9D SWAP2 SWAP1 PUSH2 0x2FAB JUMP JUMPDEST SWAP3 POP POP DUP2 SWAP1 SSTORE POP DUP3 DUP9 PUSH1 0x1 ADD PUSH1 0x0 DUP3 DUP3 SLOAD PUSH2 0x1CB8 SWAP2 SWAP1 PUSH2 0x2FAB JUMP JUMPDEST SWAP3 POP POP DUP2 SWAP1 SSTORE POP POP SWAP5 POP SWAP5 POP SWAP5 SWAP2 POP POP JUMP JUMPDEST DUP2 MLOAD PUSH2 0x1CD8 JUMPI PUSH2 0x1CD8 PUSH2 0x228C JUMP JUMPDEST PUSH1 0x20 DUP3 ADD MLOAD PUSH1 0x1 PUSH1 0x1 PUSH1 0x60 SHL SUB LT ISZERO PUSH2 0x1CF8 JUMPI PUSH2 0x1CF8 DUP3 PUSH1 0x20 ADD MLOAD PUSH2 0x24A6 JUMP JUMPDEST DUP1 PUSH1 0x1 PUSH1 0x1 PUSH1 0x60 SHL SUB AND DUP3 PUSH1 0x20 ADD MLOAD GT PUSH2 0x1D1A JUMPI PUSH2 0x1D1A DUP3 PUSH1 0x20 ADD MLOAD DUP3 PUSH2 0x24C2 JUMP JUMPDEST PUSH1 0x80 DUP3 ADD MLOAD PUSH1 0x1 PUSH1 0x1 PUSH1 0xA0 SHL SUB AND PUSH2 0x1D34 JUMPI PUSH2 0x1D34 PUSH2 0x2273 JUMP JUMPDEST PUSH1 0x40 DUP3 ADD MLOAD PUSH1 0x1 PUSH1 0x1 PUSH1 0xA0 SHL SUB AND PUSH2 0x1D4E JUMPI PUSH2 0x1D4E PUSH2 0x2273 JUMP JUMPDEST PUSH1 0x60 DUP3 ADD MLOAD PUSH1 0x1 PUSH1 0x1 PUSH1 0xA0 SHL SUB AND PUSH2 0x1D68 JUMPI PUSH2 0x1D68 PUSH2 0x2273 JUMP JUMPDEST PUSH2 0x1D75 DUP3 PUSH1 0xA0 ADD MLOAD PUSH2 0x24ED JUMP JUMPDEST PUSH1 0xC0 DUP3 ADD MLOAD ISZERO DUP1 ISZERO PUSH2 0x1920 JUMPI POP PUSH1 0xE0 DUP3 ADD MLOAD PUSH2 0x192D JUMPI PUSH2 0x192D PUSH2 0x228C JUMP JUMPDEST PUSH1 0x0 DUP3 DUP2 MSTORE PUSH1 0x2 PUSH1 0x20 SWAP1 DUP2 MSTORE PUSH1 0x40 DUP1 DUP4 KECCAK256 DUP5 DUP5 MSTORE SWAP1 SWAP2 MSTORE SWAP1 KECCAK256 SLOAD PUSH1 0xFF AND PUSH2 0x192D JUMPI PUSH1 0x0 DUP3 DUP2 MSTORE PUSH1 0x2 PUSH1 0x20 DUP2 DUP2 MSTORE PUSH1 0x40 DUP1 DUP5 KECCAK256 DUP6 DUP6 MSTORE DUP3 MSTORE DUP1 DUP5 KECCAK256 DUP1 SLOAD PUSH1 0xFF NOT AND PUSH1 0x1 SWAP1 DUP2 OR SWAP1 SWAP2 SSTORE DUP2 MLOAD DUP1 DUP4 ADD SWAP1 SWAP3 MSTORE SWAP6 DUP2 MSTORE SWAP1 DUP2 ADD SWAP4 DUP5 MSTORE PUSH1 0x3 DUP1 SLOAD SWAP6 DUP7 ADD DUP2 SSTORE SWAP1 SWAP3 MSTORE SWAP1 MLOAD SWAP3 MUL PUSH32 0xC2575A0E9E593C00F959F8C92F12DB2869C3395A3B0502D05E2516446F71F85B DUP2 ADD SWAP3 SWAP1 SWAP3 SSTORE MLOAD PUSH32 0xC2575A0E9E593C00F959F8C92F12DB2869C3395A3B0502D05E2516446F71F85C SWAP1 SWAP2 ADD SSTORE JUMP JUMPDEST PUSH1 0x0 DUP1 DUP1 DUP1 DUP7 PUSH1 0x1 DUP2 GT ISZERO PUSH2 0x1E62 JUMPI PUSH2 0x1E62 PUSH2 0x3287 JUMP JUMPDEST EQ ISZERO PUSH2 0x1E82 JUMPI PUSH2 0x1E7B DUP6 SWAP4 POP DUP4 DUP6 SWAP4 POP DUP4 DUP13 PUSH1 0x0 PUSH2 0x251F JUMP JUMPDEST SWAP1 POP PUSH2 0x1EC8 JUMP JUMPDEST PUSH1 0x1 DUP7 PUSH1 0x1 DUP2 GT ISZERO PUSH2 0x1E96 JUMPI PUSH2 0x1E96 PUSH2 0x3287 JUMP JUMPDEST EQ ISZERO PUSH2 0x1EC8 JUMPI PUSH2 0x1EA6 DUP5 DUP7 PUSH2 0x3144 JUMP JUMPDEST SWAP1 POP PUSH2 0x1EB6 DUP6 DUP12 PUSH1 0x0 PUSH1 0x1 PUSH2 0x2562 JUMP JUMPDEST SWAP3 POP PUSH2 0x1EC5 DUP5 DUP12 PUSH1 0x1 DUP1 PUSH2 0x2562 JUMP JUMPDEST SWAP2 POP JUMPDEST DUP3 ISZERO PUSH2 0x1F17 JUMPI DUP3 DUP12 PUSH1 0x0 ADD PUSH1 0x0 DUP3 DUP3 SLOAD PUSH2 0x1EE2 SWAP2 SWAP1 PUSH2 0x3144 JUMP JUMPDEST SWAP1 SWAP2 SSTORE POP POP PUSH1 0x1 PUSH1 0x1 PUSH1 0xA0 SHL SUB DUP10 AND PUSH1 0x0 SWAP1 DUP2 MSTORE PUSH1 0x2 DUP13 ADD PUSH1 0x20 MSTORE PUSH1 0x40 DUP2 KECCAK256 DUP1 SLOAD DUP6 SWAP3 SWAP1 PUSH2 0x1F11 SWAP1 DUP5 SWAP1 PUSH2 0x3144 JUMP JUMPDEST SWAP1 SWAP2 SSTORE POP POP JUMPDEST DUP2 ISZERO PUSH2 0x1F66 JUMPI DUP2 DUP12 PUSH1 0x1 ADD PUSH1 0x0 DUP3 DUP3 SLOAD PUSH2 0x1F31 SWAP2 SWAP1 PUSH2 0x3144 JUMP JUMPDEST SWAP1 SWAP2 SSTORE POP POP PUSH1 0x1 PUSH1 0x1 PUSH1 0xA0 SHL SUB DUP9 AND PUSH1 0x0 SWAP1 DUP2 MSTORE PUSH1 0x3 DUP13 ADD PUSH1 0x20 MSTORE PUSH1 0x40 DUP2 KECCAK256 DUP1 SLOAD DUP5 SWAP3 SWAP1 PUSH2 0x1F60 SWAP1 DUP5 SWAP1 PUSH2 0x3144 JUMP JUMPDEST SWAP1 SWAP2 SSTORE POP POP JUMPDEST PUSH1 0x1 PUSH1 0x1 PUSH1 0xA0 SHL SUB DUP8 AND PUSH1 0x0 SWAP1 DUP2 MSTORE PUSH1 0x4 DUP13 ADD PUSH1 0x20 MSTORE PUSH1 0x40 DUP2 KECCAK256 DUP1 SLOAD DUP4 SWAP3 SWAP1 PUSH2 0x1F90 SWAP1 DUP5 SWAP1 PUSH2 0x3144 JUMP JUMPDEST SWAP1 SWAP2 SSTORE POP POP DUP11 SLOAD PUSH1 0x1 DUP1 DUP14 ADD SLOAD PUSH2 0x1FA9 SWAP3 SWAP2 DUP14 SWAP1 PUSH2 0x251F JUMP JUMPDEST POP SWAP9 POP SWAP9 POP SWAP9 SWAP6 POP POP POP POP POP POP JUMP JUMPDEST DUP1 DUP3 LT ISZERO PUSH2 0x192D JUMPI PUSH1 0x40 MLOAD PUSH4 0x1C22FF01 PUSH1 0xE2 SHL DUP2 MSTORE PUSH1 0x4 DUP2 ADD DUP4 SWAP1 MSTORE PUSH1 0x24 DUP2 ADD DUP3 SWAP1 MSTORE PUSH1 0x44 ADD PUSH2 0x1872 JUMP JUMPDEST PUSH1 0x0 DUP1 DUP3 PUSH1 0x2 DUP2 GT ISZERO PUSH2 0x1FF8 JUMPI PUSH2 0x1FF8 PUSH2 0x3287 JUMP JUMPDEST EQ ISZERO PUSH2 0x201F JUMPI POP PUSH1 0x1 PUSH1 0x1 PUSH1 0xA0 SHL SUB DUP3 AND PUSH1 0x0 SWAP1 DUP2 MSTORE PUSH1 0x2 DUP5 ADD PUSH1 0x20 MSTORE PUSH1 0x40 SWAP1 KECCAK256 SLOAD PUSH2 0x1801 JUMP JUMPDEST PUSH1 0x1 DUP3 PUSH1 0x2 DUP2 GT ISZERO PUSH2 0x2033 JUMPI PUSH2 0x2033 PUSH2 0x3287 JUMP JUMPDEST EQ ISZERO PUSH2 0x205A JUMPI POP PUSH1 0x1 PUSH1 0x1 PUSH1 0xA0 SHL SUB DUP3 AND PUSH1 0x0 SWAP1 DUP2 MSTORE PUSH1 0x3 DUP5 ADD PUSH1 0x20 MSTORE PUSH1 0x40 SWAP1 KECCAK256 SLOAD PUSH2 0x1801 JUMP JUMPDEST PUSH1 0x2 DUP3 PUSH1 0x2 DUP2 GT ISZERO PUSH2 0x206E JUMPI PUSH2 0x206E PUSH2 0x3287 JUMP JUMPDEST EQ ISZERO PUSH2 0x1801 JUMPI POP POP PUSH1 0x1 PUSH1 0x1 PUSH1 0xA0 SHL SUB AND PUSH1 0x0 SWAP1 DUP2 MSTORE PUSH1 0x4 SWAP2 SWAP1 SWAP2 ADD PUSH1 0x20 MSTORE PUSH1 0x40 SWAP1 KECCAK256 SLOAD SWAP1 JUMP JUMPDEST DUP2 MLOAD PUSH2 0x20A3 JUMPI PUSH2 0x20A3 PUSH2 0x228C JUMP JUMPDEST PUSH1 0x20 DUP3 ADD MLOAD PUSH1 0x1 PUSH1 0x1 PUSH1 0x60 SHL SUB LT ISZERO PUSH2 0x20C3 JUMPI PUSH2 0x20C3 DUP3 PUSH1 0x20 ADD MLOAD PUSH2 0x24A6 JUMP JUMPDEST DUP1 PUSH1 0x1 PUSH1 0x1 PUSH1 0x60 SHL SUB AND DUP3 PUSH1 0x20 ADD MLOAD GT PUSH2 0x20E5 JUMPI PUSH2 0x20E5 DUP3 PUSH1 0x20 ADD MLOAD DUP3 PUSH2 0x24C2 JUMP JUMPDEST PUSH1 0x40 DUP3 ADD MLOAD PUSH1 0x1 PUSH1 0x1 PUSH1 0xA0 SHL SUB AND PUSH2 0x20FF JUMPI PUSH2 0x20FF PUSH2 0x2273 JUMP JUMPDEST PUSH1 0x60 DUP3 ADD MLOAD PUSH1 0x1 PUSH1 0x1 PUSH1 0xA0 SHL SUB AND PUSH2 0x2119 JUMPI PUSH2 0x2119 PUSH2 0x2273 JUMP JUMPDEST PUSH2 0x2126 DUP3 PUSH1 0xA0 ADD MLOAD PUSH2 0x24ED JUMP JUMPDEST PUSH1 0xC0 DUP3 ADD MLOAD PUSH2 0x192D JUMPI PUSH2 0x192D PUSH2 0x228C JUMP JUMPDEST PUSH1 0x0 DUP1 DUP1 DUP5 PUSH1 0x1 DUP2 GT ISZERO PUSH2 0x214D JUMPI PUSH2 0x214D PUSH2 0x3287 JUMP JUMPDEST EQ ISZERO PUSH2 0x216A JUMPI DUP3 SWAP2 POP PUSH2 0x2163 DUP3 DUP9 PUSH1 0x1 DUP9 PUSH2 0x26C1 JUMP JUMPDEST SWAP1 POP PUSH2 0x2197 JUMP JUMPDEST PUSH1 0x1 DUP5 PUSH1 0x1 DUP2 GT ISZERO PUSH2 0x217E JUMPI PUSH2 0x217E PUSH2 0x3287 JUMP JUMPDEST EQ ISZERO PUSH2 0x2197 JUMPI POP DUP2 PUSH2 0x2194 DUP2 DUP9 PUSH1 0x0 DUP9 ISZERO PUSH2 0x26C1 JUMP JUMPDEST SWAP2 POP JUMPDEST DUP5 ISZERO PUSH2 0x2206 JUMPI DUP2 DUP9 PUSH1 0x0 ADD PUSH1 0x0 DUP3 DUP3 SLOAD PUSH2 0x21B1 SWAP2 SWAP1 PUSH2 0x2FAB JUMP JUMPDEST SWAP3 POP POP DUP2 SWAP1 SSTORE POP DUP1 DUP9 PUSH1 0x1 ADD PUSH1 0x0 DUP3 DUP3 SLOAD PUSH2 0x21CC SWAP2 SWAP1 PUSH2 0x3144 JUMP JUMPDEST SWAP1 SWAP2 SSTORE POP POP PUSH1 0x1 PUSH1 0x1 PUSH1 0xA0 SHL SUB DUP7 AND PUSH1 0x0 SWAP1 DUP2 MSTORE PUSH1 0x3 DUP10 ADD PUSH1 0x20 MSTORE PUSH1 0x40 DUP2 KECCAK256 DUP1 SLOAD DUP4 SWAP3 SWAP1 PUSH2 0x21FB SWAP1 DUP5 SWAP1 PUSH2 0x3144 JUMP JUMPDEST SWAP1 SWAP2 SSTORE POP PUSH2 0x2268 SWAP1 POP JUMP JUMPDEST DUP1 DUP9 PUSH1 0x1 ADD PUSH1 0x0 DUP3 DUP3 SLOAD PUSH2 0x221A SWAP2 SWAP1 PUSH2 0x2FAB JUMP JUMPDEST SWAP1 SWAP2 SSTORE POP POP DUP8 SLOAD DUP3 SWAP1 DUP10 SWAP1 PUSH1 0x0 SWAP1 PUSH2 0x2233 SWAP1 DUP5 SWAP1 PUSH2 0x3144 JUMP JUMPDEST SWAP1 SWAP2 SSTORE POP POP PUSH1 0x1 PUSH1 0x1 PUSH1 0xA0 SHL SUB DUP7 AND PUSH1 0x0 SWAP1 DUP2 MSTORE PUSH1 0x2 DUP10 ADD PUSH1 0x20 MSTORE PUSH1 0x40 DUP2 KECCAK256 DUP1 SLOAD DUP5 SWAP3 SWAP1 PUSH2 0x2262 SWAP1 DUP5 SWAP1 PUSH2 0x3144 JUMP JUMPDEST SWAP1 SWAP2 SSTORE POP POP JUMPDEST SWAP7 POP SWAP7 SWAP5 POP POP POP POP POP JUMP JUMPDEST PUSH1 0x40 MLOAD PUSH4 0xD92E233D PUSH1 0xE0 SHL DUP2 MSTORE PUSH1 0x4 ADD PUSH1 0x40 MLOAD DUP1 SWAP2 SUB SWAP1 REVERT JUMPDEST PUSH1 0x40 MLOAD PUSH4 0xAF458C07 PUSH1 0xE0 SHL DUP2 MSTORE PUSH1 0x4 ADD PUSH1 0x40 MLOAD DUP1 SWAP2 SUB SWAP1 REVERT JUMPDEST PUSH1 0x3 DUP2 PUSH1 0x2 DUP2 GT ISZERO PUSH2 0x22B9 JUMPI PUSH2 0x22B9 PUSH2 0x3287 JUMP JUMPDEST LT PUSH2 0x22D7 JUMPI PUSH1 0x40 MLOAD PUSH4 0x673F032F PUSH1 0xE1 SHL DUP2 MSTORE PUSH1 0x4 ADD PUSH1 0x40 MLOAD DUP1 SWAP2 SUB SWAP1 REVERT JUMPDEST POP JUMP JUMPDEST PUSH1 0x0 DUP3 PUSH1 0x2 DUP2 GT ISZERO PUSH2 0x22EE JUMPI PUSH2 0x22EE PUSH2 0x3287 JUMP JUMPDEST EQ ISZERO PUSH2 0x234F JUMPI CALLER PUSH1 0x0 SWAP1 DUP2 MSTORE PUSH1 0x2 DUP6 ADD PUSH1 0x20 MSTORE PUSH1 0x40 DUP2 KECCAK256 DUP1 SLOAD DUP4 SWAP3 SWAP1 PUSH2 0x2315 SWAP1 DUP5 SWAP1 PUSH2 0x2FAB JUMP JUMPDEST SWAP1 SWAP2 SSTORE POP POP PUSH1 0x1 PUSH1 0x1 PUSH1 0xA0 SHL SUB DUP4 AND PUSH1 0x0 SWAP1 DUP2 MSTORE PUSH1 0x2 DUP6 ADD PUSH1 0x20 MSTORE PUSH1 0x40 DUP2 KECCAK256 DUP1 SLOAD DUP4 SWAP3 SWAP1 PUSH2 0x2344 SWAP1 DUP5 SWAP1 PUSH2 0x3144 JUMP JUMPDEST SWAP1 SWAP2 SSTORE POP PUSH2 0x2429 SWAP1 POP JUMP JUMPDEST PUSH1 0x1 DUP3 PUSH1 0x2 DUP2 GT ISZERO PUSH2 0x2363 JUMPI PUSH2 0x2363 PUSH2 0x3287 JUMP JUMPDEST EQ ISZERO PUSH2 0x23B9 JUMPI PUSH1 0x1 PUSH1 0x1 PUSH1 0xA0 SHL SUB DUP4 AND PUSH1 0x0 SWAP1 DUP2 MSTORE PUSH1 0x3 DUP6 ADD PUSH1 0x20 MSTORE PUSH1 0x40 DUP2 KECCAK256 DUP1 SLOAD DUP4 SWAP3 SWAP1 PUSH2 0x2393 SWAP1 DUP5 SWAP1 PUSH2 0x3144 JUMP JUMPDEST SWAP1 SWAP2 SSTORE POP POP CALLER PUSH1 0x0 SWAP1 DUP2 MSTORE PUSH1 0x3 DUP6 ADD PUSH1 0x20 MSTORE PUSH1 0x40 DUP2 KECCAK256 DUP1 SLOAD DUP4 SWAP3 SWAP1 PUSH2 0x2344 SWAP1 DUP5 SWAP1 PUSH2 0x2FAB JUMP JUMPDEST PUSH1 0x2 DUP3 PUSH1 0x2 DUP2 GT ISZERO PUSH2 0x23CD JUMPI PUSH2 0x23CD PUSH2 0x3287 JUMP JUMPDEST EQ ISZERO PUSH2 0x2429 JUMPI CALLER PUSH1 0x0 SWAP1 DUP2 MSTORE PUSH1 0x4 DUP6 ADD PUSH1 0x20 MSTORE PUSH1 0x40 DUP2 KECCAK256 DUP1 SLOAD DUP4 SWAP3 SWAP1 PUSH2 0x23F4 SWAP1 DUP5 SWAP1 PUSH2 0x2FAB JUMP JUMPDEST SWAP1 SWAP2 SSTORE POP POP PUSH1 0x1 PUSH1 0x1 PUSH1 0xA0 SHL SUB DUP4 AND PUSH1 0x0 SWAP1 DUP2 MSTORE PUSH1 0x4 DUP6 ADD PUSH1 0x20 MSTORE PUSH1 0x40 DUP2 KECCAK256 DUP1 SLOAD DUP4 SWAP3 SWAP1 PUSH2 0x2423 SWAP1 DUP5 SWAP1 PUSH2 0x3144 JUMP JUMPDEST SWAP1 SWAP2 SSTORE POP POP JUMPDEST POP POP POP POP JUMP JUMPDEST PUSH1 0x0 DUP1 DUP3 PUSH1 0x2 DUP2 GT ISZERO PUSH2 0x2444 JUMPI PUSH2 0x2444 PUSH2 0x3287 JUMP JUMPDEST EQ ISZERO PUSH2 0x2452 JUMPI POP DUP3 SLOAD PUSH2 0x1801 JUMP JUMPDEST PUSH1 0x1 DUP3 PUSH1 0x2 DUP2 GT ISZERO PUSH2 0x2466 JUMPI PUSH2 0x2466 PUSH2 0x3287 JUMP JUMPDEST EQ ISZERO PUSH2 0x2477 JUMPI POP PUSH1 0x1 DUP4 ADD SLOAD PUSH2 0x1801 JUMP JUMPDEST PUSH1 0x2 DUP3 PUSH1 0x2 DUP2 GT ISZERO PUSH2 0x248B JUMPI PUSH2 0x248B PUSH2 0x3287 JUMP JUMPDEST EQ ISZERO PUSH2 0x1801 JUMPI PUSH2 0x17FE DUP5 PUSH1 0x0 ADD SLOAD DUP6 PUSH1 0x1 ADD SLOAD DUP6 PUSH1 0x1 PUSH2 0x251F JUMP JUMPDEST PUSH1 0x40 MLOAD PUSH4 0x35F135D3 PUSH1 0xE0 SHL DUP2 MSTORE PUSH1 0x4 DUP2 ADD DUP3 SWAP1 MSTORE PUSH1 0x24 ADD PUSH2 0x1872 JUMP JUMPDEST PUSH1 0x40 MLOAD PUSH4 0x647284E9 PUSH1 0xE1 SHL DUP2 MSTORE PUSH1 0x4 DUP2 ADD DUP4 SWAP1 MSTORE PUSH1 0x1 PUSH1 0x1 PUSH1 0x60 SHL SUB DUP3 AND PUSH1 0x24 DUP3 ADD MSTORE PUSH1 0x44 ADD PUSH2 0x1872 JUMP JUMPDEST PUSH1 0x2 DUP2 PUSH1 0x1 DUP2 GT ISZERO PUSH2 0x2501 JUMPI PUSH2 0x2501 PUSH2 0x3287 JUMP JUMPDEST LT PUSH2 0x22D7 JUMPI PUSH1 0x40 MLOAD PUSH4 0x280503E7 PUSH1 0xE1 SHL DUP2 MSTORE PUSH1 0x4 ADD PUSH1 0x40 MLOAD DUP1 SWAP2 SUB SWAP1 REVERT JUMPDEST PUSH1 0x0 PUSH1 0x1 PUSH1 0x1 PUSH1 0x80 SHL SUB DUP4 GT PUSH2 0x254B JUMPI PUSH2 0x253C DUP6 DUP5 PUSH1 0x1 DUP6 PUSH2 0x26C1 JUMP JUMPDEST PUSH2 0x2546 SWAP1 DUP6 PUSH2 0x3144 JUMP JUMPDEST PUSH2 0xE8F JUMP JUMPDEST PUSH2 0x2558 DUP5 DUP5 PUSH1 0x0 DUP6 PUSH2 0x26C1 JUMP JUMPDEST PUSH2 0xE8F SWAP1 DUP7 PUSH2 0x3144 JUMP JUMPDEST PUSH1 0x0 PUSH1 0x1 PUSH1 0x1 PUSH1 0x80 SHL SUB DUP5 GT PUSH2 0x258A JUMPI DUP3 PUSH2 0x2584 JUMPI PUSH2 0x2546 DUP6 DUP6 PUSH1 0x0 DUP6 PUSH2 0x26C1 JUMP JUMPDEST DUP5 PUSH2 0xE8F JUMP JUMPDEST DUP3 PUSH2 0x2595 JUMPI DUP5 PUSH2 0xE8F JUMP JUMPDEST PUSH2 0xE8F DUP6 DUP6 PUSH1 0x1 DUP6 PUSH2 0x26C1 JUMP JUMPDEST PUSH1 0x0 PUSH2 0x25F7 DUP3 PUSH1 0x40 MLOAD DUP1 PUSH1 0x40 ADD PUSH1 0x40 MSTORE DUP1 PUSH1 0x20 DUP2 MSTORE PUSH1 0x20 ADD PUSH32 0x5361666545524332303A206C6F772D6C6576656C2063616C6C206661696C6564 DUP2 MSTORE POP DUP6 PUSH1 0x1 PUSH1 0x1 PUSH1 0xA0 SHL SUB AND PUSH2 0x26E8 SWAP1 SWAP3 SWAP2 SWAP1 PUSH4 0xFFFFFFFF AND JUMP JUMPDEST DUP1 MLOAD SWAP1 SWAP2 POP ISZERO PUSH2 0x1AF0 JUMPI DUP1 DUP1 PUSH1 0x20 ADD SWAP1 MLOAD DUP2 ADD SWAP1 PUSH2 0x2615 SWAP2 SWAP1 PUSH2 0x32F4 JUMP JUMPDEST PUSH2 0x1AF0 JUMPI PUSH1 0x40 MLOAD PUSH3 0x461BCD PUSH1 0xE5 SHL DUP2 MSTORE PUSH1 0x20 PUSH1 0x4 DUP3 ADD MSTORE PUSH1 0x2A PUSH1 0x24 DUP3 ADD MSTORE PUSH32 0x5361666545524332303A204552433230206F7065726174696F6E20646964206E PUSH1 0x44 DUP3 ADD MSTORE PUSH10 0x1BDD081CDD58D8D95959 PUSH1 0xB2 SHL PUSH1 0x64 DUP3 ADD MSTORE PUSH1 0x84 ADD PUSH2 0x1872 JUMP JUMPDEST PUSH1 0x40 MLOAD PUSH4 0xB9E0F8D5 PUSH1 0xE0 SHL DUP2 MSTORE PUSH1 0x4 DUP2 ADD DUP4 SWAP1 MSTORE PUSH1 0x1 PUSH1 0x1 PUSH1 0x60 SHL SUB DUP3 AND PUSH1 0x24 DUP3 ADD MSTORE PUSH1 0x44 ADD PUSH2 0x1872 JUMP JUMPDEST PUSH1 0x3 DUP2 PUSH1 0x2 DUP2 GT ISZERO PUSH2 0x2501 JUMPI PUSH2 0x2501 PUSH2 0x3287 JUMP JUMPDEST PUSH1 0x0 PUSH2 0xE8F DUP6 DUP6 DUP6 DUP6 PUSH2 0x26F7 JUMP JUMPDEST PUSH1 0x0 DUP3 PUSH2 0x26D8 JUMPI PUSH2 0x2546 DUP6 PUSH1 0x1 PUSH1 0x80 SHL DUP7 DUP6 PUSH2 0x26F7 JUMP JUMPDEST PUSH2 0xE8F DUP6 DUP6 PUSH1 0x1 PUSH1 0x80 SHL DUP6 PUSH2 0x26F7 JUMP JUMPDEST PUSH1 0x60 PUSH2 0x17FE DUP5 DUP5 PUSH1 0x0 DUP6 PUSH2 0x27F3 JUMP JUMPDEST PUSH1 0x0 DUP1 PUSH1 0x0 PUSH2 0x2706 DUP8 DUP8 PUSH2 0x28CE JUMP JUMPDEST SWAP2 POP SWAP2 POP DUP1 PUSH1 0x0 EQ ISZERO PUSH2 0x2727 JUMPI PUSH2 0x271E DUP3 DUP7 DUP7 PUSH2 0x28ED JUMP JUMPDEST SWAP3 POP POP POP PUSH2 0xE92 JUMP JUMPDEST DUP1 DUP6 GT PUSH2 0x2758 JUMPI PUSH1 0x40 MLOAD PUSH4 0x362CED09 PUSH1 0xE1 SHL DUP2 MSTORE PUSH1 0x4 DUP2 ADD DUP9 SWAP1 MSTORE PUSH1 0x24 DUP2 ADD DUP8 SWAP1 MSTORE PUSH1 0x44 DUP2 ADD DUP7 SWAP1 MSTORE PUSH1 0x64 ADD PUSH2 0x1872 JUMP JUMPDEST PUSH1 0x0 DUP6 DUP8 DUP10 MULMOD PUSH1 0x0 DUP8 DUP2 SUB DUP9 AND SWAP8 DUP9 SWAP1 DIV SWAP8 PUSH1 0x2 PUSH1 0x3 DUP11 MUL DUP2 XOR DUP1 DUP12 MUL DUP3 SUB MUL DUP1 DUP12 MUL DUP3 SUB MUL DUP1 DUP12 MUL DUP3 SUB MUL DUP1 DUP12 MUL DUP3 SUB MUL DUP1 DUP12 MUL DUP3 SUB MUL DUP1 DUP12 MUL SWAP1 SWAP2 SUB MUL SWAP2 DUP2 SWAP1 SUB DUP2 SWAP1 DIV PUSH1 0x1 ADD DUP7 DUP5 GT SWAP1 SWAP6 SUB SWAP5 DUP6 MUL SWAP3 SWAP1 SWAP6 SUB SWAP5 SWAP1 SWAP5 DIV OR SWAP3 DUP4 MUL SWAP4 POP DUP5 SWAP1 POP DUP1 ISZERO PUSH2 0x27D6 JUMPI POP DUP5 DUP1 PUSH2 0x27D0 JUMPI PUSH2 0x27D0 PUSH2 0x3311 JUMP JUMPDEST DUP7 DUP9 MULMOD ISZERO ISZERO JUMPDEST ISZERO PUSH2 0x27E9 JUMPI DUP3 PUSH2 0x27E5 DUP2 PUSH2 0x3327 JUMP JUMPDEST SWAP4 POP POP JUMPDEST POP POP SWAP5 SWAP4 POP POP POP POP JUMP JUMPDEST PUSH1 0x60 DUP3 SELFBALANCE LT ISZERO PUSH2 0x2854 JUMPI PUSH1 0x40 MLOAD PUSH3 0x461BCD PUSH1 0xE5 SHL DUP2 MSTORE PUSH1 0x20 PUSH1 0x4 DUP3 ADD MSTORE PUSH1 0x26 PUSH1 0x24 DUP3 ADD MSTORE PUSH32 0x416464726573733A20696E73756666696369656E742062616C616E636520666F PUSH1 0x44 DUP3 ADD MSTORE PUSH6 0x1C8818D85B1B PUSH1 0xD2 SHL PUSH1 0x64 DUP3 ADD MSTORE PUSH1 0x84 ADD PUSH2 0x1872 JUMP JUMPDEST PUSH1 0x0 DUP1 DUP7 PUSH1 0x1 PUSH1 0x1 PUSH1 0xA0 SHL SUB AND DUP6 DUP8 PUSH1 0x40 MLOAD PUSH2 0x2870 SWAP2 SWAP1 PUSH2 0x3342 JUMP JUMPDEST PUSH1 0x0 PUSH1 0x40 MLOAD DUP1 DUP4 SUB DUP2 DUP6 DUP8 GAS CALL SWAP3 POP POP POP RETURNDATASIZE DUP1 PUSH1 0x0 DUP2 EQ PUSH2 0x28AD JUMPI PUSH1 0x40 MLOAD SWAP2 POP PUSH1 0x1F NOT PUSH1 0x3F RETURNDATASIZE ADD AND DUP3 ADD PUSH1 0x40 MSTORE RETURNDATASIZE DUP3 MSTORE RETURNDATASIZE PUSH1 0x0 PUSH1 0x20 DUP5 ADD RETURNDATACOPY PUSH2 0x28B2 JUMP JUMPDEST PUSH1 0x60 SWAP2 POP JUMPDEST POP SWAP2 POP SWAP2 POP PUSH2 0x28C3 DUP8 DUP4 DUP4 DUP8 PUSH2 0x2928 JUMP JUMPDEST SWAP8 SWAP7 POP POP POP POP POP POP POP JUMP JUMPDEST PUSH1 0x0 DUP1 PUSH1 0x0 NOT DUP4 DUP6 MULMOD DUP4 DUP6 MUL SWAP3 POP DUP3 DUP2 LT DUP4 DUP3 SUB SUB SWAP2 POP POP SWAP3 POP SWAP3 SWAP1 POP JUMP JUMPDEST PUSH1 0x0 PUSH2 0x28F9 DUP4 DUP6 PUSH2 0x335E JUMP JUMPDEST SWAP1 POP DUP2 DUP1 ISZERO PUSH2 0x2910 JUMPI POP PUSH2 0x290D DUP4 DUP6 PUSH2 0x3372 JUMP JUMPDEST ISZERO ISZERO JUMPDEST ISZERO PUSH2 0x1801 JUMPI DUP1 PUSH2 0x291F DUP2 PUSH2 0x3327 JUMP JUMPDEST SWAP6 SWAP5 POP POP POP POP POP JUMP JUMPDEST PUSH1 0x60 DUP4 ISZERO PUSH2 0x2994 JUMPI DUP3 MLOAD PUSH2 0x298D JUMPI PUSH1 0x1 PUSH1 0x1 PUSH1 0xA0 SHL SUB DUP6 AND EXTCODESIZE PUSH2 0x298D JUMPI PUSH1 0x40 MLOAD PUSH3 0x461BCD PUSH1 0xE5 SHL DUP2 MSTORE PUSH1 0x20 PUSH1 0x4 DUP3 ADD MSTORE PUSH1 0x1D PUSH1 0x24 DUP3 ADD MSTORE PUSH32 0x416464726573733A2063616C6C20746F206E6F6E2D636F6E7472616374000000 PUSH1 0x44 DUP3 ADD MSTORE PUSH1 0x64 ADD PUSH2 0x1872 JUMP JUMPDEST POP DUP2 PUSH2 0xE92 JUMP JUMPDEST PUSH2 0xE92 DUP4 DUP4 DUP2 MLOAD ISZERO PUSH2 0x29A9 JUMPI DUP2 MLOAD DUP1 DUP4 PUSH1 0x20 ADD REVERT JUMPDEST DUP1 PUSH1 0x40 MLOAD PUSH3 0x461BCD PUSH1 0xE5 SHL DUP2 MSTORE PUSH1 0x4 ADD PUSH2 0x1872 SWAP2 SWAP1 PUSH2 0x3386 JUMP JUMPDEST PUSH1 0x0 PUSH1 0x20 DUP3 DUP5 SUB SLT ISZERO PUSH2 0x29D5 JUMPI PUSH1 0x0 DUP1 REVERT JUMPDEST POP CALLDATALOAD SWAP2 SWAP1 POP JUMP JUMPDEST PUSH1 0x0 PUSH2 0x100 DUP3 DUP5 SUB SLT ISZERO PUSH2 0x29EF JUMPI PUSH1 0x0 DUP1 REVERT JUMPDEST POP SWAP2 SWAP1 POP JUMP JUMPDEST PUSH1 0x0 PUSH1 0x20 DUP3 DUP5 SUB SLT ISZERO PUSH2 0x2A07 JUMPI PUSH1 0x0 DUP1 REVERT JUMPDEST DUP2 CALLDATALOAD PUSH1 0x1 PUSH1 0x1 PUSH1 0x40 SHL SUB DUP2 GT ISZERO PUSH2 0x2A1D JUMPI PUSH1 0x0 DUP1 REVERT JUMPDEST PUSH2 0xE92 DUP5 DUP3 DUP6 ADD PUSH2 0x29DC JUMP JUMPDEST PUSH1 0x0 JUMPDEST DUP4 DUP2 LT ISZERO PUSH2 0x2A44 JUMPI DUP2 DUP2 ADD MLOAD DUP4 DUP3 ADD MSTORE PUSH1 0x20 ADD PUSH2 0x2A2C JUMP JUMPDEST DUP4 DUP2 GT ISZERO PUSH2 0x2429 JUMPI POP POP PUSH1 0x0 SWAP2 ADD MSTORE JUMP JUMPDEST PUSH1 0x0 DUP2 MLOAD DUP1 DUP5 MSTORE PUSH2 0x2A6D DUP2 PUSH1 0x20 DUP7 ADD PUSH1 0x20 DUP7 ADD PUSH2 0x2A29 JUMP JUMPDEST PUSH1 0x1F ADD PUSH1 0x1F NOT AND SWAP3 SWAP1 SWAP3 ADD PUSH1 0x20 ADD SWAP3 SWAP2 POP POP JUMP JUMPDEST DUP5 DUP2 MSTORE DUP4 PUSH1 0x20 DUP3 ADD MSTORE DUP3 PUSH1 0x40 DUP3 ADD MSTORE PUSH1 0x80 PUSH1 0x60 DUP3 ADD MSTORE PUSH1 0x0 PUSH2 0x2AA6 PUSH1 0x80 DUP4 ADD DUP5 PUSH2 0x2A55 JUMP JUMPDEST SWAP7 SWAP6 POP POP POP POP POP POP JUMP JUMPDEST PUSH1 0x0 PUSH1 0x20 DUP3 DUP5 SUB SLT ISZERO PUSH2 0x2AC2 JUMPI PUSH1 0x0 DUP1 REVERT JUMPDEST DUP2 CALLDATALOAD PUSH1 0x1 PUSH1 0x1 PUSH1 0x40 SHL SUB DUP2 GT ISZERO PUSH2 0x2AD8 JUMPI PUSH1 0x0 DUP1 REVERT JUMPDEST DUP3 ADD PUSH1 0xE0 DUP2 DUP6 SUB SLT ISZERO PUSH2 0x1801 JUMPI PUSH1 0x0 DUP1 REVERT JUMPDEST PUSH1 0x0 PUSH1 0x20 DUP3 DUP5 SUB SLT ISZERO PUSH2 0x2AFC JUMPI PUSH1 0x0 DUP1 REVERT JUMPDEST DUP2 CALLDATALOAD PUSH1 0x1 PUSH1 0x1 PUSH1 0x40 SHL SUB DUP2 GT ISZERO PUSH2 0x2B12 JUMPI PUSH1 0x0 DUP1 REVERT JUMPDEST DUP3 ADD PUSH2 0x120 DUP2 DUP6 SUB SLT ISZERO PUSH2 0x1801 JUMPI PUSH1 0x0 DUP1 REVERT JUMPDEST DUP1 CALLDATALOAD PUSH1 0x1 PUSH1 0x1 PUSH1 0xA0 SHL SUB DUP2 AND DUP2 EQ PUSH2 0x2B3C JUMPI PUSH1 0x0 DUP1 REVERT JUMPDEST SWAP2 SWAP1 POP JUMP JUMPDEST PUSH1 0x3 DUP2 LT PUSH2 0x22D7 JUMPI PUSH1 0x0 DUP1 REVERT JUMPDEST DUP1 CALLDATALOAD PUSH2 0x2B3C DUP2 PUSH2 0x2B41 JUMP JUMPDEST PUSH1 0x0 DUP1 PUSH1 0x0 DUP1 PUSH1 0x80 DUP6 DUP8 SUB SLT ISZERO PUSH2 0x2B6F JUMPI PUSH1 0x0 DUP1 REVERT JUMPDEST DUP5 CALLDATALOAD SWAP4 POP PUSH1 0x20 DUP6 ADD CALLDATALOAD SWAP3 POP PUSH2 0x2B86 PUSH1 0x40 DUP7 ADD PUSH2 0x2B25 JUMP JUMPDEST SWAP2 POP PUSH1 0x60 DUP6 ADD CALLDATALOAD PUSH2 0x2B96 DUP2 PUSH2 0x2B41 JUMP JUMPDEST SWAP4 SWAP7 SWAP3 SWAP6 POP SWAP1 SWAP4 POP POP JUMP JUMPDEST DUP4 DUP2 MSTORE DUP3 PUSH1 0x20 DUP3 ADD MSTORE PUSH1 0x60 PUSH1 0x40 DUP3 ADD MSTORE PUSH1 0x0 PUSH2 0xE8F PUSH1 0x60 DUP4 ADD DUP5 PUSH2 0x2A55 JUMP JUMPDEST PUSH1 0x0 DUP1 PUSH1 0x0 DUP1 PUSH1 0x0 PUSH1 0xA0 DUP7 DUP9 SUB SLT ISZERO PUSH2 0x2BD8 JUMPI PUSH1 0x0 DUP1 REVERT JUMPDEST DUP6 CALLDATALOAD SWAP5 POP PUSH1 0x20 DUP7 ADD CALLDATALOAD SWAP4 POP PUSH2 0x2BEF PUSH1 0x40 DUP8 ADD PUSH2 0x2B25 JUMP JUMPDEST SWAP3 POP PUSH1 0x60 DUP7 ADD CALLDATALOAD PUSH2 0x2BFF DUP2 PUSH2 0x2B41 JUMP JUMPDEST SWAP5 SWAP8 SWAP4 SWAP7 POP SWAP2 SWAP5 PUSH1 0x80 ADD CALLDATALOAD SWAP3 SWAP2 POP POP JUMP JUMPDEST PUSH1 0x0 DUP1 PUSH1 0x0 PUSH1 0x60 DUP5 DUP7 SUB SLT ISZERO PUSH2 0x2C25 JUMPI PUSH1 0x0 DUP1 REVERT JUMPDEST DUP4 CALLDATALOAD SWAP3 POP PUSH1 0x20 DUP5 ADD CALLDATALOAD SWAP2 POP PUSH1 0x40 DUP5 ADD CALLDATALOAD PUSH2 0x2C3E DUP2 PUSH2 0x2B41 JUMP JUMPDEST DUP1 SWAP2 POP POP SWAP3 POP SWAP3 POP SWAP3 JUMP JUMPDEST PUSH4 0x4E487B71 PUSH1 0xE0 SHL PUSH1 0x0 MSTORE PUSH1 0x32 PUSH1 0x4 MSTORE PUSH1 0x24 PUSH1 0x0 REVERT JUMPDEST PUSH4 0x4E487B71 PUSH1 0xE0 SHL PUSH1 0x0 MSTORE PUSH1 0x41 PUSH1 0x4 MSTORE PUSH1 0x24 PUSH1 0x0 REVERT JUMPDEST PUSH1 0x40 MLOAD PUSH2 0x100 DUP2 ADD PUSH1 0x1 PUSH1 0x1 PUSH1 0x40 SHL SUB DUP2 GT DUP3 DUP3 LT OR ISZERO PUSH2 0x2C98 JUMPI PUSH2 0x2C98 PUSH2 0x2C5F JUMP JUMPDEST PUSH1 0x40 MSTORE SWAP1 JUMP JUMPDEST PUSH1 0x40 MLOAD PUSH1 0xE0 DUP2 ADD PUSH1 0x1 PUSH1 0x1 PUSH1 0x40 SHL SUB DUP2 GT DUP3 DUP3 LT OR ISZERO PUSH2 0x2C98 JUMPI PUSH2 0x2C98 PUSH2 0x2C5F JUMP JUMPDEST PUSH1 0x40 MLOAD PUSH2 0x120 DUP2 ADD PUSH1 0x1 PUSH1 0x1 PUSH1 0x40 SHL SUB DUP2 GT DUP3 DUP3 LT OR ISZERO PUSH2 0x2C98 JUMPI PUSH2 0x2C98 PUSH2 0x2C5F JUMP JUMPDEST PUSH1 0x40 MLOAD PUSH1 0x1F DUP3 ADD PUSH1 0x1F NOT AND DUP2 ADD PUSH1 0x1 PUSH1 0x1 PUSH1 0x40 SHL SUB DUP2 GT DUP3 DUP3 LT OR ISZERO PUSH2 0x2D0B JUMPI PUSH2 0x2D0B PUSH2 0x2C5F JUMP JUMPDEST PUSH1 0x40 MSTORE SWAP2 SWAP1 POP JUMP JUMPDEST PUSH1 0x2 DUP2 LT PUSH2 0x22D7 JUMPI PUSH1 0x0 DUP1 REVERT JUMPDEST DUP1 CALLDATALOAD PUSH2 0x2B3C DUP2 PUSH2 0x2D13 JUMP JUMPDEST PUSH1 0x0 PUSH1 0x1 PUSH1 0x1 PUSH1 0x40 SHL SUB DUP3 GT ISZERO PUSH2 0x2D44 JUMPI PUSH2 0x2D44 PUSH2 0x2C5F JUMP JUMPDEST POP PUSH1 0x1F ADD PUSH1 0x1F NOT AND PUSH1 0x20 ADD SWAP1 JUMP JUMPDEST PUSH1 0x0 DUP3 PUSH1 0x1F DUP4 ADD SLT PUSH2 0x2D63 JUMPI PUSH1 0x0 DUP1 REVERT JUMPDEST DUP2 CALLDATALOAD PUSH2 0x2D76 PUSH2 0x2D71 DUP3 PUSH2 0x2D2B JUMP JUMPDEST PUSH2 0x2CE3 JUMP JUMPDEST DUP2 DUP2 MSTORE DUP5 PUSH1 0x20 DUP4 DUP7 ADD ADD GT ISZERO PUSH2 0x2D8B JUMPI PUSH1 0x0 DUP1 REVERT JUMPDEST DUP2 PUSH1 0x20 DUP6 ADD PUSH1 0x20 DUP4 ADD CALLDATACOPY PUSH1 0x0 SWAP2 DUP2 ADD PUSH1 0x20 ADD SWAP2 SWAP1 SWAP2 MSTORE SWAP4 SWAP3 POP POP POP JUMP JUMPDEST PUSH1 0x0 PUSH2 0x100 DUP3 CALLDATASIZE SUB SLT ISZERO PUSH2 0x2DBB JUMPI PUSH1 0x0 DUP1 REVERT JUMPDEST PUSH2 0x2DC3 PUSH2 0x2C75 JUMP JUMPDEST DUP3 CALLDATALOAD DUP2 MSTORE PUSH1 0x20 DUP4 ADD CALLDATALOAD PUSH1 0x20 DUP3 ADD MSTORE PUSH2 0x2DDD PUSH1 0x40 DUP5 ADD PUSH2 0x2B25 JUMP JUMPDEST PUSH1 0x40 DUP3 ADD MSTORE PUSH2 0x2DEE PUSH1 0x60 DUP5 ADD PUSH2 0x2B25 JUMP JUMPDEST PUSH1 0x60 DUP3 ADD MSTORE PUSH2 0x2DFF PUSH1 0x80 DUP5 ADD PUSH2 0x2D20 JUMP JUMPDEST PUSH1 0x80 DUP3 ADD MSTORE PUSH1 0xA0 DUP4 ADD CALLDATALOAD PUSH1 0xA0 DUP3 ADD MSTORE PUSH1 0xC0 DUP4 ADD CALLDATALOAD PUSH1 0xC0 DUP3 ADD MSTORE PUSH1 0xE0 DUP4 ADD CALLDATALOAD PUSH1 0x1 PUSH1 0x1 PUSH1 0x40 SHL SUB DUP2 GT ISZERO PUSH2 0x2E31 JUMPI PUSH1 0x0 DUP1 REVERT JUMPDEST PUSH2 0x2E3D CALLDATASIZE DUP3 DUP7 ADD PUSH2 0x2D52 JUMP JUMPDEST PUSH1 0xE0 DUP4 ADD MSTORE POP SWAP3 SWAP2 POP POP JUMP JUMPDEST PUSH1 0x0 PUSH1 0x20 DUP3 DUP5 SUB SLT ISZERO PUSH2 0x2E5B JUMPI PUSH1 0x0 DUP1 REVERT JUMPDEST DUP2 CALLDATALOAD PUSH2 0x1801 DUP2 PUSH2 0x2D13 JUMP JUMPDEST PUSH1 0x0 PUSH1 0x20 DUP3 DUP5 SUB SLT ISZERO PUSH2 0x2E78 JUMPI PUSH1 0x0 DUP1 REVERT JUMPDEST PUSH2 0x1801 DUP3 PUSH2 0x2B25 JUMP JUMPDEST PUSH1 0x0 DUP1 DUP4 CALLDATALOAD PUSH1 0x1E NOT DUP5 CALLDATASIZE SUB ADD DUP2 SLT PUSH2 0x2E98 JUMPI PUSH1 0x0 DUP1 REVERT JUMPDEST DUP4 ADD DUP1 CALLDATALOAD SWAP2 POP PUSH1 0x1 PUSH1 0x1 PUSH1 0x40 SHL SUB DUP3 GT ISZERO PUSH2 0x2EB2 JUMPI PUSH1 0x0 DUP1 REVERT JUMPDEST PUSH1 0x20 ADD SWAP2 POP CALLDATASIZE DUP2 SWAP1 SUB DUP3 SGT ISZERO PUSH2 0x2EC7 JUMPI PUSH1 0x0 DUP1 REVERT JUMPDEST SWAP3 POP SWAP3 SWAP1 POP JUMP JUMPDEST DUP1 MLOAD DUP3 MSTORE PUSH1 0x20 DUP2 ADD MLOAD PUSH1 0x20 DUP4 ADD MSTORE PUSH1 0x40 DUP2 ADD MLOAD PUSH1 0x40 DUP4 ADD MSTORE PUSH1 0x60 DUP2 ADD MLOAD PUSH1 0x60 DUP4 ADD MSTORE PUSH1 0x80 DUP2 ADD MLOAD PUSH1 0x80 DUP4 ADD MSTORE PUSH1 0x0 PUSH1 0xA0 DUP3 ADD MLOAD PUSH1 0xC0 PUSH1 0xA0 DUP6 ADD MSTORE PUSH2 0xE92 PUSH1 0xC0 DUP6 ADD DUP3 PUSH2 0x2A55 JUMP JUMPDEST PUSH1 0x20 DUP2 MSTORE PUSH1 0x0 PUSH2 0x1801 PUSH1 0x20 DUP4 ADD DUP5 PUSH2 0x2ECE JUMP JUMPDEST PUSH1 0x0 PUSH1 0x20 DUP3 DUP5 SUB SLT ISZERO PUSH2 0x2F3A JUMPI PUSH1 0x0 DUP1 REVERT JUMPDEST DUP2 MLOAD PUSH1 0x1 PUSH1 0x1 PUSH1 0x40 SHL SUB DUP2 GT ISZERO PUSH2 0x2F50 JUMPI PUSH1 0x0 DUP1 REVERT JUMPDEST DUP3 ADD PUSH1 0x1F DUP2 ADD DUP5 SGT PUSH2 0x2F61 JUMPI PUSH1 0x0 DUP1 REVERT JUMPDEST DUP1 MLOAD PUSH2 0x2F6F PUSH2 0x2D71 DUP3 PUSH2 0x2D2B JUMP JUMPDEST DUP2 DUP2 MSTORE DUP6 PUSH1 0x20 DUP4 DUP6 ADD ADD GT ISZERO PUSH2 0x2F84 JUMPI PUSH1 0x0 DUP1 REVERT JUMPDEST PUSH2 0x291F DUP3 PUSH1 0x20 DUP4 ADD PUSH1 0x20 DUP7 ADD PUSH2 0x2A29 JUMP JUMPDEST PUSH4 0x4E487B71 PUSH1 0xE0 SHL PUSH1 0x0 MSTORE PUSH1 0x11 PUSH1 0x4 MSTORE PUSH1 0x24 PUSH1 0x0 REVERT JUMPDEST PUSH1 0x0 DUP3 DUP3 LT ISZERO PUSH2 0x2FBD JUMPI PUSH2 0x2FBD PUSH2 0x2F95 JUMP JUMPDEST POP SUB SWAP1 JUMP JUMPDEST PUSH1 0x0 PUSH1 0xE0 DUP3 CALLDATASIZE SUB SLT ISZERO PUSH2 0x2FD4 JUMPI PUSH1 0x0 DUP1 REVERT JUMPDEST PUSH2 0x2FDC PUSH2 0x2C9E JUMP JUMPDEST DUP3 CALLDATALOAD DUP2 MSTORE PUSH1 0x20 DUP4 ADD CALLDATALOAD PUSH1 0x20 DUP3 ADD MSTORE PUSH2 0x2FF6 PUSH1 0x40 DUP5 ADD PUSH2 0x2B25 JUMP JUMPDEST PUSH1 0x40 DUP3 ADD MSTORE PUSH2 0x3007 PUSH1 0x60 DUP5 ADD PUSH2 0x2B25 JUMP JUMPDEST PUSH1 0x60 DUP3 ADD MSTORE PUSH2 0x3018 PUSH1 0x80 DUP5 ADD PUSH2 0x2B4E JUMP JUMPDEST PUSH1 0x80 DUP3 ADD MSTORE PUSH1 0xA0 DUP4 ADD CALLDATALOAD PUSH1 0xA0 DUP3 ADD MSTORE PUSH1 0xC0 DUP4 ADD CALLDATALOAD PUSH1 0x1 PUSH1 0x1 PUSH1 0x40 SHL SUB DUP2 GT ISZERO PUSH2 0x3040 JUMPI PUSH1 0x0 DUP1 REVERT JUMPDEST PUSH2 0x304C CALLDATASIZE DUP3 DUP7 ADD PUSH2 0x2D52 JUMP JUMPDEST PUSH1 0xC0 DUP4 ADD MSTORE POP SWAP3 SWAP2 POP POP JUMP JUMPDEST PUSH1 0x0 PUSH1 0x20 DUP3 DUP5 SUB SLT ISZERO PUSH2 0x306A JUMPI PUSH1 0x0 DUP1 REVERT JUMPDEST DUP2 CALLDATALOAD PUSH2 0x1801 DUP2 PUSH2 0x2B41 JUMP JUMPDEST PUSH1 0x0 PUSH2 0x120 DUP3 CALLDATASIZE SUB SLT ISZERO PUSH2 0x3088 JUMPI PUSH1 0x0 DUP1 REVERT JUMPDEST PUSH2 0x3090 PUSH2 0x2CC0 JUMP JUMPDEST DUP3 CALLDATALOAD DUP2 MSTORE PUSH1 0x20 DUP4 ADD CALLDATALOAD PUSH1 0x20 DUP3 ADD MSTORE PUSH2 0x30AA PUSH1 0x40 DUP5 ADD PUSH2 0x2B25 JUMP JUMPDEST PUSH1 0x40 DUP3 ADD MSTORE PUSH2 0x30BB PUSH1 0x60 DUP5 ADD PUSH2 0x2B25 JUMP JUMPDEST PUSH1 0x60 DUP3 ADD MSTORE PUSH2 0x30CC PUSH1 0x80 DUP5 ADD PUSH2 0x2B25 JUMP JUMPDEST PUSH1 0x80 DUP3 ADD MSTORE PUSH2 0x30DD PUSH1 0xA0 DUP5 ADD PUSH2 0x2D20 JUMP JUMPDEST PUSH1 0xA0 DUP3 ADD MSTORE PUSH1 0xC0 DUP4 ADD CALLDATALOAD PUSH1 0xC0 DUP3 ADD MSTORE PUSH1 0xE0 DUP4 ADD CALLDATALOAD PUSH1 0xE0 DUP3 ADD MSTORE PUSH2 0x100 DUP1 DUP5 ADD CALLDATALOAD PUSH1 0x1 PUSH1 0x1 PUSH1 0x40 SHL SUB DUP2 GT ISZERO PUSH2 0x3111 JUMPI PUSH1 0x0 DUP1 REVERT JUMPDEST PUSH2 0x311D CALLDATASIZE DUP3 DUP8 ADD PUSH2 0x2D52 JUMP JUMPDEST SWAP2 DUP4 ADD SWAP2 SWAP1 SWAP2 MSTORE POP SWAP3 SWAP2 POP POP JUMP JUMPDEST PUSH1 0x0 PUSH1 0x20 DUP3 DUP5 SUB SLT ISZERO PUSH2 0x313D JUMPI PUSH1 0x0 DUP1 REVERT JUMPDEST POP MLOAD SWAP2 SWAP1 POP JUMP JUMPDEST PUSH1 0x0 DUP3 NOT DUP3 GT ISZERO PUSH2 0x3157 JUMPI PUSH2 0x3157 PUSH2 0x2F95 JUMP JUMPDEST POP ADD SWAP1 JUMP JUMPDEST PUSH4 0x4E487B71 PUSH1 0xE0 SHL PUSH1 0x0 MSTORE PUSH1 0x31 PUSH1 0x4 MSTORE PUSH1 0x24 PUSH1 0x0 REVERT JUMPDEST DUP1 ISZERO ISZERO DUP2 EQ PUSH2 0x22D7 JUMPI PUSH1 0x0 DUP1 REVERT JUMPDEST DUP1 CALLDATALOAD PUSH2 0x2B3C DUP2 PUSH2 0x3172 JUMP JUMPDEST PUSH1 0x0 PUSH2 0x100 DUP3 CALLDATASIZE SUB SLT ISZERO PUSH2 0x319E JUMPI PUSH1 0x0 DUP1 REVERT JUMPDEST PUSH2 0x31A6 PUSH2 0x2C75 JUMP JUMPDEST DUP3 CALLDATALOAD DUP2 MSTORE PUSH1 0x20 DUP4 ADD CALLDATALOAD PUSH1 0x20 DUP3 ADD MSTORE PUSH2 0x31C0 PUSH1 0x40 DUP5 ADD PUSH2 0x2B25 JUMP JUMPDEST PUSH1 0x40 DUP3 ADD MSTORE PUSH2 0x31D1 PUSH1 0x60 DUP5 ADD PUSH2 0x2B25 JUMP JUMPDEST PUSH1 0x60 DUP3 ADD MSTORE PUSH2 0x31E2 PUSH1 0x80 DUP5 ADD PUSH2 0x3180 JUMP JUMPDEST PUSH1 0x80 DUP3 ADD MSTORE PUSH2 0x31F3 PUSH1 0xA0 DUP5 ADD PUSH2 0x2D20 JUMP JUMPDEST PUSH1 0xA0 DUP3 ADD MSTORE PUSH1 0xC0 DUP4 ADD CALLDATALOAD PUSH1 0xC0 DUP3 ADD MSTORE PUSH1 0xE0 DUP4 ADD CALLDATALOAD PUSH1 0x1 PUSH1 0x1 PUSH1 0x40 SHL SUB DUP2 GT ISZERO PUSH2 0x2E31 JUMPI PUSH1 0x0 DUP1 REVERT JUMPDEST PUSH1 0x0 PUSH1 0x20 DUP3 DUP5 SUB SLT ISZERO PUSH2 0x322D JUMPI PUSH1 0x0 DUP1 REVERT JUMPDEST DUP2 CALLDATALOAD PUSH2 0x1801 DUP2 PUSH2 0x3172 JUMP JUMPDEST PUSH1 0x20 DUP2 MSTORE DUP2 MLOAD PUSH1 0x20 DUP3 ADD MSTORE PUSH1 0x20 DUP3 ADD MLOAD PUSH1 0x40 DUP3 ADD MSTORE PUSH1 0x40 DUP3 ADD MLOAD ISZERO ISZERO PUSH1 0x60 DUP3 ADD MSTORE PUSH1 0x60 DUP3 ADD MLOAD PUSH1 0x80 DUP3 ADD MSTORE PUSH1 0x80 DUP3 ADD MLOAD PUSH1 0xA0 DUP3 ADD MSTORE PUSH1 0x0 PUSH1 0xA0 DUP4 ADD MLOAD PUSH1 0xC0 DUP1 DUP5 ADD MSTORE PUSH2 0xE92 PUSH1 0xE0 DUP5 ADD DUP3 PUSH2 0x2A55 JUMP JUMPDEST PUSH4 0x4E487B71 PUSH1 0xE0 SHL PUSH1 0x0 MSTORE PUSH1 0x21 PUSH1 0x4 MSTORE PUSH1 0x24 PUSH1 0x0 REVERT JUMPDEST DUP7 DUP2 MSTORE PUSH1 0x20 DUP2 ADD DUP7 SWAP1 MSTORE PUSH1 0x1 PUSH1 0x1 PUSH1 0xA0 SHL SUB DUP6 DUP2 AND PUSH1 0x40 DUP4 ADD MSTORE DUP5 AND PUSH1 0x60 DUP3 ADD MSTORE PUSH1 0xC0 DUP2 ADD PUSH1 0x3 DUP5 LT PUSH2 0x32E0 JUMPI PUSH4 0x4E487B71 PUSH1 0xE0 SHL PUSH1 0x0 MSTORE PUSH1 0x21 PUSH1 0x4 MSTORE PUSH1 0x24 PUSH1 0x0 REVERT JUMPDEST PUSH1 0x80 DUP3 ADD SWAP4 SWAP1 SWAP4 MSTORE PUSH1 0xA0 ADD MSTORE SWAP5 SWAP4 POP POP POP POP JUMP JUMPDEST PUSH1 0x0 PUSH1 0x20 DUP3 DUP5 SUB SLT ISZERO PUSH2 0x3306 JUMPI PUSH1 0x0 DUP1 REVERT JUMPDEST DUP2 MLOAD PUSH2 0x1801 DUP2 PUSH2 0x3172 JUMP JUMPDEST PUSH4 0x4E487B71 PUSH1 0xE0 SHL PUSH1 0x0 MSTORE PUSH1 0x12 PUSH1 0x4 MSTORE PUSH1 0x24 PUSH1 0x0 REVERT JUMPDEST PUSH1 0x0 PUSH1 0x0 NOT DUP3 EQ ISZERO PUSH2 0x333B JUMPI PUSH2 0x333B PUSH2 0x2F95 JUMP JUMPDEST POP PUSH1 0x1 ADD SWAP1 JUMP JUMPDEST PUSH1 0x0 DUP3 MLOAD PUSH2 0x3354 DUP2 DUP5 PUSH1 0x20 DUP8 ADD PUSH2 0x2A29 JUMP JUMPDEST SWAP2 SWAP1 SWAP2 ADD SWAP3 SWAP2 POP POP JUMP JUMPDEST PUSH1 0x0 DUP3 PUSH2 0x336D JUMPI PUSH2 0x336D PUSH2 0x3311 JUMP JUMPDEST POP DIV SWAP1 JUMP JUMPDEST PUSH1 0x0 DUP3 PUSH2 0x3381 JUMPI PUSH2 0x3381 PUSH2 0x3311 JUMP JUMPDEST POP MOD SWAP1 JUMP JUMPDEST PUSH1 0x20 DUP2 MSTORE PUSH1 0x0 PUSH2 0x1801 PUSH1 0x20 DUP4 ADD DUP5 PUSH2 0x2A55 JUMP INVALID LOG2 PUSH5 0x6970667358 0x22 SLT KECCAK256 0xCD PUSH31 0x9A3D57A2DAFB028096E704FD85F0C49CF54A5150882D51EF879BB00DB8FD64 PUSH20 0x6F6C634300080800330000000000000000000000 "},"methodIdentifiers":{"burn((uint256,uint256,address,address,uint8,uint256,uint256,bytes))":"622fb68f","collect((uint256,uint256,address,address,uint8,uint256,bytes))":"7087c1f6","getByIndex(uint256)":"2d883a73","mint((uint256,uint256,address,address,address,uint8,uint256,uint256,bytes))":"80e06679","numberOfOptions()":"87ed3ecf","optionFactory()":"b3461c87","positionOf(uint256,uint256,address,uint8)":"af2f91ea","swap((uint256,uint256,address,address,bool,uint8,uint256,bytes))":"b084c252","token0()":"0dfe1681","token1()":"d21220a7","totalPosition(uint256,uint256,uint8)":"b7fb542d","transferPosition(uint256,uint256,address,uint8,uint256)":"b2ceca77"}}}}}