{"src/TimeswapV2OptionFactory.sol":{"TimeswapV2OptionFactory":{"abi":[{"inputs":[{"internalType":"address","name":"token0","type":"address"},{"internalType":"address","name":"token1","type":"address"}],"name":"InvalidOptionPair","type":"error"},{"inputs":[{"internalType":"address","name":"token0","type":"address"},{"internalType":"address","name":"token1","type":"address"},{"internalType":"address","name":"optionPair","type":"address"}],"name":"OptionPairAlreadyExisted","type":"error"},{"inputs":[],"name":"ZeroAddress","type":"error"},{"anonymous":false,"inputs":[{"indexed":true,"internalType":"address","name":"caller","type":"address"},{"indexed":true,"internalType":"address","name":"token0","type":"address"},{"indexed":true,"internalType":"address","name":"token1","type":"address"},{"indexed":false,"internalType":"address","name":"optionPair","type":"address"}],"name":"Create","type":"event"},{"inputs":[{"internalType":"address","name":"token0","type":"address"},{"internalType":"address","name":"token1","type":"address"}],"name":"create","outputs":[{"internalType":"address","name":"optionPair","type":"address"}],"stateMutability":"nonpayable","type":"function"},{"inputs":[{"internalType":"address","name":"token0","type":"address"},{"internalType":"address","name":"token1","type":"address"}],"name":"get","outputs":[{"internalType":"address","name":"optionPair","type":"address"}],"stateMutability":"view","type":"function"},{"inputs":[{"internalType":"uint256","name":"","type":"uint256"}],"name":"getByIndex","outputs":[{"internalType":"address","name":"","type":"address"}],"stateMutability":"view","type":"function"},{"inputs":[],"name":"numberOfPairs","outputs":[{"internalType":"uint256","name":"","type":"uint256"}],"stateMutability":"view","type":"function"},{"inputs":[],"name":"parameter","outputs":[{"internalType":"address","name":"optionFactory","type":"address"},{"internalType":"address","name":"token0","type":"address"},{"internalType":"address","name":"token1","type":"address"}],"stateMutability":"view","type":"function"}],"evm":{"bytecode":{"linkReferences":{},"object":"608060405234801561001057600080fd5b506139cd806100206000396000f3fe608060405234801561001057600080fd5b50600436106100575760003560e01c80632d883a731461005c5780633e68680a1461008c578063ad4d4e291461009f578063d81e8423146100e9578063fc0d92bd146100fc575b600080fd5b61006f61006a3660046103f0565b61010d565b6040516001600160a01b0390911681526020015b60405180910390f35b61006f61009a366004610425565b610137565b6000546001546002546100bf926001600160a01b03908116928116911683565b604080516001600160a01b0394851681529284166020840152921691810191909152606001610083565b61006f6100f7366004610425565b610228565b600454604051908152602001610083565b6004818154811061011d57600080fd5b6000918252602090912001546001600160a01b0316905081565b60006001600160a01b03831661014f5761014f61025f565b6001600160a01b0382166101655761016561025f565b61016f8383610278565b506001600160a01b0380831660009081526003602090815260408083208585168452909152902054166101a38383836102c6565b6101ae30848461030e565b6001600160a01b0384811660008181526003602090815260408083208886168085529083529281902080546001600160a01b03191695871695861790555193845293945092909133917f68ff1cfcdcf76864161555fc0de1878d8f83ec6949bf351df74d8a4a1a2679ab910160405180910390a492915050565b60006102348383610278565b506001600160a01b039182166000908152600360209081526040808320938516835292905220541690565b60405163d92e233d60e01b815260040160405180910390fd5b806001600160a01b0316826001600160a01b0316106102c257604051632ca8eb8360e21b81526001600160a01b038084166004830152821660248201526044015b60405180910390fd5b5050565b6001600160a01b0381161561030957604051638e487c5360e01b81526001600160a01b0380851660048301528084166024830152821660448201526064016102b9565b505050565b60408051606080820183526001600160a01b038681168084528682166020808601829052928716948601859052600080546001600160a01b0319908116909317815560018054841683179055600280549093168617909255855192830152938101929092520160405160208183030381529060405280519060200120604051610396906103e3565b8190604051809103906000f59050801580156103b6573d6000803e3d6000fd5b50600080546001600160a01b03199081169091556001805482169055600280549091169055949350505050565b61353f8061045983390190565b60006020828403121561040257600080fd5b5035919050565b80356001600160a01b038116811461042057600080fd5b919050565b6000806040838503121561043857600080fd5b61044183610409565b915061044f60208401610409565b9050925092905056fe6101006040523480156200001257600080fd5b5030606090811b6080526040805163ad4d4e2960e01b81529051339263ad4d4e299260048082019391829003018186803b1580156200005057600080fd5b505afa15801562000065573d6000803e3d6000fd5b505050506040513d601f19601f820116820180604052508101906200008b9190620000d1565b6001600160601b0319606091821b811660e05291811b821660c0529190911b1660a0526200011b565b80516001600160a01b0381168114620000cc57600080fd5b919050565b600080600060608486031215620000e757600080fd5b620000f284620000b4565b92506200010260208501620000b4565b91506200011260408501620000b4565b90509250925092565b60805160601c60a05160601c60c05160601c60e05160601c61337d620001c26000396000818161020f015281816103a8015281816109d301528181610cd60152818161110d015281816111b50152818161134801526114e101526000818160be0152818161035e0152818161092801528181610c2b01528181610fa9015281816110510152818161136e01526114bb015260006101d5015260006117d9015261337d6000f3fe608060405234801561001057600080fd5b50600436106100b45760003560e01c8063af2f91ea11610071578063af2f91ea14610186578063b084c25214610199578063b2ceca77146101bb578063b3461c87146101d0578063b7fb542d146101f7578063d21220a71461020a57600080fd5b80630dfe1681146100b95780632d883a73146100fd578063622fb68f1461012b5780637087c1f61461014e57806380e066791461016157806387ed3ecf14610174575b600080fd5b6100e07f000000000000000000000000000000000000000000000000000000000000000081565b6040516001600160a01b0390911681526020015b60405180910390f35b61011061010b366004612989565b610231565b604080518251815260209283015192810192909252016100f4565b61013e6101393660046129bb565b61028c565b6040516100f49493929190612a47565b61013e61015c366004612a76565b6105df565b61013e61016f366004612ab0565b61082f565b6003545b6040519081526020016100f4565b610178610194366004612b1f565b610e43565b6101ac6101a73660046129bb565b610e70565b6040516100f493929190612b67565b6101ce6101c9366004612b86565b6116da565b005b6100e07f000000000000000000000000000000000000000000000000000000000000000081565b610178610205366004612bd6565b6117a2565b6100e07f000000000000000000000000000000000000000000000000000000000000000081565b60408051808201909152600080825260208201526003828154811061025857610258612c0f565b9060005260206000209060020201604051806040016040529081600082015481526020016001820154815250509050919050565b6000806000606061029b6117ce565b8435600090815260026020908152604080832082890135845290915290205460ff166102d0576102d085356020870135611819565b6102e26102dc86612d6e565b42611841565b8435600081815260208181526040808320828a013584529091529020906103259061031360a0890160808a01612e0f565b83919060a08a013560c08b01356118f7565b9196509450925061033b600186866000806119b5565b8415610385576103856103546060880160408901612e2c565b6001600160a01b037f0000000000000000000000000000000000000000000000000000000000000000169087611a64565b83156103cf576103cf61039e6080880160608901612e2c565b6001600160a01b037f0000000000000000000000000000000000000000000000000000000000000000169086611a64565b6103dc60e0870187612e47565b1590506104e357336001600160a01b0316638c5f08516040518060c001604052808960000135815260200189602001358152602001888152602001878152602001868152602001898060e001906104339190612e47565b8080601f01602080910402602001604051908101604052809392919081815260200183838082843760009201919091525050509152506040516001600160e01b031960e084901b16815261048a9190600401612edb565b600060405180830381600087803b1580156104a457600080fd5b505af11580156104b8573d6000803e3d6000fd5b505050506040513d6000823e601f3d908101601f191682016040526104e09190810190612eee565b91505b33600090815260028201602052604081208054879290610504908490612f71565b90915550503360009081526003820160205260408120805486929061052a908490612f71565b909155505033600090815260048201602052604081208054859290610550908490612f71565b90915550339050602087013587357f5e34e67b3e203229e29d54244b2c750f9038bc8d484cbcb7693ab665c35c962c61058f60608b0160408c01612e2c565b61059f60808c0160608d01612e2c565b604080516001600160a01b03938416815292909116602083015281018a9052606081018990526080810188905260a00160405180910390a4509193509193565b600080600060606105ee6117ce565b8435600090815260026020908152604080832082890135845290915290205460ff166106235761062385356020870135611819565b61063561062f86612f88565b42611abb565b8435600081815260208181526040808320828a013584529091529020906106739061066660a0890160808a0161301e565b83919060a08a0135611b5e565b91965094509250610689600186866000806119b5565b84156106a2576106a26103546060880160408901612e2c565b83156106bb576106bb61039e6080880160608901612e2c565b6106c860c0870187612e47565b1590506107cf57336001600160a01b031663dc6fddcf6040518060c001604052808960000135815260200189602001358152602001888152602001878152602001868152602001898060c0019061071f9190612e47565b8080601f01602080910402602001604051908101604052809392919081815260200183838082843760009201919091525050509152506040516001600160e01b031960e084901b1681526107769190600401612edb565b600060405180830381600087803b15801561079057600080fd5b505af11580156107a4573d6000803e3d6000fd5b505050506040513d6000823e601f3d908101601f191682016040526107cc9190810190612eee565b91505b336000908152600482016020526040812080548592906107f0908490612f71565b90915550339050602087013587357fa9321c5c860b13f184d4b6bc6793bede025ef1a51e4c3527d0733f225df69db661058f60608b0160408c01612e2c565b6000806000606061083e6117ce565b61085061084a8661303b565b42611c90565b61085f85356020870135611d59565b8435600081815260208181526040808320828a0135845290915290819020916108d7916108929060608a01908a01612e2c565b6108a260808a0160608b01612e2c565b6108b260a08b0160808c01612e2c565b6108c260c08c0160a08d01612e0f565b86949392919060c08d013560e08e0135611e11565b919650945092506108ec6001868682806119b5565b60408051608081018252873581526020808901359082015281516370a0823160e01b815230600482015260009282019088906001600160a01b037f000000000000000000000000000000000000000000000000000000000000000016906370a082319060240160206040518083038186803b15801561096a57600080fd5b505afa15801561097e573d6000803e3d6000fd5b505050506040513d601f19601f820116820180604052508101906109a291906130f1565b6109ac919061310a565b81526040516370a0823160e01b815230600482015260209091019087906001600160a01b037f000000000000000000000000000000000000000000000000000000000000000016906370a082319060240160206040518083038186803b158015610a1557600080fd5b505afa158015610a29573d6000803e3d6000fd5b505050506040513d601f19601f82011682018060405250810190610a4d91906130f1565b610a57919061310a565b9052600180548082018255600091909152815160049091027fb10e2d527612073b26eecdfd717e6a320cf44b4afac2b0732d9fcbe2b7fa0cf681019182556020838101517fb10e2d527612073b26eecdfd717e6a320cf44b4afac2b0732d9fcbe2b7fa0cf78301556040808501517fb10e2d527612073b26eecdfd717e6a320cf44b4afac2b0732d9fcbe2b7fa0cf88401556060948501517fb10e2d527612073b26eecdfd717e6a320cf44b4afac2b0732d9fcbe2b7fa0cf990930192909255815160c0810183528b3581528b820135918101919091529081018990529182018790526080820186905291503390634a358d659060a08101610b5d6101008c018c612e47565b8080601f01602080910402602001604051908101604052809392919081815260200183838082843760009201919091525050509152506040516001600160e01b031960e084901b168152610bb49190600401612edb565b600060405180830381600087803b158015610bce57600080fd5b505af1158015610be2573d6000803e3d6000fd5b505050506040513d6000823e601f3d908101601f19168201604052610c0a9190810190612eee565b92508515610cb7576040516370a0823160e01b8152306004820152610cb7907f00000000000000000000000000000000000000000000000000000000000000006001600160a01b0316906370a082319060240160206040518083038186803b158015610c7557600080fd5b505afa158015610c89573d6000803e3d6000fd5b505050506040513d601f19601f82011682018060405250810190610cad91906130f1565b8260020154611f7e565b8415610d62576040516370a0823160e01b8152306004820152610d62907f00000000000000000000000000000000000000000000000000000000000000006001600160a01b0316906370a082319060240160206040518083038186803b158015610d2057600080fd5b505afa158015610d34573d6000803e3d6000fd5b505050506040513d601f19601f82011682018060405250810190610d5891906130f1565b8260030154611f7e565b6001805480610d7357610d73613122565b600082815260208082206004600019909401938402018281556001810183905560028101839055600301919091559155339088013588357f0991839fbc46f2e3816b51c806bee50f76ee23053c1b131a9fbf07fc2d6df8aa610ddb60608c0160408d01612e2c565b610deb60808d0160608e01612e2c565b610dfb60a08e0160808f01612e2c565b604080516001600160a01b0394851681529284166020840152921681830152606081018c9052608081018b905260a081018a905290519081900360c00190a450509193509193565b6000848152602081815260408083208684529091528120610e65908484611fa9565b90505b949350505050565b6000806060610e7d6117ce565b8335600090815260026020908152604080832082880135845290915290205460ff16610eb257610eb284356020860135611819565b610ec4610ebe85613151565b4261205b565b8335600081815260208181526040808320828901358452909152902090610f2490610ef56080880160608901612e2c565b610f0560a0890160808a016131e1565b610f1560c08a0160a08b01612e0f565b859392919060c08b01356120fd565b9094509250610f5a8484610f3e60a0890160808a016131e1565b15610f4f60a08a0160808b016131e1565b6001939291906119b5565b600060405180608001604052808760000135815260200187602001358152602001876080016020810190610f8e91906131e1565b61103a576040516370a0823160e01b815230600482015287907f00000000000000000000000000000000000000000000000000000000000000006001600160a01b0316906370a082319060240160206040518083038186803b158015610ff357600080fd5b505afa158015611007573d6000803e3d6000fd5b505050506040513d601f19601f8201168201806040525081019061102b91906130f1565b611035919061310a565b6110dd565b6040516370a0823160e01b815230600482015287907f00000000000000000000000000000000000000000000000000000000000000006001600160a01b0316906370a082319060240160206040518083038186803b15801561109b57600080fd5b505afa1580156110af573d6000803e3d6000fd5b505050506040513d601f19601f820116820180604052508101906110d391906130f1565b6110dd9190612f71565b81526020016110f260a0890160808a016131e1565b61119e576040516370a0823160e01b815230600482015286907f00000000000000000000000000000000000000000000000000000000000000006001600160a01b0316906370a082319060240160206040518083038186803b15801561115757600080fd5b505afa15801561116b573d6000803e3d6000fd5b505050506040513d601f19601f8201168201806040525081019061118f91906130f1565b6111999190612f71565b611241565b6040516370a0823160e01b815230600482015286907f00000000000000000000000000000000000000000000000000000000000000006001600160a01b0316906370a082319060240160206040518083038186803b1580156111ff57600080fd5b505afa158015611213573d6000803e3d6000fd5b505050506040513d601f19601f8201168201806040525081019061123791906130f1565b611241919061310a565b9052600180548082018255600091909152815160049091027fb10e2d527612073b26eecdfd717e6a320cf44b4afac2b0732d9fcbe2b7fa0cf6810191825560208301517fb10e2d527612073b26eecdfd717e6a320cf44b4afac2b0732d9fcbe2b7fa0cf78201556040808401517fb10e2d527612073b26eecdfd717e6a320cf44b4afac2b0732d9fcbe2b7fa0cf88301556060938401517fb10e2d527612073b26eecdfd717e6a320cf44b4afac2b0732d9fcbe2b7fa0cf99092019190915590925061139e9161131691908901908901612e2c565b61132660a0890160808a016131e1565b6113305785611332565b865b61134260a08a0160808b016131e1565b61136c577f000000000000000000000000000000000000000000000000000000000000000061138e565b7f00000000000000000000000000000000000000000000000000000000000000005b6001600160a01b03169190611a64565b6040805160c0810182528735815260208089013590820152339163dc4a4847919081016113d160a08b0160808c016131e1565b1515815260208101899052604081018890526060016113f360e08b018b612e47565b8080601f01602080910402602001604051908101604052809392919081815260200183838082843760009201919091525050509152506040516001600160e01b031960e084901b16815261144a91906004016131fe565b600060405180830381600087803b15801561146457600080fd5b505af1158015611478573d6000803e3d6000fd5b505050506040513d6000823e601f3d908101601f191682016040526114a09190810190612eee565b92506115986114b560a08801608089016131e1565b6114df577f0000000000000000000000000000000000000000000000000000000000000000611501565b7f00000000000000000000000000000000000000000000000000000000000000005b6040516370a0823160e01b81523060048201526001600160a01b0391909116906370a082319060240160206040518083038186803b15801561154257600080fd5b505afa158015611556573d6000803e3d6000fd5b505050506040513d601f19601f8201168201806040525081019061157a91906130f1565b61158a60a0890160808a016131e1565b610d58578260020154611f7e565b6115a860a08701608088016131e1565b156115d957336000908152600283016020526040812080548792906115ce908490612f71565b909155506116009050565b336000908152600383016020526040812080548692906115fa908490612f71565b90915550505b600180548061161157611611613122565b600082815260208082206004600019909401938402018281556001810183905560028101839055600301919091559155339087013587357e92a054e9363f3efd42f73f1da82239b3dc6edafea865e59f1cffa4dd7dc22661167860608b0160408c01612e2c565b61168860808c0160608d01612e2c565b61169860a08d0160808e016131e1565b604080516001600160a01b039485168152939092166020840152151590820152606081018a90526080810189905260a00160405180910390a450509193909250565b600085815260026020908152604080832087845290915290205460ff16611705576117058585611819565b6001600160a01b03831661171b5761171b612239565b8061172857611728612252565b6117318261226b565b6000858152602081815260408083208784529091529020611754908484846122a0565b336001600160a01b031684867f70faa8e36be9e16810b2a40b964c4b9ae20a221c53bc3fd03fc843110d336dbb86868660405161179393929190613263565b60405180910390a45050505050565b60008381526020818152604080832085845290915281206117c49085846123f5565b90505b9392505050565b306001600160a01b037f0000000000000000000000000000000000000000000000000000000000000000161461181757604051634118e0bb60e11b815260040160405180910390fd5b565b60405163e407078d60e01b815260048101839052602481018290526044015b60405180910390fd5b815161184f5761184f612252565b60208201516001600160601b03101561186f5761186f826020015161246c565b806001600160601b031682602001511161189157611891826020015182612488565b60408201516001600160a01b03166118ab576118ab612239565b60608201516001600160a01b03166118c5576118c5612239565b6118d282608001516124b3565b60a08201511580156118e6575060c0820151155b156118f3576118f3612252565b5050565b600080808086600181111561190e5761190e61324d565b141561192e5761192785935083859350838960016124e5565b9050611974565b60018660018111156119425761194261324d565b141561197457611952848661310a565b90506119618588600080612528565b9250611971848860016000612528565b91505b828860000160008282546119889190612f71565b92505081905550818860010160008282546119a39190612f71565b92505081905550955095509592505050565b60005b8554811015611a5c5760008682815481106119d5576119d5612c0f565b9060005260206000209060040201905085600014611a1d5783611a0757858160020154611a029190612f71565b611a17565b858160020154611a17919061310a565b60028201555b8415611a535782611a3d57848160030154611a389190612f71565b611a4d565b848160030154611a4d919061310a565b60038201555b506001016119b8565b505050505050565b604080516001600160a01b038416602482015260448082018490528251808303909101815260649091019091526020810180516001600160e01b031663a9059cbb60e01b179052611ab6908490612568565b505050565b8151611ac957611ac9612252565b60208201516001600160601b031015611ae957611ae9826020015161246c565b806001600160601b031682602001511115611b0c57611b0c82602001518261263a565b60408201516001600160a01b0316611b2657611b26612239565b60608201516001600160a01b0316611b4057611b40612239565b611b4d8260800151612665565b60a08201516118f3576118f3612252565b600080600080611b79886000015489600101548960016124e5565b90506000866002811115611b8f57611b8f61324d565b1415611bc5578754859250611ba8908390836000612679565b6001890154909450611bbe908390836000612679565b9250611c4f565b6001866002811115611bd957611bd961324d565b1415611c09578754859450611bf390859083906001612679565b6001890154909250611bbe908390836000612679565b6002866002811115611c1d57611c1d61324d565b1415611c4f57600180890154869450611c399185918491612679565b8854909250611c4c908390836000612679565b93505b83886000016000828254611c639190612f71565b9250508190555082886001016000828254611c7e9190612f71565b92505081905550509450945094915050565b8151611c9e57611c9e612252565b60208201516001600160601b031015611cbe57611cbe826020015161246c565b806001600160601b0316826020015111611ce057611ce0826020015182612488565b60808201516001600160a01b0316611cfa57611cfa612239565b60408201516001600160a01b0316611d1457611d14612239565b60608201516001600160a01b0316611d2e57611d2e612239565b611d3b8260a001516124b3565b60c08201511580156118e6575060e08201516118f3576118f3612252565b600082815260026020908152604080832084845290915290205460ff166118f35760008281526002602081815260408084208585528252808420805460ff191660019081179091558151808301909252958152908101938452600380549586018155909252905192027fc2575a0e9e593c00f959f8c92f12db2869c3395a3b0502d05e2516446f71f85b810192909255517fc2575a0e9e593c00f959f8c92f12db2869c3395a3b0502d05e2516446f71f85c90910155565b6000808080866001811115611e2857611e2861324d565b1415611e4857611e4185935083859350838c60006124e5565b9050611e8e565b6001866001811115611e5c57611e5c61324d565b1415611e8e57611e6c848661310a565b9050611e7c858b60006001612528565b9250611e8b848b600180612528565b91505b8215611edd57828b6000016000828254611ea8919061310a565b90915550506001600160a01b038916600090815260028c01602052604081208054859290611ed790849061310a565b90915550505b8115611f2c57818b6001016000828254611ef7919061310a565b90915550506001600160a01b038816600090815260038c01602052604081208054849290611f2690849061310a565b90915550505b6001600160a01b038716600090815260048c01602052604081208054839290611f5690849061310a565b90915550508a546001808d0154611f6f92918d906124e5565b50985098509895505050505050565b808210156118f357604051631c22ff0160e21b81526004810183905260248101829052604401611838565b600080826002811115611fbe57611fbe61324d565b1415611fe557506001600160a01b03821660009081526002840160205260409020546117c7565b6001826002811115611ff957611ff961324d565b141561202057506001600160a01b03821660009081526003840160205260409020546117c7565b60028260028111156120345761203461324d565b14156117c75750506001600160a01b03166000908152600491909101602052604090205490565b815161206957612069612252565b60208201516001600160601b03101561208957612089826020015161246c565b806001600160601b03168260200151116120ab576120ab826020015182612488565b60408201516001600160a01b03166120c5576120c5612239565b60608201516001600160a01b03166120df576120df612239565b6120ec8260a001516124b3565b60c08201516118f3576118f3612252565b600080808460018111156121135761211361324d565b1415612130578291506121298288600188612687565b905061215d565b60018460018111156121445761214461324d565b141561215d57508161215a818860008815612687565b91505b84156121cc57818860000160008282546121779190612f71565b9250508190555080886001016000828254612192919061310a565b90915550506001600160a01b0386166000908152600389016020526040812080548392906121c190849061310a565b9091555061222e9050565b808860010160008282546121e09190612f71565b90915550508754829089906000906121f990849061310a565b90915550506001600160a01b03861660009081526002890160205260408120805484929061222890849061310a565b90915550505b965096945050505050565b60405163d92e233d60e01b815260040160405180910390fd5b60405163af458c0760e01b815260040160405180910390fd5b600381600281111561227f5761227f61324d565b1061229d5760405163673f032f60e11b815260040160405180910390fd5b50565b60008260028111156122b4576122b461324d565b141561231557336000908152600285016020526040812080548392906122db908490612f71565b90915550506001600160a01b03831660009081526002850160205260408120805483929061230a90849061310a565b909155506123ef9050565b60018260028111156123295761232961324d565b141561237f576001600160a01b03831660009081526003850160205260408120805483929061235990849061310a565b90915550503360009081526003850160205260408120805483929061230a908490612f71565b60028260028111156123935761239361324d565b14156123ef57336000908152600485016020526040812080548392906123ba908490612f71565b90915550506001600160a01b0383166000908152600485016020526040812080548392906123e990849061310a565b90915550505b50505050565b60008082600281111561240a5761240a61324d565b1415612418575082546117c7565b600182600281111561242c5761242c61324d565b141561243d575060018301546117c7565b60028260028111156124515761245161324d565b14156117c7576117c4846000015485600101548560016124e5565b6040516335f135d360e01b815260048101829052602401611838565b60405163647284e960e11b8152600481018390526001600160601b0382166024820152604401611838565b60028160018111156124c7576124c761324d565b1061229d5760405163280503e760e11b815260040160405180910390fd5b60006001600160801b038311612511576125028584600185612687565b61250c908561310a565b610e65565b61251e8484600085612687565b610e65908661310a565b60006001600160801b038411612550578261254a5761250c8585600085612687565b84610e65565b8261255b5784610e65565b610e658585600185612687565b60006125bd826040518060400160405280602081526020017f5361666545524332303a206c6f772d6c6576656c2063616c6c206661696c6564815250856001600160a01b03166126ae9092919063ffffffff16565b805190915015611ab657808060200190518101906125db91906132a2565b611ab65760405162461bcd60e51b815260206004820152602a60248201527f5361666545524332303a204552433230206f7065726174696f6e20646964206e6044820152691bdd081cdd58d8d9595960b21b6064820152608401611838565b60405163b9e0f8d560e01b8152600481018390526001600160601b0382166024820152604401611838565b60038160028111156124c7576124c761324d565b6000610e65858585856126bd565b60008261269e5761250c85600160801b86856126bd565b610e658585600160801b856126bd565b60606117c484846000856127b9565b60008060006126cc8787612894565b9150915080600014156126ed576126e48286866128b3565b92505050610e68565b80851161271e5760405163362ced0960e11b8152600481018890526024810187905260448101869052606401611838565b600085878909600087810388169788900497600260038a028118808b02820302808b02820302808b02820302808b02820302808b02820302808b0290910302918190038190046001018684119095039485029290950394909404179283029350849050801561279c57508480612796576127966132bf565b86880915155b156127af57826127ab816132d5565b9350505b5050949350505050565b60608247101561281a5760405162461bcd60e51b815260206004820152602660248201527f416464726573733a20696e73756666696369656e742062616c616e636520666f6044820152651c8818d85b1b60d21b6064820152608401611838565b600080866001600160a01b0316858760405161283691906132f0565b60006040518083038185875af1925050503d8060008114612873576040519150601f19603f3d011682016040523d82523d6000602084013e612878565b606091505b5091509150612889878383876128ee565b979650505050505050565b6000806000198385098385029250828110838203039150509250929050565b60006128bf838561330c565b90508180156128d657506128d38385613320565b15155b156117c757806128e5816132d5565b95945050505050565b6060831561295a578251612953576001600160a01b0385163b6129535760405162461bcd60e51b815260206004820152601d60248201527f416464726573733a2063616c6c20746f206e6f6e2d636f6e74726163740000006044820152606401611838565b5081610e68565b610e68838381511561296f5781518083602001fd5b8060405162461bcd60e51b81526004016118389190613334565b60006020828403121561299b57600080fd5b5035919050565b600061010082840312156129b557600080fd5b50919050565b6000602082840312156129cd57600080fd5b81356001600160401b038111156129e357600080fd5b610e68848285016129a2565b60005b83811015612a0a5781810151838201526020016129f2565b838111156123ef5750506000910152565b60008151808452612a338160208601602086016129ef565b601f01601f19169290920160200192915050565b848152836020820152826040820152608060608201526000612a6c6080830184612a1b565b9695505050505050565b600060208284031215612a8857600080fd5b81356001600160401b03811115612a9e57600080fd5b820160e081850312156117c757600080fd5b600060208284031215612ac257600080fd5b81356001600160401b03811115612ad857600080fd5b820161012081850312156117c757600080fd5b80356001600160a01b0381168114612b0257600080fd5b919050565b6003811061229d57600080fd5b8035612b0281612b07565b60008060008060808587031215612b3557600080fd5b8435935060208501359250612b4c60408601612aeb565b91506060850135612b5c81612b07565b939692955090935050565b838152826020820152606060408201526000610e656060830184612a1b565b600080600080600060a08688031215612b9e57600080fd5b8535945060208601359350612bb560408701612aeb565b92506060860135612bc581612b07565b949793965091946080013592915050565b600080600060608486031215612beb57600080fd5b83359250602084013591506040840135612c0481612b07565b809150509250925092565b634e487b7160e01b600052603260045260246000fd5b634e487b7160e01b600052604160045260246000fd5b60405161010081016001600160401b0381118282101715612c5e57612c5e612c25565b60405290565b60405160e081016001600160401b0381118282101715612c5e57612c5e612c25565b60405161012081016001600160401b0381118282101715612c5e57612c5e612c25565b604051601f8201601f191681016001600160401b0381118282101715612cd157612cd1612c25565b604052919050565b6002811061229d57600080fd5b8035612b0281612cd9565b60006001600160401b03821115612d0a57612d0a612c25565b50601f01601f191660200190565b600082601f830112612d2957600080fd5b8135612d3c612d3782612cf1565b612ca9565b818152846020838601011115612d5157600080fd5b816020850160208301376000918101602001919091529392505050565b60006101008236031215612d8157600080fd5b612d89612c3b565b8235815260208301356020820152612da360408401612aeb565b6040820152612db460608401612aeb565b6060820152612dc560808401612ce6565b608082015260a083013560a082015260c083013560c082015260e08301356001600160401b03811115612df757600080fd5b612e0336828601612d18565b60e08301525092915050565b600060208284031215612e2157600080fd5b81356117c781612cd9565b600060208284031215612e3e57600080fd5b6117c782612aeb565b6000808335601e19843603018112612e5e57600080fd5b8301803591506001600160401b03821115612e7857600080fd5b602001915036819003821315612e8d57600080fd5b9250929050565b8051825260208101516020830152604081015160408301526060810151606083015260808101516080830152600060a082015160c060a0850152610e6860c0850182612a1b565b6020815260006117c76020830184612e94565b600060208284031215612f0057600080fd5b81516001600160401b03811115612f1657600080fd5b8201601f81018413612f2757600080fd5b8051612f35612d3782612cf1565b818152856020838501011115612f4a57600080fd5b6128e58260208301602086016129ef565b634e487b7160e01b600052601160045260246000fd5b600082821015612f8357612f83612f5b565b500390565b600060e08236031215612f9a57600080fd5b612fa2612c64565b8235815260208301356020820152612fbc60408401612aeb565b6040820152612fcd60608401612aeb565b6060820152612fde60808401612b14565b608082015260a083013560a082015260c08301356001600160401b0381111561300657600080fd5b61301236828601612d18565b60c08301525092915050565b60006020828403121561303057600080fd5b81356117c781612b07565b6000610120823603121561304e57600080fd5b613056612c86565b823581526020830135602082015261307060408401612aeb565b604082015261308160608401612aeb565b606082015261309260808401612aeb565b60808201526130a360a08401612ce6565b60a082015260c083013560c082015260e083013560e0820152610100808401356001600160401b038111156130d757600080fd5b6130e336828701612d18565b918301919091525092915050565b60006020828403121561310357600080fd5b5051919050565b6000821982111561311d5761311d612f5b565b500190565b634e487b7160e01b600052603160045260246000fd5b801515811461229d57600080fd5b8035612b0281613138565b6000610100823603121561316457600080fd5b61316c612c3b565b823581526020830135602082015261318660408401612aeb565b604082015261319760608401612aeb565b60608201526131a860808401613146565b60808201526131b960a08401612ce6565b60a082015260c083013560c082015260e08301356001600160401b03811115612df757600080fd5b6000602082840312156131f357600080fd5b81356117c781613138565b60208152815160208201526020820151604082015260408201511515606082015260608201516080820152608082015160a0820152600060a083015160c080840152610e6860e0840182612a1b565b634e487b7160e01b600052602160045260246000fd5b6001600160a01b0384168152606081016003841061329157634e487b7160e01b600052602160045260246000fd5b602082019390935260400152919050565b6000602082840312156132b457600080fd5b81516117c781613138565b634e487b7160e01b600052601260045260246000fd5b60006000198214156132e9576132e9612f5b565b5060010190565b600082516133028184602087016129ef565b9190910192915050565b60008261331b5761331b6132bf565b500490565b60008261332f5761332f6132bf565b500690565b6020815260006117c76020830184612a1b56fea26469706673582212207d2c4821a941f22f4ff0a956dd0df8e013377ce1312fe2f49504df9850e3c61d64736f6c63430008080033a2646970667358221220026940fa54bb43cb6d4e27271ab942854979e7ef7c3617d0b77fcbe3ec13bfbe64736f6c63430008080033","opcodes":"PUSH1 0x80 PUSH1 0x40 MSTORE CALLVALUE DUP1 ISZERO PUSH2 0x10 JUMPI PUSH1 0x0 DUP1 REVERT JUMPDEST POP PUSH2 0x39CD DUP1 PUSH2 0x20 PUSH1 0x0 CODECOPY PUSH1 0x0 RETURN INVALID PUSH1 0x80 PUSH1 0x40 MSTORE CALLVALUE DUP1 ISZERO PUSH2 0x10 JUMPI PUSH1 0x0 DUP1 REVERT JUMPDEST POP PUSH1 0x4 CALLDATASIZE LT PUSH2 0x57 JUMPI PUSH1 0x0 CALLDATALOAD PUSH1 0xE0 SHR DUP1 PUSH4 0x2D883A73 EQ PUSH2 0x5C JUMPI DUP1 PUSH4 0x3E68680A EQ PUSH2 0x8C JUMPI DUP1 PUSH4 0xAD4D4E29 EQ PUSH2 0x9F JUMPI DUP1 PUSH4 0xD81E8423 EQ PUSH2 0xE9 JUMPI DUP1 PUSH4 0xFC0D92BD EQ PUSH2 0xFC JUMPI JUMPDEST PUSH1 0x0 DUP1 REVERT JUMPDEST PUSH2 0x6F PUSH2 0x6A CALLDATASIZE PUSH1 0x4 PUSH2 0x3F0 JUMP JUMPDEST PUSH2 0x10D JUMP JUMPDEST PUSH1 0x40 MLOAD PUSH1 0x1 PUSH1 0x1 PUSH1 0xA0 SHL SUB SWAP1 SWAP2 AND DUP2 MSTORE PUSH1 0x20 ADD JUMPDEST PUSH1 0x40 MLOAD DUP1 SWAP2 SUB SWAP1 RETURN JUMPDEST PUSH2 0x6F PUSH2 0x9A CALLDATASIZE PUSH1 0x4 PUSH2 0x425 JUMP JUMPDEST PUSH2 0x137 JUMP JUMPDEST PUSH1 0x0 SLOAD PUSH1 0x1 SLOAD PUSH1 0x2 SLOAD PUSH2 0xBF SWAP3 PUSH1 0x1 PUSH1 0x1 PUSH1 0xA0 SHL SUB SWAP1 DUP2 AND SWAP3 DUP2 AND SWAP2 AND DUP4 JUMP JUMPDEST PUSH1 0x40 DUP1 MLOAD PUSH1 0x1 PUSH1 0x1 PUSH1 0xA0 SHL SUB SWAP5 DUP6 AND DUP2 MSTORE SWAP3 DUP5 AND PUSH1 0x20 DUP5 ADD MSTORE SWAP3 AND SWAP2 DUP2 ADD SWAP2 SWAP1 SWAP2 MSTORE PUSH1 0x60 ADD PUSH2 0x83 JUMP JUMPDEST PUSH2 0x6F PUSH2 0xF7 CALLDATASIZE PUSH1 0x4 PUSH2 0x425 JUMP JUMPDEST PUSH2 0x228 JUMP JUMPDEST PUSH1 0x4 SLOAD PUSH1 0x40 MLOAD SWAP1 DUP2 MSTORE PUSH1 0x20 ADD PUSH2 0x83 JUMP JUMPDEST PUSH1 0x4 DUP2 DUP2 SLOAD DUP2 LT PUSH2 0x11D JUMPI PUSH1 0x0 DUP1 REVERT JUMPDEST PUSH1 0x0 SWAP2 DUP3 MSTORE PUSH1 0x20 SWAP1 SWAP2 KECCAK256 ADD SLOAD PUSH1 0x1 PUSH1 0x1 PUSH1 0xA0 SHL SUB AND SWAP1 POP DUP2 JUMP JUMPDEST PUSH1 0x0 PUSH1 0x1 PUSH1 0x1 PUSH1 0xA0 SHL SUB DUP4 AND PUSH2 0x14F JUMPI PUSH2 0x14F PUSH2 0x25F JUMP JUMPDEST PUSH1 0x1 PUSH1 0x1 PUSH1 0xA0 SHL SUB DUP3 AND PUSH2 0x165 JUMPI PUSH2 0x165 PUSH2 0x25F JUMP JUMPDEST PUSH2 0x16F DUP4 DUP4 PUSH2 0x278 JUMP JUMPDEST POP PUSH1 0x1 PUSH1 0x1 PUSH1 0xA0 SHL SUB DUP1 DUP4 AND PUSH1 0x0 SWAP1 DUP2 MSTORE PUSH1 0x3 PUSH1 0x20 SWAP1 DUP2 MSTORE PUSH1 0x40 DUP1 DUP4 KECCAK256 DUP6 DUP6 AND DUP5 MSTORE SWAP1 SWAP2 MSTORE SWAP1 KECCAK256 SLOAD AND PUSH2 0x1A3 DUP4 DUP4 DUP4 PUSH2 0x2C6 JUMP JUMPDEST PUSH2 0x1AE ADDRESS DUP5 DUP5 PUSH2 0x30E JUMP JUMPDEST PUSH1 0x1 PUSH1 0x1 PUSH1 0xA0 SHL SUB DUP5 DUP2 AND PUSH1 0x0 DUP2 DUP2 MSTORE PUSH1 0x3 PUSH1 0x20 SWAP1 DUP2 MSTORE PUSH1 0x40 DUP1 DUP4 KECCAK256 DUP9 DUP7 AND DUP1 DUP6 MSTORE SWAP1 DUP4 MSTORE SWAP3 DUP2 SWAP1 KECCAK256 DUP1 SLOAD PUSH1 0x1 PUSH1 0x1 PUSH1 0xA0 SHL SUB NOT AND SWAP6 DUP8 AND SWAP6 DUP7 OR SWAP1 SSTORE MLOAD SWAP4 DUP5 MSTORE SWAP4 SWAP5 POP SWAP3 SWAP1 SWAP2 CALLER SWAP2 PUSH32 0x68FF1CFCDCF76864161555FC0DE1878D8F83EC6949BF351DF74D8A4A1A2679AB SWAP2 ADD PUSH1 0x40 MLOAD DUP1 SWAP2 SUB SWAP1 LOG4 SWAP3 SWAP2 POP POP JUMP JUMPDEST PUSH1 0x0 PUSH2 0x234 DUP4 DUP4 PUSH2 0x278 JUMP JUMPDEST POP PUSH1 0x1 PUSH1 0x1 PUSH1 0xA0 SHL SUB SWAP2 DUP3 AND PUSH1 0x0 SWAP1 DUP2 MSTORE PUSH1 0x3 PUSH1 0x20 SWAP1 DUP2 MSTORE PUSH1 0x40 DUP1 DUP4 KECCAK256 SWAP4 DUP6 AND DUP4 MSTORE SWAP3 SWAP1 MSTORE KECCAK256 SLOAD AND SWAP1 JUMP JUMPDEST PUSH1 0x40 MLOAD PUSH4 0xD92E233D PUSH1 0xE0 SHL DUP2 MSTORE PUSH1 0x4 ADD PUSH1 0x40 MLOAD DUP1 SWAP2 SUB SWAP1 REVERT JUMPDEST DUP1 PUSH1 0x1 PUSH1 0x1 PUSH1 0xA0 SHL SUB AND DUP3 PUSH1 0x1 PUSH1 0x1 PUSH1 0xA0 SHL SUB AND LT PUSH2 0x2C2 JUMPI PUSH1 0x40 MLOAD PUSH4 0x2CA8EB83 PUSH1 0xE2 SHL DUP2 MSTORE PUSH1 0x1 PUSH1 0x1 PUSH1 0xA0 SHL SUB DUP1 DUP5 AND PUSH1 0x4 DUP4 ADD MSTORE DUP3 AND PUSH1 0x24 DUP3 ADD MSTORE PUSH1 0x44 ADD JUMPDEST PUSH1 0x40 MLOAD DUP1 SWAP2 SUB SWAP1 REVERT JUMPDEST POP POP JUMP JUMPDEST PUSH1 0x1 PUSH1 0x1 PUSH1 0xA0 SHL SUB DUP2 AND ISZERO PUSH2 0x309 JUMPI PUSH1 0x40 MLOAD PUSH4 0x8E487C53 PUSH1 0xE0 SHL DUP2 MSTORE PUSH1 0x1 PUSH1 0x1 PUSH1 0xA0 SHL SUB DUP1 DUP6 AND PUSH1 0x4 DUP4 ADD MSTORE DUP1 DUP5 AND PUSH1 0x24 DUP4 ADD MSTORE DUP3 AND PUSH1 0x44 DUP3 ADD MSTORE PUSH1 0x64 ADD PUSH2 0x2B9 JUMP JUMPDEST POP POP POP JUMP JUMPDEST PUSH1 0x40 DUP1 MLOAD PUSH1 0x60 DUP1 DUP3 ADD DUP4 MSTORE PUSH1 0x1 PUSH1 0x1 PUSH1 0xA0 SHL SUB DUP7 DUP2 AND DUP1 DUP5 MSTORE DUP7 DUP3 AND PUSH1 0x20 DUP1 DUP7 ADD DUP3 SWAP1 MSTORE SWAP3 DUP8 AND SWAP5 DUP7 ADD DUP6 SWAP1 MSTORE PUSH1 0x0 DUP1 SLOAD PUSH1 0x1 PUSH1 0x1 PUSH1 0xA0 SHL SUB NOT SWAP1 DUP2 AND SWAP1 SWAP4 OR DUP2 SSTORE PUSH1 0x1 DUP1 SLOAD DUP5 AND DUP4 OR SWAP1 SSTORE PUSH1 0x2 DUP1 SLOAD SWAP1 SWAP4 AND DUP7 OR SWAP1 SWAP3 SSTORE DUP6 MLOAD SWAP3 DUP4 ADD MSTORE SWAP4 DUP2 ADD SWAP3 SWAP1 SWAP3 MSTORE ADD PUSH1 0x40 MLOAD PUSH1 0x20 DUP2 DUP4 SUB SUB DUP2 MSTORE SWAP1 PUSH1 0x40 MSTORE DUP1 MLOAD SWAP1 PUSH1 0x20 ADD KECCAK256 PUSH1 0x40 MLOAD PUSH2 0x396 SWAP1 PUSH2 0x3E3 JUMP JUMPDEST DUP2 SWAP1 PUSH1 0x40 MLOAD DUP1 SWAP2 SUB SWAP1 PUSH1 0x0 CREATE2 SWAP1 POP DUP1 ISZERO DUP1 ISZERO PUSH2 0x3B6 JUMPI RETURNDATASIZE PUSH1 0x0 DUP1 RETURNDATACOPY RETURNDATASIZE PUSH1 0x0 REVERT JUMPDEST POP PUSH1 0x0 DUP1 SLOAD PUSH1 0x1 PUSH1 0x1 PUSH1 0xA0 SHL SUB NOT SWAP1 DUP2 AND SWAP1 SWAP2 SSTORE PUSH1 0x1 DUP1 SLOAD DUP3 AND SWAP1 SSTORE PUSH1 0x2 DUP1 SLOAD SWAP1 SWAP2 AND SWAP1 SSTORE SWAP5 SWAP4 POP POP POP POP JUMP JUMPDEST PUSH2 0x353F DUP1 PUSH2 0x459 DUP4 CODECOPY ADD SWAP1 JUMP JUMPDEST PUSH1 0x0 PUSH1 0x20 DUP3 DUP5 SUB SLT ISZERO PUSH2 0x402 JUMPI PUSH1 0x0 DUP1 REVERT JUMPDEST POP CALLDATALOAD SWAP2 SWAP1 POP JUMP JUMPDEST DUP1 CALLDATALOAD PUSH1 0x1 PUSH1 0x1 PUSH1 0xA0 SHL SUB DUP2 AND DUP2 EQ PUSH2 0x420 JUMPI PUSH1 0x0 DUP1 REVERT JUMPDEST SWAP2 SWAP1 POP JUMP JUMPDEST PUSH1 0x0 DUP1 PUSH1 0x40 DUP4 DUP6 SUB SLT ISZERO PUSH2 0x438 JUMPI PUSH1 0x0 DUP1 REVERT JUMPDEST PUSH2 0x441 DUP4 PUSH2 0x409 JUMP JUMPDEST SWAP2 POP PUSH2 0x44F PUSH1 0x20 DUP5 ADD PUSH2 0x409 JUMP JUMPDEST SWAP1 POP SWAP3 POP SWAP3 SWAP1 POP JUMP INVALID PUSH2 0x100 PUSH1 0x40 MSTORE CALLVALUE DUP1 ISZERO PUSH3 0x12 JUMPI PUSH1 0x0 DUP1 REVERT JUMPDEST POP ADDRESS PUSH1 0x60 SWAP1 DUP2 SHL PUSH1 0x80 MSTORE PUSH1 0x40 DUP1 MLOAD PUSH4 0xAD4D4E29 PUSH1 0xE0 SHL DUP2 MSTORE SWAP1 MLOAD CALLER SWAP3 PUSH4 0xAD4D4E29 SWAP3 PUSH1 0x4 DUP1 DUP3 ADD SWAP4 SWAP2 DUP3 SWAP1 SUB ADD DUP2 DUP7 DUP1 EXTCODESIZE ISZERO DUP1 ISZERO PUSH3 0x50 JUMPI PUSH1 0x0 DUP1 REVERT JUMPDEST POP GAS STATICCALL ISZERO DUP1 ISZERO PUSH3 0x65 JUMPI RETURNDATASIZE PUSH1 0x0 DUP1 RETURNDATACOPY RETURNDATASIZE PUSH1 0x0 REVERT JUMPDEST POP POP POP POP PUSH1 0x40 MLOAD RETURNDATASIZE PUSH1 0x1F NOT PUSH1 0x1F DUP3 ADD AND DUP3 ADD DUP1 PUSH1 0x40 MSTORE POP DUP2 ADD SWAP1 PUSH3 0x8B SWAP2 SWAP1 PUSH3 0xD1 JUMP JUMPDEST PUSH1 0x1 PUSH1 0x1 PUSH1 0x60 SHL SUB NOT PUSH1 0x60 SWAP2 DUP3 SHL DUP2 AND PUSH1 0xE0 MSTORE SWAP2 DUP2 SHL DUP3 AND PUSH1 0xC0 MSTORE SWAP2 SWAP1 SWAP2 SHL AND PUSH1 0xA0 MSTORE PUSH3 0x11B JUMP JUMPDEST DUP1 MLOAD PUSH1 0x1 PUSH1 0x1 PUSH1 0xA0 SHL SUB DUP2 AND DUP2 EQ PUSH3 0xCC JUMPI PUSH1 0x0 DUP1 REVERT JUMPDEST SWAP2 SWAP1 POP JUMP JUMPDEST PUSH1 0x0 DUP1 PUSH1 0x0 PUSH1 0x60 DUP5 DUP7 SUB SLT ISZERO PUSH3 0xE7 JUMPI PUSH1 0x0 DUP1 REVERT JUMPDEST PUSH3 0xF2 DUP5 PUSH3 0xB4 JUMP JUMPDEST SWAP3 POP PUSH3 0x102 PUSH1 0x20 DUP6 ADD PUSH3 0xB4 JUMP JUMPDEST SWAP2 POP PUSH3 0x112 PUSH1 0x40 DUP6 ADD PUSH3 0xB4 JUMP JUMPDEST SWAP1 POP SWAP3 POP SWAP3 POP SWAP3 JUMP JUMPDEST PUSH1 0x80 MLOAD PUSH1 0x60 SHR PUSH1 0xA0 MLOAD PUSH1 0x60 SHR PUSH1 0xC0 MLOAD PUSH1 0x60 SHR PUSH1 0xE0 MLOAD PUSH1 0x60 SHR PUSH2 0x337D PUSH3 0x1C2 PUSH1 0x0 CODECOPY PUSH1 0x0 DUP2 DUP2 PUSH2 0x20F ADD MSTORE DUP2 DUP2 PUSH2 0x3A8 ADD MSTORE DUP2 DUP2 PUSH2 0x9D3 ADD MSTORE DUP2 DUP2 PUSH2 0xCD6 ADD MSTORE DUP2 DUP2 PUSH2 0x110D ADD MSTORE DUP2 DUP2 PUSH2 0x11B5 ADD MSTORE DUP2 DUP2 PUSH2 0x1348 ADD MSTORE PUSH2 0x14E1 ADD MSTORE PUSH1 0x0 DUP2 DUP2 PUSH1 0xBE ADD MSTORE DUP2 DUP2 PUSH2 0x35E ADD MSTORE DUP2 DUP2 PUSH2 0x928 ADD MSTORE DUP2 DUP2 PUSH2 0xC2B ADD MSTORE DUP2 DUP2 PUSH2 0xFA9 ADD MSTORE DUP2 DUP2 PUSH2 0x1051 ADD MSTORE DUP2 DUP2 PUSH2 0x136E ADD MSTORE PUSH2 0x14BB ADD MSTORE PUSH1 0x0 PUSH2 0x1D5 ADD MSTORE PUSH1 0x0 PUSH2 0x17D9 ADD MSTORE PUSH2 0x337D PUSH1 0x0 RETURN INVALID PUSH1 0x80 PUSH1 0x40 MSTORE CALLVALUE DUP1 ISZERO PUSH2 0x10 JUMPI PUSH1 0x0 DUP1 REVERT JUMPDEST POP PUSH1 0x4 CALLDATASIZE LT PUSH2 0xB4 JUMPI PUSH1 0x0 CALLDATALOAD PUSH1 0xE0 SHR DUP1 PUSH4 0xAF2F91EA GT PUSH2 0x71 JUMPI DUP1 PUSH4 0xAF2F91EA EQ PUSH2 0x186 JUMPI DUP1 PUSH4 0xB084C252 EQ PUSH2 0x199 JUMPI DUP1 PUSH4 0xB2CECA77 EQ PUSH2 0x1BB JUMPI DUP1 PUSH4 0xB3461C87 EQ PUSH2 0x1D0 JUMPI DUP1 PUSH4 0xB7FB542D EQ PUSH2 0x1F7 JUMPI DUP1 PUSH4 0xD21220A7 EQ PUSH2 0x20A JUMPI PUSH1 0x0 DUP1 REVERT JUMPDEST DUP1 PUSH4 0xDFE1681 EQ PUSH2 0xB9 JUMPI DUP1 PUSH4 0x2D883A73 EQ PUSH2 0xFD JUMPI DUP1 PUSH4 0x622FB68F EQ PUSH2 0x12B JUMPI DUP1 PUSH4 0x7087C1F6 EQ PUSH2 0x14E JUMPI DUP1 PUSH4 0x80E06679 EQ PUSH2 0x161 JUMPI DUP1 PUSH4 0x87ED3ECF EQ PUSH2 0x174 JUMPI JUMPDEST PUSH1 0x0 DUP1 REVERT JUMPDEST PUSH2 0xE0 PUSH32 0x0 DUP2 JUMP JUMPDEST PUSH1 0x40 MLOAD PUSH1 0x1 PUSH1 0x1 PUSH1 0xA0 SHL SUB SWAP1 SWAP2 AND DUP2 MSTORE PUSH1 0x20 ADD JUMPDEST PUSH1 0x40 MLOAD DUP1 SWAP2 SUB SWAP1 RETURN JUMPDEST PUSH2 0x110 PUSH2 0x10B CALLDATASIZE PUSH1 0x4 PUSH2 0x2989 JUMP JUMPDEST PUSH2 0x231 JUMP JUMPDEST PUSH1 0x40 DUP1 MLOAD DUP3 MLOAD DUP2 MSTORE PUSH1 0x20 SWAP3 DUP4 ADD MLOAD SWAP3 DUP2 ADD SWAP3 SWAP1 SWAP3 MSTORE ADD PUSH2 0xF4 JUMP JUMPDEST PUSH2 0x13E PUSH2 0x139 CALLDATASIZE PUSH1 0x4 PUSH2 0x29BB JUMP JUMPDEST PUSH2 0x28C JUMP JUMPDEST PUSH1 0x40 MLOAD PUSH2 0xF4 SWAP5 SWAP4 SWAP3 SWAP2 SWAP1 PUSH2 0x2A47 JUMP JUMPDEST PUSH2 0x13E PUSH2 0x15C CALLDATASIZE PUSH1 0x4 PUSH2 0x2A76 JUMP JUMPDEST PUSH2 0x5DF JUMP JUMPDEST PUSH2 0x13E PUSH2 0x16F CALLDATASIZE PUSH1 0x4 PUSH2 0x2AB0 JUMP JUMPDEST PUSH2 0x82F JUMP JUMPDEST PUSH1 0x3 SLOAD JUMPDEST PUSH1 0x40 MLOAD SWAP1 DUP2 MSTORE PUSH1 0x20 ADD PUSH2 0xF4 JUMP JUMPDEST PUSH2 0x178 PUSH2 0x194 CALLDATASIZE PUSH1 0x4 PUSH2 0x2B1F JUMP JUMPDEST PUSH2 0xE43 JUMP JUMPDEST PUSH2 0x1AC PUSH2 0x1A7 CALLDATASIZE PUSH1 0x4 PUSH2 0x29BB JUMP JUMPDEST PUSH2 0xE70 JUMP JUMPDEST PUSH1 0x40 MLOAD PUSH2 0xF4 SWAP4 SWAP3 SWAP2 SWAP1 PUSH2 0x2B67 JUMP JUMPDEST PUSH2 0x1CE PUSH2 0x1C9 CALLDATASIZE PUSH1 0x4 PUSH2 0x2B86 JUMP JUMPDEST PUSH2 0x16DA JUMP JUMPDEST STOP JUMPDEST PUSH2 0xE0 PUSH32 0x0 DUP2 JUMP JUMPDEST PUSH2 0x178 PUSH2 0x205 CALLDATASIZE PUSH1 0x4 PUSH2 0x2BD6 JUMP JUMPDEST PUSH2 0x17A2 JUMP JUMPDEST PUSH2 0xE0 PUSH32 0x0 DUP2 JUMP JUMPDEST PUSH1 0x40 DUP1 MLOAD DUP1 DUP3 ADD SWAP1 SWAP2 MSTORE PUSH1 0x0 DUP1 DUP3 MSTORE PUSH1 0x20 DUP3 ADD MSTORE PUSH1 0x3 DUP3 DUP2 SLOAD DUP2 LT PUSH2 0x258 JUMPI PUSH2 0x258 PUSH2 0x2C0F JUMP JUMPDEST SWAP1 PUSH1 0x0 MSTORE PUSH1 0x20 PUSH1 0x0 KECCAK256 SWAP1 PUSH1 0x2 MUL ADD PUSH1 0x40 MLOAD DUP1 PUSH1 0x40 ADD PUSH1 0x40 MSTORE SWAP1 DUP2 PUSH1 0x0 DUP3 ADD SLOAD DUP2 MSTORE PUSH1 0x20 ADD PUSH1 0x1 DUP3 ADD SLOAD DUP2 MSTORE POP POP SWAP1 POP SWAP2 SWAP1 POP JUMP JUMPDEST PUSH1 0x0 DUP1 PUSH1 0x0 PUSH1 0x60 PUSH2 0x29B PUSH2 0x17CE JUMP JUMPDEST DUP5 CALLDATALOAD PUSH1 0x0 SWAP1 DUP2 MSTORE PUSH1 0x2 PUSH1 0x20 SWAP1 DUP2 MSTORE PUSH1 0x40 DUP1 DUP4 KECCAK256 DUP3 DUP10 ADD CALLDATALOAD DUP5 MSTORE SWAP1 SWAP2 MSTORE SWAP1 KECCAK256 SLOAD PUSH1 0xFF AND PUSH2 0x2D0 JUMPI PUSH2 0x2D0 DUP6 CALLDATALOAD PUSH1 0x20 DUP8 ADD CALLDATALOAD PUSH2 0x1819 JUMP JUMPDEST PUSH2 0x2E2 PUSH2 0x2DC DUP7 PUSH2 0x2D6E JUMP JUMPDEST TIMESTAMP PUSH2 0x1841 JUMP JUMPDEST DUP5 CALLDATALOAD PUSH1 0x0 DUP2 DUP2 MSTORE PUSH1 0x20 DUP2 DUP2 MSTORE PUSH1 0x40 DUP1 DUP4 KECCAK256 DUP3 DUP11 ADD CALLDATALOAD DUP5 MSTORE SWAP1 SWAP2 MSTORE SWAP1 KECCAK256 SWAP1 PUSH2 0x325 SWAP1 PUSH2 0x313 PUSH1 0xA0 DUP10 ADD PUSH1 0x80 DUP11 ADD PUSH2 0x2E0F JUMP JUMPDEST DUP4 SWAP2 SWAP1 PUSH1 0xA0 DUP11 ADD CALLDATALOAD PUSH1 0xC0 DUP12 ADD CALLDATALOAD PUSH2 0x18F7 JUMP JUMPDEST SWAP2 SWAP7 POP SWAP5 POP SWAP3 POP PUSH2 0x33B PUSH1 0x1 DUP7 DUP7 PUSH1 0x0 DUP1 PUSH2 0x19B5 JUMP JUMPDEST DUP5 ISZERO PUSH2 0x385 JUMPI PUSH2 0x385 PUSH2 0x354 PUSH1 0x60 DUP9 ADD PUSH1 0x40 DUP10 ADD PUSH2 0x2E2C JUMP JUMPDEST PUSH1 0x1 PUSH1 0x1 PUSH1 0xA0 SHL SUB PUSH32 0x0 AND SWAP1 DUP8 PUSH2 0x1A64 JUMP JUMPDEST DUP4 ISZERO PUSH2 0x3CF JUMPI PUSH2 0x3CF PUSH2 0x39E PUSH1 0x80 DUP9 ADD PUSH1 0x60 DUP10 ADD PUSH2 0x2E2C JUMP JUMPDEST PUSH1 0x1 PUSH1 0x1 PUSH1 0xA0 SHL SUB PUSH32 0x0 AND SWAP1 DUP7 PUSH2 0x1A64 JUMP JUMPDEST PUSH2 0x3DC PUSH1 0xE0 DUP8 ADD DUP8 PUSH2 0x2E47 JUMP JUMPDEST ISZERO SWAP1 POP PUSH2 0x4E3 JUMPI CALLER PUSH1 0x1 PUSH1 0x1 PUSH1 0xA0 SHL SUB AND PUSH4 0x8C5F0851 PUSH1 0x40 MLOAD DUP1 PUSH1 0xC0 ADD PUSH1 0x40 MSTORE DUP1 DUP10 PUSH1 0x0 ADD CALLDATALOAD DUP2 MSTORE PUSH1 0x20 ADD DUP10 PUSH1 0x20 ADD CALLDATALOAD DUP2 MSTORE PUSH1 0x20 ADD DUP9 DUP2 MSTORE PUSH1 0x20 ADD DUP8 DUP2 MSTORE PUSH1 0x20 ADD DUP7 DUP2 MSTORE PUSH1 0x20 ADD DUP10 DUP1 PUSH1 0xE0 ADD SWAP1 PUSH2 0x433 SWAP2 SWAP1 PUSH2 0x2E47 JUMP JUMPDEST DUP1 DUP1 PUSH1 0x1F ADD PUSH1 0x20 DUP1 SWAP2 DIV MUL PUSH1 0x20 ADD PUSH1 0x40 MLOAD SWAP1 DUP2 ADD PUSH1 0x40 MSTORE DUP1 SWAP4 SWAP3 SWAP2 SWAP1 DUP2 DUP2 MSTORE PUSH1 0x20 ADD DUP4 DUP4 DUP1 DUP3 DUP5 CALLDATACOPY PUSH1 0x0 SWAP3 ADD SWAP2 SWAP1 SWAP2 MSTORE POP POP POP SWAP2 MSTORE POP PUSH1 0x40 MLOAD PUSH1 0x1 PUSH1 0x1 PUSH1 0xE0 SHL SUB NOT PUSH1 0xE0 DUP5 SWAP1 SHL AND DUP2 MSTORE PUSH2 0x48A SWAP2 SWAP1 PUSH1 0x4 ADD PUSH2 0x2EDB JUMP JUMPDEST PUSH1 0x0 PUSH1 0x40 MLOAD DUP1 DUP4 SUB DUP2 PUSH1 0x0 DUP8 DUP1 EXTCODESIZE ISZERO DUP1 ISZERO PUSH2 0x4A4 JUMPI PUSH1 0x0 DUP1 REVERT JUMPDEST POP GAS CALL ISZERO DUP1 ISZERO PUSH2 0x4B8 JUMPI RETURNDATASIZE PUSH1 0x0 DUP1 RETURNDATACOPY RETURNDATASIZE PUSH1 0x0 REVERT JUMPDEST POP POP POP POP PUSH1 0x40 MLOAD RETURNDATASIZE PUSH1 0x0 DUP3 RETURNDATACOPY PUSH1 0x1F RETURNDATASIZE SWAP1 DUP2 ADD PUSH1 0x1F NOT AND DUP3 ADD PUSH1 0x40 MSTORE PUSH2 0x4E0 SWAP2 SWAP1 DUP2 ADD SWAP1 PUSH2 0x2EEE JUMP JUMPDEST SWAP2 POP JUMPDEST CALLER PUSH1 0x0 SWAP1 DUP2 MSTORE PUSH1 0x2 DUP3 ADD PUSH1 0x20 MSTORE PUSH1 0x40 DUP2 KECCAK256 DUP1 SLOAD DUP8 SWAP3 SWAP1 PUSH2 0x504 SWAP1 DUP5 SWAP1 PUSH2 0x2F71 JUMP JUMPDEST SWAP1 SWAP2 SSTORE POP POP CALLER PUSH1 0x0 SWAP1 DUP2 MSTORE PUSH1 0x3 DUP3 ADD PUSH1 0x20 MSTORE PUSH1 0x40 DUP2 KECCAK256 DUP1 SLOAD DUP7 SWAP3 SWAP1 PUSH2 0x52A SWAP1 DUP5 SWAP1 PUSH2 0x2F71 JUMP JUMPDEST SWAP1 SWAP2 SSTORE POP POP CALLER PUSH1 0x0 SWAP1 DUP2 MSTORE PUSH1 0x4 DUP3 ADD PUSH1 0x20 MSTORE PUSH1 0x40 DUP2 KECCAK256 DUP1 SLOAD DUP6 SWAP3 SWAP1 PUSH2 0x550 SWAP1 DUP5 SWAP1 PUSH2 0x2F71 JUMP JUMPDEST SWAP1 SWAP2 SSTORE POP CALLER SWAP1 POP PUSH1 0x20 DUP8 ADD CALLDATALOAD DUP8 CALLDATALOAD PUSH32 0x5E34E67B3E203229E29D54244B2C750F9038BC8D484CBCB7693AB665C35C962C PUSH2 0x58F PUSH1 0x60 DUP12 ADD PUSH1 0x40 DUP13 ADD PUSH2 0x2E2C JUMP JUMPDEST PUSH2 0x59F PUSH1 0x80 DUP13 ADD PUSH1 0x60 DUP14 ADD PUSH2 0x2E2C JUMP JUMPDEST PUSH1 0x40 DUP1 MLOAD PUSH1 0x1 PUSH1 0x1 PUSH1 0xA0 SHL SUB SWAP4 DUP5 AND DUP2 MSTORE SWAP3 SWAP1 SWAP2 AND PUSH1 0x20 DUP4 ADD MSTORE DUP2 ADD DUP11 SWAP1 MSTORE PUSH1 0x60 DUP2 ADD DUP10 SWAP1 MSTORE PUSH1 0x80 DUP2 ADD DUP9 SWAP1 MSTORE PUSH1 0xA0 ADD PUSH1 0x40 MLOAD DUP1 SWAP2 SUB SWAP1 LOG4 POP SWAP2 SWAP4 POP SWAP2 SWAP4 JUMP JUMPDEST PUSH1 0x0 DUP1 PUSH1 0x0 PUSH1 0x60 PUSH2 0x5EE PUSH2 0x17CE JUMP JUMPDEST DUP5 CALLDATALOAD PUSH1 0x0 SWAP1 DUP2 MSTORE PUSH1 0x2 PUSH1 0x20 SWAP1 DUP2 MSTORE PUSH1 0x40 DUP1 DUP4 KECCAK256 DUP3 DUP10 ADD CALLDATALOAD DUP5 MSTORE SWAP1 SWAP2 MSTORE SWAP1 KECCAK256 SLOAD PUSH1 0xFF AND PUSH2 0x623 JUMPI PUSH2 0x623 DUP6 CALLDATALOAD PUSH1 0x20 DUP8 ADD CALLDATALOAD PUSH2 0x1819 JUMP JUMPDEST PUSH2 0x635 PUSH2 0x62F DUP7 PUSH2 0x2F88 JUMP JUMPDEST TIMESTAMP PUSH2 0x1ABB JUMP JUMPDEST DUP5 CALLDATALOAD PUSH1 0x0 DUP2 DUP2 MSTORE PUSH1 0x20 DUP2 DUP2 MSTORE PUSH1 0x40 DUP1 DUP4 KECCAK256 DUP3 DUP11 ADD CALLDATALOAD DUP5 MSTORE SWAP1 SWAP2 MSTORE SWAP1 KECCAK256 SWAP1 PUSH2 0x673 SWAP1 PUSH2 0x666 PUSH1 0xA0 DUP10 ADD PUSH1 0x80 DUP11 ADD PUSH2 0x301E JUMP JUMPDEST DUP4 SWAP2 SWAP1 PUSH1 0xA0 DUP11 ADD CALLDATALOAD PUSH2 0x1B5E JUMP JUMPDEST SWAP2 SWAP7 POP SWAP5 POP SWAP3 POP PUSH2 0x689 PUSH1 0x1 DUP7 DUP7 PUSH1 0x0 DUP1 PUSH2 0x19B5 JUMP JUMPDEST DUP5 ISZERO PUSH2 0x6A2 JUMPI PUSH2 0x6A2 PUSH2 0x354 PUSH1 0x60 DUP9 ADD PUSH1 0x40 DUP10 ADD PUSH2 0x2E2C JUMP JUMPDEST DUP4 ISZERO PUSH2 0x6BB JUMPI PUSH2 0x6BB PUSH2 0x39E PUSH1 0x80 DUP9 ADD PUSH1 0x60 DUP10 ADD PUSH2 0x2E2C JUMP JUMPDEST PUSH2 0x6C8 PUSH1 0xC0 DUP8 ADD DUP8 PUSH2 0x2E47 JUMP JUMPDEST ISZERO SWAP1 POP PUSH2 0x7CF JUMPI CALLER PUSH1 0x1 PUSH1 0x1 PUSH1 0xA0 SHL SUB AND PUSH4 0xDC6FDDCF PUSH1 0x40 MLOAD DUP1 PUSH1 0xC0 ADD PUSH1 0x40 MSTORE DUP1 DUP10 PUSH1 0x0 ADD CALLDATALOAD DUP2 MSTORE PUSH1 0x20 ADD DUP10 PUSH1 0x20 ADD CALLDATALOAD DUP2 MSTORE PUSH1 0x20 ADD DUP9 DUP2 MSTORE PUSH1 0x20 ADD DUP8 DUP2 MSTORE PUSH1 0x20 ADD DUP7 DUP2 MSTORE PUSH1 0x20 ADD DUP10 DUP1 PUSH1 0xC0 ADD SWAP1 PUSH2 0x71F SWAP2 SWAP1 PUSH2 0x2E47 JUMP JUMPDEST DUP1 DUP1 PUSH1 0x1F ADD PUSH1 0x20 DUP1 SWAP2 DIV MUL PUSH1 0x20 ADD PUSH1 0x40 MLOAD SWAP1 DUP2 ADD PUSH1 0x40 MSTORE DUP1 SWAP4 SWAP3 SWAP2 SWAP1 DUP2 DUP2 MSTORE PUSH1 0x20 ADD DUP4 DUP4 DUP1 DUP3 DUP5 CALLDATACOPY PUSH1 0x0 SWAP3 ADD SWAP2 SWAP1 SWAP2 MSTORE POP POP POP SWAP2 MSTORE POP PUSH1 0x40 MLOAD PUSH1 0x1 PUSH1 0x1 PUSH1 0xE0 SHL SUB NOT PUSH1 0xE0 DUP5 SWAP1 SHL AND DUP2 MSTORE PUSH2 0x776 SWAP2 SWAP1 PUSH1 0x4 ADD PUSH2 0x2EDB JUMP JUMPDEST PUSH1 0x0 PUSH1 0x40 MLOAD DUP1 DUP4 SUB DUP2 PUSH1 0x0 DUP8 DUP1 EXTCODESIZE ISZERO DUP1 ISZERO PUSH2 0x790 JUMPI PUSH1 0x0 DUP1 REVERT JUMPDEST POP GAS CALL ISZERO DUP1 ISZERO PUSH2 0x7A4 JUMPI RETURNDATASIZE PUSH1 0x0 DUP1 RETURNDATACOPY RETURNDATASIZE PUSH1 0x0 REVERT JUMPDEST POP POP POP POP PUSH1 0x40 MLOAD RETURNDATASIZE PUSH1 0x0 DUP3 RETURNDATACOPY PUSH1 0x1F RETURNDATASIZE SWAP1 DUP2 ADD PUSH1 0x1F NOT AND DUP3 ADD PUSH1 0x40 MSTORE PUSH2 0x7CC SWAP2 SWAP1 DUP2 ADD SWAP1 PUSH2 0x2EEE JUMP JUMPDEST SWAP2 POP JUMPDEST CALLER PUSH1 0x0 SWAP1 DUP2 MSTORE PUSH1 0x4 DUP3 ADD PUSH1 0x20 MSTORE PUSH1 0x40 DUP2 KECCAK256 DUP1 SLOAD DUP6 SWAP3 SWAP1 PUSH2 0x7F0 SWAP1 DUP5 SWAP1 PUSH2 0x2F71 JUMP JUMPDEST SWAP1 SWAP2 SSTORE POP CALLER SWAP1 POP PUSH1 0x20 DUP8 ADD CALLDATALOAD DUP8 CALLDATALOAD PUSH32 0xA9321C5C860B13F184D4B6BC6793BEDE025EF1A51E4C3527D0733F225DF69DB6 PUSH2 0x58F PUSH1 0x60 DUP12 ADD PUSH1 0x40 DUP13 ADD PUSH2 0x2E2C JUMP JUMPDEST PUSH1 0x0 DUP1 PUSH1 0x0 PUSH1 0x60 PUSH2 0x83E PUSH2 0x17CE JUMP JUMPDEST PUSH2 0x850 PUSH2 0x84A DUP7 PUSH2 0x303B JUMP JUMPDEST TIMESTAMP PUSH2 0x1C90 JUMP JUMPDEST PUSH2 0x85F DUP6 CALLDATALOAD PUSH1 0x20 DUP8 ADD CALLDATALOAD PUSH2 0x1D59 JUMP JUMPDEST DUP5 CALLDATALOAD PUSH1 0x0 DUP2 DUP2 MSTORE PUSH1 0x20 DUP2 DUP2 MSTORE PUSH1 0x40 DUP1 DUP4 KECCAK256 DUP3 DUP11 ADD CALLDATALOAD DUP5 MSTORE SWAP1 SWAP2 MSTORE SWAP1 DUP2 SWAP1 KECCAK256 SWAP2 PUSH2 0x8D7 SWAP2 PUSH2 0x892 SWAP1 PUSH1 0x60 DUP11 ADD SWAP1 DUP11 ADD PUSH2 0x2E2C JUMP JUMPDEST PUSH2 0x8A2 PUSH1 0x80 DUP11 ADD PUSH1 0x60 DUP12 ADD PUSH2 0x2E2C JUMP JUMPDEST PUSH2 0x8B2 PUSH1 0xA0 DUP12 ADD PUSH1 0x80 DUP13 ADD PUSH2 0x2E2C JUMP JUMPDEST PUSH2 0x8C2 PUSH1 0xC0 DUP13 ADD PUSH1 0xA0 DUP14 ADD PUSH2 0x2E0F JUMP JUMPDEST DUP7 SWAP5 SWAP4 SWAP3 SWAP2 SWAP1 PUSH1 0xC0 DUP14 ADD CALLDATALOAD PUSH1 0xE0 DUP15 ADD CALLDATALOAD PUSH2 0x1E11 JUMP JUMPDEST SWAP2 SWAP7 POP SWAP5 POP SWAP3 POP PUSH2 0x8EC PUSH1 0x1 DUP7 DUP7 DUP3 DUP1 PUSH2 0x19B5 JUMP JUMPDEST PUSH1 0x40 DUP1 MLOAD PUSH1 0x80 DUP2 ADD DUP3 MSTORE DUP8 CALLDATALOAD DUP2 MSTORE PUSH1 0x20 DUP1 DUP10 ADD CALLDATALOAD SWAP1 DUP3 ADD MSTORE DUP2 MLOAD PUSH4 0x70A08231 PUSH1 0xE0 SHL DUP2 MSTORE ADDRESS PUSH1 0x4 DUP3 ADD MSTORE PUSH1 0x0 SWAP3 DUP3 ADD SWAP1 DUP9 SWAP1 PUSH1 0x1 PUSH1 0x1 PUSH1 0xA0 SHL SUB PUSH32 0x0 AND SWAP1 PUSH4 0x70A08231 SWAP1 PUSH1 0x24 ADD PUSH1 0x20 PUSH1 0x40 MLOAD DUP1 DUP4 SUB DUP2 DUP7 DUP1 EXTCODESIZE ISZERO DUP1 ISZERO PUSH2 0x96A JUMPI PUSH1 0x0 DUP1 REVERT JUMPDEST POP GAS STATICCALL ISZERO DUP1 ISZERO PUSH2 0x97E JUMPI RETURNDATASIZE PUSH1 0x0 DUP1 RETURNDATACOPY RETURNDATASIZE PUSH1 0x0 REVERT JUMPDEST POP POP POP POP PUSH1 0x40 MLOAD RETURNDATASIZE PUSH1 0x1F NOT PUSH1 0x1F DUP3 ADD AND DUP3 ADD DUP1 PUSH1 0x40 MSTORE POP DUP2 ADD SWAP1 PUSH2 0x9A2 SWAP2 SWAP1 PUSH2 0x30F1 JUMP JUMPDEST PUSH2 0x9AC SWAP2 SWAP1 PUSH2 0x310A JUMP JUMPDEST DUP2 MSTORE PUSH1 0x40 MLOAD PUSH4 0x70A08231 PUSH1 0xE0 SHL DUP2 MSTORE ADDRESS PUSH1 0x4 DUP3 ADD MSTORE PUSH1 0x20 SWAP1 SWAP2 ADD SWAP1 DUP8 SWAP1 PUSH1 0x1 PUSH1 0x1 PUSH1 0xA0 SHL SUB PUSH32 0x0 AND SWAP1 PUSH4 0x70A08231 SWAP1 PUSH1 0x24 ADD PUSH1 0x20 PUSH1 0x40 MLOAD DUP1 DUP4 SUB DUP2 DUP7 DUP1 EXTCODESIZE ISZERO DUP1 ISZERO PUSH2 0xA15 JUMPI PUSH1 0x0 DUP1 REVERT JUMPDEST POP GAS STATICCALL ISZERO DUP1 ISZERO PUSH2 0xA29 JUMPI RETURNDATASIZE PUSH1 0x0 DUP1 RETURNDATACOPY RETURNDATASIZE PUSH1 0x0 REVERT JUMPDEST POP POP POP POP PUSH1 0x40 MLOAD RETURNDATASIZE PUSH1 0x1F NOT PUSH1 0x1F DUP3 ADD AND DUP3 ADD DUP1 PUSH1 0x40 MSTORE POP DUP2 ADD SWAP1 PUSH2 0xA4D SWAP2 SWAP1 PUSH2 0x30F1 JUMP JUMPDEST PUSH2 0xA57 SWAP2 SWAP1 PUSH2 0x310A JUMP JUMPDEST SWAP1 MSTORE PUSH1 0x1 DUP1 SLOAD DUP1 DUP3 ADD DUP3 SSTORE PUSH1 0x0 SWAP2 SWAP1 SWAP2 MSTORE DUP2 MLOAD PUSH1 0x4 SWAP1 SWAP2 MUL PUSH32 0xB10E2D527612073B26EECDFD717E6A320CF44B4AFAC2B0732D9FCBE2B7FA0CF6 DUP2 ADD SWAP2 DUP3 SSTORE PUSH1 0x20 DUP4 DUP2 ADD MLOAD PUSH32 0xB10E2D527612073B26EECDFD717E6A320CF44B4AFAC2B0732D9FCBE2B7FA0CF7 DUP4 ADD SSTORE PUSH1 0x40 DUP1 DUP6 ADD MLOAD PUSH32 0xB10E2D527612073B26EECDFD717E6A320CF44B4AFAC2B0732D9FCBE2B7FA0CF8 DUP5 ADD SSTORE PUSH1 0x60 SWAP5 DUP6 ADD MLOAD PUSH32 0xB10E2D527612073B26EECDFD717E6A320CF44B4AFAC2B0732D9FCBE2B7FA0CF9 SWAP1 SWAP4 ADD SWAP3 SWAP1 SWAP3 SSTORE DUP2 MLOAD PUSH1 0xC0 DUP2 ADD DUP4 MSTORE DUP12 CALLDATALOAD DUP2 MSTORE DUP12 DUP3 ADD CALLDATALOAD SWAP2 DUP2 ADD SWAP2 SWAP1 SWAP2 MSTORE SWAP1 DUP2 ADD DUP10 SWAP1 MSTORE SWAP2 DUP3 ADD DUP8 SWAP1 MSTORE PUSH1 0x80 DUP3 ADD DUP7 SWAP1 MSTORE SWAP2 POP CALLER SWAP1 PUSH4 0x4A358D65 SWAP1 PUSH1 0xA0 DUP2 ADD PUSH2 0xB5D PUSH2 0x100 DUP13 ADD DUP13 PUSH2 0x2E47 JUMP JUMPDEST DUP1 DUP1 PUSH1 0x1F ADD PUSH1 0x20 DUP1 SWAP2 DIV MUL PUSH1 0x20 ADD PUSH1 0x40 MLOAD SWAP1 DUP2 ADD PUSH1 0x40 MSTORE DUP1 SWAP4 SWAP3 SWAP2 SWAP1 DUP2 DUP2 MSTORE PUSH1 0x20 ADD DUP4 DUP4 DUP1 DUP3 DUP5 CALLDATACOPY PUSH1 0x0 SWAP3 ADD SWAP2 SWAP1 SWAP2 MSTORE POP POP POP SWAP2 MSTORE POP PUSH1 0x40 MLOAD PUSH1 0x1 PUSH1 0x1 PUSH1 0xE0 SHL SUB NOT PUSH1 0xE0 DUP5 SWAP1 SHL AND DUP2 MSTORE PUSH2 0xBB4 SWAP2 SWAP1 PUSH1 0x4 ADD PUSH2 0x2EDB JUMP JUMPDEST PUSH1 0x0 PUSH1 0x40 MLOAD DUP1 DUP4 SUB DUP2 PUSH1 0x0 DUP8 DUP1 EXTCODESIZE ISZERO DUP1 ISZERO PUSH2 0xBCE JUMPI PUSH1 0x0 DUP1 REVERT JUMPDEST POP GAS CALL ISZERO DUP1 ISZERO PUSH2 0xBE2 JUMPI RETURNDATASIZE PUSH1 0x0 DUP1 RETURNDATACOPY RETURNDATASIZE PUSH1 0x0 REVERT JUMPDEST POP POP POP POP PUSH1 0x40 MLOAD RETURNDATASIZE PUSH1 0x0 DUP3 RETURNDATACOPY PUSH1 0x1F RETURNDATASIZE SWAP1 DUP2 ADD PUSH1 0x1F NOT AND DUP3 ADD PUSH1 0x40 MSTORE PUSH2 0xC0A SWAP2 SWAP1 DUP2 ADD SWAP1 PUSH2 0x2EEE JUMP JUMPDEST SWAP3 POP DUP6 ISZERO PUSH2 0xCB7 JUMPI PUSH1 0x40 MLOAD PUSH4 0x70A08231 PUSH1 0xE0 SHL DUP2 MSTORE ADDRESS PUSH1 0x4 DUP3 ADD MSTORE PUSH2 0xCB7 SWAP1 PUSH32 0x0 PUSH1 0x1 PUSH1 0x1 PUSH1 0xA0 SHL SUB AND SWAP1 PUSH4 0x70A08231 SWAP1 PUSH1 0x24 ADD PUSH1 0x20 PUSH1 0x40 MLOAD DUP1 DUP4 SUB DUP2 DUP7 DUP1 EXTCODESIZE ISZERO DUP1 ISZERO PUSH2 0xC75 JUMPI PUSH1 0x0 DUP1 REVERT JUMPDEST POP GAS STATICCALL ISZERO DUP1 ISZERO PUSH2 0xC89 JUMPI RETURNDATASIZE PUSH1 0x0 DUP1 RETURNDATACOPY RETURNDATASIZE PUSH1 0x0 REVERT JUMPDEST POP POP POP POP PUSH1 0x40 MLOAD RETURNDATASIZE PUSH1 0x1F NOT PUSH1 0x1F DUP3 ADD AND DUP3 ADD DUP1 PUSH1 0x40 MSTORE POP DUP2 ADD SWAP1 PUSH2 0xCAD SWAP2 SWAP1 PUSH2 0x30F1 JUMP JUMPDEST DUP3 PUSH1 0x2 ADD SLOAD PUSH2 0x1F7E JUMP JUMPDEST DUP5 ISZERO PUSH2 0xD62 JUMPI PUSH1 0x40 MLOAD PUSH4 0x70A08231 PUSH1 0xE0 SHL DUP2 MSTORE ADDRESS PUSH1 0x4 DUP3 ADD MSTORE PUSH2 0xD62 SWAP1 PUSH32 0x0 PUSH1 0x1 PUSH1 0x1 PUSH1 0xA0 SHL SUB AND SWAP1 PUSH4 0x70A08231 SWAP1 PUSH1 0x24 ADD PUSH1 0x20 PUSH1 0x40 MLOAD DUP1 DUP4 SUB DUP2 DUP7 DUP1 EXTCODESIZE ISZERO DUP1 ISZERO PUSH2 0xD20 JUMPI PUSH1 0x0 DUP1 REVERT JUMPDEST POP GAS STATICCALL ISZERO DUP1 ISZERO PUSH2 0xD34 JUMPI RETURNDATASIZE PUSH1 0x0 DUP1 RETURNDATACOPY RETURNDATASIZE PUSH1 0x0 REVERT JUMPDEST POP POP POP POP PUSH1 0x40 MLOAD RETURNDATASIZE PUSH1 0x1F NOT PUSH1 0x1F DUP3 ADD AND DUP3 ADD DUP1 PUSH1 0x40 MSTORE POP DUP2 ADD SWAP1 PUSH2 0xD58 SWAP2 SWAP1 PUSH2 0x30F1 JUMP JUMPDEST DUP3 PUSH1 0x3 ADD SLOAD PUSH2 0x1F7E JUMP JUMPDEST PUSH1 0x1 DUP1 SLOAD DUP1 PUSH2 0xD73 JUMPI PUSH2 0xD73 PUSH2 0x3122 JUMP JUMPDEST PUSH1 0x0 DUP3 DUP2 MSTORE PUSH1 0x20 DUP1 DUP3 KECCAK256 PUSH1 0x4 PUSH1 0x0 NOT SWAP1 SWAP5 ADD SWAP4 DUP5 MUL ADD DUP3 DUP2 SSTORE PUSH1 0x1 DUP2 ADD DUP4 SWAP1 SSTORE PUSH1 0x2 DUP2 ADD DUP4 SWAP1 SSTORE PUSH1 0x3 ADD SWAP2 SWAP1 SWAP2 SSTORE SWAP2 SSTORE CALLER SWAP1 DUP9 ADD CALLDATALOAD DUP9 CALLDATALOAD PUSH32 0x991839FBC46F2E3816B51C806BEE50F76EE23053C1B131A9FBF07FC2D6DF8AA PUSH2 0xDDB PUSH1 0x60 DUP13 ADD PUSH1 0x40 DUP14 ADD PUSH2 0x2E2C JUMP JUMPDEST PUSH2 0xDEB PUSH1 0x80 DUP14 ADD PUSH1 0x60 DUP15 ADD PUSH2 0x2E2C JUMP JUMPDEST PUSH2 0xDFB PUSH1 0xA0 DUP15 ADD PUSH1 0x80 DUP16 ADD PUSH2 0x2E2C JUMP JUMPDEST PUSH1 0x40 DUP1 MLOAD PUSH1 0x1 PUSH1 0x1 PUSH1 0xA0 SHL SUB SWAP5 DUP6 AND DUP2 MSTORE SWAP3 DUP5 AND PUSH1 0x20 DUP5 ADD MSTORE SWAP3 AND DUP2 DUP4 ADD MSTORE PUSH1 0x60 DUP2 ADD DUP13 SWAP1 MSTORE PUSH1 0x80 DUP2 ADD DUP12 SWAP1 MSTORE PUSH1 0xA0 DUP2 ADD DUP11 SWAP1 MSTORE SWAP1 MLOAD SWAP1 DUP2 SWAP1 SUB PUSH1 0xC0 ADD SWAP1 LOG4 POP POP SWAP2 SWAP4 POP SWAP2 SWAP4 JUMP JUMPDEST PUSH1 0x0 DUP5 DUP2 MSTORE PUSH1 0x20 DUP2 DUP2 MSTORE PUSH1 0x40 DUP1 DUP4 KECCAK256 DUP7 DUP5 MSTORE SWAP1 SWAP2 MSTORE DUP2 KECCAK256 PUSH2 0xE65 SWAP1 DUP5 DUP5 PUSH2 0x1FA9 JUMP JUMPDEST SWAP1 POP JUMPDEST SWAP5 SWAP4 POP POP POP POP JUMP JUMPDEST PUSH1 0x0 DUP1 PUSH1 0x60 PUSH2 0xE7D PUSH2 0x17CE JUMP JUMPDEST DUP4 CALLDATALOAD PUSH1 0x0 SWAP1 DUP2 MSTORE PUSH1 0x2 PUSH1 0x20 SWAP1 DUP2 MSTORE PUSH1 0x40 DUP1 DUP4 KECCAK256 DUP3 DUP9 ADD CALLDATALOAD DUP5 MSTORE SWAP1 SWAP2 MSTORE SWAP1 KECCAK256 SLOAD PUSH1 0xFF AND PUSH2 0xEB2 JUMPI PUSH2 0xEB2 DUP5 CALLDATALOAD PUSH1 0x20 DUP7 ADD CALLDATALOAD PUSH2 0x1819 JUMP JUMPDEST PUSH2 0xEC4 PUSH2 0xEBE DUP6 PUSH2 0x3151 JUMP JUMPDEST TIMESTAMP PUSH2 0x205B JUMP JUMPDEST DUP4 CALLDATALOAD PUSH1 0x0 DUP2 DUP2 MSTORE PUSH1 0x20 DUP2 DUP2 MSTORE PUSH1 0x40 DUP1 DUP4 KECCAK256 DUP3 DUP10 ADD CALLDATALOAD DUP5 MSTORE SWAP1 SWAP2 MSTORE SWAP1 KECCAK256 SWAP1 PUSH2 0xF24 SWAP1 PUSH2 0xEF5 PUSH1 0x80 DUP9 ADD PUSH1 0x60 DUP10 ADD PUSH2 0x2E2C JUMP JUMPDEST PUSH2 0xF05 PUSH1 0xA0 DUP10 ADD PUSH1 0x80 DUP11 ADD PUSH2 0x31E1 JUMP JUMPDEST PUSH2 0xF15 PUSH1 0xC0 DUP11 ADD PUSH1 0xA0 DUP12 ADD PUSH2 0x2E0F JUMP JUMPDEST DUP6 SWAP4 SWAP3 SWAP2 SWAP1 PUSH1 0xC0 DUP12 ADD CALLDATALOAD PUSH2 0x20FD JUMP JUMPDEST SWAP1 SWAP5 POP SWAP3 POP PUSH2 0xF5A DUP5 DUP5 PUSH2 0xF3E PUSH1 0xA0 DUP10 ADD PUSH1 0x80 DUP11 ADD PUSH2 0x31E1 JUMP JUMPDEST ISZERO PUSH2 0xF4F PUSH1 0xA0 DUP11 ADD PUSH1 0x80 DUP12 ADD PUSH2 0x31E1 JUMP JUMPDEST PUSH1 0x1 SWAP4 SWAP3 SWAP2 SWAP1 PUSH2 0x19B5 JUMP JUMPDEST PUSH1 0x0 PUSH1 0x40 MLOAD DUP1 PUSH1 0x80 ADD PUSH1 0x40 MSTORE DUP1 DUP8 PUSH1 0x0 ADD CALLDATALOAD DUP2 MSTORE PUSH1 0x20 ADD DUP8 PUSH1 0x20 ADD CALLDATALOAD DUP2 MSTORE PUSH1 0x20 ADD DUP8 PUSH1 0x80 ADD PUSH1 0x20 DUP2 ADD SWAP1 PUSH2 0xF8E SWAP2 SWAP1 PUSH2 0x31E1 JUMP JUMPDEST PUSH2 0x103A JUMPI PUSH1 0x40 MLOAD PUSH4 0x70A08231 PUSH1 0xE0 SHL DUP2 MSTORE ADDRESS PUSH1 0x4 DUP3 ADD MSTORE DUP8 SWAP1 PUSH32 0x0 PUSH1 0x1 PUSH1 0x1 PUSH1 0xA0 SHL SUB AND SWAP1 PUSH4 0x70A08231 SWAP1 PUSH1 0x24 ADD PUSH1 0x20 PUSH1 0x40 MLOAD DUP1 DUP4 SUB DUP2 DUP7 DUP1 EXTCODESIZE ISZERO DUP1 ISZERO PUSH2 0xFF3 JUMPI PUSH1 0x0 DUP1 REVERT JUMPDEST POP GAS STATICCALL ISZERO DUP1 ISZERO PUSH2 0x1007 JUMPI RETURNDATASIZE PUSH1 0x0 DUP1 RETURNDATACOPY RETURNDATASIZE PUSH1 0x0 REVERT JUMPDEST POP POP POP POP PUSH1 0x40 MLOAD RETURNDATASIZE PUSH1 0x1F NOT PUSH1 0x1F DUP3 ADD AND DUP3 ADD DUP1 PUSH1 0x40 MSTORE POP DUP2 ADD SWAP1 PUSH2 0x102B SWAP2 SWAP1 PUSH2 0x30F1 JUMP JUMPDEST PUSH2 0x1035 SWAP2 SWAP1 PUSH2 0x310A JUMP JUMPDEST PUSH2 0x10DD JUMP JUMPDEST PUSH1 0x40 MLOAD PUSH4 0x70A08231 PUSH1 0xE0 SHL DUP2 MSTORE ADDRESS PUSH1 0x4 DUP3 ADD MSTORE DUP8 SWAP1 PUSH32 0x0 PUSH1 0x1 PUSH1 0x1 PUSH1 0xA0 SHL SUB AND SWAP1 PUSH4 0x70A08231 SWAP1 PUSH1 0x24 ADD PUSH1 0x20 PUSH1 0x40 MLOAD DUP1 DUP4 SUB DUP2 DUP7 DUP1 EXTCODESIZE ISZERO DUP1 ISZERO PUSH2 0x109B JUMPI PUSH1 0x0 DUP1 REVERT JUMPDEST POP GAS STATICCALL ISZERO DUP1 ISZERO PUSH2 0x10AF JUMPI RETURNDATASIZE PUSH1 0x0 DUP1 RETURNDATACOPY RETURNDATASIZE PUSH1 0x0 REVERT JUMPDEST POP POP POP POP PUSH1 0x40 MLOAD RETURNDATASIZE PUSH1 0x1F NOT PUSH1 0x1F DUP3 ADD AND DUP3 ADD DUP1 PUSH1 0x40 MSTORE POP DUP2 ADD SWAP1 PUSH2 0x10D3 SWAP2 SWAP1 PUSH2 0x30F1 JUMP JUMPDEST PUSH2 0x10DD SWAP2 SWAP1 PUSH2 0x2F71 JUMP JUMPDEST DUP2 MSTORE PUSH1 0x20 ADD PUSH2 0x10F2 PUSH1 0xA0 DUP10 ADD PUSH1 0x80 DUP11 ADD PUSH2 0x31E1 JUMP JUMPDEST PUSH2 0x119E JUMPI PUSH1 0x40 MLOAD PUSH4 0x70A08231 PUSH1 0xE0 SHL DUP2 MSTORE ADDRESS PUSH1 0x4 DUP3 ADD MSTORE DUP7 SWAP1 PUSH32 0x0 PUSH1 0x1 PUSH1 0x1 PUSH1 0xA0 SHL SUB AND SWAP1 PUSH4 0x70A08231 SWAP1 PUSH1 0x24 ADD PUSH1 0x20 PUSH1 0x40 MLOAD DUP1 DUP4 SUB DUP2 DUP7 DUP1 EXTCODESIZE ISZERO DUP1 ISZERO PUSH2 0x1157 JUMPI PUSH1 0x0 DUP1 REVERT JUMPDEST POP GAS STATICCALL ISZERO DUP1 ISZERO PUSH2 0x116B JUMPI RETURNDATASIZE PUSH1 0x0 DUP1 RETURNDATACOPY RETURNDATASIZE PUSH1 0x0 REVERT JUMPDEST POP POP POP POP PUSH1 0x40 MLOAD RETURNDATASIZE PUSH1 0x1F NOT PUSH1 0x1F DUP3 ADD AND DUP3 ADD DUP1 PUSH1 0x40 MSTORE POP DUP2 ADD SWAP1 PUSH2 0x118F SWAP2 SWAP1 PUSH2 0x30F1 JUMP JUMPDEST PUSH2 0x1199 SWAP2 SWAP1 PUSH2 0x2F71 JUMP JUMPDEST PUSH2 0x1241 JUMP JUMPDEST PUSH1 0x40 MLOAD PUSH4 0x70A08231 PUSH1 0xE0 SHL DUP2 MSTORE ADDRESS PUSH1 0x4 DUP3 ADD MSTORE DUP7 SWAP1 PUSH32 0x0 PUSH1 0x1 PUSH1 0x1 PUSH1 0xA0 SHL SUB AND SWAP1 PUSH4 0x70A08231 SWAP1 PUSH1 0x24 ADD PUSH1 0x20 PUSH1 0x40 MLOAD DUP1 DUP4 SUB DUP2 DUP7 DUP1 EXTCODESIZE ISZERO DUP1 ISZERO PUSH2 0x11FF JUMPI PUSH1 0x0 DUP1 REVERT JUMPDEST POP GAS STATICCALL ISZERO DUP1 ISZERO PUSH2 0x1213 JUMPI RETURNDATASIZE PUSH1 0x0 DUP1 RETURNDATACOPY RETURNDATASIZE PUSH1 0x0 REVERT JUMPDEST POP POP POP POP PUSH1 0x40 MLOAD RETURNDATASIZE PUSH1 0x1F NOT PUSH1 0x1F DUP3 ADD AND DUP3 ADD DUP1 PUSH1 0x40 MSTORE POP DUP2 ADD SWAP1 PUSH2 0x1237 SWAP2 SWAP1 PUSH2 0x30F1 JUMP JUMPDEST PUSH2 0x1241 SWAP2 SWAP1 PUSH2 0x310A JUMP JUMPDEST SWAP1 MSTORE PUSH1 0x1 DUP1 SLOAD DUP1 DUP3 ADD DUP3 SSTORE PUSH1 0x0 SWAP2 SWAP1 SWAP2 MSTORE DUP2 MLOAD PUSH1 0x4 SWAP1 SWAP2 MUL PUSH32 0xB10E2D527612073B26EECDFD717E6A320CF44B4AFAC2B0732D9FCBE2B7FA0CF6 DUP2 ADD SWAP2 DUP3 SSTORE PUSH1 0x20 DUP4 ADD MLOAD PUSH32 0xB10E2D527612073B26EECDFD717E6A320CF44B4AFAC2B0732D9FCBE2B7FA0CF7 DUP3 ADD SSTORE PUSH1 0x40 DUP1 DUP5 ADD MLOAD PUSH32 0xB10E2D527612073B26EECDFD717E6A320CF44B4AFAC2B0732D9FCBE2B7FA0CF8 DUP4 ADD SSTORE PUSH1 0x60 SWAP4 DUP5 ADD MLOAD PUSH32 0xB10E2D527612073B26EECDFD717E6A320CF44B4AFAC2B0732D9FCBE2B7FA0CF9 SWAP1 SWAP3 ADD SWAP2 SWAP1 SWAP2 SSTORE SWAP1 SWAP3 POP PUSH2 0x139E SWAP2 PUSH2 0x1316 SWAP2 SWAP1 DUP10 ADD SWAP1 DUP10 ADD PUSH2 0x2E2C JUMP JUMPDEST PUSH2 0x1326 PUSH1 0xA0 DUP10 ADD PUSH1 0x80 DUP11 ADD PUSH2 0x31E1 JUMP JUMPDEST PUSH2 0x1330 JUMPI DUP6 PUSH2 0x1332 JUMP JUMPDEST DUP7 JUMPDEST PUSH2 0x1342 PUSH1 0xA0 DUP11 ADD PUSH1 0x80 DUP12 ADD PUSH2 0x31E1 JUMP JUMPDEST PUSH2 0x136C JUMPI PUSH32 0x0 PUSH2 0x138E JUMP JUMPDEST PUSH32 0x0 JUMPDEST PUSH1 0x1 PUSH1 0x1 PUSH1 0xA0 SHL SUB AND SWAP2 SWAP1 PUSH2 0x1A64 JUMP JUMPDEST PUSH1 0x40 DUP1 MLOAD PUSH1 0xC0 DUP2 ADD DUP3 MSTORE DUP8 CALLDATALOAD DUP2 MSTORE PUSH1 0x20 DUP1 DUP10 ADD CALLDATALOAD SWAP1 DUP3 ADD MSTORE CALLER SWAP2 PUSH4 0xDC4A4847 SWAP2 SWAP1 DUP2 ADD PUSH2 0x13D1 PUSH1 0xA0 DUP12 ADD PUSH1 0x80 DUP13 ADD PUSH2 0x31E1 JUMP JUMPDEST ISZERO ISZERO DUP2 MSTORE PUSH1 0x20 DUP2 ADD DUP10 SWAP1 MSTORE PUSH1 0x40 DUP2 ADD DUP9 SWAP1 MSTORE PUSH1 0x60 ADD PUSH2 0x13F3 PUSH1 0xE0 DUP12 ADD DUP12 PUSH2 0x2E47 JUMP JUMPDEST DUP1 DUP1 PUSH1 0x1F ADD PUSH1 0x20 DUP1 SWAP2 DIV MUL PUSH1 0x20 ADD PUSH1 0x40 MLOAD SWAP1 DUP2 ADD PUSH1 0x40 MSTORE DUP1 SWAP4 SWAP3 SWAP2 SWAP1 DUP2 DUP2 MSTORE PUSH1 0x20 ADD DUP4 DUP4 DUP1 DUP3 DUP5 CALLDATACOPY PUSH1 0x0 SWAP3 ADD SWAP2 SWAP1 SWAP2 MSTORE POP POP POP SWAP2 MSTORE POP PUSH1 0x40 MLOAD PUSH1 0x1 PUSH1 0x1 PUSH1 0xE0 SHL SUB NOT PUSH1 0xE0 DUP5 SWAP1 SHL AND DUP2 MSTORE PUSH2 0x144A SWAP2 SWAP1 PUSH1 0x4 ADD PUSH2 0x31FE JUMP JUMPDEST PUSH1 0x0 PUSH1 0x40 MLOAD DUP1 DUP4 SUB DUP2 PUSH1 0x0 DUP8 DUP1 EXTCODESIZE ISZERO DUP1 ISZERO PUSH2 0x1464 JUMPI PUSH1 0x0 DUP1 REVERT JUMPDEST POP GAS CALL ISZERO DUP1 ISZERO PUSH2 0x1478 JUMPI RETURNDATASIZE PUSH1 0x0 DUP1 RETURNDATACOPY RETURNDATASIZE PUSH1 0x0 REVERT JUMPDEST POP POP POP POP PUSH1 0x40 MLOAD RETURNDATASIZE PUSH1 0x0 DUP3 RETURNDATACOPY PUSH1 0x1F RETURNDATASIZE SWAP1 DUP2 ADD PUSH1 0x1F NOT AND DUP3 ADD PUSH1 0x40 MSTORE PUSH2 0x14A0 SWAP2 SWAP1 DUP2 ADD SWAP1 PUSH2 0x2EEE JUMP JUMPDEST SWAP3 POP PUSH2 0x1598 PUSH2 0x14B5 PUSH1 0xA0 DUP9 ADD PUSH1 0x80 DUP10 ADD PUSH2 0x31E1 JUMP JUMPDEST PUSH2 0x14DF JUMPI PUSH32 0x0 PUSH2 0x1501 JUMP JUMPDEST PUSH32 0x0 JUMPDEST PUSH1 0x40 MLOAD PUSH4 0x70A08231 PUSH1 0xE0 SHL DUP2 MSTORE ADDRESS PUSH1 0x4 DUP3 ADD MSTORE PUSH1 0x1 PUSH1 0x1 PUSH1 0xA0 SHL SUB SWAP2 SWAP1 SWAP2 AND SWAP1 PUSH4 0x70A08231 SWAP1 PUSH1 0x24 ADD PUSH1 0x20 PUSH1 0x40 MLOAD DUP1 DUP4 SUB DUP2 DUP7 DUP1 EXTCODESIZE ISZERO DUP1 ISZERO PUSH2 0x1542 JUMPI PUSH1 0x0 DUP1 REVERT JUMPDEST POP GAS STATICCALL ISZERO DUP1 ISZERO PUSH2 0x1556 JUMPI RETURNDATASIZE PUSH1 0x0 DUP1 RETURNDATACOPY RETURNDATASIZE PUSH1 0x0 REVERT JUMPDEST POP POP POP POP PUSH1 0x40 MLOAD RETURNDATASIZE PUSH1 0x1F NOT PUSH1 0x1F DUP3 ADD AND DUP3 ADD DUP1 PUSH1 0x40 MSTORE POP DUP2 ADD SWAP1 PUSH2 0x157A SWAP2 SWAP1 PUSH2 0x30F1 JUMP JUMPDEST PUSH2 0x158A PUSH1 0xA0 DUP10 ADD PUSH1 0x80 DUP11 ADD PUSH2 0x31E1 JUMP JUMPDEST PUSH2 0xD58 JUMPI DUP3 PUSH1 0x2 ADD SLOAD PUSH2 0x1F7E JUMP JUMPDEST PUSH2 0x15A8 PUSH1 0xA0 DUP8 ADD PUSH1 0x80 DUP9 ADD PUSH2 0x31E1 JUMP JUMPDEST ISZERO PUSH2 0x15D9 JUMPI CALLER PUSH1 0x0 SWAP1 DUP2 MSTORE PUSH1 0x2 DUP4 ADD PUSH1 0x20 MSTORE PUSH1 0x40 DUP2 KECCAK256 DUP1 SLOAD DUP8 SWAP3 SWAP1 PUSH2 0x15CE SWAP1 DUP5 SWAP1 PUSH2 0x2F71 JUMP JUMPDEST SWAP1 SWAP2 SSTORE POP PUSH2 0x1600 SWAP1 POP JUMP JUMPDEST CALLER PUSH1 0x0 SWAP1 DUP2 MSTORE PUSH1 0x3 DUP4 ADD PUSH1 0x20 MSTORE PUSH1 0x40 DUP2 KECCAK256 DUP1 SLOAD DUP7 SWAP3 SWAP1 PUSH2 0x15FA SWAP1 DUP5 SWAP1 PUSH2 0x2F71 JUMP JUMPDEST SWAP1 SWAP2 SSTORE POP POP JUMPDEST PUSH1 0x1 DUP1 SLOAD DUP1 PUSH2 0x1611 JUMPI PUSH2 0x1611 PUSH2 0x3122 JUMP JUMPDEST PUSH1 0x0 DUP3 DUP2 MSTORE PUSH1 0x20 DUP1 DUP3 KECCAK256 PUSH1 0x4 PUSH1 0x0 NOT SWAP1 SWAP5 ADD SWAP4 DUP5 MUL ADD DUP3 DUP2 SSTORE PUSH1 0x1 DUP2 ADD DUP4 SWAP1 SSTORE PUSH1 0x2 DUP2 ADD DUP4 SWAP1 SSTORE PUSH1 0x3 ADD SWAP2 SWAP1 SWAP2 SSTORE SWAP2 SSTORE CALLER SWAP1 DUP8 ADD CALLDATALOAD DUP8 CALLDATALOAD PUSH31 0x92A054E9363F3EFD42F73F1DA82239B3DC6EDAFEA865E59F1CFFA4DD7DC226 PUSH2 0x1678 PUSH1 0x60 DUP12 ADD PUSH1 0x40 DUP13 ADD PUSH2 0x2E2C JUMP JUMPDEST PUSH2 0x1688 PUSH1 0x80 DUP13 ADD PUSH1 0x60 DUP14 ADD PUSH2 0x2E2C JUMP JUMPDEST PUSH2 0x1698 PUSH1 0xA0 DUP14 ADD PUSH1 0x80 DUP15 ADD PUSH2 0x31E1 JUMP JUMPDEST PUSH1 0x40 DUP1 MLOAD PUSH1 0x1 PUSH1 0x1 PUSH1 0xA0 SHL SUB SWAP5 DUP6 AND DUP2 MSTORE SWAP4 SWAP1 SWAP3 AND PUSH1 0x20 DUP5 ADD MSTORE ISZERO ISZERO SWAP1 DUP3 ADD MSTORE PUSH1 0x60 DUP2 ADD DUP11 SWAP1 MSTORE PUSH1 0x80 DUP2 ADD DUP10 SWAP1 MSTORE PUSH1 0xA0 ADD PUSH1 0x40 MLOAD DUP1 SWAP2 SUB SWAP1 LOG4 POP POP SWAP2 SWAP4 SWAP1 SWAP3 POP JUMP JUMPDEST PUSH1 0x0 DUP6 DUP2 MSTORE PUSH1 0x2 PUSH1 0x20 SWAP1 DUP2 MSTORE PUSH1 0x40 DUP1 DUP4 KECCAK256 DUP8 DUP5 MSTORE SWAP1 SWAP2 MSTORE SWAP1 KECCAK256 SLOAD PUSH1 0xFF AND PUSH2 0x1705 JUMPI PUSH2 0x1705 DUP6 DUP6 PUSH2 0x1819 JUMP JUMPDEST PUSH1 0x1 PUSH1 0x1 PUSH1 0xA0 SHL SUB DUP4 AND PUSH2 0x171B JUMPI PUSH2 0x171B PUSH2 0x2239 JUMP JUMPDEST DUP1 PUSH2 0x1728 JUMPI PUSH2 0x1728 PUSH2 0x2252 JUMP JUMPDEST PUSH2 0x1731 DUP3 PUSH2 0x226B JUMP JUMPDEST PUSH1 0x0 DUP6 DUP2 MSTORE PUSH1 0x20 DUP2 DUP2 MSTORE PUSH1 0x40 DUP1 DUP4 KECCAK256 DUP8 DUP5 MSTORE SWAP1 SWAP2 MSTORE SWAP1 KECCAK256 PUSH2 0x1754 SWAP1 DUP5 DUP5 DUP5 PUSH2 0x22A0 JUMP JUMPDEST CALLER PUSH1 0x1 PUSH1 0x1 PUSH1 0xA0 SHL SUB AND DUP5 DUP7 PUSH32 0x70FAA8E36BE9E16810B2A40B964C4B9AE20A221C53BC3FD03FC843110D336DBB DUP7 DUP7 DUP7 PUSH1 0x40 MLOAD PUSH2 0x1793 SWAP4 SWAP3 SWAP2 SWAP1 PUSH2 0x3263 JUMP JUMPDEST PUSH1 0x40 MLOAD DUP1 SWAP2 SUB SWAP1 LOG4 POP POP POP POP POP JUMP JUMPDEST PUSH1 0x0 DUP4 DUP2 MSTORE PUSH1 0x20 DUP2 DUP2 MSTORE PUSH1 0x40 DUP1 DUP4 KECCAK256 DUP6 DUP5 MSTORE SWAP1 SWAP2 MSTORE DUP2 KECCAK256 PUSH2 0x17C4 SWAP1 DUP6 DUP5 PUSH2 0x23F5 JUMP JUMPDEST SWAP1 POP JUMPDEST SWAP4 SWAP3 POP POP POP JUMP JUMPDEST ADDRESS PUSH1 0x1 PUSH1 0x1 PUSH1 0xA0 SHL SUB PUSH32 0x0 AND EQ PUSH2 0x1817 JUMPI PUSH1 0x40 MLOAD PUSH4 0x4118E0BB PUSH1 0xE1 SHL DUP2 MSTORE PUSH1 0x4 ADD PUSH1 0x40 MLOAD DUP1 SWAP2 SUB SWAP1 REVERT JUMPDEST JUMP JUMPDEST PUSH1 0x40 MLOAD PUSH4 0xE407078D PUSH1 0xE0 SHL DUP2 MSTORE PUSH1 0x4 DUP2 ADD DUP4 SWAP1 MSTORE PUSH1 0x24 DUP2 ADD DUP3 SWAP1 MSTORE PUSH1 0x44 ADD JUMPDEST PUSH1 0x40 MLOAD DUP1 SWAP2 SUB SWAP1 REVERT JUMPDEST DUP2 MLOAD PUSH2 0x184F JUMPI PUSH2 0x184F PUSH2 0x2252 JUMP JUMPDEST PUSH1 0x20 DUP3 ADD MLOAD PUSH1 0x1 PUSH1 0x1 PUSH1 0x60 SHL SUB LT ISZERO PUSH2 0x186F JUMPI PUSH2 0x186F DUP3 PUSH1 0x20 ADD MLOAD PUSH2 0x246C JUMP JUMPDEST DUP1 PUSH1 0x1 PUSH1 0x1 PUSH1 0x60 SHL SUB AND DUP3 PUSH1 0x20 ADD MLOAD GT PUSH2 0x1891 JUMPI PUSH2 0x1891 DUP3 PUSH1 0x20 ADD MLOAD DUP3 PUSH2 0x2488 JUMP JUMPDEST PUSH1 0x40 DUP3 ADD MLOAD PUSH1 0x1 PUSH1 0x1 PUSH1 0xA0 SHL SUB AND PUSH2 0x18AB JUMPI PUSH2 0x18AB PUSH2 0x2239 JUMP JUMPDEST PUSH1 0x60 DUP3 ADD MLOAD PUSH1 0x1 PUSH1 0x1 PUSH1 0xA0 SHL SUB AND PUSH2 0x18C5 JUMPI PUSH2 0x18C5 PUSH2 0x2239 JUMP JUMPDEST PUSH2 0x18D2 DUP3 PUSH1 0x80 ADD MLOAD PUSH2 0x24B3 JUMP JUMPDEST PUSH1 0xA0 DUP3 ADD MLOAD ISZERO DUP1 ISZERO PUSH2 0x18E6 JUMPI POP PUSH1 0xC0 DUP3 ADD MLOAD ISZERO JUMPDEST ISZERO PUSH2 0x18F3 JUMPI PUSH2 0x18F3 PUSH2 0x2252 JUMP JUMPDEST POP POP JUMP JUMPDEST PUSH1 0x0 DUP1 DUP1 DUP1 DUP7 PUSH1 0x1 DUP2 GT ISZERO PUSH2 0x190E JUMPI PUSH2 0x190E PUSH2 0x324D JUMP JUMPDEST EQ ISZERO PUSH2 0x192E JUMPI PUSH2 0x1927 DUP6 SWAP4 POP DUP4 DUP6 SWAP4 POP DUP4 DUP10 PUSH1 0x1 PUSH2 0x24E5 JUMP JUMPDEST SWAP1 POP PUSH2 0x1974 JUMP JUMPDEST PUSH1 0x1 DUP7 PUSH1 0x1 DUP2 GT ISZERO PUSH2 0x1942 JUMPI PUSH2 0x1942 PUSH2 0x324D JUMP JUMPDEST EQ ISZERO PUSH2 0x1974 JUMPI PUSH2 0x1952 DUP5 DUP7 PUSH2 0x310A JUMP JUMPDEST SWAP1 POP PUSH2 0x1961 DUP6 DUP9 PUSH1 0x0 DUP1 PUSH2 0x2528 JUMP JUMPDEST SWAP3 POP PUSH2 0x1971 DUP5 DUP9 PUSH1 0x1 PUSH1 0x0 PUSH2 0x2528 JUMP JUMPDEST SWAP2 POP JUMPDEST DUP3 DUP9 PUSH1 0x0 ADD PUSH1 0x0 DUP3 DUP3 SLOAD PUSH2 0x1988 SWAP2 SWAP1 PUSH2 0x2F71 JUMP JUMPDEST SWAP3 POP POP DUP2 SWAP1 SSTORE POP DUP2 DUP9 PUSH1 0x1 ADD PUSH1 0x0 DUP3 DUP3 SLOAD PUSH2 0x19A3 SWAP2 SWAP1 PUSH2 0x2F71 JUMP JUMPDEST SWAP3 POP POP DUP2 SWAP1 SSTORE POP SWAP6 POP SWAP6 POP SWAP6 SWAP3 POP POP POP JUMP JUMPDEST PUSH1 0x0 JUMPDEST DUP6 SLOAD DUP2 LT ISZERO PUSH2 0x1A5C JUMPI PUSH1 0x0 DUP7 DUP3 DUP2 SLOAD DUP2 LT PUSH2 0x19D5 JUMPI PUSH2 0x19D5 PUSH2 0x2C0F JUMP JUMPDEST SWAP1 PUSH1 0x0 MSTORE PUSH1 0x20 PUSH1 0x0 KECCAK256 SWAP1 PUSH1 0x4 MUL ADD SWAP1 POP DUP6 PUSH1 0x0 EQ PUSH2 0x1A1D JUMPI DUP4 PUSH2 0x1A07 JUMPI DUP6 DUP2 PUSH1 0x2 ADD SLOAD PUSH2 0x1A02 SWAP2 SWAP1 PUSH2 0x2F71 JUMP JUMPDEST PUSH2 0x1A17 JUMP JUMPDEST DUP6 DUP2 PUSH1 0x2 ADD SLOAD PUSH2 0x1A17 SWAP2 SWAP1 PUSH2 0x310A JUMP JUMPDEST PUSH1 0x2 DUP3 ADD SSTORE JUMPDEST DUP5 ISZERO PUSH2 0x1A53 JUMPI DUP3 PUSH2 0x1A3D JUMPI DUP5 DUP2 PUSH1 0x3 ADD SLOAD PUSH2 0x1A38 SWAP2 SWAP1 PUSH2 0x2F71 JUMP JUMPDEST PUSH2 0x1A4D JUMP JUMPDEST DUP5 DUP2 PUSH1 0x3 ADD SLOAD PUSH2 0x1A4D SWAP2 SWAP1 PUSH2 0x310A JUMP JUMPDEST PUSH1 0x3 DUP3 ADD SSTORE JUMPDEST POP PUSH1 0x1 ADD PUSH2 0x19B8 JUMP JUMPDEST POP POP POP POP POP POP JUMP JUMPDEST PUSH1 0x40 DUP1 MLOAD PUSH1 0x1 PUSH1 0x1 PUSH1 0xA0 SHL SUB DUP5 AND PUSH1 0x24 DUP3 ADD MSTORE PUSH1 0x44 DUP1 DUP3 ADD DUP5 SWAP1 MSTORE DUP3 MLOAD DUP1 DUP4 SUB SWAP1 SWAP2 ADD DUP2 MSTORE PUSH1 0x64 SWAP1 SWAP2 ADD SWAP1 SWAP2 MSTORE PUSH1 0x20 DUP2 ADD DUP1 MLOAD PUSH1 0x1 PUSH1 0x1 PUSH1 0xE0 SHL SUB AND PUSH4 0xA9059CBB PUSH1 0xE0 SHL OR SWAP1 MSTORE PUSH2 0x1AB6 SWAP1 DUP5 SWAP1 PUSH2 0x2568 JUMP JUMPDEST POP POP POP JUMP JUMPDEST DUP2 MLOAD PUSH2 0x1AC9 JUMPI PUSH2 0x1AC9 PUSH2 0x2252 JUMP JUMPDEST PUSH1 0x20 DUP3 ADD MLOAD PUSH1 0x1 PUSH1 0x1 PUSH1 0x60 SHL SUB LT ISZERO PUSH2 0x1AE9 JUMPI PUSH2 0x1AE9 DUP3 PUSH1 0x20 ADD MLOAD PUSH2 0x246C JUMP JUMPDEST DUP1 PUSH1 0x1 PUSH1 0x1 PUSH1 0x60 SHL SUB AND DUP3 PUSH1 0x20 ADD MLOAD GT ISZERO PUSH2 0x1B0C JUMPI PUSH2 0x1B0C DUP3 PUSH1 0x20 ADD MLOAD DUP3 PUSH2 0x263A JUMP JUMPDEST PUSH1 0x40 DUP3 ADD MLOAD PUSH1 0x1 PUSH1 0x1 PUSH1 0xA0 SHL SUB AND PUSH2 0x1B26 JUMPI PUSH2 0x1B26 PUSH2 0x2239 JUMP JUMPDEST PUSH1 0x60 DUP3 ADD MLOAD PUSH1 0x1 PUSH1 0x1 PUSH1 0xA0 SHL SUB AND PUSH2 0x1B40 JUMPI PUSH2 0x1B40 PUSH2 0x2239 JUMP JUMPDEST PUSH2 0x1B4D DUP3 PUSH1 0x80 ADD MLOAD PUSH2 0x2665 JUMP JUMPDEST PUSH1 0xA0 DUP3 ADD MLOAD PUSH2 0x18F3 JUMPI PUSH2 0x18F3 PUSH2 0x2252 JUMP JUMPDEST PUSH1 0x0 DUP1 PUSH1 0x0 DUP1 PUSH2 0x1B79 DUP9 PUSH1 0x0 ADD SLOAD DUP10 PUSH1 0x1 ADD SLOAD DUP10 PUSH1 0x1 PUSH2 0x24E5 JUMP JUMPDEST SWAP1 POP PUSH1 0x0 DUP7 PUSH1 0x2 DUP2 GT ISZERO PUSH2 0x1B8F JUMPI PUSH2 0x1B8F PUSH2 0x324D JUMP JUMPDEST EQ ISZERO PUSH2 0x1BC5 JUMPI DUP8 SLOAD DUP6 SWAP3 POP PUSH2 0x1BA8 SWAP1 DUP4 SWAP1 DUP4 PUSH1 0x0 PUSH2 0x2679 JUMP JUMPDEST PUSH1 0x1 DUP10 ADD SLOAD SWAP1 SWAP5 POP PUSH2 0x1BBE SWAP1 DUP4 SWAP1 DUP4 PUSH1 0x0 PUSH2 0x2679 JUMP JUMPDEST SWAP3 POP PUSH2 0x1C4F JUMP JUMPDEST PUSH1 0x1 DUP7 PUSH1 0x2 DUP2 GT ISZERO PUSH2 0x1BD9 JUMPI PUSH2 0x1BD9 PUSH2 0x324D JUMP JUMPDEST EQ ISZERO PUSH2 0x1C09 JUMPI DUP8 SLOAD DUP6 SWAP5 POP PUSH2 0x1BF3 SWAP1 DUP6 SWAP1 DUP4 SWAP1 PUSH1 0x1 PUSH2 0x2679 JUMP JUMPDEST PUSH1 0x1 DUP10 ADD SLOAD SWAP1 SWAP3 POP PUSH2 0x1BBE SWAP1 DUP4 SWAP1 DUP4 PUSH1 0x0 PUSH2 0x2679 JUMP JUMPDEST PUSH1 0x2 DUP7 PUSH1 0x2 DUP2 GT ISZERO PUSH2 0x1C1D JUMPI PUSH2 0x1C1D PUSH2 0x324D JUMP JUMPDEST EQ ISZERO PUSH2 0x1C4F JUMPI PUSH1 0x1 DUP1 DUP10 ADD SLOAD DUP7 SWAP5 POP PUSH2 0x1C39 SWAP2 DUP6 SWAP2 DUP5 SWAP2 PUSH2 0x2679 JUMP JUMPDEST DUP9 SLOAD SWAP1 SWAP3 POP PUSH2 0x1C4C SWAP1 DUP4 SWAP1 DUP4 PUSH1 0x0 PUSH2 0x2679 JUMP JUMPDEST SWAP4 POP JUMPDEST DUP4 DUP9 PUSH1 0x0 ADD PUSH1 0x0 DUP3 DUP3 SLOAD PUSH2 0x1C63 SWAP2 SWAP1 PUSH2 0x2F71 JUMP JUMPDEST SWAP3 POP POP DUP2 SWAP1 SSTORE POP DUP3 DUP9 PUSH1 0x1 ADD PUSH1 0x0 DUP3 DUP3 SLOAD PUSH2 0x1C7E SWAP2 SWAP1 PUSH2 0x2F71 JUMP JUMPDEST SWAP3 POP POP DUP2 SWAP1 SSTORE POP POP SWAP5 POP SWAP5 POP SWAP5 SWAP2 POP POP JUMP JUMPDEST DUP2 MLOAD PUSH2 0x1C9E JUMPI PUSH2 0x1C9E PUSH2 0x2252 JUMP JUMPDEST PUSH1 0x20 DUP3 ADD MLOAD PUSH1 0x1 PUSH1 0x1 PUSH1 0x60 SHL SUB LT ISZERO PUSH2 0x1CBE JUMPI PUSH2 0x1CBE DUP3 PUSH1 0x20 ADD MLOAD PUSH2 0x246C JUMP JUMPDEST DUP1 PUSH1 0x1 PUSH1 0x1 PUSH1 0x60 SHL SUB AND DUP3 PUSH1 0x20 ADD MLOAD GT PUSH2 0x1CE0 JUMPI PUSH2 0x1CE0 DUP3 PUSH1 0x20 ADD MLOAD DUP3 PUSH2 0x2488 JUMP JUMPDEST PUSH1 0x80 DUP3 ADD MLOAD PUSH1 0x1 PUSH1 0x1 PUSH1 0xA0 SHL SUB AND PUSH2 0x1CFA JUMPI PUSH2 0x1CFA PUSH2 0x2239 JUMP JUMPDEST PUSH1 0x40 DUP3 ADD MLOAD PUSH1 0x1 PUSH1 0x1 PUSH1 0xA0 SHL SUB AND PUSH2 0x1D14 JUMPI PUSH2 0x1D14 PUSH2 0x2239 JUMP JUMPDEST PUSH1 0x60 DUP3 ADD MLOAD PUSH1 0x1 PUSH1 0x1 PUSH1 0xA0 SHL SUB AND PUSH2 0x1D2E JUMPI PUSH2 0x1D2E PUSH2 0x2239 JUMP JUMPDEST PUSH2 0x1D3B DUP3 PUSH1 0xA0 ADD MLOAD PUSH2 0x24B3 JUMP JUMPDEST PUSH1 0xC0 DUP3 ADD MLOAD ISZERO DUP1 ISZERO PUSH2 0x18E6 JUMPI POP PUSH1 0xE0 DUP3 ADD MLOAD PUSH2 0x18F3 JUMPI PUSH2 0x18F3 PUSH2 0x2252 JUMP JUMPDEST PUSH1 0x0 DUP3 DUP2 MSTORE PUSH1 0x2 PUSH1 0x20 SWAP1 DUP2 MSTORE PUSH1 0x40 DUP1 DUP4 KECCAK256 DUP5 DUP5 MSTORE SWAP1 SWAP2 MSTORE SWAP1 KECCAK256 SLOAD PUSH1 0xFF AND PUSH2 0x18F3 JUMPI PUSH1 0x0 DUP3 DUP2 MSTORE PUSH1 0x2 PUSH1 0x20 DUP2 DUP2 MSTORE PUSH1 0x40 DUP1 DUP5 KECCAK256 DUP6 DUP6 MSTORE DUP3 MSTORE DUP1 DUP5 KECCAK256 DUP1 SLOAD PUSH1 0xFF NOT AND PUSH1 0x1 SWAP1 DUP2 OR SWAP1 SWAP2 SSTORE DUP2 MLOAD DUP1 DUP4 ADD SWAP1 SWAP3 MSTORE SWAP6 DUP2 MSTORE SWAP1 DUP2 ADD SWAP4 DUP5 MSTORE PUSH1 0x3 DUP1 SLOAD SWAP6 DUP7 ADD DUP2 SSTORE SWAP1 SWAP3 MSTORE SWAP1 MLOAD SWAP3 MUL PUSH32 0xC2575A0E9E593C00F959F8C92F12DB2869C3395A3B0502D05E2516446F71F85B DUP2 ADD SWAP3 SWAP1 SWAP3 SSTORE MLOAD PUSH32 0xC2575A0E9E593C00F959F8C92F12DB2869C3395A3B0502D05E2516446F71F85C SWAP1 SWAP2 ADD SSTORE JUMP JUMPDEST PUSH1 0x0 DUP1 DUP1 DUP1 DUP7 PUSH1 0x1 DUP2 GT ISZERO PUSH2 0x1E28 JUMPI PUSH2 0x1E28 PUSH2 0x324D JUMP JUMPDEST EQ ISZERO PUSH2 0x1E48 JUMPI PUSH2 0x1E41 DUP6 SWAP4 POP DUP4 DUP6 SWAP4 POP DUP4 DUP13 PUSH1 0x0 PUSH2 0x24E5 JUMP JUMPDEST SWAP1 POP PUSH2 0x1E8E JUMP JUMPDEST PUSH1 0x1 DUP7 PUSH1 0x1 DUP2 GT ISZERO PUSH2 0x1E5C JUMPI PUSH2 0x1E5C PUSH2 0x324D JUMP JUMPDEST EQ ISZERO PUSH2 0x1E8E JUMPI PUSH2 0x1E6C DUP5 DUP7 PUSH2 0x310A JUMP JUMPDEST SWAP1 POP PUSH2 0x1E7C DUP6 DUP12 PUSH1 0x0 PUSH1 0x1 PUSH2 0x2528 JUMP JUMPDEST SWAP3 POP PUSH2 0x1E8B DUP5 DUP12 PUSH1 0x1 DUP1 PUSH2 0x2528 JUMP JUMPDEST SWAP2 POP JUMPDEST DUP3 ISZERO PUSH2 0x1EDD JUMPI DUP3 DUP12 PUSH1 0x0 ADD PUSH1 0x0 DUP3 DUP3 SLOAD PUSH2 0x1EA8 SWAP2 SWAP1 PUSH2 0x310A JUMP JUMPDEST SWAP1 SWAP2 SSTORE POP POP PUSH1 0x1 PUSH1 0x1 PUSH1 0xA0 SHL SUB DUP10 AND PUSH1 0x0 SWAP1 DUP2 MSTORE PUSH1 0x2 DUP13 ADD PUSH1 0x20 MSTORE PUSH1 0x40 DUP2 KECCAK256 DUP1 SLOAD DUP6 SWAP3 SWAP1 PUSH2 0x1ED7 SWAP1 DUP5 SWAP1 PUSH2 0x310A JUMP JUMPDEST SWAP1 SWAP2 SSTORE POP POP JUMPDEST DUP2 ISZERO PUSH2 0x1F2C JUMPI DUP2 DUP12 PUSH1 0x1 ADD PUSH1 0x0 DUP3 DUP3 SLOAD PUSH2 0x1EF7 SWAP2 SWAP1 PUSH2 0x310A JUMP JUMPDEST SWAP1 SWAP2 SSTORE POP POP PUSH1 0x1 PUSH1 0x1 PUSH1 0xA0 SHL SUB DUP9 AND PUSH1 0x0 SWAP1 DUP2 MSTORE PUSH1 0x3 DUP13 ADD PUSH1 0x20 MSTORE PUSH1 0x40 DUP2 KECCAK256 DUP1 SLOAD DUP5 SWAP3 SWAP1 PUSH2 0x1F26 SWAP1 DUP5 SWAP1 PUSH2 0x310A JUMP JUMPDEST SWAP1 SWAP2 SSTORE POP POP JUMPDEST PUSH1 0x1 PUSH1 0x1 PUSH1 0xA0 SHL SUB DUP8 AND PUSH1 0x0 SWAP1 DUP2 MSTORE PUSH1 0x4 DUP13 ADD PUSH1 0x20 MSTORE PUSH1 0x40 DUP2 KECCAK256 DUP1 SLOAD DUP4 SWAP3 SWAP1 PUSH2 0x1F56 SWAP1 DUP5 SWAP1 PUSH2 0x310A JUMP JUMPDEST SWAP1 SWAP2 SSTORE POP POP DUP11 SLOAD PUSH1 0x1 DUP1 DUP14 ADD SLOAD PUSH2 0x1F6F SWAP3 SWAP2 DUP14 SWAP1 PUSH2 0x24E5 JUMP JUMPDEST POP SWAP9 POP SWAP9 POP SWAP9 SWAP6 POP POP POP POP POP POP JUMP JUMPDEST DUP1 DUP3 LT ISZERO PUSH2 0x18F3 JUMPI PUSH1 0x40 MLOAD PUSH4 0x1C22FF01 PUSH1 0xE2 SHL DUP2 MSTORE PUSH1 0x4 DUP2 ADD DUP4 SWAP1 MSTORE PUSH1 0x24 DUP2 ADD DUP3 SWAP1 MSTORE PUSH1 0x44 ADD PUSH2 0x1838 JUMP JUMPDEST PUSH1 0x0 DUP1 DUP3 PUSH1 0x2 DUP2 GT ISZERO PUSH2 0x1FBE JUMPI PUSH2 0x1FBE PUSH2 0x324D JUMP JUMPDEST EQ ISZERO PUSH2 0x1FE5 JUMPI POP PUSH1 0x1 PUSH1 0x1 PUSH1 0xA0 SHL SUB DUP3 AND PUSH1 0x0 SWAP1 DUP2 MSTORE PUSH1 0x2 DUP5 ADD PUSH1 0x20 MSTORE PUSH1 0x40 SWAP1 KECCAK256 SLOAD PUSH2 0x17C7 JUMP JUMPDEST PUSH1 0x1 DUP3 PUSH1 0x2 DUP2 GT ISZERO PUSH2 0x1FF9 JUMPI PUSH2 0x1FF9 PUSH2 0x324D JUMP JUMPDEST EQ ISZERO PUSH2 0x2020 JUMPI POP PUSH1 0x1 PUSH1 0x1 PUSH1 0xA0 SHL SUB DUP3 AND PUSH1 0x0 SWAP1 DUP2 MSTORE PUSH1 0x3 DUP5 ADD PUSH1 0x20 MSTORE PUSH1 0x40 SWAP1 KECCAK256 SLOAD PUSH2 0x17C7 JUMP JUMPDEST PUSH1 0x2 DUP3 PUSH1 0x2 DUP2 GT ISZERO PUSH2 0x2034 JUMPI PUSH2 0x2034 PUSH2 0x324D JUMP JUMPDEST EQ ISZERO PUSH2 0x17C7 JUMPI POP POP PUSH1 0x1 PUSH1 0x1 PUSH1 0xA0 SHL SUB AND PUSH1 0x0 SWAP1 DUP2 MSTORE PUSH1 0x4 SWAP2 SWAP1 SWAP2 ADD PUSH1 0x20 MSTORE PUSH1 0x40 SWAP1 KECCAK256 SLOAD SWAP1 JUMP JUMPDEST DUP2 MLOAD PUSH2 0x2069 JUMPI PUSH2 0x2069 PUSH2 0x2252 JUMP JUMPDEST PUSH1 0x20 DUP3 ADD MLOAD PUSH1 0x1 PUSH1 0x1 PUSH1 0x60 SHL SUB LT ISZERO PUSH2 0x2089 JUMPI PUSH2 0x2089 DUP3 PUSH1 0x20 ADD MLOAD PUSH2 0x246C JUMP JUMPDEST DUP1 PUSH1 0x1 PUSH1 0x1 PUSH1 0x60 SHL SUB AND DUP3 PUSH1 0x20 ADD MLOAD GT PUSH2 0x20AB JUMPI PUSH2 0x20AB DUP3 PUSH1 0x20 ADD MLOAD DUP3 PUSH2 0x2488 JUMP JUMPDEST PUSH1 0x40 DUP3 ADD MLOAD PUSH1 0x1 PUSH1 0x1 PUSH1 0xA0 SHL SUB AND PUSH2 0x20C5 JUMPI PUSH2 0x20C5 PUSH2 0x2239 JUMP JUMPDEST PUSH1 0x60 DUP3 ADD MLOAD PUSH1 0x1 PUSH1 0x1 PUSH1 0xA0 SHL SUB AND PUSH2 0x20DF JUMPI PUSH2 0x20DF PUSH2 0x2239 JUMP JUMPDEST PUSH2 0x20EC DUP3 PUSH1 0xA0 ADD MLOAD PUSH2 0x24B3 JUMP JUMPDEST PUSH1 0xC0 DUP3 ADD MLOAD PUSH2 0x18F3 JUMPI PUSH2 0x18F3 PUSH2 0x2252 JUMP JUMPDEST PUSH1 0x0 DUP1 DUP1 DUP5 PUSH1 0x1 DUP2 GT ISZERO PUSH2 0x2113 JUMPI PUSH2 0x2113 PUSH2 0x324D JUMP JUMPDEST EQ ISZERO PUSH2 0x2130 JUMPI DUP3 SWAP2 POP PUSH2 0x2129 DUP3 DUP9 PUSH1 0x1 DUP9 PUSH2 0x2687 JUMP JUMPDEST SWAP1 POP PUSH2 0x215D JUMP JUMPDEST PUSH1 0x1 DUP5 PUSH1 0x1 DUP2 GT ISZERO PUSH2 0x2144 JUMPI PUSH2 0x2144 PUSH2 0x324D JUMP JUMPDEST EQ ISZERO PUSH2 0x215D JUMPI POP DUP2 PUSH2 0x215A DUP2 DUP9 PUSH1 0x0 DUP9 ISZERO PUSH2 0x2687 JUMP JUMPDEST SWAP2 POP JUMPDEST DUP5 ISZERO PUSH2 0x21CC JUMPI DUP2 DUP9 PUSH1 0x0 ADD PUSH1 0x0 DUP3 DUP3 SLOAD PUSH2 0x2177 SWAP2 SWAP1 PUSH2 0x2F71 JUMP JUMPDEST SWAP3 POP POP DUP2 SWAP1 SSTORE POP DUP1 DUP9 PUSH1 0x1 ADD PUSH1 0x0 DUP3 DUP3 SLOAD PUSH2 0x2192 SWAP2 SWAP1 PUSH2 0x310A JUMP JUMPDEST SWAP1 SWAP2 SSTORE POP POP PUSH1 0x1 PUSH1 0x1 PUSH1 0xA0 SHL SUB DUP7 AND PUSH1 0x0 SWAP1 DUP2 MSTORE PUSH1 0x3 DUP10 ADD PUSH1 0x20 MSTORE PUSH1 0x40 DUP2 KECCAK256 DUP1 SLOAD DUP4 SWAP3 SWAP1 PUSH2 0x21C1 SWAP1 DUP5 SWAP1 PUSH2 0x310A JUMP JUMPDEST SWAP1 SWAP2 SSTORE POP PUSH2 0x222E SWAP1 POP JUMP JUMPDEST DUP1 DUP9 PUSH1 0x1 ADD PUSH1 0x0 DUP3 DUP3 SLOAD PUSH2 0x21E0 SWAP2 SWAP1 PUSH2 0x2F71 JUMP JUMPDEST SWAP1 SWAP2 SSTORE POP POP DUP8 SLOAD DUP3 SWAP1 DUP10 SWAP1 PUSH1 0x0 SWAP1 PUSH2 0x21F9 SWAP1 DUP5 SWAP1 PUSH2 0x310A JUMP JUMPDEST SWAP1 SWAP2 SSTORE POP POP PUSH1 0x1 PUSH1 0x1 PUSH1 0xA0 SHL SUB DUP7 AND PUSH1 0x0 SWAP1 DUP2 MSTORE PUSH1 0x2 DUP10 ADD PUSH1 0x20 MSTORE PUSH1 0x40 DUP2 KECCAK256 DUP1 SLOAD DUP5 SWAP3 SWAP1 PUSH2 0x2228 SWAP1 DUP5 SWAP1 PUSH2 0x310A JUMP JUMPDEST SWAP1 SWAP2 SSTORE POP POP JUMPDEST SWAP7 POP SWAP7 SWAP5 POP POP POP POP POP JUMP JUMPDEST PUSH1 0x40 MLOAD PUSH4 0xD92E233D PUSH1 0xE0 SHL DUP2 MSTORE PUSH1 0x4 ADD PUSH1 0x40 MLOAD DUP1 SWAP2 SUB SWAP1 REVERT JUMPDEST PUSH1 0x40 MLOAD PUSH4 0xAF458C07 PUSH1 0xE0 SHL DUP2 MSTORE PUSH1 0x4 ADD PUSH1 0x40 MLOAD DUP1 SWAP2 SUB SWAP1 REVERT JUMPDEST PUSH1 0x3 DUP2 PUSH1 0x2 DUP2 GT ISZERO PUSH2 0x227F JUMPI PUSH2 0x227F PUSH2 0x324D JUMP JUMPDEST LT PUSH2 0x229D JUMPI PUSH1 0x40 MLOAD PUSH4 0x673F032F PUSH1 0xE1 SHL DUP2 MSTORE PUSH1 0x4 ADD PUSH1 0x40 MLOAD DUP1 SWAP2 SUB SWAP1 REVERT JUMPDEST POP JUMP JUMPDEST PUSH1 0x0 DUP3 PUSH1 0x2 DUP2 GT ISZERO PUSH2 0x22B4 JUMPI PUSH2 0x22B4 PUSH2 0x324D JUMP JUMPDEST EQ ISZERO PUSH2 0x2315 JUMPI CALLER PUSH1 0x0 SWAP1 DUP2 MSTORE PUSH1 0x2 DUP6 ADD PUSH1 0x20 MSTORE PUSH1 0x40 DUP2 KECCAK256 DUP1 SLOAD DUP4 SWAP3 SWAP1 PUSH2 0x22DB SWAP1 DUP5 SWAP1 PUSH2 0x2F71 JUMP JUMPDEST SWAP1 SWAP2 SSTORE POP POP PUSH1 0x1 PUSH1 0x1 PUSH1 0xA0 SHL SUB DUP4 AND PUSH1 0x0 SWAP1 DUP2 MSTORE PUSH1 0x2 DUP6 ADD PUSH1 0x20 MSTORE PUSH1 0x40 DUP2 KECCAK256 DUP1 SLOAD DUP4 SWAP3 SWAP1 PUSH2 0x230A SWAP1 DUP5 SWAP1 PUSH2 0x310A JUMP JUMPDEST SWAP1 SWAP2 SSTORE POP PUSH2 0x23EF SWAP1 POP JUMP JUMPDEST PUSH1 0x1 DUP3 PUSH1 0x2 DUP2 GT ISZERO PUSH2 0x2329 JUMPI PUSH2 0x2329 PUSH2 0x324D JUMP JUMPDEST EQ ISZERO PUSH2 0x237F JUMPI PUSH1 0x1 PUSH1 0x1 PUSH1 0xA0 SHL SUB DUP4 AND PUSH1 0x0 SWAP1 DUP2 MSTORE PUSH1 0x3 DUP6 ADD PUSH1 0x20 MSTORE PUSH1 0x40 DUP2 KECCAK256 DUP1 SLOAD DUP4 SWAP3 SWAP1 PUSH2 0x2359 SWAP1 DUP5 SWAP1 PUSH2 0x310A JUMP JUMPDEST SWAP1 SWAP2 SSTORE POP POP CALLER PUSH1 0x0 SWAP1 DUP2 MSTORE PUSH1 0x3 DUP6 ADD PUSH1 0x20 MSTORE PUSH1 0x40 DUP2 KECCAK256 DUP1 SLOAD DUP4 SWAP3 SWAP1 PUSH2 0x230A SWAP1 DUP5 SWAP1 PUSH2 0x2F71 JUMP JUMPDEST PUSH1 0x2 DUP3 PUSH1 0x2 DUP2 GT ISZERO PUSH2 0x2393 JUMPI PUSH2 0x2393 PUSH2 0x324D JUMP JUMPDEST EQ ISZERO PUSH2 0x23EF JUMPI CALLER PUSH1 0x0 SWAP1 DUP2 MSTORE PUSH1 0x4 DUP6 ADD PUSH1 0x20 MSTORE PUSH1 0x40 DUP2 KECCAK256 DUP1 SLOAD DUP4 SWAP3 SWAP1 PUSH2 0x23BA SWAP1 DUP5 SWAP1 PUSH2 0x2F71 JUMP JUMPDEST SWAP1 SWAP2 SSTORE POP POP PUSH1 0x1 PUSH1 0x1 PUSH1 0xA0 SHL SUB DUP4 AND PUSH1 0x0 SWAP1 DUP2 MSTORE PUSH1 0x4 DUP6 ADD PUSH1 0x20 MSTORE PUSH1 0x40 DUP2 KECCAK256 DUP1 SLOAD DUP4 SWAP3 SWAP1 PUSH2 0x23E9 SWAP1 DUP5 SWAP1 PUSH2 0x310A JUMP JUMPDEST SWAP1 SWAP2 SSTORE POP POP JUMPDEST POP POP POP POP JUMP JUMPDEST PUSH1 0x0 DUP1 DUP3 PUSH1 0x2 DUP2 GT ISZERO PUSH2 0x240A JUMPI PUSH2 0x240A PUSH2 0x324D JUMP JUMPDEST EQ ISZERO PUSH2 0x2418 JUMPI POP DUP3 SLOAD PUSH2 0x17C7 JUMP JUMPDEST PUSH1 0x1 DUP3 PUSH1 0x2 DUP2 GT ISZERO PUSH2 0x242C JUMPI PUSH2 0x242C PUSH2 0x324D JUMP JUMPDEST EQ ISZERO PUSH2 0x243D JUMPI POP PUSH1 0x1 DUP4 ADD SLOAD PUSH2 0x17C7 JUMP JUMPDEST PUSH1 0x2 DUP3 PUSH1 0x2 DUP2 GT ISZERO PUSH2 0x2451 JUMPI PUSH2 0x2451 PUSH2 0x324D JUMP JUMPDEST EQ ISZERO PUSH2 0x17C7 JUMPI PUSH2 0x17C4 DUP5 PUSH1 0x0 ADD SLOAD DUP6 PUSH1 0x1 ADD SLOAD DUP6 PUSH1 0x1 PUSH2 0x24E5 JUMP JUMPDEST PUSH1 0x40 MLOAD PUSH4 0x35F135D3 PUSH1 0xE0 SHL DUP2 MSTORE PUSH1 0x4 DUP2 ADD DUP3 SWAP1 MSTORE PUSH1 0x24 ADD PUSH2 0x1838 JUMP JUMPDEST PUSH1 0x40 MLOAD PUSH4 0x647284E9 PUSH1 0xE1 SHL DUP2 MSTORE PUSH1 0x4 DUP2 ADD DUP4 SWAP1 MSTORE PUSH1 0x1 PUSH1 0x1 PUSH1 0x60 SHL SUB DUP3 AND PUSH1 0x24 DUP3 ADD MSTORE PUSH1 0x44 ADD PUSH2 0x1838 JUMP JUMPDEST PUSH1 0x2 DUP2 PUSH1 0x1 DUP2 GT ISZERO PUSH2 0x24C7 JUMPI PUSH2 0x24C7 PUSH2 0x324D JUMP JUMPDEST LT PUSH2 0x229D JUMPI PUSH1 0x40 MLOAD PUSH4 0x280503E7 PUSH1 0xE1 SHL DUP2 MSTORE PUSH1 0x4 ADD PUSH1 0x40 MLOAD DUP1 SWAP2 SUB SWAP1 REVERT JUMPDEST PUSH1 0x0 PUSH1 0x1 PUSH1 0x1 PUSH1 0x80 SHL SUB DUP4 GT PUSH2 0x2511 JUMPI PUSH2 0x2502 DUP6 DUP5 PUSH1 0x1 DUP6 PUSH2 0x2687 JUMP JUMPDEST PUSH2 0x250C SWAP1 DUP6 PUSH2 0x310A JUMP JUMPDEST PUSH2 0xE65 JUMP JUMPDEST PUSH2 0x251E DUP5 DUP5 PUSH1 0x0 DUP6 PUSH2 0x2687 JUMP JUMPDEST PUSH2 0xE65 SWAP1 DUP7 PUSH2 0x310A JUMP JUMPDEST PUSH1 0x0 PUSH1 0x1 PUSH1 0x1 PUSH1 0x80 SHL SUB DUP5 GT PUSH2 0x2550 JUMPI DUP3 PUSH2 0x254A JUMPI PUSH2 0x250C DUP6 DUP6 PUSH1 0x0 DUP6 PUSH2 0x2687 JUMP JUMPDEST DUP5 PUSH2 0xE65 JUMP JUMPDEST DUP3 PUSH2 0x255B JUMPI DUP5 PUSH2 0xE65 JUMP JUMPDEST PUSH2 0xE65 DUP6 DUP6 PUSH1 0x1 DUP6 PUSH2 0x2687 JUMP JUMPDEST PUSH1 0x0 PUSH2 0x25BD DUP3 PUSH1 0x40 MLOAD DUP1 PUSH1 0x40 ADD PUSH1 0x40 MSTORE DUP1 PUSH1 0x20 DUP2 MSTORE PUSH1 0x20 ADD PUSH32 0x5361666545524332303A206C6F772D6C6576656C2063616C6C206661696C6564 DUP2 MSTORE POP DUP6 PUSH1 0x1 PUSH1 0x1 PUSH1 0xA0 SHL SUB AND PUSH2 0x26AE SWAP1 SWAP3 SWAP2 SWAP1 PUSH4 0xFFFFFFFF AND JUMP JUMPDEST DUP1 MLOAD SWAP1 SWAP2 POP ISZERO PUSH2 0x1AB6 JUMPI DUP1 DUP1 PUSH1 0x20 ADD SWAP1 MLOAD DUP2 ADD SWAP1 PUSH2 0x25DB SWAP2 SWAP1 PUSH2 0x32A2 JUMP JUMPDEST PUSH2 0x1AB6 JUMPI PUSH1 0x40 MLOAD PUSH3 0x461BCD PUSH1 0xE5 SHL DUP2 MSTORE PUSH1 0x20 PUSH1 0x4 DUP3 ADD MSTORE PUSH1 0x2A PUSH1 0x24 DUP3 ADD MSTORE PUSH32 0x5361666545524332303A204552433230206F7065726174696F6E20646964206E PUSH1 0x44 DUP3 ADD MSTORE PUSH10 0x1BDD081CDD58D8D95959 PUSH1 0xB2 SHL PUSH1 0x64 DUP3 ADD MSTORE PUSH1 0x84 ADD PUSH2 0x1838 JUMP JUMPDEST PUSH1 0x40 MLOAD PUSH4 0xB9E0F8D5 PUSH1 0xE0 SHL DUP2 MSTORE PUSH1 0x4 DUP2 ADD DUP4 SWAP1 MSTORE PUSH1 0x1 PUSH1 0x1 PUSH1 0x60 SHL SUB DUP3 AND PUSH1 0x24 DUP3 ADD MSTORE PUSH1 0x44 ADD PUSH2 0x1838 JUMP JUMPDEST PUSH1 0x3 DUP2 PUSH1 0x2 DUP2 GT ISZERO PUSH2 0x24C7 JUMPI PUSH2 0x24C7 PUSH2 0x324D JUMP JUMPDEST PUSH1 0x0 PUSH2 0xE65 DUP6 DUP6 DUP6 DUP6 PUSH2 0x26BD JUMP JUMPDEST PUSH1 0x0 DUP3 PUSH2 0x269E JUMPI PUSH2 0x250C DUP6 PUSH1 0x1 PUSH1 0x80 SHL DUP7 DUP6 PUSH2 0x26BD JUMP JUMPDEST PUSH2 0xE65 DUP6 DUP6 PUSH1 0x1 PUSH1 0x80 SHL DUP6 PUSH2 0x26BD JUMP JUMPDEST PUSH1 0x60 PUSH2 0x17C4 DUP5 DUP5 PUSH1 0x0 DUP6 PUSH2 0x27B9 JUMP JUMPDEST PUSH1 0x0 DUP1 PUSH1 0x0 PUSH2 0x26CC DUP8 DUP8 PUSH2 0x2894 JUMP JUMPDEST SWAP2 POP SWAP2 POP DUP1 PUSH1 0x0 EQ ISZERO PUSH2 0x26ED JUMPI PUSH2 0x26E4 DUP3 DUP7 DUP7 PUSH2 0x28B3 JUMP JUMPDEST SWAP3 POP POP POP PUSH2 0xE68 JUMP JUMPDEST DUP1 DUP6 GT PUSH2 0x271E JUMPI PUSH1 0x40 MLOAD PUSH4 0x362CED09 PUSH1 0xE1 SHL DUP2 MSTORE PUSH1 0x4 DUP2 ADD DUP9 SWAP1 MSTORE PUSH1 0x24 DUP2 ADD DUP8 SWAP1 MSTORE PUSH1 0x44 DUP2 ADD DUP7 SWAP1 MSTORE PUSH1 0x64 ADD PUSH2 0x1838 JUMP JUMPDEST PUSH1 0x0 DUP6 DUP8 DUP10 MULMOD PUSH1 0x0 DUP8 DUP2 SUB DUP9 AND SWAP8 DUP9 SWAP1 DIV SWAP8 PUSH1 0x2 PUSH1 0x3 DUP11 MUL DUP2 XOR DUP1 DUP12 MUL DUP3 SUB MUL DUP1 DUP12 MUL DUP3 SUB MUL DUP1 DUP12 MUL DUP3 SUB MUL DUP1 DUP12 MUL DUP3 SUB MUL DUP1 DUP12 MUL DUP3 SUB MUL DUP1 DUP12 MUL SWAP1 SWAP2 SUB MUL SWAP2 DUP2 SWAP1 SUB DUP2 SWAP1 DIV PUSH1 0x1 ADD DUP7 DUP5 GT SWAP1 SWAP6 SUB SWAP5 DUP6 MUL SWAP3 SWAP1 SWAP6 SUB SWAP5 SWAP1 SWAP5 DIV OR SWAP3 DUP4 MUL SWAP4 POP DUP5 SWAP1 POP DUP1 ISZERO PUSH2 0x279C JUMPI POP DUP5 DUP1 PUSH2 0x2796 JUMPI PUSH2 0x2796 PUSH2 0x32BF JUMP JUMPDEST DUP7 DUP9 MULMOD ISZERO ISZERO JUMPDEST ISZERO PUSH2 0x27AF JUMPI DUP3 PUSH2 0x27AB DUP2 PUSH2 0x32D5 JUMP JUMPDEST SWAP4 POP POP JUMPDEST POP POP SWAP5 SWAP4 POP POP POP POP JUMP JUMPDEST PUSH1 0x60 DUP3 SELFBALANCE LT ISZERO PUSH2 0x281A JUMPI PUSH1 0x40 MLOAD PUSH3 0x461BCD PUSH1 0xE5 SHL DUP2 MSTORE PUSH1 0x20 PUSH1 0x4 DUP3 ADD MSTORE PUSH1 0x26 PUSH1 0x24 DUP3 ADD MSTORE PUSH32 0x416464726573733A20696E73756666696369656E742062616C616E636520666F PUSH1 0x44 DUP3 ADD MSTORE PUSH6 0x1C8818D85B1B PUSH1 0xD2 SHL PUSH1 0x64 DUP3 ADD MSTORE PUSH1 0x84 ADD PUSH2 0x1838 JUMP JUMPDEST PUSH1 0x0 DUP1 DUP7 PUSH1 0x1 PUSH1 0x1 PUSH1 0xA0 SHL SUB AND DUP6 DUP8 PUSH1 0x40 MLOAD PUSH2 0x2836 SWAP2 SWAP1 PUSH2 0x32F0 JUMP JUMPDEST PUSH1 0x0 PUSH1 0x40 MLOAD DUP1 DUP4 SUB DUP2 DUP6 DUP8 GAS CALL SWAP3 POP POP POP RETURNDATASIZE DUP1 PUSH1 0x0 DUP2 EQ PUSH2 0x2873 JUMPI PUSH1 0x40 MLOAD SWAP2 POP PUSH1 0x1F NOT PUSH1 0x3F RETURNDATASIZE ADD AND DUP3 ADD PUSH1 0x40 MSTORE RETURNDATASIZE DUP3 MSTORE RETURNDATASIZE PUSH1 0x0 PUSH1 0x20 DUP5 ADD RETURNDATACOPY PUSH2 0x2878 JUMP JUMPDEST PUSH1 0x60 SWAP2 POP JUMPDEST POP SWAP2 POP SWAP2 POP PUSH2 0x2889 DUP8 DUP4 DUP4 DUP8 PUSH2 0x28EE JUMP JUMPDEST SWAP8 SWAP7 POP POP POP POP POP POP POP JUMP JUMPDEST PUSH1 0x0 DUP1 PUSH1 0x0 NOT DUP4 DUP6 MULMOD DUP4 DUP6 MUL SWAP3 POP DUP3 DUP2 LT DUP4 DUP3 SUB SUB SWAP2 POP POP SWAP3 POP SWAP3 SWAP1 POP JUMP JUMPDEST PUSH1 0x0 PUSH2 0x28BF DUP4 DUP6 PUSH2 0x330C JUMP JUMPDEST SWAP1 POP DUP2 DUP1 ISZERO PUSH2 0x28D6 JUMPI POP PUSH2 0x28D3 DUP4 DUP6 PUSH2 0x3320 JUMP JUMPDEST ISZERO ISZERO JUMPDEST ISZERO PUSH2 0x17C7 JUMPI DUP1 PUSH2 0x28E5 DUP2 PUSH2 0x32D5 JUMP JUMPDEST SWAP6 SWAP5 POP POP POP POP POP JUMP JUMPDEST PUSH1 0x60 DUP4 ISZERO PUSH2 0x295A JUMPI DUP3 MLOAD PUSH2 0x2953 JUMPI PUSH1 0x1 PUSH1 0x1 PUSH1 0xA0 SHL SUB DUP6 AND EXTCODESIZE PUSH2 0x2953 JUMPI PUSH1 0x40 MLOAD PUSH3 0x461BCD PUSH1 0xE5 SHL DUP2 MSTORE PUSH1 0x20 PUSH1 0x4 DUP3 ADD MSTORE PUSH1 0x1D PUSH1 0x24 DUP3 ADD MSTORE PUSH32 0x416464726573733A2063616C6C20746F206E6F6E2D636F6E7472616374000000 PUSH1 0x44 DUP3 ADD MSTORE PUSH1 0x64 ADD PUSH2 0x1838 JUMP JUMPDEST POP DUP2 PUSH2 0xE68 JUMP JUMPDEST PUSH2 0xE68 DUP4 DUP4 DUP2 MLOAD ISZERO PUSH2 0x296F JUMPI DUP2 MLOAD DUP1 DUP4 PUSH1 0x20 ADD REVERT JUMPDEST DUP1 PUSH1 0x40 MLOAD PUSH3 0x461BCD PUSH1 0xE5 SHL DUP2 MSTORE PUSH1 0x4 ADD PUSH2 0x1838 SWAP2 SWAP1 PUSH2 0x3334 JUMP JUMPDEST PUSH1 0x0 PUSH1 0x20 DUP3 DUP5 SUB SLT ISZERO PUSH2 0x299B JUMPI PUSH1 0x0 DUP1 REVERT JUMPDEST POP CALLDATALOAD SWAP2 SWAP1 POP JUMP JUMPDEST PUSH1 0x0 PUSH2 0x100 DUP3 DUP5 SUB SLT ISZERO PUSH2 0x29B5 JUMPI PUSH1 0x0 DUP1 REVERT JUMPDEST POP SWAP2 SWAP1 POP JUMP JUMPDEST PUSH1 0x0 PUSH1 0x20 DUP3 DUP5 SUB SLT ISZERO PUSH2 0x29CD JUMPI PUSH1 0x0 DUP1 REVERT JUMPDEST DUP2 CALLDATALOAD PUSH1 0x1 PUSH1 0x1 PUSH1 0x40 SHL SUB DUP2 GT ISZERO PUSH2 0x29E3 JUMPI PUSH1 0x0 DUP1 REVERT JUMPDEST PUSH2 0xE68 DUP5 DUP3 DUP6 ADD PUSH2 0x29A2 JUMP JUMPDEST PUSH1 0x0 JUMPDEST DUP4 DUP2 LT ISZERO PUSH2 0x2A0A JUMPI DUP2 DUP2 ADD MLOAD DUP4 DUP3 ADD MSTORE PUSH1 0x20 ADD PUSH2 0x29F2 JUMP JUMPDEST DUP4 DUP2 GT ISZERO PUSH2 0x23EF JUMPI POP POP PUSH1 0x0 SWAP2 ADD MSTORE JUMP JUMPDEST PUSH1 0x0 DUP2 MLOAD DUP1 DUP5 MSTORE PUSH2 0x2A33 DUP2 PUSH1 0x20 DUP7 ADD PUSH1 0x20 DUP7 ADD PUSH2 0x29EF JUMP JUMPDEST PUSH1 0x1F ADD PUSH1 0x1F NOT AND SWAP3 SWAP1 SWAP3 ADD PUSH1 0x20 ADD SWAP3 SWAP2 POP POP JUMP JUMPDEST DUP5 DUP2 MSTORE DUP4 PUSH1 0x20 DUP3 ADD MSTORE DUP3 PUSH1 0x40 DUP3 ADD MSTORE PUSH1 0x80 PUSH1 0x60 DUP3 ADD MSTORE PUSH1 0x0 PUSH2 0x2A6C PUSH1 0x80 DUP4 ADD DUP5 PUSH2 0x2A1B JUMP JUMPDEST SWAP7 SWAP6 POP POP POP POP POP POP JUMP JUMPDEST PUSH1 0x0 PUSH1 0x20 DUP3 DUP5 SUB SLT ISZERO PUSH2 0x2A88 JUMPI PUSH1 0x0 DUP1 REVERT JUMPDEST DUP2 CALLDATALOAD PUSH1 0x1 PUSH1 0x1 PUSH1 0x40 SHL SUB DUP2 GT ISZERO PUSH2 0x2A9E JUMPI PUSH1 0x0 DUP1 REVERT JUMPDEST DUP3 ADD PUSH1 0xE0 DUP2 DUP6 SUB SLT ISZERO PUSH2 0x17C7 JUMPI PUSH1 0x0 DUP1 REVERT JUMPDEST PUSH1 0x0 PUSH1 0x20 DUP3 DUP5 SUB SLT ISZERO PUSH2 0x2AC2 JUMPI PUSH1 0x0 DUP1 REVERT JUMPDEST DUP2 CALLDATALOAD PUSH1 0x1 PUSH1 0x1 PUSH1 0x40 SHL SUB DUP2 GT ISZERO PUSH2 0x2AD8 JUMPI PUSH1 0x0 DUP1 REVERT JUMPDEST DUP3 ADD PUSH2 0x120 DUP2 DUP6 SUB SLT ISZERO PUSH2 0x17C7 JUMPI PUSH1 0x0 DUP1 REVERT JUMPDEST DUP1 CALLDATALOAD PUSH1 0x1 PUSH1 0x1 PUSH1 0xA0 SHL SUB DUP2 AND DUP2 EQ PUSH2 0x2B02 JUMPI PUSH1 0x0 DUP1 REVERT JUMPDEST SWAP2 SWAP1 POP JUMP JUMPDEST PUSH1 0x3 DUP2 LT PUSH2 0x229D JUMPI PUSH1 0x0 DUP1 REVERT JUMPDEST DUP1 CALLDATALOAD PUSH2 0x2B02 DUP2 PUSH2 0x2B07 JUMP JUMPDEST PUSH1 0x0 DUP1 PUSH1 0x0 DUP1 PUSH1 0x80 DUP6 DUP8 SUB SLT ISZERO PUSH2 0x2B35 JUMPI PUSH1 0x0 DUP1 REVERT JUMPDEST DUP5 CALLDATALOAD SWAP4 POP PUSH1 0x20 DUP6 ADD CALLDATALOAD SWAP3 POP PUSH2 0x2B4C PUSH1 0x40 DUP7 ADD PUSH2 0x2AEB JUMP JUMPDEST SWAP2 POP PUSH1 0x60 DUP6 ADD CALLDATALOAD PUSH2 0x2B5C DUP2 PUSH2 0x2B07 JUMP JUMPDEST SWAP4 SWAP7 SWAP3 SWAP6 POP SWAP1 SWAP4 POP POP JUMP JUMPDEST DUP4 DUP2 MSTORE DUP3 PUSH1 0x20 DUP3 ADD MSTORE PUSH1 0x60 PUSH1 0x40 DUP3 ADD MSTORE PUSH1 0x0 PUSH2 0xE65 PUSH1 0x60 DUP4 ADD DUP5 PUSH2 0x2A1B JUMP JUMPDEST PUSH1 0x0 DUP1 PUSH1 0x0 DUP1 PUSH1 0x0 PUSH1 0xA0 DUP7 DUP9 SUB SLT ISZERO PUSH2 0x2B9E JUMPI PUSH1 0x0 DUP1 REVERT JUMPDEST DUP6 CALLDATALOAD SWAP5 POP PUSH1 0x20 DUP7 ADD CALLDATALOAD SWAP4 POP PUSH2 0x2BB5 PUSH1 0x40 DUP8 ADD PUSH2 0x2AEB JUMP JUMPDEST SWAP3 POP PUSH1 0x60 DUP7 ADD CALLDATALOAD PUSH2 0x2BC5 DUP2 PUSH2 0x2B07 JUMP JUMPDEST SWAP5 SWAP8 SWAP4 SWAP7 POP SWAP2 SWAP5 PUSH1 0x80 ADD CALLDATALOAD SWAP3 SWAP2 POP POP JUMP JUMPDEST PUSH1 0x0 DUP1 PUSH1 0x0 PUSH1 0x60 DUP5 DUP7 SUB SLT ISZERO PUSH2 0x2BEB JUMPI PUSH1 0x0 DUP1 REVERT JUMPDEST DUP4 CALLDATALOAD SWAP3 POP PUSH1 0x20 DUP5 ADD CALLDATALOAD SWAP2 POP PUSH1 0x40 DUP5 ADD CALLDATALOAD PUSH2 0x2C04 DUP2 PUSH2 0x2B07 JUMP JUMPDEST DUP1 SWAP2 POP POP SWAP3 POP SWAP3 POP SWAP3 JUMP JUMPDEST PUSH4 0x4E487B71 PUSH1 0xE0 SHL PUSH1 0x0 MSTORE PUSH1 0x32 PUSH1 0x4 MSTORE PUSH1 0x24 PUSH1 0x0 REVERT JUMPDEST PUSH4 0x4E487B71 PUSH1 0xE0 SHL PUSH1 0x0 MSTORE PUSH1 0x41 PUSH1 0x4 MSTORE PUSH1 0x24 PUSH1 0x0 REVERT JUMPDEST PUSH1 0x40 MLOAD PUSH2 0x100 DUP2 ADD PUSH1 0x1 PUSH1 0x1 PUSH1 0x40 SHL SUB DUP2 GT DUP3 DUP3 LT OR ISZERO PUSH2 0x2C5E JUMPI PUSH2 0x2C5E PUSH2 0x2C25 JUMP JUMPDEST PUSH1 0x40 MSTORE SWAP1 JUMP JUMPDEST PUSH1 0x40 MLOAD PUSH1 0xE0 DUP2 ADD PUSH1 0x1 PUSH1 0x1 PUSH1 0x40 SHL SUB DUP2 GT DUP3 DUP3 LT OR ISZERO PUSH2 0x2C5E JUMPI PUSH2 0x2C5E PUSH2 0x2C25 JUMP JUMPDEST PUSH1 0x40 MLOAD PUSH2 0x120 DUP2 ADD PUSH1 0x1 PUSH1 0x1 PUSH1 0x40 SHL SUB DUP2 GT DUP3 DUP3 LT OR ISZERO PUSH2 0x2C5E JUMPI PUSH2 0x2C5E PUSH2 0x2C25 JUMP JUMPDEST PUSH1 0x40 MLOAD PUSH1 0x1F DUP3 ADD PUSH1 0x1F NOT AND DUP2 ADD PUSH1 0x1 PUSH1 0x1 PUSH1 0x40 SHL SUB DUP2 GT DUP3 DUP3 LT OR ISZERO PUSH2 0x2CD1 JUMPI PUSH2 0x2CD1 PUSH2 0x2C25 JUMP JUMPDEST PUSH1 0x40 MSTORE SWAP2 SWAP1 POP JUMP JUMPDEST PUSH1 0x2 DUP2 LT PUSH2 0x229D JUMPI PUSH1 0x0 DUP1 REVERT JUMPDEST DUP1 CALLDATALOAD PUSH2 0x2B02 DUP2 PUSH2 0x2CD9 JUMP JUMPDEST PUSH1 0x0 PUSH1 0x1 PUSH1 0x1 PUSH1 0x40 SHL SUB DUP3 GT ISZERO PUSH2 0x2D0A JUMPI PUSH2 0x2D0A PUSH2 0x2C25 JUMP JUMPDEST POP PUSH1 0x1F ADD PUSH1 0x1F NOT AND PUSH1 0x20 ADD SWAP1 JUMP JUMPDEST PUSH1 0x0 DUP3 PUSH1 0x1F DUP4 ADD SLT PUSH2 0x2D29 JUMPI PUSH1 0x0 DUP1 REVERT JUMPDEST DUP2 CALLDATALOAD PUSH2 0x2D3C PUSH2 0x2D37 DUP3 PUSH2 0x2CF1 JUMP JUMPDEST PUSH2 0x2CA9 JUMP JUMPDEST DUP2 DUP2 MSTORE DUP5 PUSH1 0x20 DUP4 DUP7 ADD ADD GT ISZERO PUSH2 0x2D51 JUMPI PUSH1 0x0 DUP1 REVERT JUMPDEST DUP2 PUSH1 0x20 DUP6 ADD PUSH1 0x20 DUP4 ADD CALLDATACOPY PUSH1 0x0 SWAP2 DUP2 ADD PUSH1 0x20 ADD SWAP2 SWAP1 SWAP2 MSTORE SWAP4 SWAP3 POP POP POP JUMP JUMPDEST PUSH1 0x0 PUSH2 0x100 DUP3 CALLDATASIZE SUB SLT ISZERO PUSH2 0x2D81 JUMPI PUSH1 0x0 DUP1 REVERT JUMPDEST PUSH2 0x2D89 PUSH2 0x2C3B JUMP JUMPDEST DUP3 CALLDATALOAD DUP2 MSTORE PUSH1 0x20 DUP4 ADD CALLDATALOAD PUSH1 0x20 DUP3 ADD MSTORE PUSH2 0x2DA3 PUSH1 0x40 DUP5 ADD PUSH2 0x2AEB JUMP JUMPDEST PUSH1 0x40 DUP3 ADD MSTORE PUSH2 0x2DB4 PUSH1 0x60 DUP5 ADD PUSH2 0x2AEB JUMP JUMPDEST PUSH1 0x60 DUP3 ADD MSTORE PUSH2 0x2DC5 PUSH1 0x80 DUP5 ADD PUSH2 0x2CE6 JUMP JUMPDEST PUSH1 0x80 DUP3 ADD MSTORE PUSH1 0xA0 DUP4 ADD CALLDATALOAD PUSH1 0xA0 DUP3 ADD MSTORE PUSH1 0xC0 DUP4 ADD CALLDATALOAD PUSH1 0xC0 DUP3 ADD MSTORE PUSH1 0xE0 DUP4 ADD CALLDATALOAD PUSH1 0x1 PUSH1 0x1 PUSH1 0x40 SHL SUB DUP2 GT ISZERO PUSH2 0x2DF7 JUMPI PUSH1 0x0 DUP1 REVERT JUMPDEST PUSH2 0x2E03 CALLDATASIZE DUP3 DUP7 ADD PUSH2 0x2D18 JUMP JUMPDEST PUSH1 0xE0 DUP4 ADD MSTORE POP SWAP3 SWAP2 POP POP JUMP JUMPDEST PUSH1 0x0 PUSH1 0x20 DUP3 DUP5 SUB SLT ISZERO PUSH2 0x2E21 JUMPI PUSH1 0x0 DUP1 REVERT JUMPDEST DUP2 CALLDATALOAD PUSH2 0x17C7 DUP2 PUSH2 0x2CD9 JUMP JUMPDEST PUSH1 0x0 PUSH1 0x20 DUP3 DUP5 SUB SLT ISZERO PUSH2 0x2E3E JUMPI PUSH1 0x0 DUP1 REVERT JUMPDEST PUSH2 0x17C7 DUP3 PUSH2 0x2AEB JUMP JUMPDEST PUSH1 0x0 DUP1 DUP4 CALLDATALOAD PUSH1 0x1E NOT DUP5 CALLDATASIZE SUB ADD DUP2 SLT PUSH2 0x2E5E JUMPI PUSH1 0x0 DUP1 REVERT JUMPDEST DUP4 ADD DUP1 CALLDATALOAD SWAP2 POP PUSH1 0x1 PUSH1 0x1 PUSH1 0x40 SHL SUB DUP3 GT ISZERO PUSH2 0x2E78 JUMPI PUSH1 0x0 DUP1 REVERT JUMPDEST PUSH1 0x20 ADD SWAP2 POP CALLDATASIZE DUP2 SWAP1 SUB DUP3 SGT ISZERO PUSH2 0x2E8D JUMPI PUSH1 0x0 DUP1 REVERT JUMPDEST SWAP3 POP SWAP3 SWAP1 POP JUMP JUMPDEST DUP1 MLOAD DUP3 MSTORE PUSH1 0x20 DUP2 ADD MLOAD PUSH1 0x20 DUP4 ADD MSTORE PUSH1 0x40 DUP2 ADD MLOAD PUSH1 0x40 DUP4 ADD MSTORE PUSH1 0x60 DUP2 ADD MLOAD PUSH1 0x60 DUP4 ADD MSTORE PUSH1 0x80 DUP2 ADD MLOAD PUSH1 0x80 DUP4 ADD MSTORE PUSH1 0x0 PUSH1 0xA0 DUP3 ADD MLOAD PUSH1 0xC0 PUSH1 0xA0 DUP6 ADD MSTORE PUSH2 0xE68 PUSH1 0xC0 DUP6 ADD DUP3 PUSH2 0x2A1B JUMP JUMPDEST PUSH1 0x20 DUP2 MSTORE PUSH1 0x0 PUSH2 0x17C7 PUSH1 0x20 DUP4 ADD DUP5 PUSH2 0x2E94 JUMP JUMPDEST PUSH1 0x0 PUSH1 0x20 DUP3 DUP5 SUB SLT ISZERO PUSH2 0x2F00 JUMPI PUSH1 0x0 DUP1 REVERT JUMPDEST DUP2 MLOAD PUSH1 0x1 PUSH1 0x1 PUSH1 0x40 SHL SUB DUP2 GT ISZERO PUSH2 0x2F16 JUMPI PUSH1 0x0 DUP1 REVERT JUMPDEST DUP3 ADD PUSH1 0x1F DUP2 ADD DUP5 SGT PUSH2 0x2F27 JUMPI PUSH1 0x0 DUP1 REVERT JUMPDEST DUP1 MLOAD PUSH2 0x2F35 PUSH2 0x2D37 DUP3 PUSH2 0x2CF1 JUMP JUMPDEST DUP2 DUP2 MSTORE DUP6 PUSH1 0x20 DUP4 DUP6 ADD ADD GT ISZERO PUSH2 0x2F4A JUMPI PUSH1 0x0 DUP1 REVERT JUMPDEST PUSH2 0x28E5 DUP3 PUSH1 0x20 DUP4 ADD PUSH1 0x20 DUP7 ADD PUSH2 0x29EF JUMP JUMPDEST PUSH4 0x4E487B71 PUSH1 0xE0 SHL PUSH1 0x0 MSTORE PUSH1 0x11 PUSH1 0x4 MSTORE PUSH1 0x24 PUSH1 0x0 REVERT JUMPDEST PUSH1 0x0 DUP3 DUP3 LT ISZERO PUSH2 0x2F83 JUMPI PUSH2 0x2F83 PUSH2 0x2F5B JUMP JUMPDEST POP SUB SWAP1 JUMP JUMPDEST PUSH1 0x0 PUSH1 0xE0 DUP3 CALLDATASIZE SUB SLT ISZERO PUSH2 0x2F9A JUMPI PUSH1 0x0 DUP1 REVERT JUMPDEST PUSH2 0x2FA2 PUSH2 0x2C64 JUMP JUMPDEST DUP3 CALLDATALOAD DUP2 MSTORE PUSH1 0x20 DUP4 ADD CALLDATALOAD PUSH1 0x20 DUP3 ADD MSTORE PUSH2 0x2FBC PUSH1 0x40 DUP5 ADD PUSH2 0x2AEB JUMP JUMPDEST PUSH1 0x40 DUP3 ADD MSTORE PUSH2 0x2FCD PUSH1 0x60 DUP5 ADD PUSH2 0x2AEB JUMP JUMPDEST PUSH1 0x60 DUP3 ADD MSTORE PUSH2 0x2FDE PUSH1 0x80 DUP5 ADD PUSH2 0x2B14 JUMP JUMPDEST PUSH1 0x80 DUP3 ADD MSTORE PUSH1 0xA0 DUP4 ADD CALLDATALOAD PUSH1 0xA0 DUP3 ADD MSTORE PUSH1 0xC0 DUP4 ADD CALLDATALOAD PUSH1 0x1 PUSH1 0x1 PUSH1 0x40 SHL SUB DUP2 GT ISZERO PUSH2 0x3006 JUMPI PUSH1 0x0 DUP1 REVERT JUMPDEST PUSH2 0x3012 CALLDATASIZE DUP3 DUP7 ADD PUSH2 0x2D18 JUMP JUMPDEST PUSH1 0xC0 DUP4 ADD MSTORE POP SWAP3 SWAP2 POP POP JUMP JUMPDEST PUSH1 0x0 PUSH1 0x20 DUP3 DUP5 SUB SLT ISZERO PUSH2 0x3030 JUMPI PUSH1 0x0 DUP1 REVERT JUMPDEST DUP2 CALLDATALOAD PUSH2 0x17C7 DUP2 PUSH2 0x2B07 JUMP JUMPDEST PUSH1 0x0 PUSH2 0x120 DUP3 CALLDATASIZE SUB SLT ISZERO PUSH2 0x304E JUMPI PUSH1 0x0 DUP1 REVERT JUMPDEST PUSH2 0x3056 PUSH2 0x2C86 JUMP JUMPDEST DUP3 CALLDATALOAD DUP2 MSTORE PUSH1 0x20 DUP4 ADD CALLDATALOAD PUSH1 0x20 DUP3 ADD MSTORE PUSH2 0x3070 PUSH1 0x40 DUP5 ADD PUSH2 0x2AEB JUMP JUMPDEST PUSH1 0x40 DUP3 ADD MSTORE PUSH2 0x3081 PUSH1 0x60 DUP5 ADD PUSH2 0x2AEB JUMP JUMPDEST PUSH1 0x60 DUP3 ADD MSTORE PUSH2 0x3092 PUSH1 0x80 DUP5 ADD PUSH2 0x2AEB JUMP JUMPDEST PUSH1 0x80 DUP3 ADD MSTORE PUSH2 0x30A3 PUSH1 0xA0 DUP5 ADD PUSH2 0x2CE6 JUMP JUMPDEST PUSH1 0xA0 DUP3 ADD MSTORE PUSH1 0xC0 DUP4 ADD CALLDATALOAD PUSH1 0xC0 DUP3 ADD MSTORE PUSH1 0xE0 DUP4 ADD CALLDATALOAD PUSH1 0xE0 DUP3 ADD MSTORE PUSH2 0x100 DUP1 DUP5 ADD CALLDATALOAD PUSH1 0x1 PUSH1 0x1 PUSH1 0x40 SHL SUB DUP2 GT ISZERO PUSH2 0x30D7 JUMPI PUSH1 0x0 DUP1 REVERT JUMPDEST PUSH2 0x30E3 CALLDATASIZE DUP3 DUP8 ADD PUSH2 0x2D18 JUMP JUMPDEST SWAP2 DUP4 ADD SWAP2 SWAP1 SWAP2 MSTORE POP SWAP3 SWAP2 POP POP JUMP JUMPDEST PUSH1 0x0 PUSH1 0x20 DUP3 DUP5 SUB SLT ISZERO PUSH2 0x3103 JUMPI PUSH1 0x0 DUP1 REVERT JUMPDEST POP MLOAD SWAP2 SWAP1 POP JUMP JUMPDEST PUSH1 0x0 DUP3 NOT DUP3 GT ISZERO PUSH2 0x311D JUMPI PUSH2 0x311D PUSH2 0x2F5B JUMP JUMPDEST POP ADD SWAP1 JUMP JUMPDEST PUSH4 0x4E487B71 PUSH1 0xE0 SHL PUSH1 0x0 MSTORE PUSH1 0x31 PUSH1 0x4 MSTORE PUSH1 0x24 PUSH1 0x0 REVERT JUMPDEST DUP1 ISZERO ISZERO DUP2 EQ PUSH2 0x229D JUMPI PUSH1 0x0 DUP1 REVERT JUMPDEST DUP1 CALLDATALOAD PUSH2 0x2B02 DUP2 PUSH2 0x3138 JUMP JUMPDEST PUSH1 0x0 PUSH2 0x100 DUP3 CALLDATASIZE SUB SLT ISZERO PUSH2 0x3164 JUMPI PUSH1 0x0 DUP1 REVERT JUMPDEST PUSH2 0x316C PUSH2 0x2C3B JUMP JUMPDEST DUP3 CALLDATALOAD DUP2 MSTORE PUSH1 0x20 DUP4 ADD CALLDATALOAD PUSH1 0x20 DUP3 ADD MSTORE PUSH2 0x3186 PUSH1 0x40 DUP5 ADD PUSH2 0x2AEB JUMP JUMPDEST PUSH1 0x40 DUP3 ADD MSTORE PUSH2 0x3197 PUSH1 0x60 DUP5 ADD PUSH2 0x2AEB JUMP JUMPDEST PUSH1 0x60 DUP3 ADD MSTORE PUSH2 0x31A8 PUSH1 0x80 DUP5 ADD PUSH2 0x3146 JUMP JUMPDEST PUSH1 0x80 DUP3 ADD MSTORE PUSH2 0x31B9 PUSH1 0xA0 DUP5 ADD PUSH2 0x2CE6 JUMP JUMPDEST PUSH1 0xA0 DUP3 ADD MSTORE PUSH1 0xC0 DUP4 ADD CALLDATALOAD PUSH1 0xC0 DUP3 ADD MSTORE PUSH1 0xE0 DUP4 ADD CALLDATALOAD PUSH1 0x1 PUSH1 0x1 PUSH1 0x40 SHL SUB DUP2 GT ISZERO PUSH2 0x2DF7 JUMPI PUSH1 0x0 DUP1 REVERT JUMPDEST PUSH1 0x0 PUSH1 0x20 DUP3 DUP5 SUB SLT ISZERO PUSH2 0x31F3 JUMPI PUSH1 0x0 DUP1 REVERT JUMPDEST DUP2 CALLDATALOAD PUSH2 0x17C7 DUP2 PUSH2 0x3138 JUMP JUMPDEST PUSH1 0x20 DUP2 MSTORE DUP2 MLOAD PUSH1 0x20 DUP3 ADD MSTORE PUSH1 0x20 DUP3 ADD MLOAD PUSH1 0x40 DUP3 ADD MSTORE PUSH1 0x40 DUP3 ADD MLOAD ISZERO ISZERO PUSH1 0x60 DUP3 ADD MSTORE PUSH1 0x60 DUP3 ADD MLOAD PUSH1 0x80 DUP3 ADD MSTORE PUSH1 0x80 DUP3 ADD MLOAD PUSH1 0xA0 DUP3 ADD MSTORE PUSH1 0x0 PUSH1 0xA0 DUP4 ADD MLOAD PUSH1 0xC0 DUP1 DUP5 ADD MSTORE PUSH2 0xE68 PUSH1 0xE0 DUP5 ADD DUP3 PUSH2 0x2A1B JUMP JUMPDEST PUSH4 0x4E487B71 PUSH1 0xE0 SHL PUSH1 0x0 MSTORE PUSH1 0x21 PUSH1 0x4 MSTORE PUSH1 0x24 PUSH1 0x0 REVERT JUMPDEST PUSH1 0x1 PUSH1 0x1 PUSH1 0xA0 SHL SUB DUP5 AND DUP2 MSTORE PUSH1 0x60 DUP2 ADD PUSH1 0x3 DUP5 LT PUSH2 0x3291 JUMPI PUSH4 0x4E487B71 PUSH1 0xE0 SHL PUSH1 0x0 MSTORE PUSH1 0x21 PUSH1 0x4 MSTORE PUSH1 0x24 PUSH1 0x0 REVERT JUMPDEST PUSH1 0x20 DUP3 ADD SWAP4 SWAP1 SWAP4 MSTORE PUSH1 0x40 ADD MSTORE SWAP2 SWAP1 POP JUMP JUMPDEST PUSH1 0x0 PUSH1 0x20 DUP3 DUP5 SUB SLT ISZERO PUSH2 0x32B4 JUMPI PUSH1 0x0 DUP1 REVERT JUMPDEST DUP2 MLOAD PUSH2 0x17C7 DUP2 PUSH2 0x3138 JUMP JUMPDEST PUSH4 0x4E487B71 PUSH1 0xE0 SHL PUSH1 0x0 MSTORE PUSH1 0x12 PUSH1 0x4 MSTORE PUSH1 0x24 PUSH1 0x0 REVERT JUMPDEST PUSH1 0x0 PUSH1 0x0 NOT DUP3 EQ ISZERO PUSH2 0x32E9 JUMPI PUSH2 0x32E9 PUSH2 0x2F5B JUMP JUMPDEST POP PUSH1 0x1 ADD SWAP1 JUMP JUMPDEST PUSH1 0x0 DUP3 MLOAD PUSH2 0x3302 DUP2 DUP5 PUSH1 0x20 DUP8 ADD PUSH2 0x29EF JUMP JUMPDEST SWAP2 SWAP1 SWAP2 ADD SWAP3 SWAP2 POP POP JUMP JUMPDEST PUSH1 0x0 DUP3 PUSH2 0x331B JUMPI PUSH2 0x331B PUSH2 0x32BF JUMP JUMPDEST POP DIV SWAP1 JUMP JUMPDEST PUSH1 0x0 DUP3 PUSH2 0x332F JUMPI PUSH2 0x332F PUSH2 0x32BF JUMP JUMPDEST POP MOD SWAP1 JUMP JUMPDEST PUSH1 0x20 DUP2 MSTORE PUSH1 0x0 PUSH2 0x17C7 PUSH1 0x20 DUP4 ADD DUP5 PUSH2 0x2A1B JUMP INVALID LOG2 PUSH5 0x6970667358 0x22 SLT KECCAK256 PUSH30 0x2C4821A941F22F4FF0A956DD0DF8E013377CE1312FE2F49504DF9850E3C6 SAR PUSH5 0x736F6C6343 STOP ADDMOD ADDMOD STOP CALLER LOG2 PUSH5 0x6970667358 0x22 SLT KECCAK256 MUL PUSH10 0x40FA54BB43CB6D4E2727 BYTE 0xB9 TIMESTAMP DUP6 0x49 PUSH26 0xE7EF7C3617D0B77FCBE3EC13BFBE64736F6C6343000808003300 "},"methodIdentifiers":{"create(address,address)":"3e68680a","get(address,address)":"d81e8423","getByIndex(uint256)":"2d883a73","numberOfPairs()":"fc0d92bd","parameter()":"ad4d4e29"}}}}}