{"src/TimeswapV2OptionDeployer.sol":{"TimeswapV2OptionDeployer":{"abi":[{"inputs":[],"name":"parameter","outputs":[{"internalType":"address","name":"optionFactory","type":"address"},{"internalType":"address","name":"token0","type":"address"},{"internalType":"address","name":"token1","type":"address"}],"stateMutability":"view","type":"function"}],"evm":{"bytecode":{"linkReferences":{},"object":"6080604052348015600f57600080fd5b5060ad8061001e6000396000f3fe6080604052348015600f57600080fd5b506004361060285760003560e01c8063ad4d4e2914602d575b600080fd5b600054600154600254604c926001600160a01b03908116928116911683565b604080516001600160a01b039485168152928416602084015292168183015290519081900360600190f3fea2646970667358221220e2dee46144e3094cde3ec45944e9f8138ff02f4f43a2e94172941c0deb3ab34a64736f6c63430008080033","opcodes":"PUSH1 0x80 PUSH1 0x40 MSTORE CALLVALUE DUP1 ISZERO PUSH1 0xF JUMPI PUSH1 0x0 DUP1 REVERT JUMPDEST POP PUSH1 0xAD DUP1 PUSH2 0x1E PUSH1 0x0 CODECOPY PUSH1 0x0 RETURN INVALID PUSH1 0x80 PUSH1 0x40 MSTORE CALLVALUE DUP1 ISZERO PUSH1 0xF JUMPI PUSH1 0x0 DUP1 REVERT JUMPDEST POP PUSH1 0x4 CALLDATASIZE LT PUSH1 0x28 JUMPI PUSH1 0x0 CALLDATALOAD PUSH1 0xE0 SHR DUP1 PUSH4 0xAD4D4E29 EQ PUSH1 0x2D JUMPI JUMPDEST PUSH1 0x0 DUP1 REVERT JUMPDEST PUSH1 0x0 SLOAD PUSH1 0x1 SLOAD PUSH1 0x2 SLOAD PUSH1 0x4C SWAP3 PUSH1 0x1 PUSH1 0x1 PUSH1 0xA0 SHL SUB SWAP1 DUP2 AND SWAP3 DUP2 AND SWAP2 AND DUP4 JUMP JUMPDEST PUSH1 0x40 DUP1 MLOAD PUSH1 0x1 PUSH1 0x1 PUSH1 0xA0 SHL SUB SWAP5 DUP6 AND DUP2 MSTORE SWAP3 DUP5 AND PUSH1 0x20 DUP5 ADD MSTORE SWAP3 AND DUP2 DUP4 ADD MSTORE SWAP1 MLOAD SWAP1 DUP2 SWAP1 SUB PUSH1 0x60 ADD SWAP1 RETURN INVALID LOG2 PUSH5 0x6970667358 0x22 SLT KECCAK256 0xE2 0xDE 0xE4 PUSH2 0x44E3 MULMOD 0x4C 0xDE RETURNDATACOPY 0xC4 MSIZE DIFFICULTY 0xE9 0xF8 SGT DUP16 CREATE 0x2F 0x4F NUMBER LOG2 0xE9 COINBASE PUSH19 0x941C0DEB3AB34A64736F6C6343000808003300 "},"methodIdentifiers":{"parameter()":"ad4d4e29"}}}}}