{
  "abi": [
    {
      "inputs": [
        {
          "internalType": "address",
          "name": "chosenOwner",
          "type": "address"
        },
        {
          "internalType": "uint256",
          "name": "chosenTransactionFee",
          "type": "uint256"
        },
        {
          "internalType": "uint256",
          "name": "chosenProtocolFee",
          "type": "uint256"
        }
      ],
      "stateMutability": "nonpayable",
      "type": "constructor"
    },
    {
      "inputs": [
        {
          "internalType": "address",
          "name": "owner",
          "type": "address"
        }
      ],
      "name": "AlreadyTheOwner",
      "type": "error"
    },
    {
      "inputs": [
        {
          "internalType": "uint256",
          "name": "fee",
          "type": "uint256"
        }
      ],
      "name": "IncorrectFeeInitialization",
      "type": "error"
    },
    {
      "inputs": [
        {
          "internalType": "address",
          "name": "caller",
          "type": "address"
        },
        {
          "internalType": "address",
          "name": "owner",
          "type": "address"
        }
      ],
      "name": "NotTheOwner",
      "type": "error"
    },
    {
      "inputs": [
        {
          "internalType": "address",
          "name": "caller",
          "type": "address"
        },
        {
          "internalType": "address",
          "name": "pendingOwner",
          "type": "address"
        }
      ],
      "name": "NotThePendingOwner",
      "type": "error"
    },
    {
      "inputs": [],
      "name": "ZeroAddress",
      "type": "error"
    },
    {
      "anonymous": false,
      "inputs": [
        {
          "indexed": false,
          "internalType": "address",
          "name": "owner",
          "type": "address"
        }
      ],
      "name": "AcceptOwner",
      "type": "event"
    },
    {
      "anonymous": false,
      "inputs": [
        {
          "indexed": true,
          "internalType": "address",
          "name": "caller",
          "type": "address"
        },
        {
          "indexed": true,
          "internalType": "address",
          "name": "option",
          "type": "address"
        },
        {
          "indexed": true,
          "internalType": "address",
          "name": "poolPair",
          "type": "address"
        }
      ],
      "name": "Create",
      "type": "event"
    },
    {
      "anonymous": false,
      "inputs": [
        {
          "indexed": false,
          "internalType": "address",
          "name": "pendingOwner",
          "type": "address"
        }
      ],
      "name": "SetOwner",
      "type": "event"
    },
    {
      "inputs": [],
      "name": "acceptOwner",
      "outputs": [],
      "stateMutability": "nonpayable",
      "type": "function"
    },
    {
      "inputs": [
        {
          "internalType": "address",
          "name": "optionPair",
          "type": "address"
        }
      ],
      "name": "create",
      "outputs": [
        {
          "internalType": "address",
          "name": "pair",
          "type": "address"
        }
      ],
      "stateMutability": "nonpayable",
      "type": "function"
    },
    {
      "inputs": [
        {
          "internalType": "address",
          "name": "optionPair",
          "type": "address"
        }
      ],
      "name": "get",
      "outputs": [
        {
          "internalType": "address",
          "name": "pair",
          "type": "address"
        }
      ],
      "stateMutability": "view",
      "type": "function"
    },
    {
      "inputs": [
        {
          "internalType": "uint256",
          "name": "",
          "type": "uint256"
        }
      ],
      "name": "getByIndex",
      "outputs": [
        {
          "internalType": "address",
          "name": "",
          "type": "address"
        }
      ],
      "stateMutability": "view",
      "type": "function"
    },
    {
      "inputs": [],
      "name": "numberOfPairs",
      "outputs": [
        {
          "internalType": "uint256",
          "name": "",
          "type": "uint256"
        }
      ],
      "stateMutability": "view",
      "type": "function"
    },
    {
      "inputs": [],
      "name": "owner",
      "outputs": [
        {
          "internalType": "address",
          "name": "",
          "type": "address"
        }
      ],
      "stateMutability": "view",
      "type": "function"
    },
    {
      "inputs": [],
      "name": "parameter",
      "outputs": [
        {
          "internalType": "address",
          "name": "poolFactory",
          "type": "address"
        },
        {
          "internalType": "address",
          "name": "optionPair",
          "type": "address"
        },
        {
          "internalType": "uint256",
          "name": "transactionFee",
          "type": "uint256"
        },
        {
          "internalType": "uint256",
          "name": "protocolFee",
          "type": "uint256"
        }
      ],
      "stateMutability": "view",
      "type": "function"
    },
    {
      "inputs": [],
      "name": "pendingOwner",
      "outputs": [
        {
          "internalType": "address",
          "name": "",
          "type": "address"
        }
      ],
      "stateMutability": "view",
      "type": "function"
    },
    {
      "inputs": [],
      "name": "protocolFee",
      "outputs": [
        {
          "internalType": "uint256",
          "name": "",
          "type": "uint256"
        }
      ],
      "stateMutability": "view",
      "type": "function"
    },
    {
      "inputs": [
        {
          "internalType": "address",
          "name": "chosenPendingOwner",
          "type": "address"
        }
      ],
      "name": "setPendingOwner",
      "outputs": [],
      "stateMutability": "nonpayable",
      "type": "function"
    },
    {
      "inputs": [],
      "name": "transactionFee",
      "outputs": [
        {
          "internalType": "uint256",
          "name": "",
          "type": "uint256"
        }
      ],
      "stateMutability": "view",
      "type": "function"
    }
  ],
  "bytecode": {
    "object": "0x60c060405234801561001057600080fd5b50604051614f4d380380614f4d83398101604081905261002f916100aa565b600480546001600160a01b0319166001600160a01b03851617905561ffff82111561007557604051634403315760e01b8152600481018390526024015b60405180910390fd5b61ffff81111561009b57604051634403315760e01b81526004810182905260240161006c565b60809190915260a052506100ed565b6000806000606084860312156100bf57600080fd5b83516001600160a01b03811681146100d657600080fd5b602085015160409095015190969495509392505050565b60805160a051614e2e61011f6000396000818161018b01526102a501526000818160f601526102840152614e2e6000f3fe608060405234801561001057600080fd5b50600436106100a95760003560e01c8063b0e21e8a11610071578063b0e21e8a14610186578063c2bc2efc146101ad578063c42069ec146101d9578063e30c3978146101ee578063ebbc496514610201578063fc0d92bd1461020957600080fd5b80632d883a73146100ae5780638da5cb5b146100de5780639ed3edf0146100f15780639ed9331814610126578063ad4d4e2914610139575b600080fd5b6100c16100bc3660046105ef565b610211565b6040516001600160a01b0390911681526020015b60405180910390f35b6004546100c1906001600160a01b031681565b6101187f000000000000000000000000000000000000000000000000000000000000000081565b6040519081526020016100d5565b6100c1610134366004610608565b61023b565b60005460015460025460035461015b936001600160a01b039081169316919084565b604080516001600160a01b0395861681529490931660208501529183015260608201526080016100d5565b6101187f000000000000000000000000000000000000000000000000000000000000000081565b6100c16101bb366004610608565b6001600160a01b039081166000908152600660205260409020541690565b6101ec6101e7366004610608565b61032a565b005b6005546100c1906001600160a01b031681565b6101ec6103c2565b600754610118565b6007818154811061022157600080fd5b6000918252602090912001546001600160a01b0316905081565b60006001600160a01b0382166102535761025361042d565b506001600160a01b0380821660009081526006602052604090205416801561027d5761027d61042d565b6102c930837f00000000000000000000000000000000000000000000000000000000000000007f0000000000000000000000000000000000000000000000000000000000000000610446565b6001600160a01b0383811660008181526006602052604080822080546001600160a01b0319169486169485179055519394509192909133917fb224da6575b2c2ffd42454faedb236f7dbe5f92a0c96bb99c0273dbe98464c7e9190a4919050565b60045461033f906001600160a01b0316610519565b6001600160a01b0381166103555761035561042d565b60045461036e906001600160a01b03838116911661055b565b600580546001600160a01b0319166001600160a01b0383169081179091556040519081527f167d3e9c1016ab80e58802ca9da10ce5c6a0f4debc46a2e7a2cd9e56899a4fb59060200160405180910390a150565b6005546103d99033906001600160a01b031661059d565b60048054336001600160a01b031991821681179092556005805490911690556040519081527f31775a018194f26a792a0203e972faf15303e08a913cdc54497278e48de669099060200160405180910390a1565b60405163d92e233d60e01b815260040160405180910390fd5b604080516080810182526001600160a01b0386811680835290861660208084018290528385018790526060909301859052600080546001600160a01b03199081169093178155600180549093168217909255600286905560038590558351928301529101604051602081830303815290604052805190602001206040516104cc906105e2565b8190604051809103906000f59050801580156104ec573d6000803e3d6000fd5b50600080546001600160a01b03199081168255600180549091169055600281905560035595945050505050565b336001600160a01b0382161461055857604051631bf9565d60e21b81523360048201526001600160a01b03821660248201526044015b60405180910390fd5b50565b806001600160a01b0316826001600160a01b0316141561059957604051632de305cb60e11b81526001600160a01b038216600482015260240161054f565b5050565b806001600160a01b0316826001600160a01b0316146105995760405163f93f289d60e01b81526001600160a01b0380841660048301528216602482015260440161054f565b6147c08061063983390190565b60006020828403121561060157600080fd5b5035919050565b60006020828403121561061a57600080fd5b81356001600160a01b038116811461063157600080fd5b939250505056fe6101206040523480156200001257600080fd5b503060601b60809081526040805163ad4d4e2960e01b81529051339263ad4d4e299260048082019391829003018186803b1580156200005057600080fd5b505afa15801562000065573d6000803e3d6000fd5b505050506040513d601f19601f820116820180604052508101906200008b9190620000cf565b6101005260e0526001600160601b0319606091821b811660c05291901b1660a05262000117565b80516001600160a01b0381168114620000ca57600080fd5b919050565b60008060008060808587031215620000e657600080fd5b620000f185620000b2565b93506200010160208601620000b2565b6040860151606090960151949790965092505050565b60805160601c60a05160601c60c05160601c60e0516101005161457b620002456000396000818161049501528181610973015281816126ff0152612c740152600081816104110152818161081a01528181610951015281816126de0152612c5301526000818161020c01528181610a1701528181610ae701528181610cc00152818161185e015281816118ec0152818161197a01528181611c2501528181611cce01528181611d8901528181611f2301528181611fdd015281816120910152818161229f01528181612341015281816123dd015281816127c6015281816128850152818161292d01528181612aaa01528181612b0c01528181612d3601528181612de301528181612e850152612ffd0152600081816102c30152610ea4015260006116ed015261457b6000f3fe608060405234801561001057600080fd5b50600436106101cf5760003560e01c806378fb9d3811610104578063ad118b02116100a2578063c0e0c4c611610071578063c0e0c4c6146104fe578063d7e2c24a14610511578063e0260d1114610524578063f78333a31461053757600080fd5b8063ad118b021461047b578063b0e21e8a14610490578063b15044ac146104b7578063bfec5c8a146104eb57600080fd5b80638fdc5c99116100de5780638fdc5c99146103f95780639ed3edf01461040c5780639eee6e5114610433578063a8f403b71461044657600080fd5b806378fb9d381461038d5780637ffd3a70146103b0578063847a1013146103e657600080fd5b80635e2659f311610171578063647284f51161014b578063647284f5146103425780636c867790146103555780636f682a531461036857806372f8f85c1461037a57600080fd5b80635e2659f314610309578063630b15f31461031c578063641972451461032f57600080fd5b80633a9d71e7116101ad5780633a9d71e7146102745780633aee875c1461029c5780634219dc40146102be5780634e9ca003146102e557600080fd5b80630630582e146101d457806311c959fd146102075780632d883a7314610246575b600080fd5b6101e76101e23660046134ed565b610578565b604080519384526020840192909252908201526060015b60405180910390f35b61022e7f000000000000000000000000000000000000000000000000000000000000000081565b6040516001600160a01b0390911681526020016101fe565b610259610254366004613511565b61078f565b604080518251815260209283015192810192909252016101fe565b61028761028236600461352a565b6107ea565b604080519283526020830191909152016101fe565b6102af6102aa36600461355e565b6108ba565b6040516101fe939291906135f6565b61022e7f000000000000000000000000000000000000000000000000000000000000000081565b6102f86102f336600461364c565b610e10565b6040516101fe959493929190613699565b6102f86103173660046136d7565b610e37565b6102f861032a36600461370c565b610e4b565b6101e761033d3660046134ed565b610e71565b6101e761035036600461352a565b61106b565b6101e7610363366004613760565b61111a565b6002545b6040519081526020016101fe565b6101e761038836600461352a565b6111d9565b6103a061039b366004613799565b61122f565b6040516101fe94939291906137cd565b6102876103be36600461352a565b6000918252600160209081526040808420928452919052902060028101546003909101549091565b6102f86103f4366004613799565b611251565b61028761040736600461352a565b611265565b61036c7f000000000000000000000000000000000000000000000000000000000000000081565b6103a06104413660046137fc565b6112e0565b61022e61045436600461352a565b6000918252600160208181526040808520938552929052912001546001600160a01b031690565b61048e610489366004613760565b611303565b005b61036c7f000000000000000000000000000000000000000000000000000000000000000081565b61022e6104c536600461352a565b60009182526001602090815260408084209284529190529020546001600160a01b031690565b6103a06104f936600461364c565b6113ea565b61048e61050c366004613831565b6113fd565b61048e61051f36600461387b565b611561565b6103a061053236600461355e565b6116cf565b61022e610545366004613760565b60009283526001602090815260408085209385529281528284206001600160a01b039283168552600a0190529120541690565b60008060006105856116e2565b61059c61059736869003860186613981565b61172d565b6105ab843560208601356117d2565b83356000908152600160209081526040808320828801358085529252822073__$93e29ea6f62f55c0d83b73d4cedbcd17bf$__92631d0ea1f2929060a08901359060c08a01359060e08b01359061060190611826565b6040516001600160e01b031960e089901b168152600481019690965260248601949094526044850192909252606484015260848301526001600160601b031660a482015260c40160606040518083038186803b15801561066057600080fd5b505af4158015610674573d6000803e3d6000fd5b505050506040513d601f19601f820116820180604052508101906106989190613a2a565b919450925090506106e1843560208601356106b96060880160408901613a58565b6106c96080890160608a01613a58565b6106d960a08a0160808b01613a58565b888888611841565b6106f0843560208601356119f5565b33602085013585357f6e9600f64d8c6ff3a965afd7a2fe211b9621753221ca9f9899f80500b709ec826107296060890160408a01613a58565b61073960808a0160608b01613a58565b61074960a08b0160808c01613a58565b604080516001600160a01b0394851681529284166020840152921681830152606081018990526080810188905260a0810187905290519081900360c00190a49193909250565b6040805180820190915260008082526020820152600282815481106107b6576107b6613a75565b9060005260206000209060020201604051806040016040529081600082015481526020016001820154815250509050919050565b600082815260016020908152604080832084845290915280822090516313571e0d60e11b815260048101919091527f00000000000000000000000000000000000000000000000000000000000000006024820152819073__$93e29ea6f62f55c0d83b73d4cedbcd17bf$__906326ae3c1a906044015b604080518083038186803b15801561087757600080fd5b505af415801561088b573d6000803e3d6000fd5b505050506040513d601f19601f820116820180604052508101906108af9190613a8b565b909590945092505050565b60008060606108c76116e2565b6108d684356020860135611a1f565b6108f16108e285613b4b565b6108ec6000611826565b611a52565b610900843560208601356117d2565b833560009081526001602090815260408083208288013584529091529081902090516302b65c4f60e11b815273__$93e29ea6f62f55c0d83b73d4cedbcd17bf$__9163056cb89e9161099b919088907f0000000000000000000000000000000000000000000000000000000000000000907f000000000000000000000000000000000000000000000000000000000000000090600401613c6c565b604080518083038186803b1580156109b257600080fd5b505af41580156109c6573d6000803e3d6000fd5b505050506040513d601f19601f820116820180604052508101906109ea9190613a8b565b90935091506000610a016080860160608701613d1e565b610a0b5782610a0d565b835b6001600160a01b037f00000000000000000000000000000000000000000000000000000000000000001663af2f91ea8735602089013530610a5460808c0160608d01613d1e565b610a5f576001610a62565b60005b6040518563ffffffff1660e01b8152600401610a819493929190613d4d565b60206040518083038186803b158015610a9957600080fd5b505afa158015610aad573d6000803e3d6000fd5b505050506040513d601f19601f82011682018060405250810190610ad19190613d77565b610adb9190613da6565b90506001600160a01b037f00000000000000000000000000000000000000000000000000000000000000001663b2ceca7786356020880135610b2360608a0160408b01613a58565b610b3360808b0160608c01613d1e565b610b3e576000610b41565b60015b610b5160808c0160608d01613d1e565b610b5b5789610b5d565b885b6040518663ffffffff1660e01b8152600401610b7d959493929190613dbe565b600060405180830381600087803b158015610b9757600080fd5b505af1158015610bab573d6000803e3d6000fd5b50506040805160c081018252883581526020808a01359082015233935063c84a17499250908101610be260808a0160608b01613d1e565b151581526020810188905260408101879052606001610c0460c08a018a613df8565b8080601f01602080910402602001604051908101604052809392919081815260200183838082843760009201919091525050509152506040516001600160e01b031960e084901b168152610c5b9190600401613e3e565b600060405180830381600087803b158015610c7557600080fd5b505af1158015610c89573d6000803e3d6000fd5b505050506040513d6000823e601f3d908101601f19168201604052610cb19190810190613ed2565b9150610d806001600160a01b037f00000000000000000000000000000000000000000000000000000000000000001663af2f91ea8735602089013530610cfd60808c0160608d01613d1e565b610d08576001610d0b565b60005b6040518563ffffffff1660e01b8152600401610d2a9493929190613d4d565b60206040518083038186803b158015610d4257600080fd5b505afa158015610d56573d6000803e3d6000fd5b505050506040513d601f19601f82011682018060405250810190610d7a9190613d77565b82611ad9565b610d8f853560208701356119f5565b33602086013586357fb5203bea7ad91c36603035fd1320703929688fbe9d58e3513a502f9359c96037610dc860608a0160408b01613a58565b610dd860808b0160608c01613d1e565b604080516001600160a01b039093168352901515602083015281018990526060810188905260800160405180910390a4509193909250565b6000806000806060610e2487600188611b09565b939b929a50909850965090945092505050565b6000806000806060610e2487600188612186565b6000806000806060610e5f86600080612186565b939a9299509097509550909350915050565b6000806000610e7e6116e2565b610e9061059736869003860186613981565b610e9f843560208601356117d2565b610f417f00000000000000000000000000000000000000000000000000000000000000006001600160a01b0316638da5cb5b6040518163ffffffff1660e01b815260040160206040518083038186803b158015610efb57600080fd5b505afa158015610f0f573d6000803e3d6000fd5b505050506040513d601f19601f82011682018060405250810190610f339190613f06565b6001600160a01b0316612625565b8335600090815260016020908152604080832082880135845290915290819020905163e0b364cb60e01b8152600481019190915260a0850135602482015260c0850135604482015260e0850135606482015273__$93e29ea6f62f55c0d83b73d4cedbcd17bf$__9063e0b364cb9060840160606040518083038186803b158015610fca57600080fd5b505af4158015610fde573d6000803e3d6000fd5b505050506040513d601f19601f820116820180604052508101906110029190613a2a565b91945092509050611023843560208601356106b96060880160408901613a58565b611032843560208601356119f5565b33602085013585357f9f89f4362c689657241ac1ec1cc69db4d75234f93386d70e9519f271a4fdabb86107296060890160408a01613a58565b600082815260016020908152604080832084845290915280822090516381f39c3160e01b815260048101919091528190819073__$93e29ea6f62f55c0d83b73d4cedbcd17bf$__906381f39c31906024015b60606040518083038186803b1580156110d557600080fd5b505af41580156110e9573d6000803e3d6000fd5b505050506040513d601f19601f8201168201806040525081019061110d9190613a2a565b9250925092509250925092565b6000838152600160209081526040808320858452909152808220905163fbe5826f60e01b815260048101919091526001600160a01b03831660248201528190819073__$93e29ea6f62f55c0d83b73d4cedbcd17bf$__9063fbe5826f9060440160606040518083038186803b15801561119257600080fd5b505af41580156111a6573d6000803e3d6000fd5b505050506040513d601f19601f820116820180604052508101906111ca9190613a2a565b92509250925093509350939050565b60008281526001602090815260408083208484529091528082209051636e4f4d7d60e11b815260048101919091528190819073__$93e29ea6f62f55c0d83b73d4cedbcd17bf$__9063dc9e9afa906024016110bd565b600080600060606112428560008061265f565b93509350935093509193509193565b6000806000806060610e5f86600080611b09565b60008281526001602090815260408083208484529091528120819073__$93e29ea6f62f55c0d83b73d4cedbcd17bf$__90636512a69d90856112a685611826565b6040516001600160e01b031960e086901b168152600481019390935260248301919091526001600160601b03166044820152606401610860565b600080600060606112f386600187612bcf565b9299919850965090945092505050565b61130b6116e2565b6113156000611826565b6001600160601b031682101561133857611338826113336000611826565b6130d8565b6001600160a01b03811661134e5761134e613103565b611358838361311c565b600083815260016020908152604080832085845290915290819020905163c3218b1d60e01b815260048101919091526001600160a01b038216602482015273__$93e29ea6f62f55c0d83b73d4cedbcd17bf$__9063c3218b1d9060440160006040518083038186803b1580156113cd57600080fd5b505af41580156113e1573d6000803e3d6000fd5b50505050505050565b600080600060606112f38660018761265f565b6114078484611a1f565b826114126000611826565b6001600160601b0316111561142f5761142f836113336000611826565b6001600160a01b038216611445576114456131dc565b6001600160a01b03811661145b5761145b6131f5565b6000848152600160209081526040808320868452909152812073__$93e29ea6f62f55c0d83b73d4cedbcd17bf$__916317db579b91908590859061149e90611826565b6040516001600160e01b031960e087901b16815260048101949094526001600160a01b039283166024850152911660448301526001600160601b0316606482015260840160006040518083038186803b1580156114fa57600080fd5b505af415801561150e573d6000803e3d6000fd5b5050604080516001600160a01b0386811682528516602082015233935086925087917f76b4de7b53928b4b4b5be34802c5db3b6ddf280ba50c509b55f939a91ea758f6910160405180910390a450505050565b6001600160a01b038416611577576115776131dc565b82158015611583575081155b801561158d575080155b1561159a5761159a6131f5565b60016000878152602001908152602001600020600086815260200190815260200160002073__$93e29ea6f62f55c0d83b73d4cedbcd17bf$__6363244158909187878787876115e96000611826565b6040516001600160e01b031960e08a901b168152600481019790975260248701959095526001600160a01b0390931660448601526064850191909152608484015260a48301526001600160601b031660c482015260e40160006040518083038186803b15801561165857600080fd5b505af415801561166c573d6000803e3d6000fd5b5050604080516001600160a01b0388168152602081018790529081018590526060810184905233925087915088907f25795e87541bbaa7236ae061c5a2b7c0e337afcee15a3a2c3b32783d9aceff0c9060800160405180910390a4505050505050565b6000806000606061124285600080612bcf565b306001600160a01b037f0000000000000000000000000000000000000000000000000000000000000000161461172b57604051634118e0bb60e11b815260040160405180910390fd5b565b60408101516001600160a01b03161580611752575060608101516001600160a01b0316155b80611768575060808101516001600160a01b0316155b15611775576117756131dc565b60208101516001600160601b03101561179557611795816020015161320e565b60a08101511580156117a9575060c0810151155b80156117b7575060e0810151155b80156117c257508051155b156117cf576117cf6131f5565b50565b6000828152602081815260408083208484529091529020546117fc906001600160601b031661322a565b600091825260208281526040808420928452919052902080546001600160601b0319166002179055565b600061183b6001600160601b03831642613da6565b92915050565b82156118cf5760405163b2ceca7760e01b81526001600160a01b037f0000000000000000000000000000000000000000000000000000000000000000169063b2ceca779061189c908b908b908b906000908a90600401613dbe565b600060405180830381600087803b1580156118b657600080fd5b505af11580156118ca573d6000803e3d6000fd5b505050505b811561195d5760405163b2ceca7760e01b81526001600160a01b037f0000000000000000000000000000000000000000000000000000000000000000169063b2ceca779061192a908b908b908a906001908990600401613dbe565b600060405180830381600087803b15801561194457600080fd5b505af1158015611958573d6000803e3d6000fd5b505050505b80156119eb5760405163b2ceca7760e01b81526001600160a01b037f0000000000000000000000000000000000000000000000000000000000000000169063b2ceca77906119b8908b908b9089906002908890600401613dbe565b600060405180830381600087803b1580156119d257600080fd5b505af11580156119e6573d6000803e3d6000fd5b505050505b5050505050505050565b600091825260208281526040808420928452919052902080546001600160601b0319166001179055565b60008281526001602090815260408083208484529091529020546001600160a01b0316611a4e57611a4e61327c565b5050565b60208201516001600160601b031015611a7257611a72826020015161320e565b806001600160601b031682602001511015611a9557611a958260200151826130d8565b60408201516001600160a01b0316611aaf57611aaf6131dc565b611abc8260800151613295565b60a08201511580611acc57508151155b15611a4e57611a4e6131f5565b80821015611a4e57604051631c22ff0160e21b815260048101839052602481018290526044015b60405180910390fd5b6000806000806060611b196116e2565b611b33611b2589613f3b565b611b2e88611826565b6132c7565b611b42883560208a01356117d2565b87356000908152600160209081526040808320828c01358452909152902073__$93e29ea6f62f55c0d83b73d4cedbcd17bf$__90636951fc8c908a611b868a611826565b6040518463ffffffff1660e01b8152600401611ba493929190613fd4565b60006040518083038186803b158015611bbc57600080fd5b505af4158015611bd0573d6000803e3d6000fd5b505050506040513d6000823e601f3d908101601f19168201604052611bf89190810190614072565b93985091965094509250905060008415611cc357604051635797c8f560e11b815285906001600160a01b037f0000000000000000000000000000000000000000000000000000000000000000169063af2f91ea90611c66908d359060208f0135903090600090600401613d4d565b60206040518083038186803b158015611c7e57600080fd5b505afa158015611c92573d6000803e3d6000fd5b505050506040513d601f19601f82011682018060405250810190611cb69190613d77565b611cc09190613da6565b90505b60008415611d8457847f00000000000000000000000000000000000000000000000000000000000000006001600160a01b031663af2f91ea8c600001358d602001353060016040518563ffffffff1660e01b8152600401611d279493929190613d4d565b60206040518083038186803b158015611d3f57600080fd5b505afa158015611d53573d6000803e3d6000fd5b505050506040513d601f19601f82011682018060405250810190611d779190613d77565b611d819190613da6565b90505b6000847f00000000000000000000000000000000000000000000000000000000000000006001600160a01b031663af2f91ea8d600001358e602001353060026040518563ffffffff1660e01b8152600401611de29493929190613d4d565b60206040518083038186803b158015611dfa57600080fd5b505afa158015611e0e573d6000803e3d6000fd5b505050506040513d601f19601f82011682018060405250810190611e329190613d77565b611e3c9190613da6565b6040805160e0810182528d3581526020808f0135908201528082018a905260608101899052608081018890526001600160a01b038b1660a082015260c08101879052905163321c8bed60e01b8152919250339163321c8bed91611ea191600401614139565b600060405180830381600087803b158015611ebb57600080fd5b505af1158015611ecf573d6000803e3d6000fd5b505050506040513d6000823e601f3d908101601f19168201604052611ef79190810190613ed2565b93508915611f185760405163335b3bef60e01b815260040160405180910390fd5b8615611fd257611fd27f00000000000000000000000000000000000000000000000000000000000000006001600160a01b031663af2f91ea8d600001358e602001353060006040518563ffffffff1660e01b8152600401611f7c9493929190613d4d565b60206040518083038186803b158015611f9457600080fd5b505afa158015611fa8573d6000803e3d6000fd5b505050506040513d601f19601f82011682018060405250810190611fcc9190613d77565b84611ad9565b851561208c5761208c7f00000000000000000000000000000000000000000000000000000000000000006001600160a01b031663af2f91ea8d600001358e602001353060016040518563ffffffff1660e01b81526004016120369493929190613d4d565b60206040518083038186803b15801561204e57600080fd5b505afa158015612062573d6000803e3d6000fd5b505050506040513d601f19601f820116820180604052508101906120869190613d77565b83611ad9565b6120ea7f00000000000000000000000000000000000000000000000000000000000000006001600160a01b031663af2f91ea8d600001358e602001353060026040518563ffffffff1660e01b8152600401610d2a9493929190613d4d565b6120f98b3560208d01356119f5565b336001600160a01b03168b602001358c600001357f86838b111645453d71257de3cf164de8e18622d66009889e94f13128f595ef648e60400160208101906121419190613a58565b604080516001600160a01b039283168152918e16602083015281018c9052606081018b9052608081018a905260a00160405180910390a4505050939792965093509350565b60008060008060606121966116e2565b6121a5883560208a0135611a1f565b6121bf6121b18961414c565b6121ba88611826565b61334b565b6121ce883560208a01356117d2565b87356000908152600160209081526040808320828c01358452909152902073__$93e29ea6f62f55c0d83b73d4cedbcd17bf$__6312a71d0c828b6122118b611826565b6040518463ffffffff1660e01b815260040161222f939291906141fd565b60006040518083038186803b15801561224757600080fd5b505af415801561225b573d6000803e3d6000fd5b505050506040513d6000823e601f3d908101601f191682016040526122839190810190614072565b9399509197509550935091508415612331576001600160a01b037f00000000000000000000000000000000000000000000000000000000000000001663b2ceca778a3560208c01356122db60608e0160408f01613a58565b60008a6040518663ffffffff1660e01b81526004016122fe959493929190613dbe565b600060405180830381600087803b15801561231857600080fd5b505af115801561232c573d6000803e3d6000fd5b505050505b83156123d3576001600160a01b037f00000000000000000000000000000000000000000000000000000000000000001663b2ceca778a3560208c013561237d60808e0160608f01613a58565b6001896040518663ffffffff1660e01b81526004016123a0959493929190613dbe565b600060405180830381600087803b1580156123ba57600080fd5b505af11580156123ce573d6000803e3d6000fd5b505050505b6001600160a01b037f00000000000000000000000000000000000000000000000000000000000000001663b2ceca778a3560208c013561241960a08e0160808f01613a58565b6002886040518663ffffffff1660e01b815260040161243c959493929190613dbe565b600060405180830381600087803b15801561245657600080fd5b505af115801561246a573d6000803e3d6000fd5b50506040805160e0810182528c3581526020808e01359082015280820189905260608101889052608081018790526001600160a01b038a1660a082015260c081018690529051638bb7053d60e01b8152339350638bb7053d92506124d19190600401614139565b600060405180830381600087803b1580156124eb57600080fd5b505af11580156124ff573d6000803e3d6000fd5b505050506040513d6000823e601f3d908101601f191682016040526125279190810190613ed2565b915087156125485760405163335b3bef60e01b815260040160405180910390fd5b336000908152600a82016020526040902061256390876133fd565b612572893560208b01356119f5565b3360208a01358a357fc36176a3330276b641a24dfd635dc6cfc1c9b9afcd0c5d677f73e06143fe0aff6125ab60608e0160408f01613a58565b8d60600160208101906125be9190613a58565b8e60800160208101906125d19190613a58565b604080516001600160a01b039485168152928416602084015290831690820152908b166060820152608081018a905260a0810189905260c0810188905260e00160405180910390a450939792965093509350565b336001600160a01b038216146117cf57604051631bf9565d60e21b81523360048201526001600160a01b0382166024820152604401611b00565b6000806000606061266e6116e2565b61267d87356020890135611a1f565b61269261268988613f3b565b611b2e87611826565b6126a1873560208901356117d2565b86356000908152600160209081526040808320828b01358452909152902073__$93e29ea6f62f55c0d83b73d4cedbcd17bf$__90630fc5313390897f00000000000000000000000000000000000000000000000000000000000000007f00000000000000000000000000000000000000000000000000000000000000006127278b611826565b6040518663ffffffff1660e01b81526004016127479594939291906142cf565b60006040518083038186803b15801561275f57600080fd5b505af4158015612773573d6000803e3d6000fd5b505050506040513d6000823e601f3d908101601f1916820160405261279b9190810190614379565b929650909450925090506000841561286457604051635797c8f560e11b815285906001600160a01b037f0000000000000000000000000000000000000000000000000000000000000000169063af2f91ea90612807908c359060208e0135903090600090600401613d4d565b60206040518083038186803b15801561281f57600080fd5b505afa158015612833573d6000803e3d6000fd5b505050506040513d601f19601f820116820180604052508101906128579190613d77565b6128619190613da6565b90505b6000841561292357604051635797c8f560e11b815285906001600160a01b037f0000000000000000000000000000000000000000000000000000000000000000169063af2f91ea906128c6908d359060208f0135903090600190600401613d4d565b60206040518083038186803b1580156128de57600080fd5b505afa1580156128f2573d6000803e3d6000fd5b505050506040513d601f19601f820116820180604052508101906129169190613d77565b6129209190613da6565b90505b6001600160a01b037f00000000000000000000000000000000000000000000000000000000000000001663b2ceca778a3560208c013561296960608e0160408f01613a58565b6002896040518663ffffffff1660e01b815260040161298c959493929190613dbe565b600060405180830381600087803b1580156129a657600080fd5b505af11580156129ba573d6000803e3d6000fd5b50506040805160c0810182528c3581526020808e0135908201528082018a9052606081018990526080810188905260a0810187905290516343d44c9d60e11b81523393506387a8993a9250612a129190600401614419565b600060405180830381600087803b158015612a2c57600080fd5b505af1158015612a40573d6000803e3d6000fd5b505050506040513d6000823e601f3d908101601f19168201604052612a689190810190613ed2565b92508715612a895760405163335b3bef60e01b815260040160405180910390fd5b8515612aeb57604051635797c8f560e11b8152612aeb906001600160a01b037f0000000000000000000000000000000000000000000000000000000000000000169063af2f91ea90612036908d359060208f0135903090600090600401613d4d565b8415612b4d57604051635797c8f560e11b8152612b4d906001600160a01b037f0000000000000000000000000000000000000000000000000000000000000000169063af2f91ea90610d2a908d359060208f0135903090600190600401613d4d565b612b5c893560208b01356119f5565b3360208a01358a357f76ce53f2a5022311227d4d8c5c7b06eb0f9e0e238e30a85af33487e66bebfc9b612b9560608e0160408f01613a58565b604080516001600160a01b039092168252602082018c905281018a90526060810189905260800160405180910390a4505093509350935093565b60008060006060612bde6116e2565b612bed87356020890135611a1f565b612c07612bf98861442c565b612c0287611826565b613442565b612c16873560208901356117d2565b86356000908152600160209081526040808320828b01358452909152902073__$93e29ea6f62f55c0d83b73d4cedbcd17bf$__9063e0f1a7bb90897f00000000000000000000000000000000000000000000000000000000000000007f0000000000000000000000000000000000000000000000000000000000000000612c9c8b611826565b6040518663ffffffff1660e01b8152600401612cbc959493929190614482565b60006040518083038186803b158015612cd457600080fd5b505af4158015612ce8573d6000803e3d6000fd5b505050506040513d6000823e601f3d908101601f19168201604052612d109190810190614379565b604051635797c8f560e11b81529397509195509350915060009083906001600160a01b037f0000000000000000000000000000000000000000000000000000000000000000169063af2f91ea90612d77908c359060208e0135903090600290600401613d4d565b60206040518083038186803b158015612d8f57600080fd5b505afa158015612da3573d6000803e3d6000fd5b505050506040513d601f19601f82011682018060405250810190612dc79190613d77565b612dd19190613da6565b90508415612e75576001600160a01b037f00000000000000000000000000000000000000000000000000000000000000001663b2ceca77893560208b0135612e1f60608d0160408e01613a58565b60008a6040518663ffffffff1660e01b8152600401612e42959493929190613dbe565b600060405180830381600087803b158015612e5c57600080fd5b505af1158015612e70573d6000803e3d6000fd5b505050505b8315612f17576001600160a01b037f00000000000000000000000000000000000000000000000000000000000000001663b2ceca77893560208b0135612ec160808d0160608e01613a58565b6001896040518663ffffffff1660e01b8152600401612ee4959493929190613dbe565b600060405180830381600087803b158015612efe57600080fd5b505af1158015612f12573d6000803e3d6000fd5b505050505b6040805160c081018252893581526020808b013590820152808201879052606081018690526080810185905260a0810184905290516343317d3560e11b81523391638662fa6a91612f6b9190600401614419565b600060405180830381600087803b158015612f8557600080fd5b505af1158015612f99573d6000803e3d6000fd5b505050506040513d6000823e601f3d908101601f19168201604052612fc19190810190613ed2565b91508615612fe25760405163335b3bef60e01b815260040160405180910390fd5b604051635797c8f560e11b815261303e906001600160a01b037f0000000000000000000000000000000000000000000000000000000000000000169063af2f91ea90610d2a908c359060208e0135903090600290600401613d4d565b61304d883560208a01356119f5565b33602089013589357f4af09027ce1a32b4cf538f4feab5ae0d95f6498fcd7fbdcbacf5ab3e1ccc220661308660608d0160408e01613a58565b61309660808e0160608f01613a58565b604080516001600160a01b03938416815292909116602083015281018a9052606081018990526080810188905260a00160405180910390a45093509350935093565b60405163647284e960e11b8152600481018390526001600160601b0382166024820152604401611b00565b604051631e1d0ab560e01b815260040160405180910390fd5b6000828152602081815260408083208484529091529020546001600160601b0316611a4e57600082815260208181526040808320848452825280832080546001600160601b03191660019081179091558151808301909252948152908101928352600280549485018155918290525192027f405787fa12a823e0f2b7631cc41b3ba8828b3321ca811111fa75cd3aa3bb5ace810192909255517f405787fa12a823e0f2b7631cc41b3ba8828b3321ca811111fa75cd3aa3bb5acf90910155565b60405163d92e233d60e01b815260040160405180910390fd5b60405163af458c0760e01b815260040160405180910390fd5b6040516335f135d360e01b815260048101829052602401611b00565b6001600160601b0381166132515760405163e2228b1560e01b815260040160405180910390fd5b6001600160601b038116600214156117cf5760405163865a6de560e01b815260040160405180910390fd5b60405163277c720560e01b815260040160405180910390fd5b60028160018111156132a9576132a9613be1565b106117cf5760405163280503e760e11b815260040160405180910390fd5b60208201516001600160601b0310156132e7576132e7826020015161320e565b806001600160601b03168260200151101561330a5761330a8260200151826130d8565b60408201516001600160a01b0316613324576133246131dc565b61333182606001516134c0565b60808201511580611acc57508151611a4e57611a4e6131f5565b60208201516001600160601b03101561336b5761336b826020015161320e565b806001600160601b03168260200151101561338e5761338e8260200151826130d8565b60408201516001600160a01b031615806133b3575060608201516001600160a01b0316155b806133c9575060808201516001600160a01b0316155b156133d6576133d66131dc565b6133e38260a001516134c0565b60c08201511580611acc57508151611a4e57611a4e6131f5565b81548190839060009061341a9084906001600160a01b031661451d565b92506101000a8154816001600160a01b0302191690836001600160a01b031602179055505050565b60208201516001600160601b03101561346257613462826020015161320e565b806001600160601b031682602001511015613485576134858260200151826130d8565b60408201516001600160a01b031615806134aa575060608201516001600160a01b0316155b156134b7576134b76131dc565b611abc82608001515b60048160038111156132a9576132a9613be1565b600061010082840312156134e757600080fd5b50919050565b6000610100828403121561350057600080fd5b61350a83836134d4565b9392505050565b60006020828403121561352357600080fd5b5035919050565b6000806040838503121561353d57600080fd5b50508035926020909101359150565b600060e082840312156134e757600080fd5b60006020828403121561357057600080fd5b81356001600160401b0381111561358657600080fd5b6135928482850161354c565b949350505050565b60005b838110156135b557818101518382015260200161359d565b838111156135c4576000848401525b50505050565b600081518084526135e281602086016020860161359a565b601f01601f19169290920160200192915050565b83815282602082015260606040820152600061361560608301846135ca565b95945050505050565b600060c082840312156134e757600080fd5b80356001600160601b038116811461364757600080fd5b919050565b6000806040838503121561365f57600080fd5b82356001600160401b0381111561367557600080fd5b6136818582860161361e565b92505061369060208401613630565b90509250929050565b60018060a01b038616815284602082015283604082015282606082015260a0608082015260006136cc60a08301846135ca565b979650505050505050565b600080604083850312156136ea57600080fd5b82356001600160401b0381111561370057600080fd5b613681858286016134d4565b60006020828403121561371e57600080fd5b81356001600160401b0381111561373457600080fd5b613592848285016134d4565b6001600160a01b03811681146117cf57600080fd5b803561364781613740565b60008060006060848603121561377557600080fd5b8335925060208401359150604084013561378e81613740565b809150509250925092565b6000602082840312156137ab57600080fd5b81356001600160401b038111156137c157600080fd5b6135928482850161361e565b8481528360208201528260408201526080606082015260006137f260808301846135ca565b9695505050505050565b6000806040838503121561380f57600080fd5b82356001600160401b0381111561382557600080fd5b6136818582860161354c565b6000806000806080858703121561384757600080fd5b8435935060208501359250604085013561386081613740565b9150606085013561387081613740565b939692955090935050565b60008060008060008060c0878903121561389457600080fd5b863595506020870135945060408701356138ad81613740565b959894975094956060810135955060808101359460a0909101359350915050565b634e487b7160e01b600052604160045260246000fd5b60405160e081016001600160401b0381118282101715613906576139066138ce565b60405290565b60405160c081016001600160401b0381118282101715613906576139066138ce565b60405161010081016001600160401b0381118282101715613906576139066138ce565b604051601f8201601f191681016001600160401b0381118282101715613979576139796138ce565b604052919050565b600061010080838503121561399557600080fd5b604051908101906001600160401b03821181831017156139b7576139b76138ce565b816040528335815260208401356020820152604084013591506139d982613740565b8160408201526139eb60608501613755565b60608201526139fc60808501613755565b608082015260a084013560a082015260c084013560c082015260e084013560e0820152809250505092915050565b600080600060608486031215613a3f57600080fd5b8351925060208401519150604084015190509250925092565b600060208284031215613a6a57600080fd5b813561350a81613740565b634e487b7160e01b600052603260045260246000fd5b60008060408385031215613a9e57600080fd5b505080516020909101519092909150565b8035801515811461364757600080fd5b80356002811061364757600080fd5b60006001600160401b03821115613ae757613ae76138ce565b50601f01601f191660200190565b600082601f830112613b0657600080fd5b8135613b19613b1482613ace565b613951565b818152846020838601011115613b2e57600080fd5b816020850160208301376000918101602001919091529392505050565b600060e08236031215613b5d57600080fd5b613b656138e4565b8235815260208301356020820152613b7f60408401613755565b6040820152613b9060608401613aaf565b6060820152613ba160808401613abf565b608082015260a083013560a082015260c08301356001600160401b03811115613bc957600080fd5b613bd536828601613af5565b60c08301525092915050565b634e487b7160e01b600052602160045260246000fd5b6000808335601e19843603018112613c0e57600080fd5b83016020810192503590506001600160401b03811115613c2d57600080fd5b803603831315613c3c57600080fd5b9250929050565b81835281816020850137506000828201602090810191909152601f909101601f19169091010190565b8481526080602082015283356080820152602084013560a082015260006040850135613c9781613740565b6001600160a01b031660c0830152613cb160608601613aaf565b151560e0830152613cc460808601613abf565b60028110613cd457613cd4613be1565b61010083015260a0850135610120830152613cf260c0860186613bf7565b60e0610140850152613d0961016085018284613c43565b60408501969096525050506060015292915050565b600060208284031215613d3057600080fd5b61350a82613aaf565b60038110613d4957613d49613be1565b9052565b848152602081018490526001600160a01b0383166040820152608081016136156060830184613d39565b600060208284031215613d8957600080fd5b5051919050565b634e487b7160e01b600052601160045260246000fd5b60008219821115613db957613db9613d90565b500190565b858152602081018590526001600160a01b038416604082015260a08101613de86060830185613d39565b8260808301529695505050505050565b6000808335601e19843603018112613e0f57600080fd5b8301803591506001600160401b03821115613e2957600080fd5b602001915036819003821315613c3c57600080fd5b60208152815160208201526020820151604082015260408201511515606082015260608201516080820152608082015160a0820152600060a083015160c08084015261359260e08401826135ca565b600082601f830112613e9e57600080fd5b8151613eac613b1482613ace565b818152846020838601011115613ec157600080fd5b61359282602083016020870161359a565b600060208284031215613ee457600080fd5b81516001600160401b03811115613efa57600080fd5b61359284828501613e8d565b600060208284031215613f1857600080fd5b815161350a81613740565b600481106117cf57600080fd5b803561364781613f23565b600060c08236031215613f4d57600080fd5b613f5561390c565b82358152602083013560208201526040830135613f7181613740565b60408201526060830135613f8481613f23565b60608201526080838101359082015260a08301356001600160401b03811115613fac57600080fd5b613fb836828601613af5565b60a08301525092915050565b600481106117cf576117cf613be1565b83815260606020820152823560608201526020830135608082015260006040840135613fff81613740565b6001600160a01b031660a0830152606084013561401b81613f23565b61402481613fc4565b60c0830152608084013560e083015261404060a0850185613bf7565b60c061010085015261405761012085018284613c43565b925050506001600160601b0383166040830152949350505050565b600080600080600060a0868803121561408a57600080fd5b855161409581613740565b8095505060208601519350604086015192506060860151915060808601516001600160401b038111156140c757600080fd5b6140d388828901613e8d565b9150509295509295909350565b805182526020810151602083015260408101516040830152606081015160608301526080810151608083015260018060a01b0360a08201511660a0830152600060c082015160e060c085015261359260e08501826135ca565b60208152600061350a60208301846140e0565b6000610100823603121561415f57600080fd5b61416761392e565b823581526020830135602082015261418160408401613755565b604082015261419260608401613755565b60608201526141a360808401613755565b60808201526141b460a08401613f30565b60a082015260c083013560c082015260e08301356001600160401b038111156141dc57600080fd5b6141e836828601613af5565b60e08301525092915050565b613d4981613fc4565b8381526060602082015282356060820152602083013560808201526000604084013561422881613740565b6001600160a01b031660a083015261424260608501613755565b6001600160a01b031660c083015261425c60808501613755565b6001600160a01b031660e083015261427660a08501613f30565b610100614285818501836141f4565b60c086013561012085015261429d60e0870187613bf7565b9250816101408601526142b561016086018483613c43565b935050505061359260408301846001600160601b03169052565b85815260a06020820152843560a0820152602085013560c0820152600060408601356142fa81613740565b6001600160a01b031660e0830152606086013561431681613f23565b61431f81613fc4565b610100830152608086013561012083015261433d60a0870187613bf7565b60c061014085015261435461016085018284613c43565b925050508460408301528360608301526137f260808301846001600160601b03169052565b6000806000806080858703121561438f57600080fd5b84519350602085015192506040850151915060608501516001600160401b038111156143ba57600080fd5b6143c687828801613e8d565b91505092959194509250565b8051825260208101516020830152604081015160408301526060810151606083015260808101516080830152600060a082015160c060a085015261359260c08501826135ca565b60208152600061350a60208301846143d2565b600060e0823603121561443e57600080fd5b6144466138e4565b823581526020830135602082015261446060408401613755565b604082015261447160608401613755565b6060820152613ba160808401613f30565b85815260a06020820152843560a0820152602085013560c0820152600060408601356144ad81613740565b6001600160a01b0390811660e08401526060870135906144cc82613740565b166101008301526144df60808701613f30565b6144ed6101208401826141f4565b5060a086013561014083015261450660c0870187613bf7565b60e061016085015261435461018085018284613c43565b60006001600160a01b038381169083168181101561453d5761453d613d90565b03939250505056fea2646970667358221220ae092c6f9d8cf9852419aefa118950041840bb7d19c880bf4f095e48514d00b964736f6c63430008080033a26469706673582212202e7514cce8520c2af86cbc1d5fab942b5a4934024957d2bebaca07f3b38846e864736f6c63430008080033",
    "linkReferences": {
      "../v2-pool/src/structs/Pool.sol": {
        "PoolLibrary": [
          {
            "start": 3944,
            "length": 20
          },
          {
            "start": 4575,
            "length": 20
          },
          {
            "start": 4811,
            "length": 20
          },
          {
            "start": 6450,
            "length": 20
          },
          {
            "start": 6716,
            "length": 20
          },
          {
            "start": 6906,
            "length": 20
          },
          {
            "start": 7082,
            "length": 20
          },
          {
            "start": 7199,
            "length": 20
          },
          {
            "start": 7477,
            "length": 20
          },
          {
            "start": 7699,
            "length": 20
          },
          {
            "start": 8029,
            "length": 20
          },
          {
            "start": 9471,
            "length": 20
          },
          {
            "start": 11147,
            "length": 20
          },
          {
            "start": 12382,
            "length": 20
          },
          {
            "start": 13779,
            "length": 20
          }
        ]
      }
    }
  },
  "methodIdentifiers": {
    "acceptOwner()": "ebbc4965",
    "create(address)": "9ed93318",
    "get(address)": "c2bc2efc",
    "getByIndex(uint256)": "2d883a73",
    "numberOfPairs()": "fc0d92bd",
    "owner()": "8da5cb5b",
    "parameter()": "ad4d4e29",
    "pendingOwner()": "e30c3978",
    "protocolFee()": "b0e21e8a",
    "setPendingOwner(address)": "c42069ec",
    "transactionFee()": "9ed3edf0"
  },
  "id": 45
}