{
  "abi": [
    {
      "inputs": [
        {
          "internalType": "uint160",
          "name": "liquidity",
          "type": "uint160"
        }
      ],
      "name": "AlreadyHaveLiquidity",
      "type": "error"
    },
    {
      "inputs": [
        {
          "internalType": "uint256",
          "name": "maturity",
          "type": "uint256"
        },
        {
          "internalType": "uint96",
          "name": "blockTimestamp",
          "type": "uint96"
        }
      ],
      "name": "AlreadyMatured",
      "type": "error"
    },
    {
      "inputs": [],
      "name": "CannotBeZero",
      "type": "error"
    },
    {
      "inputs": [
        {
          "internalType": "uint256",
          "name": "deadline",
          "type": "uint256"
        }
      ],
      "name": "DeadlineReached",
      "type": "error"
    },
    {
      "inputs": [],
      "name": "InactiveLiquidityTokenChoice",
      "type": "error"
    },
    {
      "inputs": [
        {
          "internalType": "uint256",
          "name": "strike",
          "type": "uint256"
        },
        {
          "internalType": "uint256",
          "name": "maturity",
          "type": "uint256"
        }
      ],
      "name": "InactiveOption",
      "type": "error"
    },
    {
      "inputs": [
        {
          "internalType": "uint256",
          "name": "strike",
          "type": "uint256"
        },
        {
          "internalType": "uint256",
          "name": "maturity",
          "type": "uint256"
        }
      ],
      "name": "InactivePool",
      "type": "error"
    },
    {
      "inputs": [
        {
          "internalType": "uint256",
          "name": "maturity",
          "type": "uint256"
        }
      ],
      "name": "IncorrectMaturity",
      "type": "error"
    },
    {
      "inputs": [
        {
          "internalType": "uint256",
          "name": "minuend",
          "type": "uint256"
        },
        {
          "internalType": "uint256",
          "name": "subtrahend",
          "type": "uint256"
        }
      ],
      "name": "NotEnoughReceived",
      "type": "error"
    },
    {
      "inputs": [],
      "name": "RequireLiquidity",
      "type": "error"
    },
    {
      "inputs": [
        {
          "internalType": "uint256",
          "name": "maturity",
          "type": "uint256"
        },
        {
          "internalType": "uint96",
          "name": "blockTimestamp",
          "type": "uint96"
        }
      ],
      "name": "StillActive",
      "type": "error"
    },
    {
      "inputs": [],
      "name": "ZeroAddress",
      "type": "error"
    },
    {
      "inputs": [],
      "name": "ZeroInput",
      "type": "error"
    },
    {
      "inputs": [],
      "name": "ZeroOutput",
      "type": "error"
    },
    {
      "inputs": [
        {
          "internalType": "uint256",
          "name": "strike",
          "type": "uint256"
        },
        {
          "internalType": "uint256",
          "name": "maturity",
          "type": "uint256"
        }
      ],
      "name": "ZeroSqrtInterestRate",
      "type": "error"
    },
    {
      "inputs": [
        {
          "internalType": "uint160",
          "name": "liquidity",
          "type": "uint160"
        }
      ],
      "name": "alreadyHaveLiquidity",
      "outputs": [],
      "stateMutability": "pure",
      "type": "function"
    },
    {
      "inputs": [
        {
          "internalType": "uint256",
          "name": "maturity",
          "type": "uint256"
        },
        {
          "internalType": "uint96",
          "name": "blockTimestamp",
          "type": "uint96"
        }
      ],
      "name": "alreadyMatured",
      "outputs": [],
      "stateMutability": "pure",
      "type": "function"
    },
    {
      "inputs": [],
      "name": "cannotBeZero",
      "outputs": [],
      "stateMutability": "pure",
      "type": "function"
    },
    {
      "inputs": [
        {
          "internalType": "uint256",
          "name": "balance",
          "type": "uint256"
        },
        {
          "internalType": "uint256",
          "name": "balanceTarget",
          "type": "uint256"
        }
      ],
      "name": "checkEnough",
      "outputs": [],
      "stateMutability": "pure",
      "type": "function"
    },
    {
      "inputs": [
        {
          "internalType": "uint256",
          "name": "deadline",
          "type": "uint256"
        }
      ],
      "name": "deadlineReached",
      "outputs": [],
      "stateMutability": "pure",
      "type": "function"
    },
    {
      "inputs": [],
      "name": "inactiveLiquidityTokenChoice",
      "outputs": [],
      "stateMutability": "pure",
      "type": "function"
    },
    {
      "inputs": [
        {
          "internalType": "uint256",
          "name": "strike",
          "type": "uint256"
        },
        {
          "internalType": "uint256",
          "name": "maturity",
          "type": "uint256"
        }
      ],
      "name": "inactiveOptionChoice",
      "outputs": [],
      "stateMutability": "pure",
      "type": "function"
    },
    {
      "inputs": [
        {
          "internalType": "uint256",
          "name": "strike",
          "type": "uint256"
        },
        {
          "internalType": "uint256",
          "name": "maturity",
          "type": "uint256"
        }
      ],
      "name": "inactivePoolChoice",
      "outputs": [],
      "stateMutability": "pure",
      "type": "function"
    },
    {
      "inputs": [
        {
          "internalType": "uint256",
          "name": "maturity",
          "type": "uint256"
        }
      ],
      "name": "incorrectMaturity",
      "outputs": [],
      "stateMutability": "pure",
      "type": "function"
    },
    {
      "inputs": [],
      "name": "requireLiquidity",
      "outputs": [],
      "stateMutability": "pure",
      "type": "function"
    },
    {
      "inputs": [
        {
          "internalType": "uint256",
          "name": "maturity",
          "type": "uint256"
        },
        {
          "internalType": "uint96",
          "name": "blockTimestamp",
          "type": "uint96"
        }
      ],
      "name": "stillActive",
      "outputs": [],
      "stateMutability": "pure",
      "type": "function"
    },
    {
      "inputs": [],
      "name": "zeroAddress",
      "outputs": [],
      "stateMutability": "pure",
      "type": "function"
    },
    {
      "inputs": [],
      "name": "zeroInput",
      "outputs": [],
      "stateMutability": "pure",
      "type": "function"
    },
    {
      "inputs": [],
      "name": "zeroOutput",
      "outputs": [],
      "stateMutability": "pure",
      "type": "function"
    },
    {
      "inputs": [
        {
          "internalType": "uint256",
          "name": "strike",
          "type": "uint256"
        },
        {
          "internalType": "uint256",
          "name": "maturity",
          "type": "uint256"
        }
      ],
      "name": "zeroSqrtInterestRate",
      "outputs": [],
      "stateMutability": "pure",
      "type": "function"
    }
  ],
  "bytecode": {
    "object": "0x61052f61003a600b82828239805160001a60731461002d57634e487b7160e01b600052600060045260246000fd5b30600052607381538281f3fe73000000000000000000000000000000000000000030146080604052600436106100ff5760003560e01c8063412c407d116100a15780638e17b742116100705780638e17b742146101ab578063941ab741146101be578063bdb443b3146101d1578063ea78b152146101d957600080fd5b8063412c407d1461015f5780636c3c5eb41461017257806376f9be89146101855780638baa05611461019857600080fd5b80631bb6ccd1116100dd5780631bb6ccd1146101345780632aa4a0921461013c578063301110201461014f578063331fc1651461015757600080fd5b80630930907b14610104578063182b608b1461010e5780631a50474f14610121575b600080fd5b61010c6101e1565b005b61010c61011c366004610452565b6101eb565b61010c61012f36600461048e565b6101f9565b61010c610203565b61010c61014a3660046104b0565b61020b565b61010c610217565b61010c61021f565b61010c61016d3660046104c9565b610227565b61010c61018036600461048e565b610230565b61010c610193366004610452565b61023a565b61010c6101a636600461048e565b610244565b61010c6101b936600461048e565b61024e565b61010c6101cc3660046104b0565b610258565b61010c610261565b61010c610269565b6101e9610271565b565b6101f5828261028a565b5050565b6101f582826102ba565b6101e96102e5565b610214816102fe565b50565b6101e961031a565b6101e9610333565b6102148161034c565b6101f58282610370565b6101f58282610393565b6101f582826103be565b6101f582826103e1565b61021481610404565b6101e9610420565b6101e9610439565b60405163d92e233d60e01b815260040160405180910390fd5b60405163647284e960e11b8152600481018390526001600160601b03821660248201526044015b60405180910390fd5b808210156101f557604051631c22ff0160e21b815260048101839052602481018290526044016102b1565b60405163730c31bf60e11b815260040160405180910390fd5b6040516335f135d360e01b8152600481018290526024016102b1565b60405163277c720560e01b815260040160405180910390fd5b604051631e1d0ab560e01b815260040160405180910390fd5b6040516398c3044f60e01b81526001600160a01b03821660048201526024016102b1565b60405163e407078d60e01b815260048101839052602481018290526044016102b1565b60405163b9e0f8d560e01b8152600481018390526001600160601b03821660248201526044016102b1565b60405163ea2aa10360e01b815260048101839052602481018290526044016102b1565b60405163e3da2a0560e01b815260048101839052602481018290526044016102b1565b60405163070b57d960e41b8152600481018290526024016102b1565b604051638ba26bd760e01b815260040160405180910390fd5b60405163af458c0760e01b815260040160405180910390fd5b6000806040838503121561046557600080fd5b8235915060208301356001600160601b038116811461048357600080fd5b809150509250929050565b600080604083850312156104a157600080fd5b50508035926020909101359150565b6000602082840312156104c257600080fd5b5035919050565b6000602082840312156104db57600080fd5b81356001600160a01b03811681146104f257600080fd5b939250505056fea26469706673582212209fd4bec71f6919e1014b071fcdefc56e62e94bf37e9a13c3a9e6b546e503e48b64736f6c63430008080033",
    "linkReferences": {}
  },
  "methodIdentifiers": {
    "alreadyHaveLiquidity(uint160)": "412c407d",
    "alreadyMatured(uint256,uint96)": "182b608b",
    "cannotBeZero()": "331fc165",
    "checkEnough(uint256,uint256)": "1a50474f",
    "deadlineReached(uint256)": "941ab741",
    "inactiveLiquidityTokenChoice()": "bdb443b3",
    "inactiveOptionChoice(uint256,uint256)": "6c3c5eb4",
    "inactivePoolChoice(uint256,uint256)": "8e17b742",
    "incorrectMaturity(uint256)": "2aa4a092",
    "requireLiquidity()": "30111020",
    "stillActive(uint256,uint96)": "76f9be89",
    "zeroAddress()": "0930907b",
    "zeroInput()": "ea78b152",
    "zeroOutput()": "1bb6ccd1",
    "zeroSqrtInterestRate(uint256,uint256)": "8baa0561"
  },
  "id": 30
}