{
  "abi": [
    {
      "inputs": [
        {
          "internalType": "uint256",
          "name": "multiplicand",
          "type": "uint256"
        },
        {
          "internalType": "uint256",
          "name": "multiplier",
          "type": "uint256"
        },
        {
          "internalType": "uint256",
          "name": "divisor",
          "type": "uint256"
        }
      ],
      "name": "MulDivOverflow",
      "type": "error"
    },
    {
      "inputs": [
        {
          "internalType": "uint256",
          "name": "amount0",
          "type": "uint256"
        },
        {
          "internalType": "uint256",
          "name": "amount1",
          "type": "uint256"
        },
        {
          "internalType": "uint256",
          "name": "strike",
          "type": "uint256"
        },
        {
          "internalType": "bool",
          "name": "roundUp",
          "type": "bool"
        }
      ],
      "name": "combine",
      "outputs": [
        {
          "internalType": "uint256",
          "name": "",
          "type": "uint256"
        }
      ],
      "stateMutability": "pure",
      "type": "function"
    },
    {
      "inputs": [
        {
          "internalType": "uint256",
          "name": "amount",
          "type": "uint256"
        },
        {
          "internalType": "uint256",
          "name": "strike",
          "type": "uint256"
        },
        {
          "internalType": "bool",
          "name": "zeroToOne",
          "type": "bool"
        },
        {
          "internalType": "bool",
          "name": "roundUp",
          "type": "bool"
        }
      ],
      "name": "convert",
      "outputs": [
        {
          "internalType": "uint256",
          "name": "",
          "type": "uint256"
        }
      ],
      "stateMutability": "pure",
      "type": "function"
    },
    {
      "inputs": [
        {
          "internalType": "uint256",
          "name": "base",
          "type": "uint256"
        },
        {
          "internalType": "uint256",
          "name": "amount",
          "type": "uint256"
        },
        {
          "internalType": "uint256",
          "name": "strike",
          "type": "uint256"
        },
        {
          "internalType": "bool",
          "name": "zeroToOne",
          "type": "bool"
        },
        {
          "internalType": "bool",
          "name": "roundUp",
          "type": "bool"
        }
      ],
      "name": "dif",
      "outputs": [
        {
          "internalType": "uint256",
          "name": "",
          "type": "uint256"
        }
      ],
      "stateMutability": "pure",
      "type": "function"
    },
    {
      "inputs": [
        {
          "internalType": "uint256",
          "name": "amount",
          "type": "uint256"
        },
        {
          "internalType": "uint256",
          "name": "strike",
          "type": "uint256"
        },
        {
          "internalType": "bool",
          "name": "toOne",
          "type": "bool"
        },
        {
          "internalType": "bool",
          "name": "roundUp",
          "type": "bool"
        }
      ],
      "name": "turn",
      "outputs": [
        {
          "internalType": "uint256",
          "name": "",
          "type": "uint256"
        }
      ],
      "stateMutability": "pure",
      "type": "function"
    }
  ],
  "bytecode": {
    "object": "0x61052961003a600b82828239805160001a60731461002d57634e487b7160e01b600052600060045260246000fd5b30600052607381538281f3fe73000000000000000000000000000000000000000030146080604052600436106100565760003560e01c8063646a41131461005b5780636ca138cc146100805780639ff5879f14610093578063ae53eeda146100a6575b600080fd5b61006e61006936600461038b565b6100b9565b60405190815260200160405180910390f35b61006e61008e3660046103ca565b6100d2565b61006e6100a1366004610405565b6100e0565b61006e6100b43660046103ca565b6100f9565b60006100c785858585610107565b90505b949350505050565b60006100c78585858561014a565b60006100ef868686868661018a565b9695505050505050565b60006100c7858585856101f7565b60006001600160801b0383116101335761012485846001856101f7565b61012e908561046b565b6100c7565b61014084846000856101f7565b6100c7908661046b565b60006001600160801b038411610172578261016c5761012e85856000856101f7565b846100c7565b8261017d57846100c7565b6100c785856001856101f7565b60006001600160801b0384116101d257826101ba576101b56101ac8688610483565b856000856101f7565b6100ef565b6101c88585600185156101f7565b6101b59087610483565b826101e5576101c88585600085156101f7565b6100ef6101f28688610483565b856001855b60008261020e5761012e85600160801b868561021a565b6100c78585600160801b855b6000806000610229878761031a565b91509150806000141561024a57610241828686610339565b925050506100ca565b80851161027f5760405163362ced0960e11b815260048101889052602481018790526044810186905260640160405180910390fd5b600085878909600087810388169788900497600260038a028118808b02820302808b02820302808b02820302808b02820302808b02820302808b029091030291819003819004600101868411909503948502929095039490940417928302935084905080156102fd575084806102f7576102f761049a565b86880915155b15610310578261030c816104b0565b9350505b5050949350505050565b6000806000198385098385029250828110838203039150509250929050565b600061034583856104cb565b905081801561035c575061035983856104df565b15155b1561036f578061036b816104b0565b9150505b9392505050565b8035801515811461038657600080fd5b919050565b600080600080608085870312156103a157600080fd5b8435935060208501359250604085013591506103bf60608601610376565b905092959194509250565b600080600080608085870312156103e057600080fd5b84359350602085013592506103f760408601610376565b91506103bf60608601610376565b600080600080600060a0868803121561041d57600080fd5b85359450602086013593506040860135925061043b60608701610376565b915061044960808701610376565b90509295509295909350565b634e487b7160e01b600052601160045260246000fd5b6000821982111561047e5761047e610455565b500190565b60008282101561049557610495610455565b500390565b634e487b7160e01b600052601260045260246000fd5b60006000198214156104c4576104c4610455565b5060010190565b6000826104da576104da61049a565b500490565b6000826104ee576104ee61049a565b50069056fea26469706673582212204071b8493d8b8f3da9274aecda1977f55525a8ce51d0b47a2641988b1c2faafb64736f6c63430008080033",
    "linkReferences": {}
  },
  "methodIdentifiers": {
    "combine(uint256,uint256,uint256,bool)": "646a4113",
    "convert(uint256,uint256,bool,bool)": "ae53eeda",
    "dif(uint256,uint256,uint256,bool,bool)": "9ff5879f",
    "turn(uint256,uint256,bool,bool)": "6ca138cc"
  },
  "id": 34
}