{
  "abi": [
    {
      "inputs": [
        {
          "internalType": "uint256",
          "name": "fee",
          "type": "uint256"
        }
      ],
      "name": "IncorrectFeeInitialization",
      "type": "error"
    },
    {
      "inputs": [
        {
          "internalType": "uint256",
          "name": "fee",
          "type": "uint256"
        }
      ],
      "name": "check",
      "outputs": [],
      "stateMutability": "pure",
      "type": "function"
    }
  ],
  "bytecode": {
    "object": "0x60ca610039600b82828239805160001a60731461002c57634e487b7160e01b600052600060045260246000fd5b30600052607381538281f3fe730000000000000000000000000000000000000000301460806040526004361060335760003560e01c80635f72f450146038575b600080fd5b60476043366004607c565b6049565b005b6050816053565b50565b61ffff811115605057604051634403315760e01b81526004810182905260240160405180910390fd5b600060208284031215608d57600080fd5b503591905056fea2646970667358221220515eef98dcbd316980b77af78fd6a001a302414015629ade8ccb0b66e913abf564736f6c63430008080033",
    "linkReferences": {}
  },
  "methodIdentifiers": {
    "check(uint256)": "5f72f450"
  },
  "id": 116
}