{
  "abi": [
    {
      "inputs": [
        {
          "internalType": "bytes",
          "name": "self",
          "type": "bytes"
        },
        {
          "internalType": "uint256",
          "name": "start",
          "type": "uint256"
        },
        {
          "internalType": "uint256",
          "name": "len",
          "type": "uint256"
        }
      ],
      "name": "slice",
      "outputs": [
        {
          "internalType": "bytes",
          "name": "",
          "type": "bytes"
        }
      ],
      "stateMutability": "pure",
      "type": "function"
    }
  ],
  "bytecode": {
    "object": "0x61031561003a600b82828239805160001a60731461002d57634e487b7160e01b600052600060045260246000fd5b30600052607381538281f3fe73000000000000000000000000000000000000000030146080604052600436106100355760003560e01c8063e00413961461003a575b600080fd5b61004d6100483660046101a0565b610063565b60405161005a9190610264565b60405180910390f35b6060610070848484610078565b949350505050565b60608161008681601f6102b9565b10156100ca5760405162461bcd60e51b815260206004820152600e60248201526d736c6963655f6f766572666c6f7760901b60448201526064015b60405180910390fd5b6100d482846102b9565b845110156101185760405162461bcd60e51b8152602060048201526011602482015270736c6963655f6f75744f66426f756e647360781b60448201526064016100c1565b6060821580156101375760405191506000825260208201604052610181565b6040519150601f8416801560200281840101858101878315602002848b0101015b81831015610170578051835260209283019201610158565b5050858452601f01601f1916604052505b50949350505050565b634e487b7160e01b600052604160045260246000fd5b6000806000606084860312156101b557600080fd5b833567ffffffffffffffff808211156101cd57600080fd5b818601915086601f8301126101e157600080fd5b8135818111156101f3576101f361018a565b604051601f8201601f19908116603f0116810190838211818310171561021b5761021b61018a565b8160405282815289602084870101111561023457600080fd5b82602086016020830137600060208483010152809750505050505060208401359150604084013590509250925092565b600060208083528351808285015260005b8181101561029157858101830151858201604001528201610275565b818111156102a3576000604083870101525b50601f01601f1916929092016040019392505050565b600082198211156102da57634e487b7160e01b600052601160045260246000fd5b50019056fea264697066735822122006e0878099d365d1f98dbba0aa53525da4039213daf35c346f6ff1156b44a68364736f6c63430008080033",
    "linkReferences": {}
  },
  "methodIdentifiers": {
    "slice(bytes,uint256,uint256)": "e0041396"
  },
  "id": 28
}