{
  "abi": [
    {
      "inputs": [],
      "name": "ZeroAddress",
      "type": "error"
    },
    {
      "inputs": [],
      "name": "ZeroFactoryAddress",
      "type": "error"
    },
    {
      "inputs": [
        {
          "internalType": "address",
          "name": "poolFactory",
          "type": "address"
        }
      ],
      "name": "checkNotZeroFactory",
      "outputs": [],
      "stateMutability": "pure",
      "type": "function"
    },
    {
      "inputs": [
        {
          "internalType": "address",
          "name": "optionFactory",
          "type": "address"
        },
        {
          "internalType": "address",
          "name": "poolFactory",
          "type": "address"
        },
        {
          "internalType": "address",
          "name": "token0",
          "type": "address"
        },
        {
          "internalType": "address",
          "name": "token1",
          "type": "address"
        }
      ],
      "name": "get",
      "outputs": [
        {
          "internalType": "address",
          "name": "optionPair",
          "type": "address"
        },
        {
          "internalType": "address",
          "name": "poolPair",
          "type": "address"
        }
      ],
      "stateMutability": "view",
      "type": "function"
    },
    {
      "inputs": [
        {
          "internalType": "address",
          "name": "optionFactory",
          "type": "address"
        },
        {
          "internalType": "address",
          "name": "poolFactory",
          "type": "address"
        },
        {
          "internalType": "address",
          "name": "token0",
          "type": "address"
        },
        {
          "internalType": "address",
          "name": "token1",
          "type": "address"
        }
      ],
      "name": "getWithCheck",
      "outputs": [
        {
          "internalType": "address",
          "name": "optionPair",
          "type": "address"
        },
        {
          "internalType": "address",
          "name": "poolPair",
          "type": "address"
        }
      ],
      "stateMutability": "view",
      "type": "function"
    }
  ],
  "bytecode": {
    "object": "0x61041461003a600b82828239805160001a60731461002d57634e487b7160e01b600052600060045260246000fd5b30600052607381538281f3fe730000000000000000000000000000000000000000301460806040526004361061004b5760003560e01c806315d91e6f146100505780634475de2c14610087578063c55b143e1461009c575b600080fd5b61006361005e366004610348565b6100af565b604080516001600160a01b0393841681529290911660208301520160405180910390f35b61009a6100953660046103a4565b6100cb565b005b6100636100aa366004610348565b6100d7565b6000806100be868686866100e6565b9097909650945050505050565b6100d481610185565b50565b6000806100be868686866101ac565b6000806100fd6001600160a01b0387168585610261565b6040516330af0bbf60e21b81526001600160a01b0380831660048301529193509086169063c2bc2efc9060240160206040518083038186803b15801561014257600080fd5b505afa158015610156573d6000803e3d6000fd5b505050506040513d601f19601f8201168201806040525081019061017a91906103c1565b905094509492505050565b6001600160a01b0381166100d457604051635acefb8f60e01b815260040160405180910390fd5b6000806101c36001600160a01b03871685856102ee565b6040516330af0bbf60e21b81526001600160a01b0380831660048301529193509086169063c2bc2efc9060240160206040518083038186803b15801561020857600080fd5b505afa15801561021c573d6000803e3d6000fd5b505050506040513d601f19601f8201168201806040525081019061024091906103c1565b90506001600160a01b0381166102585761025861031a565b94509492505050565b60405163d81e842360e01b81526001600160a01b03838116600483015282811660248301526000919085169063d81e84239060440160206040518083038186803b1580156102ae57600080fd5b505afa1580156102c2573d6000803e3d6000fd5b505050506040513d601f19601f820116820180604052508101906102e691906103c1565b949350505050565b60006102fb848484610261565b90506001600160a01b0381166103135761031361031a565b9392505050565b60405163d92e233d60e01b815260040160405180910390fd5b6001600160a01b03811681146100d457600080fd5b6000806000806080858703121561035e57600080fd5b843561036981610333565b9350602085013561037981610333565b9250604085013561038981610333565b9150606085013561039981610333565b939692955090935050565b6000602082840312156103b657600080fd5b813561031381610333565b6000602082840312156103d357600080fd5b81516103138161033356fea26469706673582212207bdc63796b5fe086f09e979efc9c229f4fe0c9001ba638e5c2ec11ef414179c364736f6c63430008080033",
    "linkReferences": {}
  },
  "methodIdentifiers": {
    "checkNotZeroFactory(address)": "4475de2c",
    "get(address,address,address,address)": "15d91e6f",
    "getWithCheck(address,address,address,address)": "c55b143e"
  },
  "id": 117
}