{
  "abi": [
    {
      "inputs": [
        {
          "internalType": "bytes",
          "name": "reason",
          "type": "bytes"
        },
        {
          "internalType": "bytes4",
          "name": "selector",
          "type": "bytes4"
        }
      ],
      "name": "catchError",
      "outputs": [
        {
          "internalType": "bytes",
          "name": "",
          "type": "bytes"
        }
      ],
      "stateMutability": "pure",
      "type": "function"
    }
  ],
  "bytecode": {
    "object": "0x61041261003a600b82828239805160001a60731461002d57634e487b7160e01b600052600060045260246000fd5b30600052607381538281f3fe73000000000000000000000000000000000000000030146080604052600436106100355760003560e01c8063ac00e9ce1461003a575b600080fd5b61004d610048366004610227565b610063565b60405161005a91906102e9565b60405180910390f35b606061006f8383610078565b90505b92915050565b8151606090602061008a600483610354565b610094919061036b565b1580156100bc57506001600160e01b031983166100b08561038d565b6001600160e01b031916145b156100de576100d68460046100d18185610354565b6100e2565b915050610072565b8084fd5b6060816100f081601f6103c4565b10156101345760405162461bcd60e51b815260206004820152600e60248201526d736c6963655f6f766572666c6f7760901b60448201526064015b60405180910390fd5b61013e82846103c4565b845110156101825760405162461bcd60e51b8152602060048201526011602482015270736c6963655f6f75744f66426f756e647360781b604482015260640161012b565b6060821580156101a157604051915060008252602082016040526101eb565b6040519150601f8416801560200281840101858101878315602002848b0101015b818310156101da5780518352602092830192016101c2565b5050858452601f01601f1916604052505b50949350505050565b634e487b7160e01b600052604160045260246000fd5b80356001600160e01b03198116811461022257600080fd5b919050565b6000806040838503121561023a57600080fd5b823567ffffffffffffffff8082111561025257600080fd5b818501915085601f83011261026657600080fd5b813581811115610278576102786101f4565b604051601f8201601f19908116603f011681019083821181831017156102a0576102a06101f4565b816040528281528860208487010111156102b957600080fd5b8260208601602083013760006020848301015280965050505050506102e06020840161020a565b90509250929050565b600060208083528351808285015260005b81811015610316578581018301518582016040015282016102fa565b81811115610328576000604083870101525b50601f01601f1916929092016040019392505050565b634e487b7160e01b600052601160045260246000fd5b6000828210156103665761036661033e565b500390565b60008261038857634e487b7160e01b600052601260045260246000fd5b500690565b805160208201516001600160e01b031980821692919060048310156103bc5780818460040360031b1b83161693505b505050919050565b600082198211156103d7576103d761033e565b50019056fea26469706673582212207db8cf6d69022391491ccc7d1bc9d379ae733cb046d959ab2f960605a79da6a664736f6c63430008080033",
    "linkReferences": {}
  },
  "methodIdentifiers": {
    "catchError(bytes,bytes4)": "ac00e9ce"
  },
  "id": 29
}