{
  "abi": [
    {
      "inputs": [
        {
          "internalType": "address",
          "name": "chosenOwner",
          "type": "address"
        },
        {
          "internalType": "uint256",
          "name": "chosenTransactionFee",
          "type": "uint256"
        },
        {
          "internalType": "uint256",
          "name": "chosenProtocolFee",
          "type": "uint256"
        }
      ],
      "stateMutability": "nonpayable",
      "type": "constructor"
    },
    {
      "inputs": [
        {
          "internalType": "address",
          "name": "owner",
          "type": "address"
        }
      ],
      "name": "AlreadyTheOwner",
      "type": "error"
    },
    {
      "inputs": [
        {
          "internalType": "uint256",
          "name": "fee",
          "type": "uint256"
        }
      ],
      "name": "IncorrectFeeInitialization",
      "type": "error"
    },
    {
      "inputs": [
        {
          "internalType": "address",
          "name": "caller",
          "type": "address"
        },
        {
          "internalType": "address",
          "name": "owner",
          "type": "address"
        }
      ],
      "name": "NotTheOwner",
      "type": "error"
    },
    {
      "inputs": [
        {
          "internalType": "address",
          "name": "caller",
          "type": "address"
        },
        {
          "internalType": "address",
          "name": "pendingOwner",
          "type": "address"
        }
      ],
      "name": "NotThePendingOwner",
      "type": "error"
    },
    {
      "inputs": [],
      "name": "ZeroAddress",
      "type": "error"
    },
    {
      "anonymous": false,
      "inputs": [
        {
          "indexed": false,
          "internalType": "address",
          "name": "owner",
          "type": "address"
        }
      ],
      "name": "AcceptOwner",
      "type": "event"
    },
    {
      "anonymous": false,
      "inputs": [
        {
          "indexed": false,
          "internalType": "address",
          "name": "caller",
          "type": "address"
        },
        {
          "indexed": false,
          "internalType": "address",
          "name": "option",
          "type": "address"
        },
        {
          "indexed": false,
          "internalType": "address",
          "name": "poolPair",
          "type": "address"
        }
      ],
      "name": "Create",
      "type": "event"
    },
    {
      "anonymous": false,
      "inputs": [
        {
          "indexed": false,
          "internalType": "address",
          "name": "pendingOwner",
          "type": "address"
        }
      ],
      "name": "SetOwner",
      "type": "event"
    },
    {
      "inputs": [],
      "name": "acceptOwner",
      "outputs": [],
      "stateMutability": "nonpayable",
      "type": "function"
    },
    {
      "inputs": [
        {
          "internalType": "address",
          "name": "optionPair",
          "type": "address"
        }
      ],
      "name": "create",
      "outputs": [
        {
          "internalType": "address",
          "name": "pair",
          "type": "address"
        }
      ],
      "stateMutability": "nonpayable",
      "type": "function"
    },
    {
      "inputs": [
        {
          "internalType": "address",
          "name": "optionPair",
          "type": "address"
        }
      ],
      "name": "get",
      "outputs": [
        {
          "internalType": "address",
          "name": "pair",
          "type": "address"
        }
      ],
      "stateMutability": "view",
      "type": "function"
    },
    {
      "inputs": [
        {
          "internalType": "uint256",
          "name": "",
          "type": "uint256"
        }
      ],
      "name": "getByIndex",
      "outputs": [
        {
          "internalType": "address",
          "name": "",
          "type": "address"
        }
      ],
      "stateMutability": "view",
      "type": "function"
    },
    {
      "inputs": [],
      "name": "numberOfPairs",
      "outputs": [
        {
          "internalType": "uint256",
          "name": "",
          "type": "uint256"
        }
      ],
      "stateMutability": "view",
      "type": "function"
    },
    {
      "inputs": [],
      "name": "owner",
      "outputs": [
        {
          "internalType": "address",
          "name": "",
          "type": "address"
        }
      ],
      "stateMutability": "view",
      "type": "function"
    },
    {
      "inputs": [],
      "name": "parameter",
      "outputs": [
        {
          "internalType": "address",
          "name": "poolFactory",
          "type": "address"
        },
        {
          "internalType": "address",
          "name": "optionPair",
          "type": "address"
        },
        {
          "internalType": "uint256",
          "name": "transactionFee",
          "type": "uint256"
        },
        {
          "internalType": "uint256",
          "name": "protocolFee",
          "type": "uint256"
        }
      ],
      "stateMutability": "view",
      "type": "function"
    },
    {
      "inputs": [],
      "name": "pendingOwner",
      "outputs": [
        {
          "internalType": "address",
          "name": "",
          "type": "address"
        }
      ],
      "stateMutability": "view",
      "type": "function"
    },
    {
      "inputs": [],
      "name": "protocolFee",
      "outputs": [
        {
          "internalType": "uint256",
          "name": "",
          "type": "uint256"
        }
      ],
      "stateMutability": "view",
      "type": "function"
    },
    {
      "inputs": [
        {
          "internalType": "address",
          "name": "chosenPendingOwner",
          "type": "address"
        }
      ],
      "name": "setPendingOwner",
      "outputs": [],
      "stateMutability": "nonpayable",
      "type": "function"
    },
    {
      "inputs": [],
      "name": "transactionFee",
      "outputs": [
        {
          "internalType": "uint256",
          "name": "",
          "type": "uint256"
        }
      ],
      "stateMutability": "view",
      "type": "function"
    }
  ],
  "bytecode": {
    "object": "0x60c060405234801561001057600080fd5b50604051614fd1380380614fd183398101604081905261002f916100aa565b600480546001600160a01b0319166001600160a01b03851617905561ffff82111561007557604051634403315760e01b8152600481018390526024015b60405180910390fd5b61ffff81111561009b57604051634403315760e01b81526004810182905260240161006c565b60809190915260a052506100ed565b6000806000606084860312156100bf57600080fd5b83516001600160a01b03811681146100d657600080fd5b602085015160409095015190969495509392505050565b60805160a051614eb261011f6000396000818161018b01526102a501526000818160f601526102840152614eb26000f3fe608060405234801561001057600080fd5b50600436106100a95760003560e01c8063b0e21e8a11610071578063b0e21e8a14610186578063c2bc2efc146101ad578063c42069ec146101d9578063e30c3978146101ee578063ebbc496514610201578063fc0d92bd1461020957600080fd5b80632d883a73146100ae5780638da5cb5b146100de5780639ed3edf0146100f15780639ed9331814610126578063ad4d4e2914610139575b600080fd5b6100c16100bc366004610606565b610211565b6040516001600160a01b0390911681526020015b60405180910390f35b6004546100c1906001600160a01b031681565b6101187f000000000000000000000000000000000000000000000000000000000000000081565b6040519081526020016100d5565b6100c161013436600461061f565b61023b565b60005460015460025460035461015b936001600160a01b039081169316919084565b604080516001600160a01b0395861681529490931660208501529183015260608201526080016100d5565b6101187f000000000000000000000000000000000000000000000000000000000000000081565b6100c16101bb36600461061f565b6001600160a01b039081166000908152600660205260409020541690565b6101ec6101e736600461061f565b610341565b005b6005546100c1906001600160a01b031681565b6101ec6103d9565b600754610118565b6007818154811061022157600080fd5b6000918252602090912001546001600160a01b0316905081565b60006001600160a01b03821661025357610253610444565b506001600160a01b0380821660009081526006602052604090205416801561027d5761027d610444565b6102c930837f00000000000000000000000000000000000000000000000000000000000000007f000000000000000000000000000000000000000000000000000000000000000061045d565b6001600160a01b0383811660008181526006602090815260409182902080546001600160a01b03191694861694851790558151338152908101929092528101919091529091507fb224da6575b2c2ffd42454faedb236f7dbe5f92a0c96bb99c0273dbe98464c7e9060600160405180910390a1919050565b600454610356906001600160a01b0316610530565b6001600160a01b03811661036c5761036c610444565b600454610385906001600160a01b038381169116610572565b600580546001600160a01b0319166001600160a01b0383169081179091556040519081527f167d3e9c1016ab80e58802ca9da10ce5c6a0f4debc46a2e7a2cd9e56899a4fb59060200160405180910390a150565b6005546103f09033906001600160a01b03166105b4565b60048054336001600160a01b031991821681179092556005805490911690556040519081527f31775a018194f26a792a0203e972faf15303e08a913cdc54497278e48de669099060200160405180910390a1565b60405163d92e233d60e01b815260040160405180910390fd5b604080516080810182526001600160a01b0386811680835290861660208084018290528385018790526060909301859052600080546001600160a01b03199081169093178155600180549093168217909255600286905560038590558351928301529101604051602081830303815290604052805190602001206040516104e3906105f9565b8190604051809103906000f5905080158015610503573d6000803e3d6000fd5b50600080546001600160a01b03199081168255600180549091169055600281905560035595945050505050565b336001600160a01b0382161461056f57604051631bf9565d60e21b81523360048201526001600160a01b03821660248201526044015b60405180910390fd5b50565b806001600160a01b0316826001600160a01b031614156105b057604051632de305cb60e11b81526001600160a01b0382166004820152602401610566565b5050565b806001600160a01b0316826001600160a01b0316146105b05760405163f93f289d60e01b81526001600160a01b03808416600483015282166024820152604401610566565b61482d8061065083390190565b60006020828403121561061857600080fd5b5035919050565b60006020828403121561063157600080fd5b81356001600160a01b038116811461064857600080fd5b939250505056fe6101206040523480156200001257600080fd5b503060601b60809081526040805163ad4d4e2960e01b81529051339263ad4d4e299260048082019391829003018186803b1580156200005057600080fd5b505afa15801562000065573d6000803e3d6000fd5b505050506040513d601f19601f820116820180604052508101906200008b9190620000cf565b6101005260e0526001600160601b0319606091821b811660c05291901b1660a05262000117565b80516001600160a01b0381168114620000ca57600080fd5b919050565b60008060008060808587031215620000e657600080fd5b620000f185620000b2565b93506200010160208601620000b2565b6040860151606090960151949790965092505050565b60805160601c60a05160601c60c05160601c60e051610100516145e8620002456000396000818161049501528181610988015281816127170152612c7b0152600081816104110152818161082f01528181610966015281816126f60152612c5a01526000818161020c01528181610a2c01528181610afc01528181610cd5015281816118810152818161190f0152818161199d01528181611c4801528181611cf101528181611dac01528181611f4601528181612000015281816120b4015281816122a201528181612344015281816123e0015281816127de0152818161289d0152818161294501528181612ac201528181612b2401528181612d3d01528181612dea01528181612e8c01526130040152600081816102c30152610ecd0152600061171001526145e86000f3fe608060405234801561001057600080fd5b50600436106101cf5760003560e01c806378fb9d3811610104578063ad118b02116100a2578063c0e0c4c611610071578063c0e0c4c6146104fe578063d7e2c24a14610511578063e0260d1114610524578063f78333a31461053757600080fd5b8063ad118b021461047b578063b0e21e8a14610490578063b15044ac146104b7578063bfec5c8a146104eb57600080fd5b80638fdc5c99116100de5780638fdc5c99146103f95780639ed3edf01461040c5780639eee6e5114610433578063a8f403b71461044657600080fd5b806378fb9d381461038d5780637ffd3a70146103b0578063847a1013146103e657600080fd5b80635e2659f311610171578063647284f51161014b578063647284f5146103425780636c867790146103555780636f682a531461036857806372f8f85c1461037a57600080fd5b80635e2659f314610309578063630b15f31461031c578063641972451461032f57600080fd5b80633a9d71e7116101ad5780633a9d71e7146102745780633aee875c1461029c5780634219dc40146102be5780634e9ca003146102e557600080fd5b80630630582e146101d457806311c959fd146102075780632d883a7314610246575b600080fd5b6101e76101e23660046134db565b610578565b604080519384526020840192909252908201526060015b60405180910390f35b61022e7f000000000000000000000000000000000000000000000000000000000000000081565b6040516001600160a01b0390911681526020016101fe565b6102596102543660046134ff565b6107a4565b604080518251815260209283015192810192909252016101fe565b610287610282366004613518565b6107ff565b604080519283526020830191909152016101fe565b6102af6102aa36600461354c565b6108cf565b6040516101fe939291906135e4565b61022e7f000000000000000000000000000000000000000000000000000000000000000081565b6102f86102f336600461363a565b610e39565b6040516101fe959493929190613687565b6102f86103173660046136c5565b610e60565b6102f861032a3660046136fa565b610e74565b6101e761033d3660046134db565b610e9a565b6101e7610350366004613518565b611094565b6101e761036336600461374e565b611143565b6002545b6040519081526020016101fe565b6101e7610388366004613518565b611202565b6103a061039b366004613787565b611258565b6040516101fe94939291906137bb565b6102876103be366004613518565b6000918252600160209081526040808420928452919052902060028101546003909101549091565b6102f86103f4366004613787565b61127a565b610287610407366004613518565b61128e565b61036c7f000000000000000000000000000000000000000000000000000000000000000081565b6103a06104413660046137ea565b611309565b61022e610454366004613518565b6000918252600160208181526040808520938552929052912001546001600160a01b031690565b61048e61048936600461374e565b61132c565b005b61036c7f000000000000000000000000000000000000000000000000000000000000000081565b61022e6104c5366004613518565b60009182526001602090815260408084209284529190529020546001600160a01b031690565b6103a06104f936600461363a565b611413565b61048e61050c36600461381f565b611426565b61048e61051f366004613869565b611598565b6103a061053236600461354c565b6116f2565b61022e61054536600461374e565b60009283526001602090815260408085209385529281528284206001600160a01b039283168552600a0190529120541690565b6000806000610585611705565b61059c6105973686900386018661396f565b611750565b6105ab843560208601356117f5565b83356000908152600160209081526040808320828801358085529252822073__$eb3637497184ed6fca3dfbe428a98227aa$__92631d0ea1f2929060a08901359060c08a01359060e08b01359061060190611849565b6040516001600160e01b031960e089901b168152600481019690965260248601949094526044850192909252606484015260848301526001600160601b031660a482015260c40160606040518083038186803b15801561066057600080fd5b505af4158015610674573d6000803e3d6000fd5b505050506040513d601f19601f820116820180604052508101906106989190613a18565b919450925090506106e1843560208601356106b96060880160408901613a46565b6106c96080890160608a01613a46565b6106d960a08a0160808b01613a46565b888888611864565b6106f084356020860135611a18565b7f6e9600f64d8c6ff3a965afd7a2fe211b9621753221ca9f9899f80500b709ec8284356020860135336107296060890160408a01613a46565b61073960808a0160608b01613a46565b61074960a08b0160808c01613a46565b6040805196875260208701959095526001600160a01b03938416868601529183166060860152821660808501521660a083015260c0820186905260e08201859052610100820184905251908190036101200190a19193909250565b6040805180820190915260008082526020820152600282815481106107cb576107cb613a63565b9060005260206000209060020201604051806040016040529081600082015481526020016001820154815250509050919050565b600082815260016020908152604080832084845290915280822090516313571e0d60e11b815260048101919091527f00000000000000000000000000000000000000000000000000000000000000006024820152819073__$eb3637497184ed6fca3dfbe428a98227aa$__906326ae3c1a906044015b604080518083038186803b15801561088c57600080fd5b505af41580156108a0573d6000803e3d6000fd5b505050506040513d601f19601f820116820180604052508101906108c49190613a79565b909590945092505050565b60008060606108dc611705565b6108eb84356020860135611a42565b6109066108f785613b39565b6109016000611849565b611a75565b610915843560208601356117f5565b833560009081526001602090815260408083208288013584529091529081902090516302b65c4f60e11b815273__$eb3637497184ed6fca3dfbe428a98227aa$__9163056cb89e916109b0919088907f0000000000000000000000000000000000000000000000000000000000000000907f000000000000000000000000000000000000000000000000000000000000000090600401613c5a565b604080518083038186803b1580156109c757600080fd5b505af41580156109db573d6000803e3d6000fd5b505050506040513d601f19601f820116820180604052508101906109ff9190613a79565b90935091506000610a166080860160608701613d0c565b610a205782610a22565b835b6001600160a01b037f00000000000000000000000000000000000000000000000000000000000000001663af2f91ea8735602089013530610a6960808c0160608d01613d0c565b610a74576001610a77565b60005b6040518563ffffffff1660e01b8152600401610a969493929190613d3b565b60206040518083038186803b158015610aae57600080fd5b505afa158015610ac2573d6000803e3d6000fd5b505050506040513d601f19601f82011682018060405250810190610ae69190613d65565b610af09190613d94565b90506001600160a01b037f00000000000000000000000000000000000000000000000000000000000000001663b2ceca7786356020880135610b3860608a0160408b01613a46565b610b4860808b0160608c01613d0c565b610b53576000610b56565b60015b610b6660808c0160608d01613d0c565b610b705789610b72565b885b6040518663ffffffff1660e01b8152600401610b92959493929190613dac565b600060405180830381600087803b158015610bac57600080fd5b505af1158015610bc0573d6000803e3d6000fd5b50506040805160c081018252883581526020808a01359082015233935063c84a17499250908101610bf760808a0160608b01613d0c565b151581526020810188905260408101879052606001610c1960c08a018a613de6565b8080601f01602080910402602001604051908101604052809392919081815260200183838082843760009201919091525050509152506040516001600160e01b031960e084901b168152610c709190600401613e2c565b600060405180830381600087803b158015610c8a57600080fd5b505af1158015610c9e573d6000803e3d6000fd5b505050506040513d6000823e601f3d908101601f19168201604052610cc69190810190613ec0565b9150610d956001600160a01b037f00000000000000000000000000000000000000000000000000000000000000001663af2f91ea8735602089013530610d1260808c0160608d01613d0c565b610d1d576001610d20565b60005b6040518563ffffffff1660e01b8152600401610d3f9493929190613d3b565b60206040518083038186803b158015610d5757600080fd5b505afa158015610d6b573d6000803e3d6000fd5b505050506040513d601f19601f82011682018060405250810190610d8f9190613d65565b82611afc565b610da485356020870135611a18565b7fb5203bea7ad91c36603035fd1320703929688fbe9d58e3513a502f9359c960378535602087013533610ddd60608a0160408b01613a46565b610ded60808b0160608c01613d0c565b6040805195865260208601949094526001600160a01b0392831685850152911660608401521515608083015260a0820187905260c08201869052519081900360e00190a1509193909250565b6000806000806060610e4d87600188611b2c565b939b929a50909850965090945092505050565b6000806000806060610e4d87600188612189565b6000806000806060610e8886600080612189565b939a9299509097509550909350915050565b6000806000610ea7611705565b610eb96105973686900386018661396f565b610ec8843560208601356117f5565b610f6a7f00000000000000000000000000000000000000000000000000000000000000006001600160a01b0316638da5cb5b6040518163ffffffff1660e01b815260040160206040518083038186803b158015610f2457600080fd5b505afa158015610f38573d6000803e3d6000fd5b505050506040513d601f19601f82011682018060405250810190610f5c9190613ef4565b6001600160a01b031661263d565b8335600090815260016020908152604080832082880135845290915290819020905163e0b364cb60e01b8152600481019190915260a0850135602482015260c0850135604482015260e0850135606482015273__$eb3637497184ed6fca3dfbe428a98227aa$__9063e0b364cb9060840160606040518083038186803b158015610ff357600080fd5b505af4158015611007573d6000803e3d6000fd5b505050506040513d601f19601f8201168201806040525081019061102b9190613a18565b9194509250905061104c843560208601356106b96060880160408901613a46565b61105b84356020860135611a18565b7f9f89f4362c689657241ac1ec1cc69db4d75234f93386d70e9519f271a4fdabb884356020860135336107296060890160408a01613a46565b600082815260016020908152604080832084845290915280822090516381f39c3160e01b815260048101919091528190819073__$eb3637497184ed6fca3dfbe428a98227aa$__906381f39c31906024015b60606040518083038186803b1580156110fe57600080fd5b505af4158015611112573d6000803e3d6000fd5b505050506040513d601f19601f820116820180604052508101906111369190613a18565b9250925092509250925092565b6000838152600160209081526040808320858452909152808220905163fbe5826f60e01b815260048101919091526001600160a01b03831660248201528190819073__$eb3637497184ed6fca3dfbe428a98227aa$__9063fbe5826f9060440160606040518083038186803b1580156111bb57600080fd5b505af41580156111cf573d6000803e3d6000fd5b505050506040513d601f19601f820116820180604052508101906111f39190613a18565b92509250925093509350939050565b60008281526001602090815260408083208484529091528082209051636e4f4d7d60e11b815260048101919091528190819073__$eb3637497184ed6fca3dfbe428a98227aa$__9063dc9e9afa906024016110e6565b6000806000606061126b85600080612677565b93509350935093509193509193565b6000806000806060610e8886600080611b2c565b60008281526001602090815260408083208484529091528120819073__$eb3637497184ed6fca3dfbe428a98227aa$__90636512a69d90856112cf85611849565b6040516001600160e01b031960e086901b168152600481019390935260248301919091526001600160601b03166044820152606401610875565b6000806000606061131c86600187612bd6565b9299919850965090945092505050565b611334611705565b61133e6000611849565b6001600160601b0316821015611361576113618261135c6000611849565b6130c6565b6001600160a01b038116611377576113776130f1565b611381838361310a565b600083815260016020908152604080832085845290915290819020905163c3218b1d60e01b815260048101919091526001600160a01b038216602482015273__$eb3637497184ed6fca3dfbe428a98227aa$__9063c3218b1d9060440160006040518083038186803b1580156113f657600080fd5b505af415801561140a573d6000803e3d6000fd5b50505050505050565b6000806000606061131c86600187612677565b6114308484611a42565b8261143b6000611849565b6001600160601b03161115611458576114588361135c6000611849565b6001600160a01b03821661146e5761146e6131ca565b6001600160a01b038116611484576114846131e3565b6000848152600160209081526040808320868452909152812073__$eb3637497184ed6fca3dfbe428a98227aa$__916317db579b9190859085906114c790611849565b6040516001600160e01b031960e087901b16815260048101949094526001600160a01b039283166024850152911660448301526001600160601b0316606482015260840160006040518083038186803b15801561152357600080fd5b505af4158015611537573d6000803e3d6000fd5b5050604080518781526020810187905233818301526001600160a01b0386811660608301528516608082015290517f76b4de7b53928b4b4b5be34802c5db3b6ddf280ba50c509b55f939a91ea758f693509081900360a0019150a150505050565b6001600160a01b0384166115ae576115ae6131ca565b821580156115ba575081155b80156115c4575080155b156115d1576115d16131e3565b60016000878152602001908152602001600020600086815260200190815260200160002073__$eb3637497184ed6fca3dfbe428a98227aa$__6363244158909187878787876116206000611849565b6040516001600160e01b031960e08a901b168152600481019790975260248701959095526001600160a01b0390931660448601526064850191909152608484015260a48301526001600160601b031660c482015260e40160006040518083038186803b15801561168f57600080fd5b505af41580156116a3573d6000803e3d6000fd5b505050507f25795e87541bbaa7236ae061c5a2b7c0e337afcee15a3a2c3b32783d9aceff0c868633878787876040516116e29796959493929190613f11565b60405180910390a1505050505050565b6000806000606061126b85600080612bd6565b306001600160a01b037f0000000000000000000000000000000000000000000000000000000000000000161461174e57604051634118e0bb60e11b815260040160405180910390fd5b565b60408101516001600160a01b03161580611775575060608101516001600160a01b0316155b8061178b575060808101516001600160a01b0316155b15611798576117986131ca565b60208101516001600160601b0310156117b8576117b881602001516131fc565b60a08101511580156117cc575060c0810151155b80156117da575060e0810151155b80156117e557508051155b156117f2576117f26131e3565b50565b60008281526020818152604080832084845290915290205461181f906001600160601b0316613218565b600091825260208281526040808420928452919052902080546001600160601b0319166002179055565b600061185e6001600160601b03831642613d94565b92915050565b82156118f25760405163b2ceca7760e01b81526001600160a01b037f0000000000000000000000000000000000000000000000000000000000000000169063b2ceca77906118bf908b908b908b906000908a90600401613dac565b600060405180830381600087803b1580156118d957600080fd5b505af11580156118ed573d6000803e3d6000fd5b505050505b81156119805760405163b2ceca7760e01b81526001600160a01b037f0000000000000000000000000000000000000000000000000000000000000000169063b2ceca779061194d908b908b908a906001908990600401613dac565b600060405180830381600087803b15801561196757600080fd5b505af115801561197b573d6000803e3d6000fd5b505050505b8015611a0e5760405163b2ceca7760e01b81526001600160a01b037f0000000000000000000000000000000000000000000000000000000000000000169063b2ceca77906119db908b908b9089906002908890600401613dac565b600060405180830381600087803b1580156119f557600080fd5b505af1158015611a09573d6000803e3d6000fd5b505050505b5050505050505050565b600091825260208281526040808420928452919052902080546001600160601b0319166001179055565b60008281526001602090815260408083208484529091529020546001600160a01b0316611a7157611a7161326a565b5050565b60208201516001600160601b031015611a9557611a9582602001516131fc565b806001600160601b031682602001511015611ab857611ab88260200151826130c6565b60408201516001600160a01b0316611ad257611ad26131ca565b611adf8260800151613283565b60a08201511580611aef57508151155b15611a7157611a716131e3565b80821015611a7157604051631c22ff0160e21b815260048101839052602481018290526044015b60405180910390fd5b6000806000806060611b3c611705565b611b56611b4889613f65565b611b5188611849565b6132b5565b611b65883560208a01356117f5565b87356000908152600160209081526040808320828c01358452909152902073__$eb3637497184ed6fca3dfbe428a98227aa$__90636951fc8c908a611ba98a611849565b6040518463ffffffff1660e01b8152600401611bc793929190613ffe565b60006040518083038186803b158015611bdf57600080fd5b505af4158015611bf3573d6000803e3d6000fd5b505050506040513d6000823e601f3d908101601f19168201604052611c1b919081019061409c565b93985091965094509250905060008415611ce657604051635797c8f560e11b815285906001600160a01b037f0000000000000000000000000000000000000000000000000000000000000000169063af2f91ea90611c89908d359060208f0135903090600090600401613d3b565b60206040518083038186803b158015611ca157600080fd5b505afa158015611cb5573d6000803e3d6000fd5b505050506040513d601f19601f82011682018060405250810190611cd99190613d65565b611ce39190613d94565b90505b60008415611da757847f00000000000000000000000000000000000000000000000000000000000000006001600160a01b031663af2f91ea8c600001358d602001353060016040518563ffffffff1660e01b8152600401611d4a9493929190613d3b565b60206040518083038186803b158015611d6257600080fd5b505afa158015611d76573d6000803e3d6000fd5b505050506040513d601f19601f82011682018060405250810190611d9a9190613d65565b611da49190613d94565b90505b6000847f00000000000000000000000000000000000000000000000000000000000000006001600160a01b031663af2f91ea8d600001358e602001353060026040518563ffffffff1660e01b8152600401611e059493929190613d3b565b60206040518083038186803b158015611e1d57600080fd5b505afa158015611e31573d6000803e3d6000fd5b505050506040513d601f19601f82011682018060405250810190611e559190613d65565b611e5f9190613d94565b6040805160e0810182528d3581526020808f0135908201528082018a905260608101899052608081018890526001600160a01b038b1660a082015260c08101879052905163321c8bed60e01b8152919250339163321c8bed91611ec491600401614163565b600060405180830381600087803b158015611ede57600080fd5b505af1158015611ef2573d6000803e3d6000fd5b505050506040513d6000823e601f3d908101601f19168201604052611f1a9190810190613ec0565b93508915611f3b5760405163335b3bef60e01b815260040160405180910390fd5b8615611ff557611ff57f00000000000000000000000000000000000000000000000000000000000000006001600160a01b031663af2f91ea8d600001358e602001353060006040518563ffffffff1660e01b8152600401611f9f9493929190613d3b565b60206040518083038186803b158015611fb757600080fd5b505afa158015611fcb573d6000803e3d6000fd5b505050506040513d601f19601f82011682018060405250810190611fef9190613d65565b84611afc565b85156120af576120af7f00000000000000000000000000000000000000000000000000000000000000006001600160a01b031663af2f91ea8d600001358e602001353060016040518563ffffffff1660e01b81526004016120599493929190613d3b565b60206040518083038186803b15801561207157600080fd5b505afa158015612085573d6000803e3d6000fd5b505050506040513d601f19601f820116820180604052508101906120a99190613d65565b83611afc565b61210d7f00000000000000000000000000000000000000000000000000000000000000006001600160a01b031663af2f91ea8d600001358e602001353060026040518563ffffffff1660e01b8152600401610d3f9493929190613d3b565b61211c8b3560208d0135611a18565b7f86838b111645453d71257de3cf164de8e18622d66009889e94f13128f595ef648b600001358c60200135338e604001602081019061215b9190613a46565b8c8c8c8c604051612173989796959493929190614176565b60405180910390a1505050939792965093509350565b6000806000806060612199611705565b6121a8883560208a0135611a42565b6121c26121b4896141b9565b6121bd88611849565b613339565b6121d1883560208a01356117f5565b87356000908152600160209081526040808320828c01358452909152902073__$eb3637497184ed6fca3dfbe428a98227aa$__6312a71d0c828b6122148b611849565b6040518463ffffffff1660e01b81526004016122329392919061426a565b60006040518083038186803b15801561224a57600080fd5b505af415801561225e573d6000803e3d6000fd5b505050506040513d6000823e601f3d908101601f19168201604052612286919081019061409c565b9399509197509550935091508415612334576001600160a01b037f00000000000000000000000000000000000000000000000000000000000000001663b2ceca778a3560208c01356122de60608e0160408f01613a46565b60008a6040518663ffffffff1660e01b8152600401612301959493929190613dac565b600060405180830381600087803b15801561231b57600080fd5b505af115801561232f573d6000803e3d6000fd5b505050505b83156123d6576001600160a01b037f00000000000000000000000000000000000000000000000000000000000000001663b2ceca778a3560208c013561238060808e0160608f01613a46565b6001896040518663ffffffff1660e01b81526004016123a3959493929190613dac565b600060405180830381600087803b1580156123bd57600080fd5b505af11580156123d1573d6000803e3d6000fd5b505050505b6001600160a01b037f00000000000000000000000000000000000000000000000000000000000000001663b2ceca778a3560208c013561241c60a08e0160808f01613a46565b6002886040518663ffffffff1660e01b815260040161243f959493929190613dac565b600060405180830381600087803b15801561245957600080fd5b505af115801561246d573d6000803e3d6000fd5b50506040805160e0810182528c3581526020808e01359082015280820189905260608101889052608081018790526001600160a01b038a1660a082015260c081018690529051638bb7053d60e01b8152339350638bb7053d92506124d49190600401614163565b600060405180830381600087803b1580156124ee57600080fd5b505af1158015612502573d6000803e3d6000fd5b505050506040513d6000823e601f3d908101601f1916820160405261252a9190810190613ec0565b9150871561254b5760405163335b3bef60e01b815260040160405180910390fd5b336000908152600a82016020526040902061256690876133eb565b612575893560208b0135611a18565b7fc36176a3330276b641a24dfd635dc6cfc1c9b9afcd0c5d677f73e06143fe0aff893560208b0135336125ae60608e0160408f01613a46565b8d60600160208101906125c19190613a46565b8e60800160208101906125d49190613a46565b6040805196875260208701959095526001600160a01b0393841686860152918316606086015282166080850152811660a0840152891660c083015260e082018890526101008201879052610120820186905251908190036101400190a150939792965093509350565b336001600160a01b038216146117f257604051631bf9565d60e21b81523360048201526001600160a01b0382166024820152604401611b23565b60008060006060612686611705565b61269587356020890135611a42565b6126aa6126a188613f65565b611b5187611849565b6126b9873560208901356117f5565b86356000908152600160209081526040808320828b01358452909152902073__$eb3637497184ed6fca3dfbe428a98227aa$__90630fc5313390897f00000000000000000000000000000000000000000000000000000000000000007f000000000000000000000000000000000000000000000000000000000000000061273f8b611849565b6040518663ffffffff1660e01b815260040161275f95949392919061433c565b60006040518083038186803b15801561277757600080fd5b505af415801561278b573d6000803e3d6000fd5b505050506040513d6000823e601f3d908101601f191682016040526127b391908101906143e6565b929650909450925090506000841561287c57604051635797c8f560e11b815285906001600160a01b037f0000000000000000000000000000000000000000000000000000000000000000169063af2f91ea9061281f908c359060208e0135903090600090600401613d3b565b60206040518083038186803b15801561283757600080fd5b505afa15801561284b573d6000803e3d6000fd5b505050506040513d601f19601f8201168201806040525081019061286f9190613d65565b6128799190613d94565b90505b6000841561293b57604051635797c8f560e11b815285906001600160a01b037f0000000000000000000000000000000000000000000000000000000000000000169063af2f91ea906128de908d359060208f0135903090600190600401613d3b565b60206040518083038186803b1580156128f657600080fd5b505afa15801561290a573d6000803e3d6000fd5b505050506040513d601f19601f8201168201806040525081019061292e9190613d65565b6129389190613d94565b90505b6001600160a01b037f00000000000000000000000000000000000000000000000000000000000000001663b2ceca778a3560208c013561298160608e0160408f01613a46565b6002896040518663ffffffff1660e01b81526004016129a4959493929190613dac565b600060405180830381600087803b1580156129be57600080fd5b505af11580156129d2573d6000803e3d6000fd5b50506040805160c0810182528c3581526020808e0135908201528082018a9052606081018990526080810188905260a0810187905290516343d44c9d60e11b81523393506387a8993a9250612a2a9190600401614486565b600060405180830381600087803b158015612a4457600080fd5b505af1158015612a58573d6000803e3d6000fd5b505050506040513d6000823e601f3d908101601f19168201604052612a809190810190613ec0565b92508715612aa15760405163335b3bef60e01b815260040160405180910390fd5b8515612b0357604051635797c8f560e11b8152612b03906001600160a01b037f0000000000000000000000000000000000000000000000000000000000000000169063af2f91ea90612059908d359060208f0135903090600090600401613d3b565b8415612b6557604051635797c8f560e11b8152612b65906001600160a01b037f0000000000000000000000000000000000000000000000000000000000000000169063af2f91ea90610d3f908d359060208f0135903090600190600401613d3b565b612b74893560208b0135611a18565b7f76ce53f2a5022311227d4d8c5c7b06eb0f9e0e238e30a85af33487e66bebfc9b893560208b013533612bad60608e0160408f01613a46565b8a8a8a604051612bc39796959493929190613f11565b60405180910390a1505093509350935093565b60008060006060612be5611705565b612bf487356020890135611a42565b612c0e612c0088614499565b612c0987611849565b613430565b612c1d873560208901356117f5565b86356000908152600160209081526040808320828b01358452909152902073__$eb3637497184ed6fca3dfbe428a98227aa$__9063e0f1a7bb90897f00000000000000000000000000000000000000000000000000000000000000007f0000000000000000000000000000000000000000000000000000000000000000612ca38b611849565b6040518663ffffffff1660e01b8152600401612cc39594939291906144ef565b60006040518083038186803b158015612cdb57600080fd5b505af4158015612cef573d6000803e3d6000fd5b505050506040513d6000823e601f3d908101601f19168201604052612d1791908101906143e6565b604051635797c8f560e11b81529397509195509350915060009083906001600160a01b037f0000000000000000000000000000000000000000000000000000000000000000169063af2f91ea90612d7e908c359060208e0135903090600290600401613d3b565b60206040518083038186803b158015612d9657600080fd5b505afa158015612daa573d6000803e3d6000fd5b505050506040513d601f19601f82011682018060405250810190612dce9190613d65565b612dd89190613d94565b90508415612e7c576001600160a01b037f00000000000000000000000000000000000000000000000000000000000000001663b2ceca77893560208b0135612e2660608d0160408e01613a46565b60008a6040518663ffffffff1660e01b8152600401612e49959493929190613dac565b600060405180830381600087803b158015612e6357600080fd5b505af1158015612e77573d6000803e3d6000fd5b505050505b8315612f1e576001600160a01b037f00000000000000000000000000000000000000000000000000000000000000001663b2ceca77893560208b0135612ec860808d0160608e01613a46565b6001896040518663ffffffff1660e01b8152600401612eeb959493929190613dac565b600060405180830381600087803b158015612f0557600080fd5b505af1158015612f19573d6000803e3d6000fd5b505050505b6040805160c081018252893581526020808b013590820152808201879052606081018690526080810185905260a0810184905290516343317d3560e11b81523391638662fa6a91612f729190600401614486565b600060405180830381600087803b158015612f8c57600080fd5b505af1158015612fa0573d6000803e3d6000fd5b505050506040513d6000823e601f3d908101601f19168201604052612fc89190810190613ec0565b91508615612fe95760405163335b3bef60e01b815260040160405180910390fd5b604051635797c8f560e11b8152613045906001600160a01b037f0000000000000000000000000000000000000000000000000000000000000000169063af2f91ea90610d3f908c359060208e0135903090600290600401613d3b565b613054883560208a0135611a18565b7f4af09027ce1a32b4cf538f4feab5ae0d95f6498fcd7fbdcbacf5ab3e1ccc2206883560208a01353361308d60608d0160408e01613a46565b61309d60808e0160608f01613a46565b8a8a8a6040516130b4989796959493929190614176565b60405180910390a15093509350935093565b60405163647284e960e11b8152600481018390526001600160601b0382166024820152604401611b23565b604051631e1d0ab560e01b815260040160405180910390fd5b6000828152602081815260408083208484529091529020546001600160601b0316611a7157600082815260208181526040808320848452825280832080546001600160601b03191660019081179091558151808301909252948152908101928352600280549485018155918290525192027f405787fa12a823e0f2b7631cc41b3ba8828b3321ca811111fa75cd3aa3bb5ace810192909255517f405787fa12a823e0f2b7631cc41b3ba8828b3321ca811111fa75cd3aa3bb5acf90910155565b60405163d92e233d60e01b815260040160405180910390fd5b60405163af458c0760e01b815260040160405180910390fd5b6040516335f135d360e01b815260048101829052602401611b23565b6001600160601b03811661323f5760405163e2228b1560e01b815260040160405180910390fd5b6001600160601b038116600214156117f25760405163865a6de560e01b815260040160405180910390fd5b60405163277c720560e01b815260040160405180910390fd5b600281600181111561329757613297613bcf565b106117f25760405163280503e760e11b815260040160405180910390fd5b60208201516001600160601b0310156132d5576132d582602001516131fc565b806001600160601b0316826020015110156132f8576132f88260200151826130c6565b60408201516001600160a01b0316613312576133126131ca565b61331f82606001516134ae565b60808201511580611aef57508151611a7157611a716131e3565b60208201516001600160601b0310156133595761335982602001516131fc565b806001600160601b03168260200151101561337c5761337c8260200151826130c6565b60408201516001600160a01b031615806133a1575060608201516001600160a01b0316155b806133b7575060808201516001600160a01b0316155b156133c4576133c46131ca565b6133d18260a001516134ae565b60c08201511580611aef57508151611a7157611a716131e3565b8154819083906000906134089084906001600160a01b031661458a565b92506101000a8154816001600160a01b0302191690836001600160a01b031602179055505050565b60208201516001600160601b0310156134505761345082602001516131fc565b806001600160601b031682602001511015613473576134738260200151826130c6565b60408201516001600160a01b03161580613498575060608201516001600160a01b0316155b156134a5576134a56131ca565b611adf82608001515b600481600381111561329757613297613bcf565b600061010082840312156134d557600080fd5b50919050565b600061010082840312156134ee57600080fd5b6134f883836134c2565b9392505050565b60006020828403121561351157600080fd5b5035919050565b6000806040838503121561352b57600080fd5b50508035926020909101359150565b600060e082840312156134d557600080fd5b60006020828403121561355e57600080fd5b81356001600160401b0381111561357457600080fd5b6135808482850161353a565b949350505050565b60005b838110156135a357818101518382015260200161358b565b838111156135b2576000848401525b50505050565b600081518084526135d0816020860160208601613588565b601f01601f19169290920160200192915050565b83815282602082015260606040820152600061360360608301846135b8565b95945050505050565b600060c082840312156134d557600080fd5b80356001600160601b038116811461363557600080fd5b919050565b6000806040838503121561364d57600080fd5b82356001600160401b0381111561366357600080fd5b61366f8582860161360c565b92505061367e6020840161361e565b90509250929050565b60018060a01b038616815284602082015283604082015282606082015260a0608082015260006136ba60a08301846135b8565b979650505050505050565b600080604083850312156136d857600080fd5b82356001600160401b038111156136ee57600080fd5b61366f858286016134c2565b60006020828403121561370c57600080fd5b81356001600160401b0381111561372257600080fd5b613580848285016134c2565b6001600160a01b03811681146117f257600080fd5b80356136358161372e565b60008060006060848603121561376357600080fd5b8335925060208401359150604084013561377c8161372e565b809150509250925092565b60006020828403121561379957600080fd5b81356001600160401b038111156137af57600080fd5b6135808482850161360c565b8481528360208201528260408201526080606082015260006137e060808301846135b8565b9695505050505050565b600080604083850312156137fd57600080fd5b82356001600160401b0381111561381357600080fd5b61366f8582860161353a565b6000806000806080858703121561383557600080fd5b8435935060208501359250604085013561384e8161372e565b9150606085013561385e8161372e565b939692955090935050565b60008060008060008060c0878903121561388257600080fd5b8635955060208701359450604087013561389b8161372e565b959894975094956060810135955060808101359460a0909101359350915050565b634e487b7160e01b600052604160045260246000fd5b60405160e081016001600160401b03811182821017156138f4576138f46138bc565b60405290565b60405160c081016001600160401b03811182821017156138f4576138f46138bc565b60405161010081016001600160401b03811182821017156138f4576138f46138bc565b604051601f8201601f191681016001600160401b0381118282101715613967576139676138bc565b604052919050565b600061010080838503121561398357600080fd5b604051908101906001600160401b03821181831017156139a5576139a56138bc565b816040528335815260208401356020820152604084013591506139c78261372e565b8160408201526139d960608501613743565b60608201526139ea60808501613743565b608082015260a084013560a082015260c084013560c082015260e084013560e0820152809250505092915050565b600080600060608486031215613a2d57600080fd5b8351925060208401519150604084015190509250925092565b600060208284031215613a5857600080fd5b81356134f88161372e565b634e487b7160e01b600052603260045260246000fd5b60008060408385031215613a8c57600080fd5b505080516020909101519092909150565b8035801515811461363557600080fd5b80356002811061363557600080fd5b60006001600160401b03821115613ad557613ad56138bc565b50601f01601f191660200190565b600082601f830112613af457600080fd5b8135613b07613b0282613abc565b61393f565b818152846020838601011115613b1c57600080fd5b816020850160208301376000918101602001919091529392505050565b600060e08236031215613b4b57600080fd5b613b536138d2565b8235815260208301356020820152613b6d60408401613743565b6040820152613b7e60608401613a9d565b6060820152613b8f60808401613aad565b608082015260a083013560a082015260c08301356001600160401b03811115613bb757600080fd5b613bc336828601613ae3565b60c08301525092915050565b634e487b7160e01b600052602160045260246000fd5b6000808335601e19843603018112613bfc57600080fd5b83016020810192503590506001600160401b03811115613c1b57600080fd5b803603831315613c2a57600080fd5b9250929050565b81835281816020850137506000828201602090810191909152601f909101601f19169091010190565b8481526080602082015283356080820152602084013560a082015260006040850135613c858161372e565b6001600160a01b031660c0830152613c9f60608601613a9d565b151560e0830152613cb260808601613aad565b60028110613cc257613cc2613bcf565b61010083015260a0850135610120830152613ce060c0860186613be5565b60e0610140850152613cf761016085018284613c31565b60408501969096525050506060015292915050565b600060208284031215613d1e57600080fd5b6134f882613a9d565b60038110613d3757613d37613bcf565b9052565b848152602081018490526001600160a01b0383166040820152608081016136036060830184613d27565b600060208284031215613d7757600080fd5b5051919050565b634e487b7160e01b600052601160045260246000fd5b60008219821115613da757613da7613d7e565b500190565b858152602081018590526001600160a01b038416604082015260a08101613dd66060830185613d27565b8260808301529695505050505050565b6000808335601e19843603018112613dfd57600080fd5b8301803591506001600160401b03821115613e1757600080fd5b602001915036819003821315613c2a57600080fd5b60208152815160208201526020820151604082015260408201511515606082015260608201516080820152608082015160a0820152600060a083015160c08084015261358060e08401826135b8565b600082601f830112613e8c57600080fd5b8151613e9a613b0282613abc565b818152846020838601011115613eaf57600080fd5b613580826020830160208701613588565b600060208284031215613ed257600080fd5b81516001600160401b03811115613ee857600080fd5b61358084828501613e7b565b600060208284031215613f0657600080fd5b81516134f88161372e565b96875260208701959095526001600160a01b039384166040870152919092166060850152608084019190915260a083015260c082015260e00190565b600481106117f257600080fd5b803561363581613f4d565b600060c08236031215613f7757600080fd5b613f7f6138fa565b82358152602083013560208201526040830135613f9b8161372e565b60408201526060830135613fae81613f4d565b60608201526080838101359082015260a08301356001600160401b03811115613fd657600080fd5b613fe236828601613ae3565b60a08301525092915050565b600481106117f2576117f2613bcf565b838152606060208201528235606082015260208301356080820152600060408401356140298161372e565b6001600160a01b031660a0830152606084013561404581613f4d565b61404e81613fee565b60c0830152608084013560e083015261406a60a0850185613be5565b60c061010085015261408161012085018284613c31565b925050506001600160601b0383166040830152949350505050565b600080600080600060a086880312156140b457600080fd5b85516140bf8161372e565b8095505060208601519350604086015192506060860151915060808601516001600160401b038111156140f157600080fd5b6140fd88828901613e7b565b9150509295509295909350565b805182526020810151602083015260408101516040830152606081015160608301526080810151608083015260018060a01b0360a08201511660a0830152600060c082015160e060c085015261358060e08501826135b8565b6020815260006134f8602083018461410a565b97885260208801969096526001600160a01b03948516604088015292841660608701529216608085015260a084019190915260c083015260e08201526101000190565b600061010082360312156141cc57600080fd5b6141d461391c565b82358152602083013560208201526141ee60408401613743565b60408201526141ff60608401613743565b606082015261421060808401613743565b608082015261422160a08401613f5a565b60a082015260c083013560c082015260e08301356001600160401b0381111561424957600080fd5b61425536828601613ae3565b60e08301525092915050565b613d3781613fee565b838152606060208201528235606082015260208301356080820152600060408401356142958161372e565b6001600160a01b031660a08301526142af60608501613743565b6001600160a01b031660c08301526142c960808501613743565b6001600160a01b031660e08301526142e360a08501613f5a565b6101006142f281850183614261565b60c086013561012085015261430a60e0870187613be5565b92508161014086015261432261016086018483613c31565b935050505061358060408301846001600160601b03169052565b85815260a06020820152843560a0820152602085013560c0820152600060408601356143678161372e565b6001600160a01b031660e0830152606086013561438381613f4d565b61438c81613fee565b61010083015260808601356101208301526143aa60a0870187613be5565b60c06101408501526143c161016085018284613c31565b925050508460408301528360608301526137e060808301846001600160601b03169052565b600080600080608085870312156143fc57600080fd5b84519350602085015192506040850151915060608501516001600160401b0381111561442757600080fd5b61443387828801613e7b565b91505092959194509250565b8051825260208101516020830152604081015160408301526060810151606083015260808101516080830152600060a082015160c060a085015261358060c08501826135b8565b6020815260006134f8602083018461443f565b600060e082360312156144ab57600080fd5b6144b36138d2565b82358152602083013560208201526144cd60408401613743565b60408201526144de60608401613743565b6060820152613b8f60808401613f5a565b85815260a06020820152843560a0820152602085013560c08201526000604086013561451a8161372e565b6001600160a01b0390811660e08401526060870135906145398261372e565b1661010083015261454c60808701613f5a565b61455a610120840182614261565b5060a086013561014083015261457360c0870187613be5565b60e06101608501526143c161018085018284613c31565b60006001600160a01b03838116908316818110156145aa576145aa613d7e565b03939250505056fea26469706673582212200eac3a296ba867d62d97be3311c182e0cc0eec6686f0523fb247bdcde645319364736f6c63430008080033a264697066735822122008c64779e62058e90ee3efd2301557dc20cb53d314b57d5a3cdeacfc861a436464736f6c63430008080033",
    "linkReferences": {
      "src/structs/Pool.sol": {
        "PoolLibrary": [
          {
            "start": 3967,
            "length": 20
          },
          {
            "start": 4619,
            "length": 20
          },
          {
            "start": 4855,
            "length": 20
          },
          {
            "start": 6514,
            "length": 20
          },
          {
            "start": 6780,
            "length": 20
          },
          {
            "start": 6970,
            "length": 20
          },
          {
            "start": 7146,
            "length": 20
          },
          {
            "start": 7263,
            "length": 20
          },
          {
            "start": 7541,
            "length": 20
          },
          {
            "start": 7763,
            "length": 20
          },
          {
            "start": 8107,
            "length": 20
          },
          {
            "start": 9529,
            "length": 20
          },
          {
            "start": 11173,
            "length": 20
          },
          {
            "start": 12429,
            "length": 20
          },
          {
            "start": 13809,
            "length": 20
          }
        ]
      }
    }
  },
  "methodIdentifiers": {
    "acceptOwner()": "ebbc4965",
    "create(address)": "9ed93318",
    "get(address)": "c2bc2efc",
    "getByIndex(uint256)": "2d883a73",
    "numberOfPairs()": "fc0d92bd",
    "owner()": "8da5cb5b",
    "parameter()": "ad4d4e29",
    "pendingOwner()": "e30c3978",
    "protocolFee()": "b0e21e8a",
    "setPendingOwner(address)": "c42069ec",
    "transactionFee()": "9ed3edf0"
  },
  "id": 77
}