{
  "abi": [
    {
      "inputs": [
        {
          "internalType": "address",
          "name": "chosenOptionFactory",
          "type": "address"
        }
      ],
      "stateMutability": "nonpayable",
      "type": "constructor"
    },
    {
      "inputs": [
        {
          "internalType": "uint256",
          "name": "maturity",
          "type": "uint256"
        }
      ],
      "name": "IncorrectMaturity",
      "type": "error"
    },
    {
      "inputs": [],
      "name": "NoReentrantCall",
      "type": "error"
    },
    {
      "inputs": [
        {
          "internalType": "uint256",
          "name": "minuend",
          "type": "uint256"
        },
        {
          "internalType": "uint256",
          "name": "subtrahend",
          "type": "uint256"
        }
      ],
      "name": "NotEnoughReceived",
      "type": "error"
    },
    {
      "inputs": [],
      "name": "NotInteracted",
      "type": "error"
    },
    {
      "inputs": [],
      "name": "ZeroAddress",
      "type": "error"
    },
    {
      "inputs": [],
      "name": "ZeroInput",
      "type": "error"
    },
    {
      "anonymous": false,
      "inputs": [
        {
          "indexed": true,
          "internalType": "address",
          "name": "account",
          "type": "address"
        },
        {
          "indexed": true,
          "internalType": "address",
          "name": "operator",
          "type": "address"
        },
        {
          "indexed": false,
          "internalType": "bool",
          "name": "approved",
          "type": "bool"
        }
      ],
      "name": "ApprovalForAll",
      "type": "event"
    },
    {
      "anonymous": false,
      "inputs": [
        {
          "indexed": true,
          "internalType": "address",
          "name": "operator",
          "type": "address"
        },
        {
          "indexed": true,
          "internalType": "address",
          "name": "from",
          "type": "address"
        },
        {
          "indexed": true,
          "internalType": "address",
          "name": "to",
          "type": "address"
        },
        {
          "indexed": false,
          "internalType": "uint256[]",
          "name": "ids",
          "type": "uint256[]"
        },
        {
          "indexed": false,
          "internalType": "uint256[]",
          "name": "values",
          "type": "uint256[]"
        }
      ],
      "name": "TransferBatch",
      "type": "event"
    },
    {
      "anonymous": false,
      "inputs": [
        {
          "indexed": true,
          "internalType": "address",
          "name": "operator",
          "type": "address"
        },
        {
          "indexed": true,
          "internalType": "address",
          "name": "from",
          "type": "address"
        },
        {
          "indexed": true,
          "internalType": "address",
          "name": "to",
          "type": "address"
        },
        {
          "indexed": false,
          "internalType": "uint256",
          "name": "id",
          "type": "uint256"
        },
        {
          "indexed": false,
          "internalType": "uint256",
          "name": "value",
          "type": "uint256"
        }
      ],
      "name": "TransferSingle",
      "type": "event"
    },
    {
      "anonymous": false,
      "inputs": [
        {
          "indexed": false,
          "internalType": "string",
          "name": "value",
          "type": "string"
        },
        {
          "indexed": true,
          "internalType": "uint256",
          "name": "id",
          "type": "uint256"
        }
      ],
      "name": "URI",
      "type": "event"
    },
    {
      "inputs": [
        {
          "internalType": "address",
          "name": "account",
          "type": "address"
        },
        {
          "internalType": "uint256",
          "name": "id",
          "type": "uint256"
        }
      ],
      "name": "balanceOf",
      "outputs": [
        {
          "internalType": "uint256",
          "name": "",
          "type": "uint256"
        }
      ],
      "stateMutability": "view",
      "type": "function"
    },
    {
      "inputs": [
        {
          "internalType": "address[]",
          "name": "accounts",
          "type": "address[]"
        },
        {
          "internalType": "uint256[]",
          "name": "ids",
          "type": "uint256[]"
        }
      ],
      "name": "balanceOfBatch",
      "outputs": [
        {
          "internalType": "uint256[]",
          "name": "",
          "type": "uint256[]"
        }
      ],
      "stateMutability": "view",
      "type": "function"
    },
    {
      "inputs": [
        {
          "components": [
            {
              "internalType": "address",
              "name": "token0",
              "type": "address"
            },
            {
              "internalType": "address",
              "name": "token1",
              "type": "address"
            },
            {
              "internalType": "uint256",
              "name": "strike",
              "type": "uint256"
            },
            {
              "internalType": "uint256",
              "name": "maturity",
              "type": "uint256"
            },
            {
              "internalType": "address",
              "name": "long0To",
              "type": "address"
            },
            {
              "internalType": "address",
              "name": "long1To",
              "type": "address"
            },
            {
              "internalType": "address",
              "name": "shortTo",
              "type": "address"
            },
            {
              "internalType": "uint256",
              "name": "long0Amount",
              "type": "uint256"
            },
            {
              "internalType": "uint256",
              "name": "long1Amount",
              "type": "uint256"
            },
            {
              "internalType": "uint256",
              "name": "shortAmount",
              "type": "uint256"
            },
            {
              "internalType": "bytes",
              "name": "data",
              "type": "bytes"
            }
          ],
          "internalType": "struct TimeswapV2TokenBurnParam",
          "name": "param",
          "type": "tuple"
        }
      ],
      "name": "burn",
      "outputs": [
        {
          "internalType": "bytes",
          "name": "data",
          "type": "bytes"
        }
      ],
      "stateMutability": "nonpayable",
      "type": "function"
    },
    {
      "inputs": [
        {
          "internalType": "address",
          "name": "account",
          "type": "address"
        },
        {
          "internalType": "address",
          "name": "operator",
          "type": "address"
        }
      ],
      "name": "isApprovedForAll",
      "outputs": [
        {
          "internalType": "bool",
          "name": "",
          "type": "bool"
        }
      ],
      "stateMutability": "view",
      "type": "function"
    },
    {
      "inputs": [
        {
          "components": [
            {
              "internalType": "address",
              "name": "token0",
              "type": "address"
            },
            {
              "internalType": "address",
              "name": "token1",
              "type": "address"
            },
            {
              "internalType": "uint256",
              "name": "strike",
              "type": "uint256"
            },
            {
              "internalType": "uint256",
              "name": "maturity",
              "type": "uint256"
            },
            {
              "internalType": "address",
              "name": "long0To",
              "type": "address"
            },
            {
              "internalType": "address",
              "name": "long1To",
              "type": "address"
            },
            {
              "internalType": "address",
              "name": "shortTo",
              "type": "address"
            },
            {
              "internalType": "uint256",
              "name": "long0Amount",
              "type": "uint256"
            },
            {
              "internalType": "uint256",
              "name": "long1Amount",
              "type": "uint256"
            },
            {
              "internalType": "uint256",
              "name": "shortAmount",
              "type": "uint256"
            },
            {
              "internalType": "bytes",
              "name": "data",
              "type": "bytes"
            }
          ],
          "internalType": "struct TimeswapV2TokenMintParam",
          "name": "param",
          "type": "tuple"
        }
      ],
      "name": "mint",
      "outputs": [
        {
          "internalType": "bytes",
          "name": "data",
          "type": "bytes"
        }
      ],
      "stateMutability": "nonpayable",
      "type": "function"
    },
    {
      "inputs": [],
      "name": "optionFactory",
      "outputs": [
        {
          "internalType": "address",
          "name": "",
          "type": "address"
        }
      ],
      "stateMutability": "view",
      "type": "function"
    },
    {
      "inputs": [
        {
          "internalType": "address",
          "name": "owner",
          "type": "address"
        },
        {
          "components": [
            {
              "internalType": "address",
              "name": "token0",
              "type": "address"
            },
            {
              "internalType": "address",
              "name": "token1",
              "type": "address"
            },
            {
              "internalType": "uint256",
              "name": "strike",
              "type": "uint256"
            },
            {
              "internalType": "uint256",
              "name": "maturity",
              "type": "uint256"
            },
            {
              "internalType": "enum TimeswapV2OptionPosition",
              "name": "position",
              "type": "uint8"
            }
          ],
          "internalType": "struct TimeswapV2TokenPosition",
          "name": "timeswapV2TokenPosition",
          "type": "tuple"
        }
      ],
      "name": "positionOf",
      "outputs": [
        {
          "internalType": "uint256",
          "name": "amount",
          "type": "uint256"
        }
      ],
      "stateMutability": "view",
      "type": "function"
    },
    {
      "inputs": [
        {
          "internalType": "address",
          "name": "from",
          "type": "address"
        },
        {
          "internalType": "address",
          "name": "to",
          "type": "address"
        },
        {
          "internalType": "uint256[]",
          "name": "ids",
          "type": "uint256[]"
        },
        {
          "internalType": "uint256[]",
          "name": "amounts",
          "type": "uint256[]"
        },
        {
          "internalType": "bytes",
          "name": "data",
          "type": "bytes"
        }
      ],
      "name": "safeBatchTransferFrom",
      "outputs": [],
      "stateMutability": "nonpayable",
      "type": "function"
    },
    {
      "inputs": [
        {
          "internalType": "address",
          "name": "from",
          "type": "address"
        },
        {
          "internalType": "address",
          "name": "to",
          "type": "address"
        },
        {
          "internalType": "uint256",
          "name": "id",
          "type": "uint256"
        },
        {
          "internalType": "uint256",
          "name": "amount",
          "type": "uint256"
        },
        {
          "internalType": "bytes",
          "name": "data",
          "type": "bytes"
        }
      ],
      "name": "safeTransferFrom",
      "outputs": [],
      "stateMutability": "nonpayable",
      "type": "function"
    },
    {
      "inputs": [
        {
          "internalType": "address",
          "name": "operator",
          "type": "address"
        },
        {
          "internalType": "bool",
          "name": "approved",
          "type": "bool"
        }
      ],
      "name": "setApprovalForAll",
      "outputs": [],
      "stateMutability": "nonpayable",
      "type": "function"
    },
    {
      "inputs": [
        {
          "internalType": "bytes4",
          "name": "interfaceId",
          "type": "bytes4"
        }
      ],
      "name": "supportsInterface",
      "outputs": [
        {
          "internalType": "bool",
          "name": "",
          "type": "bool"
        }
      ],
      "stateMutability": "view",
      "type": "function"
    },
    {
      "inputs": [
        {
          "internalType": "uint256",
          "name": "index",
          "type": "uint256"
        }
      ],
      "name": "tokenByIndex",
      "outputs": [
        {
          "internalType": "uint256",
          "name": "",
          "type": "uint256"
        }
      ],
      "stateMutability": "view",
      "type": "function"
    },
    {
      "inputs": [
        {
          "internalType": "address",
          "name": "owner",
          "type": "address"
        },
        {
          "internalType": "uint256",
          "name": "index",
          "type": "uint256"
        }
      ],
      "name": "tokenOfOwnerByIndex",
      "outputs": [
        {
          "internalType": "uint256",
          "name": "",
          "type": "uint256"
        }
      ],
      "stateMutability": "view",
      "type": "function"
    },
    {
      "inputs": [],
      "name": "totalSupply",
      "outputs": [
        {
          "internalType": "uint256",
          "name": "",
          "type": "uint256"
        }
      ],
      "stateMutability": "view",
      "type": "function"
    },
    {
      "inputs": [
        {
          "internalType": "address",
          "name": "from",
          "type": "address"
        },
        {
          "internalType": "address",
          "name": "to",
          "type": "address"
        },
        {
          "components": [
            {
              "internalType": "address",
              "name": "token0",
              "type": "address"
            },
            {
              "internalType": "address",
              "name": "token1",
              "type": "address"
            },
            {
              "internalType": "uint256",
              "name": "strike",
              "type": "uint256"
            },
            {
              "internalType": "uint256",
              "name": "maturity",
              "type": "uint256"
            },
            {
              "internalType": "enum TimeswapV2OptionPosition",
              "name": "position",
              "type": "uint8"
            }
          ],
          "internalType": "struct TimeswapV2TokenPosition",
          "name": "timeswapV2TokenPosition",
          "type": "tuple"
        },
        {
          "internalType": "uint256",
          "name": "amount",
          "type": "uint256"
        }
      ],
      "name": "transferTokenPositionFrom",
      "outputs": [],
      "stateMutability": "nonpayable",
      "type": "function"
    },
    {
      "inputs": [
        {
          "internalType": "uint256",
          "name": "",
          "type": "uint256"
        }
      ],
      "name": "uri",
      "outputs": [
        {
          "internalType": "string",
          "name": "",
          "type": "string"
        }
      ],
      "stateMutability": "view",
      "type": "function"
    }
  ],
  "bytecode": {
    "object": "0x60a06040523480156200001157600080fd5b506040516200388638038062003886833981016040819052620000349162000149565b60408051808201909152601381527f54696d6573776170205632206164647265737300000000000000000000000000602082015262000073816200008a565b5060601b6001600160601b031916608052620001b8565b80516200009f906002906020840190620000a3565b5050565b828054620000b1906200017b565b90600052602060002090601f016020900481019282620000d5576000855562000120565b82601f10620000f057805160ff191683800117855562000120565b8280016001018555821562000120579182015b828111156200012057825182559160200191906001019062000103565b506200012e92915062000132565b5090565b5b808211156200012e576000815560010162000133565b6000602082840312156200015c57600080fd5b81516001600160a01b03811681146200017457600080fd5b9392505050565b600181811c908216806200019057607f821691505b60208210811415620001b257634e487b7160e01b600052602260045260246000fd5b50919050565b60805160601c6136a1620001e56000396000818161024401528181610670015261111a01526136a16000f3fe608060405234801561001057600080fd5b50600436106100ff5760003560e01c80634fd991ea11610097578063b3461c8711610066578063b3461c871461023f578063bb19c6481461027e578063e985e9c514610291578063f242432a146102cd57600080fd5b80634fd991ea146101f35780635c9b728214610206578063a22cb46514610219578063a38d7a171461022c57600080fd5b80632eb2c2d6116100d35780632eb2c2d6146101755780632f745c591461018a5780634e1273f4146101c05780634f6ccce7146101e057600080fd5b8062fdd58e1461010457806301ffc9a71461012a5780630e89341c1461014d57806318160ddd1461016d575b600080fd5b6101176101123660046128c7565b6102e0565b6040519081526020015b60405180910390f35b61013d610138366004612909565b610376565b6040519015158152602001610121565b61016061015b366004612926565b6103c8565b6040516101219190612997565b600754610117565b610188610183366004612b2c565b61045c565b005b6101176101983660046128c7565b6001600160a01b03919091166000908152600360209081526040808320938352929052205490565b6101d36101ce366004612bd9565b6104a8565b6040516101219190612ce0565b6101176101ee366004612926565b6105d1565b610160610201366004612d06565b6105f8565b610188610214366004612d4c565b61109b565b610188610227366004612d9d565b6110e6565b61016061023a366004612d06565b6110f5565b6102667f000000000000000000000000000000000000000000000000000000000000000081565b6040516001600160a01b039091168152602001610121565b61011761028c366004612ddb565b61168a565b61013d61029f366004612e11565b6001600160a01b03918216600090815260016020908152604080832093909416825291909152205460ff1690565b6101886102db366004612e3f565b6116c0565b60006001600160a01b0383166103505760405162461bcd60e51b815260206004820152602a60248201527f455243313135353a2061646472657373207a65726f206973206e6f742061207660448201526930b634b21037bbb732b960b11b60648201526084015b60405180910390fd5b506000908152602081815260408083206001600160a01b03949094168352929052205490565b60006001600160e01b03198216636cdb3d1360e11b14806103a757506001600160e01b031982166303a24d0760e21b145b806103c257506301ffc9a760e01b6001600160e01b03198316145b92915050565b6060600280546103d790612ea7565b80601f016020809104026020016040519081016040528092919081815260200182805461040390612ea7565b80156104505780601f1061042557610100808354040283529160200191610450565b820191906000526020600020905b81548152906001019060200180831161043357829003601f168201915b50505050509050919050565b6001600160a01b0385163314806104785750610478853361029f565b6104945760405162461bcd60e51b815260040161034790612edc565b6104a18585858585611705565b5050505050565b6060815183511461050d5760405162461bcd60e51b815260206004820152602960248201527f455243313135353a206163636f756e747320616e6420696473206c656e677468604482015268040dad2e6dac2e8c6d60bb1b6064820152608401610347565b600083516001600160401b03811115610528576105286129aa565b604051908082528060200260200182016040528015610551578160200160208202803683370190505b50905060005b84518110156105c95761059c85828151811061057557610575612f2a565b602002602001015185838151811061058f5761058f612f2a565b60200260200101516102e0565b8282815181106105ae576105ae612f2a565b60209081029190910101526105c281612f56565b9050610557565b509392505050565b6000600782815481106105e6576105e6612f2a565b90600052602060002001549050919050565b606061060b61060683613044565b6118fe565b61063a61061b6020840184613050565b61062b6040850160208601613050565b8460400135856060013561199a565b61066961064a6020840184613050565b61065a6040850160208601613050565b84604001358560600135611a0e565b60006106b17f000000000000000000000000000000000000000000000000000000000000000061069c6020860186613050565b6106ac6040870160208801613050565b611a86565b9050600060e0840135156108f7578360e00135826001600160a01b031663af2f91ea866040013587606001353060006040518563ffffffff1660e01b81526004016106ff94939291906130a5565b60206040518083038186803b15801561071757600080fd5b505afa15801561072b573d6000803e3d6000fd5b505050506040513d601f19601f8201168201806040525081019061074f91906130d8565b61075991906130f1565b6040805160a08101909152909150600090806107786020880188613050565b6001600160a01b031681526020018660200160208101906107999190613050565b6001600160a01b031681526020018660400135815260200186606001358152602001600060028111156107ce576107ce61306d565b9052905060006107dd82611aab565b6000818152600b6020526040902054909150806108a4576007546108029060016130f1565b6000818152600a6020908152604091829020865181546001600160a01b039182166001600160a01b0319918216178355928801516001808401805492909316919094161790559186015160028084019190915560608701516003840155608087015160048401805495965088959193909260ff1990921691849081111561088b5761088b61306d565b021790555050506000828152600b602052604090208190555b6108c560405180606001604052806032815260200161363a60329139611adb565b6108f36108d860a0890160808a01613050565b828960e0013560405180602001604052806000815250611b1e565b5050505b600061010085013515610b1d57846101000135836001600160a01b031663af2f91ea876040013588606001353060016040518563ffffffff1660e01b815260040161094594939291906130a5565b60206040518083038186803b15801561095d57600080fd5b505afa158015610971573d6000803e3d6000fd5b505050506040513d601f19601f8201168201806040525081019061099591906130d8565b61099f91906130f1565b6040805160a08101909152909150600090806109be6020890189613050565b6001600160a01b031681526020018760200160208101906109df9190613050565b6001600160a01b03168152602001876040013581526020018760600135815260200160016002811115610a1457610a1461306d565b905290506000610a2382611aab565b6000818152600b602052604090205490915080610aea57600754610a489060016130f1565b6000818152600a6020908152604091829020865181546001600160a01b039182166001600160a01b0319918216178355928801516001808401805492909316919094161790559186015160028084019190915560608701516003840155608087015160048401805495965088959193909260ff19909216918490811115610ad157610ad161306d565b021790555050506000828152600b602052604090208190555b610b19610afd60c08a0160a08b01613050565b828a610100013560405180602001604052806000815250611b1e565b5050505b600061012086013515610d4257856101200135846001600160a01b031663af2f91ea886040013589606001353060026040518563ffffffff1660e01b8152600401610b6b94939291906130a5565b60206040518083038186803b158015610b8357600080fd5b505afa158015610b97573d6000803e3d6000fd5b505050506040513d601f19601f82011682018060405250810190610bbb91906130d8565b610bc591906130f1565b6040805160a0810190915290915060009080610be460208a018a613050565b6001600160a01b03168152602001886020016020810190610c059190613050565b6001600160a01b031681526020018860400135815260200188606001358152602001600280811115610c3957610c3961306d565b905290506000610c4882611aab565b6000818152600b602052604090205490915080610d0f57600754610c6d9060016130f1565b6000818152600a6020908152604091829020865181546001600160a01b039182166001600160a01b0319918216178355928801516001808401805492909316919094161790559186015160028084019190915560608701516003840155608087015160048401805495965088959193909260ff19909216918490811115610cf657610cf661306d565b021790555050506000828152600b602052604090208190555b610d3e610d2260e08b0160c08c01613050565b828b610120013560405180602001604052806000815250611b1e565b5050505b604080516101008101909152339063e13c022c9080610d6460208b018b613050565b6001600160a01b03168152602001896020016020810190610d859190613050565b6001600160a01b0316815260200189604001358152602001896060013581526020018960e0013581526020018961010001358152602001896101200135815260200189806101400190610dd89190613109565b8080601f01602080910402602001604051908101604052809392919081815260200183838082843760009201919091525050509152506040516001600160e01b031960e084901b168152610e2f91906004016131be565b600060405180830381600087803b158015610e4957600080fd5b505af1158015610e5d573d6000803e3d6000fd5b505050506040513d6000823e601f3d908101601f19168201604052610e8591908101906131d1565b945060e086013515610f2557610f25846001600160a01b031663af2f91ea886040013589606001353060006040518563ffffffff1660e01b8152600401610ecf94939291906130a5565b60206040518083038186803b158015610ee757600080fd5b505afa158015610efb573d6000803e3d6000fd5b505050506040513d601f19601f82011682018060405250810190610f1f91906130d8565b84611c50565b61010086013515610fc457610fc4846001600160a01b031663af2f91ea886040013589606001353060016040518563ffffffff1660e01b8152600401610f6e94939291906130a5565b60206040518083038186803b158015610f8657600080fd5b505afa158015610f9a573d6000803e3d6000fd5b505050506040513d601f19601f82011682018060405250810190610fbe91906130d8565b83611c50565b6101208601351561106357611063846001600160a01b031663af2f91ea886040013589606001353060026040518563ffffffff1660e01b815260040161100d94939291906130a5565b60206040518083038186803b15801561102557600080fd5b505afa158015611039573d6000803e3d6000fd5b505050506040513d601f19601f8201168201806040525081019061105d91906130d8565b82611c50565b6110926110736020880188613050565b6110836040890160208a01613050565b88604001358960600135611c7b565b50505050919050565b6110e08484600b60006110bb6110b636899003890189613252565b611aab565b81526020019081526020016000205484604051806020016040528060008152506116c0565b50505050565b6110f1338383611cd0565b5050565b606061110361060683613044565b61111361064a6020840184613050565b60006111467f000000000000000000000000000000000000000000000000000000000000000061069c6020860186613050565b905060e0830135156111d5576001600160a01b03811663b2ceca776040850135606086013561117b60a0880160808901613050565b60008860e001356040518663ffffffff1660e01b81526004016111a29594939291906132dd565b600060405180830381600087803b1580156111bc57600080fd5b505af11580156111d0573d6000803e3d6000fd5b505050505b61010083013515611264576001600160a01b03811663b2ceca776040850135606086013561120960c0880160a08901613050565b60018861010001356040518663ffffffff1660e01b81526004016112319594939291906132dd565b600060405180830381600087803b15801561124b57600080fd5b505af115801561125f573d6000803e3d6000fd5b505050505b610120830135156112f3576001600160a01b03811663b2ceca776040850135606086013561129860e0880160c08901613050565b60028861012001356040518663ffffffff1660e01b81526004016112c09594939291906132dd565b600060405180830381600087803b1580156112da57600080fd5b505af11580156112ee573d6000803e3d6000fd5b505050505b611301610140840184613109565b15905061144e57604080516101008101909152339063fb05b8fe908061132a6020880188613050565b6001600160a01b0316815260200186602001602081019061134b9190613050565b6001600160a01b0316815260200186604001358152602001866060013581526020018660e001358152602001866101000135815260200186610120013581526020018680610140019061139e9190613109565b8080601f01602080910402602001604051908101604052809392919081815260200183838082843760009201919091525050509152506040516001600160e01b031960e084901b1681526113f591906004016131be565b600060405180830381600087803b15801561140f57600080fd5b505af1158015611423573d6000803e3d6000fd5b505050506040513d6000823e601f3d908101601f1916820160405261144b91908101906131d1565b91505b60e0830135156114fa576040805160a08101909152600090806114746020870187613050565b6001600160a01b031681526020018560200160208101906114959190613050565b6001600160a01b031681526020018560400135815260200185606001358152602001600060028111156114ca576114ca61306d565b905290506114f833600b60006114df85611aab565b8152602001908152602001600020548660e00135611db1565b505b610100830135156115a8576040805160a08101909152600090806115216020870187613050565b6001600160a01b031681526020018560200160208101906115429190613050565b6001600160a01b031681526020018560400135815260200185606001358152602001600160028111156115775761157761306d565b905290506115a633600b600061158c85611aab565b815260200190815260200160002054866101000135611db1565b505b61012083013515611655576040805160a08101909152600090806115cf6020870187613050565b6001600160a01b031681526020018560200160208101906115f09190613050565b6001600160a01b0316815260200185604001358152602001856060013581526020016002808111156116245761162461306d565b9052905061165333600b600061163985611aab565b815260200190815260200160002054866101200135611db1565b505b6116846116656020850185613050565b6116756040860160208701613050565b85604001358660600135611c7b565b50919050565b60006116b983600b836116a56110b636889003880188613252565b8152602001908152602001600020546102e0565b9392505050565b6001600160a01b0385163314806116dc57506116dc853361029f565b6116f85760405162461bcd60e51b815260040161034790612edc565b6104a18585858585611f4b565b81518351146117675760405162461bcd60e51b815260206004820152602860248201527f455243313135353a2069647320616e6420616d6f756e7473206c656e677468206044820152670dad2e6dac2e8c6d60c31b6064820152608401610347565b6001600160a01b03841661178d5760405162461bcd60e51b815260040161034790613317565b3361179c818787878787612091565b60005b84518110156118825760008582815181106117bc576117bc612f2a565b6020026020010151905060008583815181106117da576117da612f2a565b602090810291909101810151600084815280835260408082206001600160a01b038e16835290935291909120549091508181101561182a5760405162461bcd60e51b81526004016103479061335c565b6000838152602081815260408083206001600160a01b038e8116855292528083208585039055908b168252812080548492906118679084906130f1565b925050819055505050508061187b90612f56565b905061179f565b50846001600160a01b0316866001600160a01b0316826001600160a01b03167f4a39dc06d4c0dbc64b70af90fd698a233a518aa5d07e595d983b8c0526c8f7fb87876040516118d29291906133a6565b60405180910390a46118e8818787878787612104565b6118f6818787878787612177565b505050505050565b60808101516001600160a01b03161580611923575060a08101516001600160a01b0316155b80611939575060c08101516001600160a01b0316155b15611946576119466122e2565b60608101516001600160601b0310156119665761196681606001516122fb565b60e081015115801561197b5750610100810151155b801561198a5750610120810151155b1561199757611997612317565b50565b6000848484846040516020016119b394939291906133cb565b60408051601f198184030181529181528151602092830120600081815260099093529120549091506001600160601b03166104a157600081815260096020526040902080546001600160601b03191660011790555050505050565b600084848484604051602001611a2794939291906133cb565b60408051601f19818403018152918152815160209283012060008181526009909352912054909150611a61906001600160601b0316612330565b600090815260096020526040902080546001600160601b031916600217905550505050565b6000611a93848484612382565b90506001600160a01b0381166116b9576116b96122e2565b600081604051602001611abe91906133f4565b604051602081830303815290604052805190602001209050919050565b61199781604051602401611aef9190612997565b60408051601f198184030181529190526020810180516001600160e01b031663104c13eb60e21b17905261240f565b6001600160a01b038416611b7e5760405162461bcd60e51b815260206004820152602160248201527f455243313135353a206d696e7420746f20746865207a65726f206164647265736044820152607360f81b6064820152608401610347565b336000611b8a85612430565b90506000611b9785612430565b9050611ba883600089858589612091565b6000868152602081815260408083206001600160a01b038b16845290915281208054879290611bd89084906130f1565b909155505060408051878152602081018790526001600160a01b03808a1692600092918716917fc3d58168c5ae7397731d063d5bbf3d657854427343f4c083240f7aacaa2d0f62910160405180910390a4611c3883600089858589612104565b611c478360008989898961247b565b50505050505050565b808210156110f157604051631c22ff0160e21b81526004810183905260248101829052604401610347565b600084848484604051602001611c9494939291906133cb565b60408051601f19818403018152918152815160209283012060009081526009909252902080546001600160601b03191660011790555050505050565b816001600160a01b0316836001600160a01b03161415611d445760405162461bcd60e51b815260206004820152602960248201527f455243313135353a2073657474696e6720617070726f76616c20737461747573604482015268103337b91039b2b63360b91b6064820152608401610347565b6001600160a01b03838116600081815260016020908152604080832094871680845294825291829020805460ff191686151590811790915591519182527f17307eab39ab6107e8899845ad3d59bd9653f200f220920489ca2b5937696c31910160405180910390a3505050565b6001600160a01b038316611e135760405162461bcd60e51b815260206004820152602360248201527f455243313135353a206275726e2066726f6d20746865207a65726f206164647260448201526265737360e81b6064820152608401610347565b336000611e1f84612430565b90506000611e2c84612430565b9050611e4c83876000858560405180602001604052806000815250612091565b6000858152602081815260408083206001600160a01b038a16845290915290205484811015611ec95760405162461bcd60e51b8152602060048201526024808201527f455243313135353a206275726e20616d6f756e7420657863656564732062616c604482015263616e636560e01b6064820152608401610347565b6000868152602081815260408083206001600160a01b038b81168086529184528285208a8703905582518b81529384018a90529092908816917fc3d58168c5ae7397731d063d5bbf3d657854427343f4c083240f7aacaa2d0f62910160405180910390a4611c4784886000868660405180602001604052806000815250612104565b6001600160a01b038416611f715760405162461bcd60e51b815260040161034790613317565b336000611f7d85612430565b90506000611f8a85612430565b9050611f9a838989858589612091565b6000868152602081815260408083206001600160a01b038c16845290915290205485811015611fdb5760405162461bcd60e51b81526004016103479061335c565b6000878152602081815260408083206001600160a01b038d8116855292528083208985039055908a168252812080548892906120189084906130f1565b909155505060408051888152602081018890526001600160a01b03808b16928c821692918816917fc3d58168c5ae7397731d063d5bbf3d657854427343f4c083240f7aacaa2d0f62910160405180910390a4612078848a8a86868a612104565b612086848a8a8a8a8a61247b565b505050505050505050565b60005b8351811015611c47578281815181106120af576120af612f2a565b60200260200101516000146120fc576120fc86868684815181106120d5576120d5612f2a565b60200260200101518685815181106120ef576120ef612f2a565b6020026020010151612545565b600101612094565b60005b8351811015611c475782818151811061212257612122612f2a565b602002602001015160001461216f5761216f868686848151811061214857612148612f2a565b602002602001015186858151811061216257612162612f2a565b6020026020010151612631565b600101612107565b6001600160a01b0384163b156118f65760405163bc197c8160e01b81526001600160a01b0385169063bc197c81906121bb9089908990889088908890600401613442565b602060405180830381600087803b1580156121d557600080fd5b505af1925050508015612205575060408051601f3d908101601f19168201909252612202918101906134a0565b60015b6122b2576122116134bd565b806308c379a0141561224b57506122266134d9565b80612231575061224d565b8060405162461bcd60e51b81526004016103479190612997565b505b60405162461bcd60e51b815260206004820152603460248201527f455243313135353a207472616e7366657220746f206e6f6e2d455243313135356044820152732932b1b2b4bb32b91034b6b83632b6b2b73a32b960611b6064820152608401610347565b6001600160e01b0319811663bc197c8160e01b14611c475760405162461bcd60e51b815260040161034790613562565b60405163d92e233d60e01b815260040160405180910390fd5b6040516335f135d360e01b815260048101829052602401610347565b60405163af458c0760e01b815260040160405180910390fd5b6001600160601b0381166123575760405163e2228b1560e01b815260040160405180910390fd5b6001600160601b038116600214156119975760405163865a6de560e01b815260040160405180910390fd5b60405163d81e842360e01b81526001600160a01b03838116600483015282811660248301526000919085169063d81e84239060440160206040518083038186803b1580156123cf57600080fd5b505afa1580156123e3573d6000803e3d6000fd5b505050506040513d601f19601f8201168201806040525081019061240791906135aa565b949350505050565b80516a636f6e736f6c652e6c6f67602083016000808483855afa5050505050565b6040805160018082528183019092526060916000919060208083019080368337019050509050828160008151811061246a5761246a612f2a565b602090810291909101015292915050565b6001600160a01b0384163b156118f65760405163f23a6e6160e01b81526001600160a01b0385169063f23a6e61906124bf90899089908890889088906004016135c7565b602060405180830381600087803b1580156124d957600080fd5b505af1925050508015612509575060408051601f3d908101601f19168201909252612506918101906134a0565b60015b612515576122116134bd565b6001600160e01b0319811663f23a6e6160e01b14611c475760405162461bcd60e51b815260040161034790613562565b6001600160a01b0384166125de5760008281526006602052604090205415801561256d575060015b156125ba576125ba82600780546000838152600860205260408120829055600182018355919091527fa66cc928b5edb82af9bd49922954155ab7b0942694bea4ce44661d9a8736c6880155565b600082815260066020526040812080548392906125d89084906130f1565b90915550505b6001600160a01b038316158015906126085750836001600160a01b0316836001600160a01b031614155b156110e05761261783836102e0565b158015612622575060015b156110e0576110e083836126de565b6001600160a01b03831661268b57600082815260066020526040902054158015612659575060015b156126675761266782612748565b6000828152600660205260408120805483929061268590849061360c565b90915550505b6001600160a01b038416158015906126b55750826001600160a01b0316846001600160a01b031614155b156110e0576126c484836102e0565b1580156126cf575060015b156110e0576110e084836127f7565b6001600160a01b03821660009081526004602052604081208054600192906127079084906130f1565b90915550506001600160a01b039091166000908152600460209081526040808320546003835281842081855283528184208590559383526005909152902055565b60075460009061275a9060019061360c565b6000838152600860205260408120546007805493945090928490811061278257612782612f2a565b9060005260206000200154905080600783815481106127a3576127a3612f2a565b60009182526020808320909101929092558281526008909152604080822084905585825281205560078054806127db576127db613623565b6001900381819060005260206000200160009055905550505050565b6001600160a01b03821660009081526004602052604081205461281c9060019061360c565b60008381526005602052604090205490915080821461286f576001600160a01b03841660009081526003602090815260408083208584528252808320548484528184208190558352600590915290208190555b5060009182526005602090815260408084208490556001600160a01b039094168352600381528383209183525290812055565b6001600160a01b038116811461199757600080fd5b80356128c2816128a2565b919050565b600080604083850312156128da57600080fd5b82356128e5816128a2565b946020939093013593505050565b6001600160e01b03198116811461199757600080fd5b60006020828403121561291b57600080fd5b81356116b9816128f3565b60006020828403121561293857600080fd5b5035919050565b60005b8381101561295a578181015183820152602001612942565b838111156110e05750506000910152565b6000815180845261298381602086016020860161293f565b601f01601f19169290920160200192915050565b6020815260006116b9602083018461296b565b634e487b7160e01b600052604160045260246000fd5b601f8201601f191681016001600160401b03811182821017156129e5576129e56129aa565b6040525050565b60405161016081016001600160401b0381118282101715612a0f57612a0f6129aa565b60405290565b60006001600160401b03821115612a2e57612a2e6129aa565b5060051b60200190565b600082601f830112612a4957600080fd5b81356020612a5682612a15565b604051612a6382826129c0565b83815260059390931b8501820192828101915086841115612a8357600080fd5b8286015b84811015612a9e5780358352918301918301612a87565b509695505050505050565b60006001600160401b03821115612ac257612ac26129aa565b50601f01601f191660200190565b600082601f830112612ae157600080fd5b8135612aec81612aa9565b604051612af982826129c0565b828152856020848701011115612b0e57600080fd5b82602086016020830137600092810160200192909252509392505050565b600080600080600060a08688031215612b4457600080fd5b8535612b4f816128a2565b94506020860135612b5f816128a2565b935060408601356001600160401b0380821115612b7b57600080fd5b612b8789838a01612a38565b94506060880135915080821115612b9d57600080fd5b612ba989838a01612a38565b93506080880135915080821115612bbf57600080fd5b50612bcc88828901612ad0565b9150509295509295909350565b60008060408385031215612bec57600080fd5b82356001600160401b0380821115612c0357600080fd5b818501915085601f830112612c1757600080fd5b81356020612c2482612a15565b604051612c3182826129c0565b83815260059390931b8501820192828101915089841115612c5157600080fd5b948201945b83861015612c78578535612c69816128a2565b82529482019490820190612c56565b96505086013592505080821115612c8e57600080fd5b50612c9b85828601612a38565b9150509250929050565b600081518084526020808501945080840160005b83811015612cd557815187529582019590820190600101612cb9565b509495945050505050565b6020815260006116b96020830184612ca5565b6000610160828403121561168457600080fd5b600060208284031215612d1857600080fd5b81356001600160401b03811115612d2e57600080fd5b61240784828501612cf3565b600060a0828403121561168457600080fd5b6000806000806101008587031215612d6357600080fd5b8435612d6e816128a2565b93506020850135612d7e816128a2565b9250612d8d8660408701612d3a565b9396929550929360e00135925050565b60008060408385031215612db057600080fd5b8235612dbb816128a2565b915060208301358015158114612dd057600080fd5b809150509250929050565b60008060c08385031215612dee57600080fd5b8235612df9816128a2565b9150612e088460208501612d3a565b90509250929050565b60008060408385031215612e2457600080fd5b8235612e2f816128a2565b91506020830135612dd0816128a2565b600080600080600060a08688031215612e5757600080fd5b8535612e62816128a2565b94506020860135612e72816128a2565b9350604086013592506060860135915060808601356001600160401b03811115612e9b57600080fd5b612bcc88828901612ad0565b600181811c90821680612ebb57607f821691505b6020821081141561168457634e487b7160e01b600052602260045260246000fd5b6020808252602e908201527f455243313135353a2063616c6c6572206973206e6f7420746f6b656e206f776e60408201526d195c881bdc88185c1c1c9bdd995960921b606082015260800190565b634e487b7160e01b600052603260045260246000fd5b634e487b7160e01b600052601160045260246000fd5b6000600019821415612f6a57612f6a612f40565b5060010190565b60006101608284031215612f8457600080fd5b612f8c6129ec565b9050612f97826128b7565b8152612fa5602083016128b7565b60208201526040820135604082015260608201356060820152612fca608083016128b7565b6080820152612fdb60a083016128b7565b60a0820152612fec60c083016128b7565b60c082015260e0828101359082015261010080830135908201526101208083013590820152610140808301356001600160401b0381111561302c57600080fd5b61303885828601612ad0565b82840152505092915050565b60006103c23683612f71565b60006020828403121561306257600080fd5b81356116b9816128a2565b634e487b7160e01b600052602160045260246000fd5b600381106130a157634e487b7160e01b600052602160045260246000fd5b9052565b848152602081018490526001600160a01b0383166040820152608081016130cf6060830184613083565b95945050505050565b6000602082840312156130ea57600080fd5b5051919050565b6000821982111561310457613104612f40565b500190565b6000808335601e1984360301811261312057600080fd5b8301803591506001600160401b0382111561313a57600080fd5b60200191503681900382131561314f57600080fd5b9250929050565b600061010060018060a01b038084511685528060208501511660208601525060408301516040850152606083015160608501526080830151608085015260a083015160a085015260c083015160c085015260e08301518160e08601526130cf8286018261296b565b6020815260006116b96020830184613156565b6000602082840312156131e357600080fd5b81516001600160401b038111156131f957600080fd5b8201601f8101841361320a57600080fd5b805161321581612aa9565b60405161322282826129c0565b82815286602084860101111561323757600080fd5b61324883602083016020870161293f565b9695505050505050565b600060a0828403121561326457600080fd5b60405160a081018181106001600160401b0382111715613286576132866129aa565b6040528235613294816128a2565b815260208301356132a4816128a2565b8060208301525060408301356040820152606083013560608201526080830135600381106132d157600080fd5b60808201529392505050565b858152602081018590526001600160a01b038416604082015260a081016133076060830185613083565b8260808301529695505050505050565b60208082526025908201527f455243313135353a207472616e7366657220746f20746865207a65726f206164604082015264647265737360d81b606082015260800190565b6020808252602a908201527f455243313135353a20696e73756666696369656e742062616c616e636520666f60408201526939103a3930b739b332b960b11b606082015260800190565b6040815260006133b96040830185612ca5565b82810360208401526130cf8185612ca5565b6001600160a01b0394851681529290931660208301526040820152606081019190915260800190565b81516001600160a01b03908116825260208084015190911690820152604080830151908201526060808301519082015260808083015160a083019161343b90840182613083565b5092915050565b6001600160a01b0386811682528516602082015260a06040820181905260009061346e90830186612ca5565b82810360608401526134808186612ca5565b90508281036080840152613494818561296b565b98975050505050505050565b6000602082840312156134b257600080fd5b81516116b9816128f3565b600060033d11156134d65760046000803e5060005160e01c5b90565b600060443d10156134e75790565b6040516003193d81016004833e81513d6001600160401b03816024840111818411171561351657505050505090565b828501915081518181111561352e5750505050505090565b843d87010160208285010111156135485750505050505090565b613557602082860101876129c0565b509095945050505050565b60208082526028908201527f455243313135353a204552433131353552656365697665722072656a656374656040820152676420746f6b656e7360c01b606082015260800190565b6000602082840312156135bc57600080fd5b81516116b9816128a2565b6001600160a01b03868116825285166020820152604081018490526060810183905260a0608082018190526000906136019083018461296b565b979650505050505050565b60008282101561361e5761361e612f40565b500390565b634e487b7160e01b600052603160045260246000fdfe72656163686573207269676874206265666f7265206d696e7420696e2074696d65737761707632546f6b6e653a3a6d696e74a2646970667358221220e40f204ebaa7ab61571de726c72725ae9194fc8a3621fcc3609b8250d6844e8764736f6c63430008080033",
    "linkReferences": {}
  },
  "methodIdentifiers": {
    "balanceOf(address,uint256)": "00fdd58e",
    "balanceOfBatch(address[],uint256[])": "4e1273f4",
    "burn((address,address,uint256,uint256,address,address,address,uint256,uint256,uint256,bytes))": "a38d7a17",
    "isApprovedForAll(address,address)": "e985e9c5",
    "mint((address,address,uint256,uint256,address,address,address,uint256,uint256,uint256,bytes))": "4fd991ea",
    "optionFactory()": "b3461c87",
    "positionOf(address,(address,address,uint256,uint256,uint8))": "bb19c648",
    "safeBatchTransferFrom(address,address,uint256[],uint256[],bytes)": "2eb2c2d6",
    "safeTransferFrom(address,address,uint256,uint256,bytes)": "f242432a",
    "setApprovalForAll(address,bool)": "a22cb465",
    "supportsInterface(bytes4)": "01ffc9a7",
    "tokenByIndex(uint256)": "4f6ccce7",
    "tokenOfOwnerByIndex(address,uint256)": "2f745c59",
    "totalSupply()": "18160ddd",
    "transferTokenPositionFrom(address,address,(address,address,uint256,uint256,uint8),uint256)": "5c9b7282",
    "uri(uint256)": "0e89341c"
  },
  "id": 142
}