{
  "abi": [
    {
      "inputs": [
        {
          "internalType": "address",
          "name": "chosenOptionFactory",
          "type": "address"
        }
      ],
      "stateMutability": "nonpayable",
      "type": "constructor"
    },
    {
      "inputs": [
        {
          "internalType": "uint256",
          "name": "maturity",
          "type": "uint256"
        }
      ],
      "name": "IncorrectMaturity",
      "type": "error"
    },
    {
      "inputs": [],
      "name": "NoReentrantCall",
      "type": "error"
    },
    {
      "inputs": [
        {
          "internalType": "uint256",
          "name": "minuend",
          "type": "uint256"
        },
        {
          "internalType": "uint256",
          "name": "subtrahend",
          "type": "uint256"
        }
      ],
      "name": "NotEnoughReceived",
      "type": "error"
    },
    {
      "inputs": [],
      "name": "NotInteracted",
      "type": "error"
    },
    {
      "inputs": [],
      "name": "ZeroAddress",
      "type": "error"
    },
    {
      "inputs": [],
      "name": "ZeroInput",
      "type": "error"
    },
    {
      "anonymous": false,
      "inputs": [
        {
          "indexed": true,
          "internalType": "address",
          "name": "account",
          "type": "address"
        },
        {
          "indexed": true,
          "internalType": "address",
          "name": "operator",
          "type": "address"
        },
        {
          "indexed": false,
          "internalType": "bool",
          "name": "approved",
          "type": "bool"
        }
      ],
      "name": "ApprovalForAll",
      "type": "event"
    },
    {
      "anonymous": false,
      "inputs": [
        {
          "indexed": true,
          "internalType": "address",
          "name": "operator",
          "type": "address"
        },
        {
          "indexed": true,
          "internalType": "address",
          "name": "from",
          "type": "address"
        },
        {
          "indexed": true,
          "internalType": "address",
          "name": "to",
          "type": "address"
        },
        {
          "indexed": false,
          "internalType": "uint256[]",
          "name": "ids",
          "type": "uint256[]"
        },
        {
          "indexed": false,
          "internalType": "uint256[]",
          "name": "values",
          "type": "uint256[]"
        }
      ],
      "name": "TransferBatch",
      "type": "event"
    },
    {
      "anonymous": false,
      "inputs": [
        {
          "indexed": true,
          "internalType": "address",
          "name": "operator",
          "type": "address"
        },
        {
          "indexed": true,
          "internalType": "address",
          "name": "from",
          "type": "address"
        },
        {
          "indexed": true,
          "internalType": "address",
          "name": "to",
          "type": "address"
        },
        {
          "indexed": false,
          "internalType": "uint256",
          "name": "id",
          "type": "uint256"
        },
        {
          "indexed": false,
          "internalType": "uint256",
          "name": "value",
          "type": "uint256"
        }
      ],
      "name": "TransferSingle",
      "type": "event"
    },
    {
      "anonymous": false,
      "inputs": [
        {
          "indexed": false,
          "internalType": "string",
          "name": "value",
          "type": "string"
        },
        {
          "indexed": true,
          "internalType": "uint256",
          "name": "id",
          "type": "uint256"
        }
      ],
      "name": "URI",
      "type": "event"
    },
    {
      "inputs": [
        {
          "internalType": "address",
          "name": "account",
          "type": "address"
        },
        {
          "internalType": "uint256",
          "name": "id",
          "type": "uint256"
        }
      ],
      "name": "balanceOf",
      "outputs": [
        {
          "internalType": "uint256",
          "name": "",
          "type": "uint256"
        }
      ],
      "stateMutability": "view",
      "type": "function"
    },
    {
      "inputs": [
        {
          "internalType": "address[]",
          "name": "accounts",
          "type": "address[]"
        },
        {
          "internalType": "uint256[]",
          "name": "ids",
          "type": "uint256[]"
        }
      ],
      "name": "balanceOfBatch",
      "outputs": [
        {
          "internalType": "uint256[]",
          "name": "",
          "type": "uint256[]"
        }
      ],
      "stateMutability": "view",
      "type": "function"
    },
    {
      "inputs": [
        {
          "components": [
            {
              "internalType": "address",
              "name": "token0",
              "type": "address"
            },
            {
              "internalType": "address",
              "name": "token1",
              "type": "address"
            },
            {
              "internalType": "uint256",
              "name": "strike",
              "type": "uint256"
            },
            {
              "internalType": "uint256",
              "name": "maturity",
              "type": "uint256"
            },
            {
              "internalType": "address",
              "name": "long0To",
              "type": "address"
            },
            {
              "internalType": "address",
              "name": "long1To",
              "type": "address"
            },
            {
              "internalType": "address",
              "name": "shortTo",
              "type": "address"
            },
            {
              "internalType": "uint256",
              "name": "long0Amount",
              "type": "uint256"
            },
            {
              "internalType": "uint256",
              "name": "long1Amount",
              "type": "uint256"
            },
            {
              "internalType": "uint256",
              "name": "shortAmount",
              "type": "uint256"
            },
            {
              "internalType": "bytes",
              "name": "data",
              "type": "bytes"
            }
          ],
          "internalType": "struct TimeswapV2TokenBurnParam",
          "name": "param",
          "type": "tuple"
        }
      ],
      "name": "burn",
      "outputs": [
        {
          "internalType": "bytes",
          "name": "data",
          "type": "bytes"
        }
      ],
      "stateMutability": "nonpayable",
      "type": "function"
    },
    {
      "inputs": [
        {
          "internalType": "address",
          "name": "account",
          "type": "address"
        },
        {
          "internalType": "address",
          "name": "operator",
          "type": "address"
        }
      ],
      "name": "isApprovedForAll",
      "outputs": [
        {
          "internalType": "bool",
          "name": "",
          "type": "bool"
        }
      ],
      "stateMutability": "view",
      "type": "function"
    },
    {
      "inputs": [
        {
          "components": [
            {
              "internalType": "address",
              "name": "token0",
              "type": "address"
            },
            {
              "internalType": "address",
              "name": "token1",
              "type": "address"
            },
            {
              "internalType": "uint256",
              "name": "strike",
              "type": "uint256"
            },
            {
              "internalType": "uint256",
              "name": "maturity",
              "type": "uint256"
            },
            {
              "internalType": "address",
              "name": "long0To",
              "type": "address"
            },
            {
              "internalType": "address",
              "name": "long1To",
              "type": "address"
            },
            {
              "internalType": "address",
              "name": "shortTo",
              "type": "address"
            },
            {
              "internalType": "uint256",
              "name": "long0Amount",
              "type": "uint256"
            },
            {
              "internalType": "uint256",
              "name": "long1Amount",
              "type": "uint256"
            },
            {
              "internalType": "uint256",
              "name": "shortAmount",
              "type": "uint256"
            },
            {
              "internalType": "bytes",
              "name": "data",
              "type": "bytes"
            }
          ],
          "internalType": "struct TimeswapV2TokenMintParam",
          "name": "param",
          "type": "tuple"
        }
      ],
      "name": "mint",
      "outputs": [
        {
          "internalType": "bytes",
          "name": "data",
          "type": "bytes"
        }
      ],
      "stateMutability": "nonpayable",
      "type": "function"
    },
    {
      "inputs": [],
      "name": "optionFactory",
      "outputs": [
        {
          "internalType": "address",
          "name": "",
          "type": "address"
        }
      ],
      "stateMutability": "view",
      "type": "function"
    },
    {
      "inputs": [
        {
          "internalType": "address",
          "name": "owner",
          "type": "address"
        },
        {
          "components": [
            {
              "internalType": "address",
              "name": "token0",
              "type": "address"
            },
            {
              "internalType": "address",
              "name": "token1",
              "type": "address"
            },
            {
              "internalType": "uint256",
              "name": "strike",
              "type": "uint256"
            },
            {
              "internalType": "uint256",
              "name": "maturity",
              "type": "uint256"
            },
            {
              "internalType": "enum TimeswapV2OptionPosition",
              "name": "position",
              "type": "uint8"
            }
          ],
          "internalType": "struct TimeswapV2TokenPosition",
          "name": "timeswapV2TokenPosition",
          "type": "tuple"
        }
      ],
      "name": "positionOf",
      "outputs": [
        {
          "internalType": "uint256",
          "name": "amount",
          "type": "uint256"
        }
      ],
      "stateMutability": "view",
      "type": "function"
    },
    {
      "inputs": [
        {
          "internalType": "address",
          "name": "from",
          "type": "address"
        },
        {
          "internalType": "address",
          "name": "to",
          "type": "address"
        },
        {
          "internalType": "uint256[]",
          "name": "ids",
          "type": "uint256[]"
        },
        {
          "internalType": "uint256[]",
          "name": "amounts",
          "type": "uint256[]"
        },
        {
          "internalType": "bytes",
          "name": "data",
          "type": "bytes"
        }
      ],
      "name": "safeBatchTransferFrom",
      "outputs": [],
      "stateMutability": "nonpayable",
      "type": "function"
    },
    {
      "inputs": [
        {
          "internalType": "address",
          "name": "from",
          "type": "address"
        },
        {
          "internalType": "address",
          "name": "to",
          "type": "address"
        },
        {
          "internalType": "uint256",
          "name": "id",
          "type": "uint256"
        },
        {
          "internalType": "uint256",
          "name": "amount",
          "type": "uint256"
        },
        {
          "internalType": "bytes",
          "name": "data",
          "type": "bytes"
        }
      ],
      "name": "safeTransferFrom",
      "outputs": [],
      "stateMutability": "nonpayable",
      "type": "function"
    },
    {
      "inputs": [
        {
          "internalType": "address",
          "name": "operator",
          "type": "address"
        },
        {
          "internalType": "bool",
          "name": "approved",
          "type": "bool"
        }
      ],
      "name": "setApprovalForAll",
      "outputs": [],
      "stateMutability": "nonpayable",
      "type": "function"
    },
    {
      "inputs": [
        {
          "internalType": "bytes4",
          "name": "interfaceId",
          "type": "bytes4"
        }
      ],
      "name": "supportsInterface",
      "outputs": [
        {
          "internalType": "bool",
          "name": "",
          "type": "bool"
        }
      ],
      "stateMutability": "view",
      "type": "function"
    },
    {
      "inputs": [
        {
          "internalType": "uint256",
          "name": "index",
          "type": "uint256"
        }
      ],
      "name": "tokenByIndex",
      "outputs": [
        {
          "internalType": "uint256",
          "name": "",
          "type": "uint256"
        }
      ],
      "stateMutability": "view",
      "type": "function"
    },
    {
      "inputs": [
        {
          "internalType": "address",
          "name": "owner",
          "type": "address"
        },
        {
          "internalType": "uint256",
          "name": "index",
          "type": "uint256"
        }
      ],
      "name": "tokenOfOwnerByIndex",
      "outputs": [
        {
          "internalType": "uint256",
          "name": "",
          "type": "uint256"
        }
      ],
      "stateMutability": "view",
      "type": "function"
    },
    {
      "inputs": [],
      "name": "totalSupply",
      "outputs": [
        {
          "internalType": "uint256",
          "name": "",
          "type": "uint256"
        }
      ],
      "stateMutability": "view",
      "type": "function"
    },
    {
      "inputs": [
        {
          "internalType": "address",
          "name": "from",
          "type": "address"
        },
        {
          "internalType": "address",
          "name": "to",
          "type": "address"
        },
        {
          "components": [
            {
              "internalType": "address",
              "name": "token0",
              "type": "address"
            },
            {
              "internalType": "address",
              "name": "token1",
              "type": "address"
            },
            {
              "internalType": "uint256",
              "name": "strike",
              "type": "uint256"
            },
            {
              "internalType": "uint256",
              "name": "maturity",
              "type": "uint256"
            },
            {
              "internalType": "enum TimeswapV2OptionPosition",
              "name": "position",
              "type": "uint8"
            }
          ],
          "internalType": "struct TimeswapV2TokenPosition",
          "name": "timeswapV2TokenPosition",
          "type": "tuple"
        },
        {
          "internalType": "uint256",
          "name": "amount",
          "type": "uint256"
        }
      ],
      "name": "transferTokenPositionFrom",
      "outputs": [],
      "stateMutability": "nonpayable",
      "type": "function"
    },
    {
      "inputs": [
        {
          "internalType": "uint256",
          "name": "",
          "type": "uint256"
        }
      ],
      "name": "uri",
      "outputs": [
        {
          "internalType": "string",
          "name": "",
          "type": "string"
        }
      ],
      "stateMutability": "view",
      "type": "function"
    }
  ],
  "bytecode": {
    "object": "0x60a06040523480156200001157600080fd5b50604051620037cf380380620037cf833981016040819052620000349162000149565b60408051808201909152601381527f54696d6573776170205632206164647265737300000000000000000000000000602082015262000073816200008a565b5060601b6001600160601b031916608052620001b8565b80516200009f906002906020840190620000a3565b5050565b828054620000b1906200017b565b90600052602060002090601f016020900481019282620000d5576000855562000120565b82601f10620000f057805160ff191683800117855562000120565b8280016001018555821562000120579182015b828111156200012057825182559160200191906001019062000103565b506200012e92915062000132565b5090565b5b808211156200012e576000815560010162000133565b6000602082840312156200015c57600080fd5b81516001600160a01b03811681146200017457600080fd5b9392505050565b600181811c908216806200019057607f821691505b60208210811415620001b257634e487b7160e01b600052602260045260246000fd5b50919050565b60805160601c6135ea620001e5600039600081816102440152818161067001526110f901526135ea6000f3fe608060405234801561001057600080fd5b50600436106100ff5760003560e01c80634fd991ea11610097578063b3461c8711610066578063b3461c871461023f578063bb19c6481461027e578063e985e9c514610291578063f242432a146102cd57600080fd5b80634fd991ea146101f35780635c9b728214610206578063a22cb46514610219578063a38d7a171461022c57600080fd5b80632eb2c2d6116100d35780632eb2c2d6146101755780632f745c591461018a5780634e1273f4146101c05780634f6ccce7146101e057600080fd5b8062fdd58e1461010457806301ffc9a71461012a5780630e89341c1461014d57806318160ddd1461016d575b600080fd5b610117610112366004612842565b6102e0565b6040519081526020015b60405180910390f35b61013d610138366004612884565b610376565b6040519015158152602001610121565b61016061015b3660046128a1565b6103c8565b6040516101219190612912565b600754610117565b610188610183366004612aa7565b61045c565b005b610117610198366004612842565b6001600160a01b03919091166000908152600360209081526040808320938352929052205490565b6101d36101ce366004612b54565b6104a8565b6040516101219190612c5b565b6101176101ee3660046128a1565b6105d1565b610160610201366004612c81565b6105f8565b610188610214366004612cc7565b61107a565b610188610227366004612d18565b6110c5565b61016061023a366004612c81565b6110d4565b6102667f000000000000000000000000000000000000000000000000000000000000000081565b6040516001600160a01b039091168152602001610121565b61011761028c366004612d56565b611669565b61013d61029f366004612d8c565b6001600160a01b03918216600090815260016020908152604080832093909416825291909152205460ff1690565b6101886102db366004612dba565b61169f565b60006001600160a01b0383166103505760405162461bcd60e51b815260206004820152602a60248201527f455243313135353a2061646472657373207a65726f206973206e6f742061207660448201526930b634b21037bbb732b960b11b60648201526084015b60405180910390fd5b506000908152602081815260408083206001600160a01b03949094168352929052205490565b60006001600160e01b03198216636cdb3d1360e11b14806103a757506001600160e01b031982166303a24d0760e21b145b806103c257506301ffc9a760e01b6001600160e01b03198316145b92915050565b6060600280546103d790612e22565b80601f016020809104026020016040519081016040528092919081815260200182805461040390612e22565b80156104505780601f1061042557610100808354040283529160200191610450565b820191906000526020600020905b81548152906001019060200180831161043357829003601f168201915b50505050509050919050565b6001600160a01b0385163314806104785750610478853361029f565b6104945760405162461bcd60e51b815260040161034790612e57565b6104a185858585856116e4565b5050505050565b6060815183511461050d5760405162461bcd60e51b815260206004820152602960248201527f455243313135353a206163636f756e747320616e6420696473206c656e677468604482015268040dad2e6dac2e8c6d60bb1b6064820152608401610347565b600083516001600160401b0381111561052857610528612925565b604051908082528060200260200182016040528015610551578160200160208202803683370190505b50905060005b84518110156105c95761059c85828151811061057557610575612ea5565b602002602001015185838151811061058f5761058f612ea5565b60200260200101516102e0565b8282815181106105ae576105ae612ea5565b60209081029190910101526105c281612ed1565b9050610557565b509392505050565b6000600782815481106105e6576105e6612ea5565b90600052602060002001549050919050565b606061060b61060683612fbf565b6118dd565b61063a61061b6020840184612fcb565b61062b6040850160208601612fcb565b84604001358560600135611979565b61066961064a6020840184612fcb565b61065a6040850160208601612fcb565b846040013585606001356119ed565b60006106b17f000000000000000000000000000000000000000000000000000000000000000061069c6020860186612fcb565b6106ac6040870160208801612fcb565b611a65565b9050600060e0840135156108d6578360e00135826001600160a01b031663af2f91ea866040013587606001353060006040518563ffffffff1660e01b81526004016106ff9493929190613020565b60206040518083038186803b15801561071757600080fd5b505afa15801561072b573d6000803e3d6000fd5b505050506040513d601f19601f8201168201806040525081019061074f9190613053565b610759919061306c565b6040805160a08101909152909150600090806107786020880188612fcb565b6001600160a01b031681526020018660200160208101906107999190612fcb565b6001600160a01b031681526020018660400135815260200186606001358152602001600060028111156107ce576107ce612fe8565b9052905060006107dd82611a8a565b6000818152600b6020526040902054909150806108a45760075461080290600161306c565b6000818152600a6020908152604091829020865181546001600160a01b039182166001600160a01b0319918216178355928801516001808401805492909316919094161790559186015160028084019190915560608701516003840155608087015160048401805495965088959193909260ff1990921691849081111561088b5761088b612fe8565b021790555050506000828152600b602052604090208190555b6108d26108b760a0890160808a01612fcb565b828960e0013560405180602001604052806000815250611aba565b5050505b600061010085013515610afc57846101000135836001600160a01b031663af2f91ea876040013588606001353060016040518563ffffffff1660e01b81526004016109249493929190613020565b60206040518083038186803b15801561093c57600080fd5b505afa158015610950573d6000803e3d6000fd5b505050506040513d601f19601f820116820180604052508101906109749190613053565b61097e919061306c565b6040805160a081019091529091506000908061099d6020890189612fcb565b6001600160a01b031681526020018760200160208101906109be9190612fcb565b6001600160a01b031681526020018760400135815260200187606001358152602001600160028111156109f3576109f3612fe8565b905290506000610a0282611a8a565b6000818152600b602052604090205490915080610ac957600754610a2790600161306c565b6000818152600a6020908152604091829020865181546001600160a01b039182166001600160a01b0319918216178355928801516001808401805492909316919094161790559186015160028084019190915560608701516003840155608087015160048401805495965088959193909260ff19909216918490811115610ab057610ab0612fe8565b021790555050506000828152600b602052604090208190555b610af8610adc60c08a0160a08b01612fcb565b828a610100013560405180602001604052806000815250611aba565b5050505b600061012086013515610d2157856101200135846001600160a01b031663af2f91ea886040013589606001353060026040518563ffffffff1660e01b8152600401610b4a9493929190613020565b60206040518083038186803b158015610b6257600080fd5b505afa158015610b76573d6000803e3d6000fd5b505050506040513d601f19601f82011682018060405250810190610b9a9190613053565b610ba4919061306c565b6040805160a0810190915290915060009080610bc360208a018a612fcb565b6001600160a01b03168152602001886020016020810190610be49190612fcb565b6001600160a01b031681526020018860400135815260200188606001358152602001600280811115610c1857610c18612fe8565b905290506000610c2782611a8a565b6000818152600b602052604090205490915080610cee57600754610c4c90600161306c565b6000818152600a6020908152604091829020865181546001600160a01b039182166001600160a01b0319918216178355928801516001808401805492909316919094161790559186015160028084019190915560608701516003840155608087015160048401805495965088959193909260ff19909216918490811115610cd557610cd5612fe8565b021790555050506000828152600b602052604090208190555b610d1d610d0160e08b0160c08c01612fcb565b828b610120013560405180602001604052806000815250611aba565b5050505b604080516101008101909152339063e13c022c9080610d4360208b018b612fcb565b6001600160a01b03168152602001896020016020810190610d649190612fcb565b6001600160a01b0316815260200189604001358152602001896060013581526020018960e0013581526020018961010001358152602001896101200135815260200189806101400190610db79190613084565b8080601f01602080910402602001604051908101604052809392919081815260200183838082843760009201919091525050509152506040516001600160e01b031960e084901b168152610e0e9190600401613139565b600060405180830381600087803b158015610e2857600080fd5b505af1158015610e3c573d6000803e3d6000fd5b505050506040513d6000823e601f3d908101601f19168201604052610e64919081019061314c565b945060e086013515610f0457610f04846001600160a01b031663af2f91ea886040013589606001353060006040518563ffffffff1660e01b8152600401610eae9493929190613020565b60206040518083038186803b158015610ec657600080fd5b505afa158015610eda573d6000803e3d6000fd5b505050506040513d601f19601f82011682018060405250810190610efe9190613053565b84611bec565b61010086013515610fa357610fa3846001600160a01b031663af2f91ea886040013589606001353060016040518563ffffffff1660e01b8152600401610f4d9493929190613020565b60206040518083038186803b158015610f6557600080fd5b505afa158015610f79573d6000803e3d6000fd5b505050506040513d601f19601f82011682018060405250810190610f9d9190613053565b83611bec565b6101208601351561104257611042846001600160a01b031663af2f91ea886040013589606001353060026040518563ffffffff1660e01b8152600401610fec9493929190613020565b60206040518083038186803b15801561100457600080fd5b505afa158015611018573d6000803e3d6000fd5b505050506040513d601f19601f8201168201806040525081019061103c9190613053565b82611bec565b6110716110526020880188612fcb565b6110626040890160208a01612fcb565b88604001358960600135611c17565b50505050919050565b6110bf8484600b600061109a611095368990038901896131cd565b611a8a565b815260200190815260200160002054846040518060200160405280600081525061169f565b50505050565b6110d0338383611c6c565b5050565b60606110e261060683612fbf565b6110f261064a6020840184612fcb565b60006111257f000000000000000000000000000000000000000000000000000000000000000061069c6020860186612fcb565b905060e0830135156111b4576001600160a01b03811663b2ceca776040850135606086013561115a60a0880160808901612fcb565b60008860e001356040518663ffffffff1660e01b8152600401611181959493929190613258565b600060405180830381600087803b15801561119b57600080fd5b505af11580156111af573d6000803e3d6000fd5b505050505b61010083013515611243576001600160a01b03811663b2ceca77604085013560608601356111e860c0880160a08901612fcb565b60018861010001356040518663ffffffff1660e01b8152600401611210959493929190613258565b600060405180830381600087803b15801561122a57600080fd5b505af115801561123e573d6000803e3d6000fd5b505050505b610120830135156112d2576001600160a01b03811663b2ceca776040850135606086013561127760e0880160c08901612fcb565b60028861012001356040518663ffffffff1660e01b815260040161129f959493929190613258565b600060405180830381600087803b1580156112b957600080fd5b505af11580156112cd573d6000803e3d6000fd5b505050505b6112e0610140840184613084565b15905061142d57604080516101008101909152339063fb05b8fe90806113096020880188612fcb565b6001600160a01b0316815260200186602001602081019061132a9190612fcb565b6001600160a01b0316815260200186604001358152602001866060013581526020018660e001358152602001866101000135815260200186610120013581526020018680610140019061137d9190613084565b8080601f01602080910402602001604051908101604052809392919081815260200183838082843760009201919091525050509152506040516001600160e01b031960e084901b1681526113d49190600401613139565b600060405180830381600087803b1580156113ee57600080fd5b505af1158015611402573d6000803e3d6000fd5b505050506040513d6000823e601f3d908101601f1916820160405261142a919081019061314c565b91505b60e0830135156114d9576040805160a08101909152600090806114536020870187612fcb565b6001600160a01b031681526020018560200160208101906114749190612fcb565b6001600160a01b031681526020018560400135815260200185606001358152602001600060028111156114a9576114a9612fe8565b905290506114d733600b60006114be85611a8a565b8152602001908152602001600020548660e00135611d4d565b505b61010083013515611587576040805160a08101909152600090806115006020870187612fcb565b6001600160a01b031681526020018560200160208101906115219190612fcb565b6001600160a01b0316815260200185604001358152602001856060013581526020016001600281111561155657611556612fe8565b9052905061158533600b600061156b85611a8a565b815260200190815260200160002054866101000135611d4d565b505b61012083013515611634576040805160a08101909152600090806115ae6020870187612fcb565b6001600160a01b031681526020018560200160208101906115cf9190612fcb565b6001600160a01b03168152602001856040013581526020018560600135815260200160028081111561160357611603612fe8565b9052905061163233600b600061161885611a8a565b815260200190815260200160002054866101200135611d4d565b505b6116636116446020850185612fcb565b6116546040860160208701612fcb565b85604001358660600135611c17565b50919050565b600061169883600b83611684611095368890038801886131cd565b8152602001908152602001600020546102e0565b9392505050565b6001600160a01b0385163314806116bb57506116bb853361029f565b6116d75760405162461bcd60e51b815260040161034790612e57565b6104a18585858585611ee7565b81518351146117465760405162461bcd60e51b815260206004820152602860248201527f455243313135353a2069647320616e6420616d6f756e7473206c656e677468206044820152670dad2e6dac2e8c6d60c31b6064820152608401610347565b6001600160a01b03841661176c5760405162461bcd60e51b815260040161034790613292565b3361177b81878787878761202d565b60005b845181101561186157600085828151811061179b5761179b612ea5565b6020026020010151905060008583815181106117b9576117b9612ea5565b602090810291909101810151600084815280835260408082206001600160a01b038e1683529093529190912054909150818110156118095760405162461bcd60e51b8152600401610347906132d7565b6000838152602081815260408083206001600160a01b038e8116855292528083208585039055908b1682528120805484929061184690849061306c565b925050819055505050508061185a90612ed1565b905061177e565b50846001600160a01b0316866001600160a01b0316826001600160a01b03167f4a39dc06d4c0dbc64b70af90fd698a233a518aa5d07e595d983b8c0526c8f7fb87876040516118b1929190613321565b60405180910390a46118c78187878787876120a0565b6118d5818787878787612113565b505050505050565b60808101516001600160a01b03161580611902575060a08101516001600160a01b0316155b80611918575060c08101516001600160a01b0316155b156119255761192561227e565b60608101516001600160601b031015611945576119458160600151612297565b60e081015115801561195a5750610100810151155b80156119695750610120810151155b15611976576119766122b3565b50565b6000848484846040516020016119929493929190613346565b60408051601f198184030181529181528151602092830120600081815260099093529120549091506001600160601b03166104a157600081815260096020526040902080546001600160601b03191660011790555050505050565b600084848484604051602001611a069493929190613346565b60408051601f19818403018152918152815160209283012060008181526009909352912054909150611a40906001600160601b03166122cc565b600090815260096020526040902080546001600160601b031916600217905550505050565b6000611a7284848461231e565b90506001600160a01b0381166116985761169861227e565b600081604051602001611a9d919061336f565b604051602081830303815290604052805190602001209050919050565b6001600160a01b038416611b1a5760405162461bcd60e51b815260206004820152602160248201527f455243313135353a206d696e7420746f20746865207a65726f206164647265736044820152607360f81b6064820152608401610347565b336000611b26856123ab565b90506000611b33856123ab565b9050611b448360008985858961202d565b6000868152602081815260408083206001600160a01b038b16845290915281208054879290611b7490849061306c565b909155505060408051878152602081018790526001600160a01b03808a1692600092918716917fc3d58168c5ae7397731d063d5bbf3d657854427343f4c083240f7aacaa2d0f62910160405180910390a4611bd4836000898585896120a0565b611be3836000898989896123f6565b50505050505050565b808210156110d057604051631c22ff0160e21b81526004810183905260248101829052604401610347565b600084848484604051602001611c309493929190613346565b60408051601f19818403018152918152815160209283012060009081526009909252902080546001600160601b03191660011790555050505050565b816001600160a01b0316836001600160a01b03161415611ce05760405162461bcd60e51b815260206004820152602960248201527f455243313135353a2073657474696e6720617070726f76616c20737461747573604482015268103337b91039b2b63360b91b6064820152608401610347565b6001600160a01b03838116600081815260016020908152604080832094871680845294825291829020805460ff191686151590811790915591519182527f17307eab39ab6107e8899845ad3d59bd9653f200f220920489ca2b5937696c31910160405180910390a3505050565b6001600160a01b038316611daf5760405162461bcd60e51b815260206004820152602360248201527f455243313135353a206275726e2066726f6d20746865207a65726f206164647260448201526265737360e81b6064820152608401610347565b336000611dbb846123ab565b90506000611dc8846123ab565b9050611de88387600085856040518060200160405280600081525061202d565b6000858152602081815260408083206001600160a01b038a16845290915290205484811015611e655760405162461bcd60e51b8152602060048201526024808201527f455243313135353a206275726e20616d6f756e7420657863656564732062616c604482015263616e636560e01b6064820152608401610347565b6000868152602081815260408083206001600160a01b038b81168086529184528285208a8703905582518b81529384018a90529092908816917fc3d58168c5ae7397731d063d5bbf3d657854427343f4c083240f7aacaa2d0f62910160405180910390a4611be3848860008686604051806020016040528060008152506120a0565b6001600160a01b038416611f0d5760405162461bcd60e51b815260040161034790613292565b336000611f19856123ab565b90506000611f26856123ab565b9050611f3683898985858961202d565b6000868152602081815260408083206001600160a01b038c16845290915290205485811015611f775760405162461bcd60e51b8152600401610347906132d7565b6000878152602081815260408083206001600160a01b038d8116855292528083208985039055908a16825281208054889290611fb490849061306c565b909155505060408051888152602081018890526001600160a01b03808b16928c821692918816917fc3d58168c5ae7397731d063d5bbf3d657854427343f4c083240f7aacaa2d0f62910160405180910390a4612014848a8a86868a6120a0565b612022848a8a8a8a8a6123f6565b505050505050505050565b60005b8351811015611be35782818151811061204b5761204b612ea5565b602002602001015160001461209857612098868686848151811061207157612071612ea5565b602002602001015186858151811061208b5761208b612ea5565b60200260200101516124c0565b600101612030565b60005b8351811015611be3578281815181106120be576120be612ea5565b602002602001015160001461210b5761210b86868684815181106120e4576120e4612ea5565b60200260200101518685815181106120fe576120fe612ea5565b60200260200101516125ac565b6001016120a3565b6001600160a01b0384163b156118d55760405163bc197c8160e01b81526001600160a01b0385169063bc197c819061215790899089908890889088906004016133bd565b602060405180830381600087803b15801561217157600080fd5b505af19250505080156121a1575060408051601f3d908101601f1916820190925261219e9181019061341b565b60015b61224e576121ad613438565b806308c379a014156121e757506121c2613454565b806121cd57506121e9565b8060405162461bcd60e51b81526004016103479190612912565b505b60405162461bcd60e51b815260206004820152603460248201527f455243313135353a207472616e7366657220746f206e6f6e2d455243313135356044820152732932b1b2b4bb32b91034b6b83632b6b2b73a32b960611b6064820152608401610347565b6001600160e01b0319811663bc197c8160e01b14611be35760405162461bcd60e51b8152600401610347906134dd565b60405163d92e233d60e01b815260040160405180910390fd5b6040516335f135d360e01b815260048101829052602401610347565b60405163af458c0760e01b815260040160405180910390fd5b6001600160601b0381166122f35760405163e2228b1560e01b815260040160405180910390fd5b6001600160601b038116600214156119765760405163865a6de560e01b815260040160405180910390fd5b60405163d81e842360e01b81526001600160a01b03838116600483015282811660248301526000919085169063d81e84239060440160206040518083038186803b15801561236b57600080fd5b505afa15801561237f573d6000803e3d6000fd5b505050506040513d601f19601f820116820180604052508101906123a39190613525565b949350505050565b604080516001808252818301909252606091600091906020808301908036833701905050905082816000815181106123e5576123e5612ea5565b602090810291909101015292915050565b6001600160a01b0384163b156118d55760405163f23a6e6160e01b81526001600160a01b0385169063f23a6e619061243a9089908990889088908890600401613542565b602060405180830381600087803b15801561245457600080fd5b505af1925050508015612484575060408051601f3d908101601f191682019092526124819181019061341b565b60015b612490576121ad613438565b6001600160e01b0319811663f23a6e6160e01b14611be35760405162461bcd60e51b8152600401610347906134dd565b6001600160a01b038416612559576000828152600660205260409020541580156124e8575060015b156125355761253582600780546000838152600860205260408120829055600182018355919091527fa66cc928b5edb82af9bd49922954155ab7b0942694bea4ce44661d9a8736c6880155565b6000828152600660205260408120805483929061255390849061306c565b90915550505b6001600160a01b038316158015906125835750836001600160a01b0316836001600160a01b031614155b156110bf5761259283836102e0565b15801561259d575060015b156110bf576110bf8383612659565b6001600160a01b038316612606576000828152600660205260409020541580156125d4575060015b156125e2576125e2826126c3565b60008281526006602052604081208054839290612600908490613587565b90915550505b6001600160a01b038416158015906126305750826001600160a01b0316846001600160a01b031614155b156110bf5761263f84836102e0565b15801561264a575060015b156110bf576110bf8483612772565b6001600160a01b038216600090815260046020526040812080546001929061268290849061306c565b90915550506001600160a01b039091166000908152600460209081526040808320546003835281842081855283528184208590559383526005909152902055565b6007546000906126d590600190613587565b600083815260086020526040812054600780549394509092849081106126fd576126fd612ea5565b90600052602060002001549050806007838154811061271e5761271e612ea5565b60009182526020808320909101929092558281526008909152604080822084905585825281205560078054806127565761275661359e565b6001900381819060005260206000200160009055905550505050565b6001600160a01b03821660009081526004602052604081205461279790600190613587565b6000838152600560205260409020549091508082146127ea576001600160a01b03841660009081526003602090815260408083208584528252808320548484528184208190558352600590915290208190555b5060009182526005602090815260408084208490556001600160a01b039094168352600381528383209183525290812055565b6001600160a01b038116811461197657600080fd5b803561283d8161281d565b919050565b6000806040838503121561285557600080fd5b82356128608161281d565b946020939093013593505050565b6001600160e01b03198116811461197657600080fd5b60006020828403121561289657600080fd5b81356116988161286e565b6000602082840312156128b357600080fd5b5035919050565b60005b838110156128d55781810151838201526020016128bd565b838111156110bf5750506000910152565b600081518084526128fe8160208601602086016128ba565b601f01601f19169290920160200192915050565b60208152600061169860208301846128e6565b634e487b7160e01b600052604160045260246000fd5b601f8201601f191681016001600160401b038111828210171561296057612960612925565b6040525050565b60405161016081016001600160401b038111828210171561298a5761298a612925565b60405290565b60006001600160401b038211156129a9576129a9612925565b5060051b60200190565b600082601f8301126129c457600080fd5b813560206129d182612990565b6040516129de828261293b565b83815260059390931b85018201928281019150868411156129fe57600080fd5b8286015b84811015612a195780358352918301918301612a02565b509695505050505050565b60006001600160401b03821115612a3d57612a3d612925565b50601f01601f191660200190565b600082601f830112612a5c57600080fd5b8135612a6781612a24565b604051612a74828261293b565b828152856020848701011115612a8957600080fd5b82602086016020830137600092810160200192909252509392505050565b600080600080600060a08688031215612abf57600080fd5b8535612aca8161281d565b94506020860135612ada8161281d565b935060408601356001600160401b0380821115612af657600080fd5b612b0289838a016129b3565b94506060880135915080821115612b1857600080fd5b612b2489838a016129b3565b93506080880135915080821115612b3a57600080fd5b50612b4788828901612a4b565b9150509295509295909350565b60008060408385031215612b6757600080fd5b82356001600160401b0380821115612b7e57600080fd5b818501915085601f830112612b9257600080fd5b81356020612b9f82612990565b604051612bac828261293b565b83815260059390931b8501820192828101915089841115612bcc57600080fd5b948201945b83861015612bf3578535612be48161281d565b82529482019490820190612bd1565b96505086013592505080821115612c0957600080fd5b50612c16858286016129b3565b9150509250929050565b600081518084526020808501945080840160005b83811015612c5057815187529582019590820190600101612c34565b509495945050505050565b6020815260006116986020830184612c20565b6000610160828403121561166357600080fd5b600060208284031215612c9357600080fd5b81356001600160401b03811115612ca957600080fd5b6123a384828501612c6e565b600060a0828403121561166357600080fd5b6000806000806101008587031215612cde57600080fd5b8435612ce98161281d565b93506020850135612cf98161281d565b9250612d088660408701612cb5565b9396929550929360e00135925050565b60008060408385031215612d2b57600080fd5b8235612d368161281d565b915060208301358015158114612d4b57600080fd5b809150509250929050565b60008060c08385031215612d6957600080fd5b8235612d748161281d565b9150612d838460208501612cb5565b90509250929050565b60008060408385031215612d9f57600080fd5b8235612daa8161281d565b91506020830135612d4b8161281d565b600080600080600060a08688031215612dd257600080fd5b8535612ddd8161281d565b94506020860135612ded8161281d565b9350604086013592506060860135915060808601356001600160401b03811115612e1657600080fd5b612b4788828901612a4b565b600181811c90821680612e3657607f821691505b6020821081141561166357634e487b7160e01b600052602260045260246000fd5b6020808252602e908201527f455243313135353a2063616c6c6572206973206e6f7420746f6b656e206f776e60408201526d195c881bdc88185c1c1c9bdd995960921b606082015260800190565b634e487b7160e01b600052603260045260246000fd5b634e487b7160e01b600052601160045260246000fd5b6000600019821415612ee557612ee5612ebb565b5060010190565b60006101608284031215612eff57600080fd5b612f07612967565b9050612f1282612832565b8152612f2060208301612832565b60208201526040820135604082015260608201356060820152612f4560808301612832565b6080820152612f5660a08301612832565b60a0820152612f6760c08301612832565b60c082015260e0828101359082015261010080830135908201526101208083013590820152610140808301356001600160401b03811115612fa757600080fd5b612fb385828601612a4b565b82840152505092915050565b60006103c23683612eec565b600060208284031215612fdd57600080fd5b81356116988161281d565b634e487b7160e01b600052602160045260246000fd5b6003811061301c57634e487b7160e01b600052602160045260246000fd5b9052565b848152602081018490526001600160a01b03831660408201526080810161304a6060830184612ffe565b95945050505050565b60006020828403121561306557600080fd5b5051919050565b6000821982111561307f5761307f612ebb565b500190565b6000808335601e1984360301811261309b57600080fd5b8301803591506001600160401b038211156130b557600080fd5b6020019150368190038213156130ca57600080fd5b9250929050565b600061010060018060a01b038084511685528060208501511660208601525060408301516040850152606083015160608501526080830151608085015260a083015160a085015260c083015160c085015260e08301518160e086015261304a828601826128e6565b60208152600061169860208301846130d1565b60006020828403121561315e57600080fd5b81516001600160401b0381111561317457600080fd5b8201601f8101841361318557600080fd5b805161319081612a24565b60405161319d828261293b565b8281528660208486010111156131b257600080fd5b6131c38360208301602087016128ba565b9695505050505050565b600060a082840312156131df57600080fd5b60405160a081018181106001600160401b038211171561320157613201612925565b604052823561320f8161281d565b8152602083013561321f8161281d565b80602083015250604083013560408201526060830135606082015260808301356003811061324c57600080fd5b60808201529392505050565b858152602081018590526001600160a01b038416604082015260a081016132826060830185612ffe565b8260808301529695505050505050565b60208082526025908201527f455243313135353a207472616e7366657220746f20746865207a65726f206164604082015264647265737360d81b606082015260800190565b6020808252602a908201527f455243313135353a20696e73756666696369656e742062616c616e636520666f60408201526939103a3930b739b332b960b11b606082015260800190565b6040815260006133346040830185612c20565b828103602084015261304a8185612c20565b6001600160a01b0394851681529290931660208301526040820152606081019190915260800190565b81516001600160a01b03908116825260208084015190911690820152604080830151908201526060808301519082015260808083015160a08301916133b690840182612ffe565b5092915050565b6001600160a01b0386811682528516602082015260a0604082018190526000906133e990830186612c20565b82810360608401526133fb8186612c20565b9050828103608084015261340f81856128e6565b98975050505050505050565b60006020828403121561342d57600080fd5b81516116988161286e565b600060033d11156134515760046000803e5060005160e01c5b90565b600060443d10156134625790565b6040516003193d81016004833e81513d6001600160401b03816024840111818411171561349157505050505090565b82850191508151818111156134a95750505050505090565b843d87010160208285010111156134c35750505050505090565b6134d26020828601018761293b565b509095945050505050565b60208082526028908201527f455243313135353a204552433131353552656365697665722072656a656374656040820152676420746f6b656e7360c01b606082015260800190565b60006020828403121561353757600080fd5b81516116988161281d565b6001600160a01b03868116825285166020820152604081018490526060810183905260a06080820181905260009061357c908301846128e6565b979650505050505050565b60008282101561359957613599612ebb565b500390565b634e487b7160e01b600052603160045260246000fdfea2646970667358221220b188751eb34697cc6ddbb277d0eba24ee1b87d7b6806b277787c3651748ea97164736f6c63430008080033",
    "linkReferences": {}
  },
  "methodIdentifiers": {
    "balanceOf(address,uint256)": "00fdd58e",
    "balanceOfBatch(address[],uint256[])": "4e1273f4",
    "burn((address,address,uint256,uint256,address,address,address,uint256,uint256,uint256,bytes))": "a38d7a17",
    "isApprovedForAll(address,address)": "e985e9c5",
    "mint((address,address,uint256,uint256,address,address,address,uint256,uint256,uint256,bytes))": "4fd991ea",
    "optionFactory()": "b3461c87",
    "positionOf(address,(address,address,uint256,uint256,uint8))": "bb19c648",
    "safeBatchTransferFrom(address,address,uint256[],uint256[],bytes)": "2eb2c2d6",
    "safeTransferFrom(address,address,uint256,uint256,bytes)": "f242432a",
    "setApprovalForAll(address,bool)": "a22cb465",
    "supportsInterface(bytes4)": "01ffc9a7",
    "tokenByIndex(uint256)": "4f6ccce7",
    "tokenOfOwnerByIndex(address,uint256)": "2f745c59",
    "totalSupply()": "18160ddd",
    "transferTokenPositionFrom(address,address,(address,address,uint256,uint256,uint8),uint256)": "5c9b7282",
    "uri(uint256)": "0e89341c"
  },
  "id": 61
}