{
  "_format": "hh-sol-artifact-1",
  "contractName": "TimeswapV2OptionDeployer",
  "sourceName": "src/TimeswapV2OptionDeployer.sol",
  "abi": [
    {
      "inputs": [],
      "name": "parameter",
      "outputs": [
        {
          "internalType": "address",
          "name": "optionFactory",
          "type": "address"
        },
        {
          "internalType": "address",
          "name": "token0",
          "type": "address"
        },
        {
          "internalType": "address",
          "name": "token1",
          "type": "address"
        }
      ],
      "stateMutability": "view",
      "type": "function"
    }
  ],
  "bytecode": "0x6080604052348015600f57600080fd5b5060ad8061001e6000396000f3fe6080604052348015600f57600080fd5b506004361060285760003560e01c8063ad4d4e2914602d575b600080fd5b600054600154600254604c926001600160a01b03908116928116911683565b604080516001600160a01b039485168152928416602084015292168183015290519081900360600190f3fea2646970667358221220472a5fe2d63918885f6d1e271ce59b0d14dd7aeb32d3db7c8f271ea42edecaa664736f6c63430008080033",
  "linkReferences": {},
  "deployedLinkReferences": {}
}