{
  "_format": "hh-sol-artifact-1",
  "contractName": "TimeswapV2PoolDeployer",
  "sourceName": "src/TimeswapV2PoolDeployer.sol",
  "abi": [
    {
      "inputs": [],
      "name": "parameter",
      "outputs": [
        {
          "internalType": "address",
          "name": "poolFactory",
          "type": "address"
        },
        {
          "internalType": "address",
          "name": "optionPair",
          "type": "address"
        },
        {
          "internalType": "uint256",
          "name": "transactionFee",
          "type": "uint256"
        },
        {
          "internalType": "uint256",
          "name": "protocolFee",
          "type": "uint256"
        }
      ],
      "stateMutability": "view",
      "type": "function"
    }
  ],
  "bytecode": "0x6080604052348015600f57600080fd5b5060b38061001e6000396000f3fe6080604052348015600f57600080fd5b506004361060285760003560e01c8063ad4d4e2914602d575b600080fd5b600054600154600254600354604e936001600160a01b039081169316919084565b604080516001600160a01b03958616815294909316602085015291830152606082015260800160405180910390f3fea2646970667358221220c25ba397be029e51d6129dfe4f29b0b1831d249c2fb77f8b8588386f0223dd7d64736f6c63430008080033",
  "linkReferences": {},
  "deployedLinkReferences": {}
}